{
  "_format": "hh-sol-artifact-1",
  "contractName": "bqBTC",
  "sourceName": "contracts/bqBTC.sol",
  "abi": [
    {
      "inputs": [
        {
          "internalType": "string",
          "name": "name",
          "type": "string"
        },
        {
          "internalType": "string",
          "name": "symbol",
          "type": "string"
        },
        {
          "internalType": "uint8",
          "name": "decimals_",
          "type": "uint8"
        },
        {
          "internalType": "uint256",
          "name": "initialSupply",
          "type": "uint256"
        },
        {
          "internalType": "address",
          "name": "_initialOwner",
          "type": "address"
        },
        {
          "internalType": "address",
          "name": "bscbtc",
          "type": "address"
        },
        {
          "internalType": "uint256",
          "name": "_minMintAmount",
          "type": "uint256"
        }
      ],
      "stateMutability": "nonpayable",
      "type": "constructor"
    },
    {
      "inputs": [
        {
          "internalType": "address",
          "name": "spender",
          "type": "address"
        },
        {
          "internalType": "uint256",
          "name": "allowance",
          "type": "uint256"
        },
        {
          "internalType": "uint256",
          "name": "needed",
          "type": "uint256"
        }
      ],
      "name": "ERC20InsufficientAllowance",
      "type": "error"
    },
    {
      "inputs": [
        {
          "internalType": "address",
          "name": "sender",
          "type": "address"
        },
        {
          "internalType": "uint256",
          "name": "balance",
          "type": "uint256"
        },
        {
          "internalType": "uint256",
          "name": "needed",
          "type": "uint256"
        }
      ],
      "name": "ERC20InsufficientBalance",
      "type": "error"
    },
    {
      "inputs": [
        {
          "internalType": "address",
          "name": "approver",
          "type": "address"
        }
      ],
      "name": "ERC20InvalidApprover",
      "type": "error"
    },
    {
      "inputs": [
        {
          "internalType": "address",
          "name": "receiver",
          "type": "address"
        }
      ],
      "name": "ERC20InvalidReceiver",
      "type": "error"
    },
    {
      "inputs": [
        {
          "internalType": "address",
          "name": "sender",
          "type": "address"
        }
      ],
      "name": "ERC20InvalidSender",
      "type": "error"
    },
    {
      "inputs": [
        {
          "internalType": "address",
          "name": "spender",
          "type": "address"
        }
      ],
      "name": "ERC20InvalidSpender",
      "type": "error"
    },
    {
      "inputs": [
        {
          "internalType": "address",
          "name": "owner",
          "type": "address"
        }
      ],
      "name": "OwnableInvalidOwner",
      "type": "error"
    },
    {
      "inputs": [
        {
          "internalType": "address",
          "name": "account",
          "type": "address"
        }
      ],
      "name": "OwnableUnauthorizedAccount",
      "type": "error"
    },
    {
      "anonymous": false,
      "inputs": [
        {
          "indexed": true,
          "internalType": "address",
          "name": "owner",
          "type": "address"
        },
        {
          "indexed": true,
          "internalType": "address",
          "name": "spender",
          "type": "address"
        },
        {
          "indexed": false,
          "internalType": "uint256",
          "name": "value",
          "type": "uint256"
        }
      ],
      "name": "Approval",
      "type": "event"
    },
    {
      "anonymous": false,
      "inputs": [
        {
          "indexed": true,
          "internalType": "address",
          "name": "previousOwner",
          "type": "address"
        },
        {
          "indexed": true,
          "internalType": "address",
          "name": "newOwner",
          "type": "address"
        }
      ],
      "name": "OwnershipTransferred",
      "type": "event"
    },
    {
      "anonymous": false,
      "inputs": [
        {
          "indexed": true,
          "internalType": "address",
          "name": "from",
          "type": "address"
        },
        {
          "indexed": true,
          "internalType": "address",
          "name": "to",
          "type": "address"
        },
        {
          "indexed": false,
          "internalType": "uint256",
          "name": "value",
          "type": "uint256"
        }
      ],
      "name": "Transfer",
      "type": "event"
    },
    {
      "inputs": [
        {
          "internalType": "address",
          "name": "owner",
          "type": "address"
        },
        {
          "internalType": "address",
          "name": "spender",
          "type": "address"
        }
      ],
      "name": "allowance",
      "outputs": [
        {
          "internalType": "uint256",
          "name": "",
          "type": "uint256"
        }
      ],
      "stateMutability": "view",
      "type": "function"
    },
    {
      "inputs": [
        {
          "internalType": "address",
          "name": "spender",
          "type": "address"
        },
        {
          "internalType": "uint256",
          "name": "amount",
          "type": "uint256"
        }
      ],
      "name": "approve",
      "outputs": [
        {
          "internalType": "bool",
          "name": "",
          "type": "bool"
        }
      ],
      "stateMutability": "nonpayable",
      "type": "function"
    },
    {
      "inputs": [
        {
          "internalType": "address",
          "name": "account",
          "type": "address"
        }
      ],
      "name": "balanceOf",
      "outputs": [
        {
          "internalType": "uint256",
          "name": "",
          "type": "uint256"
        }
      ],
      "stateMutability": "view",
      "type": "function"
    },
    {
      "inputs": [
        {
          "internalType": "address",
          "name": "account",
          "type": "address"
        },
        {
          "internalType": "uint256",
          "name": "amount",
          "type": "uint256"
        }
      ],
      "name": "bqMint",
      "outputs": [],
      "stateMutability": "nonpayable",
      "type": "function"
    },
    {
      "inputs": [],
      "name": "bscBTC",
      "outputs": [
        {
          "internalType": "contract IERC20",
          "name": "",
          "type": "address"
        }
      ],
      "stateMutability": "view",
      "type": "function"
    },
    {
      "inputs": [
        {
          "internalType": "address",
          "name": "account",
          "type": "address"
        },
        {
          "internalType": "uint256",
          "name": "amount",
          "type": "uint256"
        }
      ],
      "name": "burn",
      "outputs": [],
      "stateMutability": "nonpayable",
      "type": "function"
    },
    {
      "inputs": [],
      "name": "coverAddress",
      "outputs": [
        {
          "internalType": "address",
          "name": "",
          "type": "address"
        }
      ],
      "stateMutability": "view",
      "type": "function"
    },
    {
      "inputs": [],
      "name": "decimals",
      "outputs": [
        {
          "internalType": "uint8",
          "name": "",
          "type": "uint8"
        }
      ],
      "stateMutability": "view",
      "type": "function"
    },
    {
      "inputs": [],
      "name": "initialOwner",
      "outputs": [
        {
          "internalType": "address",
          "name": "",
          "type": "address"
        }
      ],
      "stateMutability": "view",
      "type": "function"
    },
    {
      "inputs": [],
      "name": "minMintAmount",
      "outputs": [
        {
          "internalType": "uint256",
          "name": "",
          "type": "uint256"
        }
      ],
      "stateMutability": "view",
      "type": "function"
    },
    {
      "inputs": [
        {
          "internalType": "address",
          "name": "account",
          "type": "address"
        },
        {
          "internalType": "uint256",
          "name": "amount",
          "type": "uint256"
        },
        {
          "internalType": "uint256",
          "name": "btcAmount",
          "type": "uint256"
        }
      ],
      "name": "mint",
      "outputs": [],
      "stateMutability": "payable",
      "type": "function"
    },
    {
      "inputs": [],
      "name": "name",
      "outputs": [
        {
          "internalType": "string",
          "name": "",
          "type": "string"
        }
      ],
      "stateMutability": "view",
      "type": "function"
    },
    {
      "inputs": [],
      "name": "owner",
      "outputs": [
        {
          "internalType": "address",
          "name": "",
          "type": "address"
        }
      ],
      "stateMutability": "view",
      "type": "function"
    },
    {
      "inputs": [],
      "name": "poolAddress",
      "outputs": [
        {
          "internalType": "address",
          "name": "",
          "type": "address"
        }
      ],
      "stateMutability": "view",
      "type": "function"
    },
    {
      "inputs": [],
      "name": "renounceOwnership",
      "outputs": [],
      "stateMutability": "nonpayable",
      "type": "function"
    },
    {
      "inputs": [
        {
          "internalType": "address",
          "name": "pool",
          "type": "address"
        },
        {
          "internalType": "address",
          "name": "cover",
          "type": "address"
        },
        {
          "internalType": "address",
          "name": "gov",
          "type": "address"
        }
      ],
      "name": "setPoolandCover",
      "outputs": [],
      "stateMutability": "nonpayable",
      "type": "function"
    },
    {
      "inputs": [],
      "name": "symbol",
      "outputs": [
        {
          "internalType": "string",
          "name": "",
          "type": "string"
        }
      ],
      "stateMutability": "view",
      "type": "function"
    },
    {
      "inputs": [],
      "name": "totalSupply",
      "outputs": [
        {
          "internalType": "uint256",
          "name": "",
          "type": "uint256"
        }
      ],
      "stateMutability": "view",
      "type": "function"
    },
    {
      "inputs": [
        {
          "internalType": "address",
          "name": "to",
          "type": "address"
        },
        {
          "internalType": "uint256",
          "name": "amount",
          "type": "uint256"
        }
      ],
      "name": "transfer",
      "outputs": [
        {
          "internalType": "bool",
          "name": "",
          "type": "bool"
        }
      ],
      "stateMutability": "nonpayable",
      "type": "function"
    },
    {
      "inputs": [
        {
          "internalType": "address",
          "name": "from",
          "type": "address"
        },
        {
          "internalType": "address",
          "name": "to",
          "type": "address"
        },
        {
          "internalType": "uint256",
          "name": "amount",
          "type": "uint256"
        }
      ],
      "name": "transferFrom",
      "outputs": [
        {
          "internalType": "bool",
          "name": "",
          "type": "bool"
        }
      ],
      "stateMutability": "nonpayable",
      "type": "function"
    },
    {
      "inputs": [
        {
          "internalType": "address",
          "name": "newOwner",
          "type": "address"
        }
      ],
      "name": "transferOwnership",
      "outputs": [],
      "stateMutability": "nonpayable",
      "type": "function"
    }
  ],
  "bytecode": "0x60806040523480156200001157600080fd5b5060405162002eab38038062002eab83398181016040528101906200003791906200079e565b82878781600390816200004b919062000ad0565b5080600490816200005d919062000ad0565b505050600073ffffffffffffffffffffffffffffffffffffffff168173ffffffffffffffffffffffffffffffffffffffff1603620000d55760006040517f1e4fbdf7000000000000000000000000000000000000000000000000000000008152600401620000cc919062000bc8565b60405180910390fd5b620000e681620001aa60201b60201c565b5084600560146101000a81548160ff021916908360ff1602179055506200011433856200027060201b60201c565b82600860006101000a81548173ffffffffffffffffffffffffffffffffffffffff021916908373ffffffffffffffffffffffffffffffffffffffff16021790555081600960006101000a81548173ffffffffffffffffffffffffffffffffffffffff021916908373ffffffffffffffffffffffffffffffffffffffff16021790555080600a819055505050505050505062000cba565b6000600560009054906101000a900473ffffffffffffffffffffffffffffffffffffffff16905081600560006101000a81548173ffffffffffffffffffffffffffffffffffffffff021916908373ffffffffffffffffffffffffffffffffffffffff1602179055508173ffffffffffffffffffffffffffffffffffffffff168173ffffffffffffffffffffffffffffffffffffffff167f8be0079c531659141344cd1fd0a4f28419497f9722a3daafe3b4186f6b6457e060405160405180910390a35050565b600073ffffffffffffffffffffffffffffffffffffffff168273ffffffffffffffffffffffffffffffffffffffff1603620002e55760006040517fec442f05000000000000000000000000000000000000000000000000000000008152600401620002dc919062000bc8565b60405180910390fd5b620002f960008383620002fd60201b60201c565b5050565b600073ffffffffffffffffffffffffffffffffffffffff168373ffffffffffffffffffffffffffffffffffffffff16036200035357806002600082825462000346919062000c14565b9250508190555062000429565b60008060008573ffffffffffffffffffffffffffffffffffffffff1673ffffffffffffffffffffffffffffffffffffffff16815260200190815260200160002054905081811015620003e2578381836040517fe450d38c000000000000000000000000000000000000000000000000000000008152600401620003d99392919062000c60565b60405180910390fd5b8181036000808673ffffffffffffffffffffffffffffffffffffffff1673ffffffffffffffffffffffffffffffffffffffff16815260200190815260200160002081905550505b600073ffffffffffffffffffffffffffffffffffffffff168273ffffffffffffffffffffffffffffffffffffffff1603620004745780600260008282540392505081905550620004c1565b806000808473ffffffffffffffffffffffffffffffffffffffff1673ffffffffffffffffffffffffffffffffffffffff168152602001908152602001600020600082825401925050819055505b8173ffffffffffffffffffffffffffffffffffffffff168373ffffffffffffffffffffffffffffffffffffffff167fddf252ad1be2c89b69c2b068fc378daa952ba7f163c4a11628f55a4df523b3ef8360405162000520919062000c9d565b60405180910390a3505050565b6000604051905090565b600080fd5b600080fd5b600080fd5b600080fd5b6000601f19601f8301169050919050565b7f4e487b7100000000000000000000000000000000000000000000000000000000600052604160045260246000fd5b62000596826200054b565b810181811067ffffffffffffffff82111715620005b857620005b76200055c565b5b80604052505050565b6000620005cd6200052d565b9050620005db82826200058b565b919050565b600067ffffffffffffffff821115620005fe57620005fd6200055c565b5b62000609826200054b565b9050602081019050919050565b60005b838110156200063657808201518184015260208101905062000619565b60008484015250505050565b6000620006596200065384620005e0565b620005c1565b90508281526020810184848401111562000678576200067762000546565b5b6200068584828562000616565b509392505050565b600082601f830112620006a557620006a462000541565b5b8151620006b784826020860162000642565b91505092915050565b600060ff82169050919050565b620006d881620006c0565b8114620006e457600080fd5b50565b600081519050620006f881620006cd565b92915050565b6000819050919050565b6200071381620006fe565b81146200071f57600080fd5b50565b600081519050620007338162000708565b92915050565b600073ffffffffffffffffffffffffffffffffffffffff82169050919050565b6000620007668262000739565b9050919050565b620007788162000759565b81146200078457600080fd5b50565b60008151905062000798816200076d565b92915050565b600080600080600080600060e0888a031215620007c057620007bf62000537565b5b600088015167ffffffffffffffff811115620007e157620007e06200053c565b5b620007ef8a828b016200068d565b975050602088015167ffffffffffffffff8111156200081357620008126200053c565b5b620008218a828b016200068d565b9650506040620008348a828b01620006e7565b9550506060620008478a828b0162000722565b94505060806200085a8a828b0162000787565b93505060a06200086d8a828b0162000787565b92505060c0620008808a828b0162000722565b91505092959891949750929550565b600081519050919050565b7f4e487b7100000000000000000000000000000000000000000000000000000000600052602260045260246000fd5b60006002820490506001821680620008e257607f821691505b602082108103620008f857620008f76200089a565b5b50919050565b60008190508160005260206000209050919050565b60006020601f8301049050919050565b600082821b905092915050565b600060088302620009627fffffffffffffffffffffffffffffffffffffffffffffffffffffffffffffffff8262000923565b6200096e868362000923565b95508019841693508086168417925050509392505050565b6000819050919050565b6000620009b1620009ab620009a584620006fe565b62000986565b620006fe565b9050919050565b6000819050919050565b620009cd8362000990565b620009e5620009dc82620009b8565b84845462000930565b825550505050565b600090565b620009fc620009ed565b62000a09818484620009c2565b505050565b5b8181101562000a315762000a25600082620009f2565b60018101905062000a0f565b5050565b601f82111562000a805762000a4a81620008fe565b62000a558462000913565b8101602085101562000a65578190505b62000a7d62000a748562000913565b83018262000a0e565b50505b505050565b600082821c905092915050565b600062000aa56000198460080262000a85565b1980831691505092915050565b600062000ac0838362000a92565b9150826002028217905092915050565b62000adb826200088f565b67ffffffffffffffff81111562000af75762000af66200055c565b5b62000b038254620008c9565b62000b1082828562000a35565b600060209050601f83116001811462000b48576000841562000b33578287015190505b62000b3f858262000ab2565b86555062000baf565b601f19841662000b5886620008fe565b60005b8281101562000b825784890151825560018201915060208501945060208101905062000b5b565b8683101562000ba2578489015162000b9e601f89168262000a92565b8355505b6001600288020188555050505b505050505050565b62000bc28162000759565b82525050565b600060208201905062000bdf600083018462000bb7565b92915050565b7f4e487b7100000000000000000000000000000000000000000000000000000000600052601160045260246000fd5b600062000c2182620006fe565b915062000c2e83620006fe565b925082820190508082111562000c495762000c4862000be5565b5b92915050565b62000c5a81620006fe565b82525050565b600060608201905062000c77600083018662000bb7565b62000c86602083018562000c4f565b62000c95604083018462000c4f565b949350505050565b600060208201905062000cb4600083018462000c4f565b92915050565b6121e18062000cca6000396000f3fe60806040526004361061012a5760003560e01c8063715018a6116100ab578063a6340e8a1161006f578063a6340e8a146103c5578063a9059cbb146103ee578063c743c4c61461042b578063dd62ed3e14610456578063e2094eda14610493578063f2fde38b146104bc5761012a565b8063715018a6146103045780638c994c2f1461031b5780638da5cb5b1461034657806395d89b41146103715780639dc29fac1461039c5761012a565b806318160ddd116100f257806318160ddd1461020957806323b872dd1461023457806329ba7bb214610271578063313ce5671461029c57806370a08231146102c75761012a565b806301e9d7571461012f57806306fdde031461015a578063095ea7b314610185578063156e29f6146101c25780631755ff21146101de575b600080fd5b34801561013b57600080fd5b506101446104e5565b60405161015191906118a8565b60405180910390f35b34801561016657600080fd5b5061016f6104eb565b60405161017c9190611953565b60405180910390f35b34801561019157600080fd5b506101ac60048036038101906101a79190611a04565b61057d565b6040516101b99190611a5f565b60405180910390f35b6101dc60048036038101906101d79190611a7a565b610591565b005b3480156101ea57600080fd5b506101f3610726565b6040516102009190611adc565b60405180910390f35b34801561021557600080fd5b5061021e61074c565b60405161022b91906118a8565b60405180910390f35b34801561024057600080fd5b5061025b60048036038101906102569190611af7565b610756565b6040516102689190611a5f565b60405180910390f35b34801561027d57600080fd5b5061028661076c565b6040516102939190611adc565b60405180910390f35b3480156102a857600080fd5b506102b1610792565b6040516102be9190611b66565b60405180910390f35b3480156102d357600080fd5b506102ee60048036038101906102e99190611b81565b6107a9565b6040516102fb91906118a8565b60405180910390f35b34801561031057600080fd5b506103196107bb565b005b34801561032757600080fd5b506103306107cf565b60405161033d9190611c0d565b60405180910390f35b34801561035257600080fd5b5061035b6107f5565b6040516103689190611adc565b60405180910390f35b34801561037d57600080fd5b5061038661081f565b6040516103939190611953565b60405180910390f35b3480156103a857600080fd5b506103c360048036038101906103be9190611a04565b6108b1565b005b3480156103d157600080fd5b506103ec60048036038101906103e79190611c28565b6109ff565b005b3480156103fa57600080fd5b5061041560048036038101906104109190611a04565b610cf6565b6040516104229190611a5f565b60405180910390f35b34801561043757600080fd5b50610440610d0a565b60405161044d9190611adc565b60405180910390f35b34801561046257600080fd5b5061047d60048036038101906104789190611c7b565b610d30565b60405161048a91906118a8565b60405180910390f35b34801561049f57600080fd5b506104ba60048036038101906104b59190611a04565b610db7565b005b3480156104c857600080fd5b506104e360048036038101906104de9190611b81565b610f5d565b005b600a5481565b6060600380546104fa90611cea565b80601f016020809104026020016040519081016040528092919081815260200182805461052690611cea565b80156105735780601f1061054857610100808354040283529160200191610573565b820191906000526020600020905b81548152906001019060200180831161055657829003601f168201915b5050505050905090565b60006105898383610fe3565b905092915050565b6000600a5434101590506000816106cd57600a548310156105e7576040517f08c379a00000000000000000000000000000000000000000000000000000000081526004016105de90611d67565b60405180910390fd5b600960009054906101000a900473ffffffffffffffffffffffffffffffffffffffff1673ffffffffffffffffffffffffffffffffffffffff166323b872dd3330866040518463ffffffff1660e01b815260040161064693929190611d87565b6020604051808303816000875af1158015610665573d6000803e3d6000fd5b505050506040513d601f19601f820116820180604052508101906106899190611dea565b6106c8576040517f08c379a00000000000000000000000000000000000000000000000000000000081526004016106bf90611e89565b60405180910390fd5b600190505b81806106d65750805b610715576040517f08c379a000000000000000000000000000000000000000000000000000000000815260040161070c90611ef5565b60405180910390fd5b61071f8585611006565b5050505050565b600660009054906101000a900473ffffffffffffffffffffffffffffffffffffffff1681565b6000600254905090565b6000610763848484611088565b90509392505050565b600860009054906101000a900473ffffffffffffffffffffffffffffffffffffffff1681565b6000600560149054906101000a900460ff16905090565b60006107b4826110b7565b9050919050565b6107c36110ff565b6107cd6000611186565b565b600960009054906101000a900473ffffffffffffffffffffffffffffffffffffffff1681565b6000600560009054906101000a900473ffffffffffffffffffffffffffffffffffffffff16905090565b60606004805461082e90611cea565b80601f016020809104026020016040519081016040528092919081815260200182805461085a90611cea565b80156108a75780601f1061087c576101008083540402835291602001916108a7565b820191906000526020600020905b81548152906001019060200180831161088a57829003601f168201915b5050505050905090565b600860009054906101000a900473ffffffffffffffffffffffffffffffffffffffff1673ffffffffffffffffffffffffffffffffffffffff163373ffffffffffffffffffffffffffffffffffffffff16148061095a5750600660009054906101000a900473ffffffffffffffffffffffffffffffffffffffff1673ffffffffffffffffffffffffffffffffffffffff163373ffffffffffffffffffffffffffffffffffffffff16145b806109b25750600760009054906101000a900473ffffffffffffffffffffffffffffffffffffffff1673ffffffffffffffffffffffffffffffffffffffff163373ffffffffffffffffffffffffffffffffffffffff16145b6109f1576040517f08c379a00000000000000000000000000000000000000000000000000000000081526004016109e890611f87565b60405180910390fd5b6109fb828261124c565b5050565b610a076110ff565b600073ffffffffffffffffffffffffffffffffffffffff168373ffffffffffffffffffffffffffffffffffffffff1614158015610a715750600073ffffffffffffffffffffffffffffffffffffffff168273ffffffffffffffffffffffffffffffffffffffff1614155b8015610aaa5750600073ffffffffffffffffffffffffffffffffffffffff168173ffffffffffffffffffffffffffffffffffffffff1614155b610ae9576040517f08c379a0000000000000000000000000000000000000000000000000000000008152600401610ae090611ff3565b60405180910390fd5b600073ffffffffffffffffffffffffffffffffffffffff16600660009054906101000a900473ffffffffffffffffffffffffffffffffffffffff1673ffffffffffffffffffffffffffffffffffffffff16148015610b955750600073ffffffffffffffffffffffffffffffffffffffff16600760009054906101000a900473ffffffffffffffffffffffffffffffffffffffff1673ffffffffffffffffffffffffffffffffffffffff16145b8015610bef5750600073ffffffffffffffffffffffffffffffffffffffff16600b60009054906101000a900473ffffffffffffffffffffffffffffffffffffffff1673ffffffffffffffffffffffffffffffffffffffff16145b610c2e576040517f08c379a0000000000000000000000000000000000000000000000000000000008152600401610c259061205f565b60405180910390fd5b81600760006101000a81548173ffffffffffffffffffffffffffffffffffffffff021916908373ffffffffffffffffffffffffffffffffffffffff16021790555082600660006101000a81548173ffffffffffffffffffffffffffffffffffffffff021916908373ffffffffffffffffffffffffffffffffffffffff16021790555080600b60006101000a81548173ffffffffffffffffffffffffffffffffffffffff021916908373ffffffffffffffffffffffffffffffffffffffff160217905550505050565b6000610d0283836112ce565b905092915050565b600760009054906101000a900473ffffffffffffffffffffffffffffffffffffffff1681565b6000600160008473ffffffffffffffffffffffffffffffffffffffff1673ffffffffffffffffffffffffffffffffffffffff16815260200190815260200160002060008373ffffffffffffffffffffffffffffffffffffffff1673ffffffffffffffffffffffffffffffffffffffff16815260200190815260200160002054905092915050565b600760009054906101000a900473ffffffffffffffffffffffffffffffffffffffff1673ffffffffffffffffffffffffffffffffffffffff163373ffffffffffffffffffffffffffffffffffffffff161480610e605750600860009054906101000a900473ffffffffffffffffffffffffffffffffffffffff1673ffffffffffffffffffffffffffffffffffffffff163373ffffffffffffffffffffffffffffffffffffffff16145b80610eb85750600b60009054906101000a900473ffffffffffffffffffffffffffffffffffffffff1673ffffffffffffffffffffffffffffffffffffffff163373ffffffffffffffffffffffffffffffffffffffff16145b80610f105750600660009054906101000a900473ffffffffffffffffffffffffffffffffffffffff1673ffffffffffffffffffffffffffffffffffffffff163373ffffffffffffffffffffffffffffffffffffffff16145b610f4f576040517f08c379a0000000000000000000000000000000000000000000000000000000008152600401610f46906120f1565b60405180910390fd5b610f598282611006565b5050565b610f656110ff565b600073ffffffffffffffffffffffffffffffffffffffff168173ffffffffffffffffffffffffffffffffffffffff1603610fd75760006040517f1e4fbdf7000000000000000000000000000000000000000000000000000000008152600401610fce9190611adc565b60405180910390fd5b610fe081611186565b50565b600080610fee6112f1565b9050610ffb8185856112f9565b600191505092915050565b600073ffffffffffffffffffffffffffffffffffffffff168273ffffffffffffffffffffffffffffffffffffffff16036110785760006040517fec442f0500000000000000000000000000000000000000000000000000000000815260040161106f9190611adc565b60405180910390fd5b6110846000838361130b565b5050565b6000806110936112f1565b90506110a0858285611530565b6110ab8585856115c4565b60019150509392505050565b60008060008373ffffffffffffffffffffffffffffffffffffffff1673ffffffffffffffffffffffffffffffffffffffff168152602001908152602001600020549050919050565b6111076112f1565b73ffffffffffffffffffffffffffffffffffffffff166111256107f5565b73ffffffffffffffffffffffffffffffffffffffff1614611184576111486112f1565b6040517f118cdaa700000000000000000000000000000000000000000000000000000000815260040161117b9190611adc565b60405180910390fd5b565b6000600560009054906101000a900473ffffffffffffffffffffffffffffffffffffffff16905081600560006101000a81548173ffffffffffffffffffffffffffffffffffffffff021916908373ffffffffffffffffffffffffffffffffffffffff1602179055508173ffffffffffffffffffffffffffffffffffffffff168173ffffffffffffffffffffffffffffffffffffffff167f8be0079c531659141344cd1fd0a4f28419497f9722a3daafe3b4186f6b6457e060405160405180910390a35050565b600073ffffffffffffffffffffffffffffffffffffffff168273ffffffffffffffffffffffffffffffffffffffff16036112be5760006040517f96c6fd1e0000000000000000000000000000000000000000000000000000000081526004016112b59190611adc565b60405180910390fd5b6112ca8260008361130b565b5050565b6000806112d96112f1565b90506112e68185856115c4565b600191505092915050565b600033905090565b61130683838360016116b8565b505050565b600073ffffffffffffffffffffffffffffffffffffffff168373ffffffffffffffffffffffffffffffffffffffff160361135d5780600260008282546113519190612140565b92505081905550611430565b60008060008573ffffffffffffffffffffffffffffffffffffffff1673ffffffffffffffffffffffffffffffffffffffff168152602001908152602001600020549050818110156113e9578381836040517fe450d38c0000000000000000000000000000000000000000000000000000000081526004016113e093929190612174565b60405180910390fd5b8181036000808673ffffffffffffffffffffffffffffffffffffffff1673ffffffffffffffffffffffffffffffffffffffff16815260200190815260200160002081905550505b600073ffffffffffffffffffffffffffffffffffffffff168273ffffffffffffffffffffffffffffffffffffffff160361147957806002600082825403925050819055506114c6565b806000808473ffffffffffffffffffffffffffffffffffffffff1673ffffffffffffffffffffffffffffffffffffffff168152602001908152602001600020600082825401925050819055505b8173ffffffffffffffffffffffffffffffffffffffff168373ffffffffffffffffffffffffffffffffffffffff167fddf252ad1be2c89b69c2b068fc378daa952ba7f163c4a11628f55a4df523b3ef8360405161152391906118a8565b60405180910390a3505050565b600061153c8484610d30565b90507fffffffffffffffffffffffffffffffffffffffffffffffffffffffffffffffff81146115be57818110156115ae578281836040517ffb8f41b20000000000000000000000000000000000000000000000000000000081526004016115a593929190612174565b60405180910390fd5b6115bd848484840360006116b8565b5b50505050565b600073ffffffffffffffffffffffffffffffffffffffff168373ffffffffffffffffffffffffffffffffffffffff16036116365760006040517f96c6fd1e00000000000000000000000000000000000000000000000000000000815260040161162d9190611adc565b60405180910390fd5b600073ffffffffffffffffffffffffffffffffffffffff168273ffffffffffffffffffffffffffffffffffffffff16036116a85760006040517fec442f0500000000000000000000000000000000000000000000000000000000815260040161169f9190611adc565b60405180910390fd5b6116b383838361130b565b505050565b600073ffffffffffffffffffffffffffffffffffffffff168473ffffffffffffffffffffffffffffffffffffffff160361172a5760006040517fe602df050000000000000000000000000000000000000000000000000000000081526004016117219190611adc565b60405180910390fd5b600073ffffffffffffffffffffffffffffffffffffffff168373ffffffffffffffffffffffffffffffffffffffff160361179c5760006040517f94280d620000000000000000000000000000000000000000000000000000000081526004016117939190611adc565b60405180910390fd5b81600160008673ffffffffffffffffffffffffffffffffffffffff1673ffffffffffffffffffffffffffffffffffffffff16815260200190815260200160002060008573ffffffffffffffffffffffffffffffffffffffff1673ffffffffffffffffffffffffffffffffffffffff168152602001908152602001600020819055508015611889578273ffffffffffffffffffffffffffffffffffffffff168473ffffffffffffffffffffffffffffffffffffffff167f8c5be1e5ebec7d5bd14f71427d1e84f3dd0314c0f7b2291e5b200ac8c7c3b9258460405161188091906118a8565b60405180910390a35b50505050565b6000819050919050565b6118a28161188f565b82525050565b60006020820190506118bd6000830184611899565b92915050565b600081519050919050565b600082825260208201905092915050565b60005b838110156118fd5780820151818401526020810190506118e2565b60008484015250505050565b6000601f19601f8301169050919050565b6000611925826118c3565b61192f81856118ce565b935061193f8185602086016118df565b61194881611909565b840191505092915050565b6000602082019050818103600083015261196d818461191a565b905092915050565b600080fd5b600073ffffffffffffffffffffffffffffffffffffffff82169050919050565b60006119a58261197a565b9050919050565b6119b58161199a565b81146119c057600080fd5b50565b6000813590506119d2816119ac565b92915050565b6119e18161188f565b81146119ec57600080fd5b50565b6000813590506119fe816119d8565b92915050565b60008060408385031215611a1b57611a1a611975565b5b6000611a29858286016119c3565b9250506020611a3a858286016119ef565b9150509250929050565b60008115159050919050565b611a5981611a44565b82525050565b6000602082019050611a746000830184611a50565b92915050565b600080600060608486031215611a9357611a92611975565b5b6000611aa1868287016119c3565b9350506020611ab2868287016119ef565b9250506040611ac3868287016119ef565b9150509250925092565b611ad68161199a565b82525050565b6000602082019050611af16000830184611acd565b92915050565b600080600060608486031215611b1057611b0f611975565b5b6000611b1e868287016119c3565b9350506020611b2f868287016119c3565b9250506040611b40868287016119ef565b9150509250925092565b600060ff82169050919050565b611b6081611b4a565b82525050565b6000602082019050611b7b6000830184611b57565b92915050565b600060208284031215611b9757611b96611975565b5b6000611ba5848285016119c3565b91505092915050565b6000819050919050565b6000611bd3611bce611bc98461197a565b611bae565b61197a565b9050919050565b6000611be582611bb8565b9050919050565b6000611bf782611bda565b9050919050565b611c0781611bec565b82525050565b6000602082019050611c226000830184611bfe565b92915050565b600080600060608486031215611c4157611c40611975565b5b6000611c4f868287016119c3565b9350506020611c60868287016119c3565b9250506040611c71868287016119c3565b9150509250925092565b60008060408385031215611c9257611c91611975565b5b6000611ca0858286016119c3565b9250506020611cb1858286016119c3565b9150509250929050565b7f4e487b7100000000000000000000000000000000000000000000000000000000600052602260045260246000fd5b60006002820490506001821680611d0257607f821691505b602082108103611d1557611d14611cbb565b5b50919050565b7f616d6f756e74206d7573742062652067726561746572207468616e2030000000600082015250565b6000611d51601d836118ce565b9150611d5c82611d1b565b602082019050919050565b60006020820190508181036000830152611d8081611d44565b9050919050565b6000606082019050611d9c6000830186611acd565b611da96020830185611acd565b611db66040830184611899565b949350505050565b611dc781611a44565b8114611dd257600080fd5b50565b600081519050611de481611dbe565b92915050565b600060208284031215611e0057611dff611975565b5b6000611e0e84828501611dd5565b91505092915050565b7f496e73756666696369656e742042544320746f6b656e732073656e7420746f2060008201527f6d696e7400000000000000000000000000000000000000000000000000000000602082015250565b6000611e736024836118ce565b9150611e7e82611e17565b604082019050919050565b60006020820190508181036000830152611ea281611e66565b9050919050565b7f496e73756666696369656e7420746f6b656e732073656e7420746f206d696e74600082015250565b6000611edf6020836118ce565b9150611eea82611ea9565b602082019050919050565b60006020820190508181036000830152611f0e81611ed2565b9050919050565b7f6e6f7420617574686f72697a656420746f2063616c6c2068652066756e63746960008201527f6f6e000000000000000000000000000000000000000000000000000000000000602082015250565b6000611f716022836118ce565b9150611f7c82611f15565b604082019050919050565b60006020820190508181036000830152611fa081611f64565b9050919050565b7f416464726573732063616e7420626520656d7074790000000000000000000000600082015250565b6000611fdd6015836118ce565b9150611fe882611fa7565b602082019050919050565b6000602082019050818103600083015261200c81611fd0565b9050919050565b7f506f6f6c206164647265737320616c7265616479207365740000000000000000600082015250565b60006120496018836118ce565b915061205482612013565b602082019050919050565b600060208201905081810360008301526120788161203c565b9050919050565b7f43616c6c6572206973206e6f742074686520676f7665726e616e636520636f6e60008201527f7472616374000000000000000000000000000000000000000000000000000000602082015250565b60006120db6025836118ce565b91506120e68261207f565b604082019050919050565b6000602082019050818103600083015261210a816120ce565b9050919050565b7f4e487b7100000000000000000000000000000000000000000000000000000000600052601160045260246000fd5b600061214b8261188f565b91506121568361188f565b925082820190508082111561216e5761216d612111565b5b92915050565b60006060820190506121896000830186611acd565b6121966020830185611899565b6121a36040830184611899565b94935050505056fea2646970667358221220f9f2b3bdddace2a1d8e546c536584a931c3cf3ed9247d35bc9b18f08eecec71264736f6c63430008180033",
  "linkReferences": {},
  "deployedLinkReferences": {}
}