{"contracts/InsuranceCover.sol":{"InsuranceCover":{"abi":[{"inputs":[{"internalType":"address","name":"_lpContract","type":"address"},{"internalType":"address","name":"_initialOwner","type":"address"},{"internalType":"address","name":"_governance","type":"address"},{"internalType":"address","name":"_bqBTC","type":"address"}],"stateMutability":"nonpayable","type":"constructor"},{"inputs":[],"name":"CoverNotAvailable","type":"error"},{"inputs":[],"name":"InsufficientPoolBalance","type":"error"},{"inputs":[],"name":"InvalidAmount","type":"error"},{"inputs":[],"name":"InvalidCoverDuration","type":"error"},{"inputs":[],"name":"LpNotActive","type":"error"},{"inputs":[],"name":"NameAlreadyExists","type":"error"},{"inputs":[],"name":"NoClaimableReward","type":"error"},{"inputs":[{"internalType":"address","name":"owner","type":"address"}],"name":"OwnableInvalidOwner","type":"error"},{"inputs":[{"internalType":"address","name":"account","type":"address"}],"name":"OwnableUnauthorizedAccount","type":"error"},{"inputs":[],"name":"ReentrancyGuardReentrantCall","type":"error"},{"inputs":[],"name":"UnsupportedCoverType","type":"error"},{"inputs":[],"name":"UserHaveAlreadyPurchasedCover","type":"error"},{"inputs":[],"name":"WrongPool","type":"error"},{"anonymous":false,"inputs":[{"indexed":true,"internalType":"uint256","name":"coverId","type":"uint256"},{"indexed":false,"internalType":"string","name":"name","type":"string"},{"indexed":false,"internalType":"enum CoverLib.RiskType","name":"riskType","type":"uint8"}],"name":"CoverCreated","type":"event"},{"anonymous":false,"inputs":[{"indexed":true,"internalType":"address","name":"user","type":"address"},{"indexed":false,"internalType":"uint256","name":"coverValue","type":"uint256"},{"indexed":false,"internalType":"uint256","name":"coverFee","type":"uint256"},{"indexed":false,"internalType":"enum CoverLib.RiskType","name":"riskType","type":"uint8"}],"name":"CoverPurchased","type":"event"},{"anonymous":false,"inputs":[{"indexed":true,"internalType":"uint256","name":"coverId","type":"uint256"},{"indexed":false,"internalType":"string","name":"coverName","type":"string"},{"indexed":false,"internalType":"enum CoverLib.RiskType","name":"riskType","type":"uint8"}],"name":"CoverUpdated","type":"event"},{"anonymous":false,"inputs":[{"indexed":true,"internalType":"address","name":"previousOwner","type":"address"},{"indexed":true,"internalType":"address","name":"newOwner","type":"address"}],"name":"OwnershipTransferred","type":"event"},{"anonymous":false,"inputs":[{"indexed":true,"internalType":"address","name":"user","type":"address"},{"indexed":true,"internalType":"uint256","name":"poolId","type":"uint256"},{"indexed":false,"internalType":"uint256","name":"amount","type":"uint256"}],"name":"PayoutClaimed","type":"event"},{"inputs":[{"internalType":"address","name":"","type":"address"},{"internalType":"uint256","name":"","type":"uint256"}],"name":"NextLpClaimTime","outputs":[{"internalType":"uint256","name":"","type":"uint256"}],"stateMutability":"view","type":"function"},{"inputs":[],"name":"bqBTC","outputs":[{"internalType":"contract IbqBTC","name":"","type":"address"}],"stateMutability":"view","type":"function"},{"inputs":[],"name":"bqBTCAddress","outputs":[{"internalType":"address","name":"","type":"address"}],"stateMutability":"view","type":"function"},{"inputs":[{"internalType":"uint256","name":"_poolId","type":"uint256"}],"name":"claimPayoutForLP","outputs":[],"stateMutability":"nonpayable","type":"function"},{"inputs":[],"name":"coverCount","outputs":[{"internalType":"uint256","name":"","type":"uint256"}],"stateMutability":"view","type":"function"},{"inputs":[{"internalType":"uint256","name":"","type":"uint256"}],"name":"coverExists","outputs":[{"internalType":"bool","name":"","type":"bool"}],"stateMutability":"view","type":"function"},{"inputs":[],"name":"coverFeeBalance","outputs":[{"internalType":"uint256","name":"","type":"uint256"}],"stateMutability":"view","type":"function"},{"inputs":[{"internalType":"uint256","name":"","type":"uint256"}],"name":"coverIds","outputs":[{"internalType":"uint256","name":"","type":"uint256"}],"stateMutability":"view","type":"function"},{"inputs":[{"internalType":"uint256","name":"","type":"uint256"}],"name":"covers","outputs":[{"internalType":"uint256","name":"id","type":"uint256"},{"internalType":"string","name":"coverName","type":"string"},{"internalType":"enum CoverLib.RiskType","name":"riskType","type":"uint8"},{"internalType":"string","name":"chains","type":"string"},{"internalType":"uint256","name":"capacity","type":"uint256"},{"internalType":"uint256","name":"cost","type":"uint256"},{"internalType":"uint256","name":"capacityAmount","type":"uint256"},{"internalType":"uint256","name":"coverValues","type":"uint256"},{"internalType":"uint256","name":"maxAmount","type":"uint256"},{"internalType":"uint256","name":"poolId","type":"uint256"},{"internalType":"string","name":"CID","type":"string"}],"stateMutability":"view","type":"function"},{"inputs":[{"internalType":"uint256","name":"coverId","type":"uint256"},{"internalType":"string","name":"_cid","type":"string"},{"internalType":"enum CoverLib.RiskType","name":"_riskType","type":"uint8"},{"internalType":"string","name":"_coverName","type":"string"},{"internalType":"string","name":"_chains","type":"string"},{"internalType":"uint256","name":"_capacity","type":"uint256"},{"internalType":"uint256","name":"_cost","type":"uint256"},{"internalType":"uint256","name":"_poolId","type":"uint256"}],"name":"createCover","outputs":[],"stateMutability":"nonpayable","type":"function"},{"inputs":[{"internalType":"address","name":"_user","type":"address"}],"name":"deleteExpiredUserCovers","outputs":[],"stateMutability":"nonpayable","type":"function"},{"inputs":[],"name":"getAllAvailableCovers","outputs":[{"components":[{"internalType":"uint256","name":"id","type":"uint256"},{"internalType":"string","name":"coverName","type":"string"},{"internalType":"enum CoverLib.RiskType","name":"riskType","type":"uint8"},{"internalType":"string","name":"chains","type":"string"},{"internalType":"uint256","name":"capacity","type":"uint256"},{"internalType":"uint256","name":"cost","type":"uint256"},{"internalType":"uint256","name":"capacityAmount","type":"uint256"},{"internalType":"uint256","name":"coverValues","type":"uint256"},{"internalType":"uint256","name":"maxAmount","type":"uint256"},{"internalType":"uint256","name":"poolId","type":"uint256"},{"internalType":"string","name":"CID","type":"string"}],"internalType":"struct CoverLib.Cover[]","name":"","type":"tuple[]"}],"stateMutability":"view","type":"function"},{"inputs":[],"name":"getAllParticipants","outputs":[{"internalType":"address[]","name":"","type":"address[]"}],"stateMutability":"view","type":"function"},{"inputs":[{"internalType":"address","name":"user","type":"address"}],"name":"getAllUserCovers","outputs":[{"components":[{"internalType":"address","name":"user","type":"address"},{"internalType":"uint256","name":"coverId","type":"uint256"},{"internalType":"enum CoverLib.RiskType","name":"riskType","type":"uint8"},{"internalType":"string","name":"coverName","type":"string"},{"internalType":"uint256","name":"coverValue","type":"uint256"},{"internalType":"uint256","name":"claimPaid","type":"uint256"},{"internalType":"uint256","name":"coverPeriod","type":"uint256"},{"internalType":"uint256","name":"endDay","type":"uint256"},{"internalType":"bool","name":"isActive","type":"bool"}],"internalType":"struct CoverLib.GenericCoverInfo[]","name":"","type":"tuple[]"}],"stateMutability":"view","type":"function"},{"inputs":[],"name":"getCoverFeeBalance","outputs":[{"internalType":"uint256","name":"","type":"uint256"}],"stateMutability":"view","type":"function"},{"inputs":[{"internalType":"uint256","name":"_coverId","type":"uint256"}],"name":"getCoverInfo","outputs":[{"components":[{"internalType":"uint256","name":"id","type":"uint256"},{"internalType":"string","name":"coverName","type":"string"},{"internalType":"enum CoverLib.RiskType","name":"riskType","type":"uint8"},{"internalType":"string","name":"chains","type":"string"},{"internalType":"uint256","name":"capacity","type":"uint256"},{"internalType":"uint256","name":"cost","type":"uint256"},{"internalType":"uint256","name":"capacityAmount","type":"uint256"},{"internalType":"uint256","name":"coverValues","type":"uint256"},{"internalType":"uint256","name":"maxAmount","type":"uint256"},{"internalType":"uint256","name":"poolId","type":"uint256"},{"internalType":"string","name":"CID","type":"string"}],"internalType":"struct CoverLib.Cover","name":"","type":"tuple"}],"stateMutability":"view","type":"function"},{"inputs":[{"internalType":"address","name":"user","type":"address"},{"internalType":"uint256","name":"_poolId","type":"uint256"}],"name":"getDepositClaimableDays","outputs":[{"internalType":"uint256","name":"","type":"uint256"}],"stateMutability":"view","type":"function"},{"inputs":[{"internalType":"address","name":"user","type":"address"},{"internalType":"uint256","name":"_poolId","type":"uint256"}],"name":"getLastClaimTime","outputs":[{"internalType":"uint256","name":"","type":"uint256"}],"stateMutability":"view","type":"function"},{"inputs":[{"internalType":"address","name":"user","type":"address"},{"internalType":"uint256","name":"_coverId","type":"uint256"}],"name":"getUserCoverInfo","outputs":[{"components":[{"internalType":"address","name":"user","type":"address"},{"internalType":"uint256","name":"coverId","type":"uint256"},{"internalType":"enum CoverLib.RiskType","name":"riskType","type":"uint8"},{"internalType":"string","name":"coverName","type":"string"},{"internalType":"uint256","name":"coverValue","type":"uint256"},{"internalType":"uint256","name":"claimPaid","type":"uint256"},{"internalType":"uint256","name":"coverPeriod","type":"uint256"},{"internalType":"uint256","name":"endDay","type":"uint256"},{"internalType":"bool","name":"isActive","type":"bool"}],"internalType":"struct CoverLib.GenericCoverInfo","name":"","type":"tuple"}],"stateMutability":"view","type":"function"},{"inputs":[{"internalType":"address","name":"user","type":"address"}],"name":"getUserParticipation","outputs":[{"internalType":"uint256","name":"","type":"uint256"}],"stateMutability":"view","type":"function"},{"inputs":[],"name":"governance","outputs":[{"internalType":"address","name":"","type":"address"}],"stateMutability":"view","type":"function"},{"inputs":[],"name":"lpAddress","outputs":[{"internalType":"address","name":"","type":"address"}],"stateMutability":"view","type":"function"},{"inputs":[],"name":"lpContract","outputs":[{"internalType":"contract ILP","name":"","type":"address"}],"stateMutability":"view","type":"function"},{"inputs":[],"name":"owner","outputs":[{"internalType":"address","name":"","type":"address"}],"stateMutability":"view","type":"function"},{"inputs":[{"internalType":"uint256","name":"","type":"uint256"}],"name":"participants","outputs":[{"internalType":"address","name":"","type":"address"}],"stateMutability":"view","type":"function"},{"inputs":[{"internalType":"address","name":"","type":"address"}],"name":"participation","outputs":[{"internalType":"uint256","name":"","type":"uint256"}],"stateMutability":"view","type":"function"},{"inputs":[{"internalType":"uint256","name":"_coverId","type":"uint256"},{"internalType":"uint256","name":"_coverValue","type":"uint256"},{"internalType":"uint256","name":"_coverPeriod","type":"uint256"},{"internalType":"uint256","name":"_coverFee","type":"uint256"}],"name":"purchaseCover","outputs":[],"stateMutability":"nonpayable","type":"function"},{"inputs":[],"name":"renounceOwnership","outputs":[],"stateMutability":"nonpayable","type":"function"},{"inputs":[{"internalType":"address","name":"newOwner","type":"address"}],"name":"transferOwnership","outputs":[],"stateMutability":"nonpayable","type":"function"},{"inputs":[{"internalType":"uint256","name":"_coverId","type":"uint256"},{"internalType":"string","name":"_coverName","type":"string"},{"internalType":"enum CoverLib.RiskType","name":"_riskType","type":"uint8"},{"internalType":"string","name":"_cid","type":"string"},{"internalType":"string","name":"_chains","type":"string"},{"internalType":"uint256","name":"_capacity","type":"uint256"},{"internalType":"uint256","name":"_cost","type":"uint256"},{"internalType":"uint256","name":"_poolId","type":"uint256"}],"name":"updateCover","outputs":[],"stateMutability":"nonpayable","type":"function"},{"inputs":[{"internalType":"uint256","name":"_coverId","type":"uint256"}],"name":"updateMaxAmount","outputs":[],"stateMutability":"nonpayable","type":"function"},{"inputs":[{"internalType":"address","name":"user","type":"address"},{"internalType":"uint256","name":"_coverId","type":"uint256"},{"internalType":"uint256","name":"_claimPaid","type":"uint256"}],"name":"updateUserCoverValue","outputs":[],"stateMutability":"nonpayable","type":"function"},{"inputs":[{"internalType":"address","name":"","type":"address"},{"internalType":"uint256","name":"","type":"uint256"}],"name":"userCovers","outputs":[{"internalType":"address","name":"user","type":"address"},{"internalType":"uint256","name":"coverId","type":"uint256"},{"internalType":"enum CoverLib.RiskType","name":"riskType","type":"uint8"},{"internalType":"string","name":"coverName","type":"string"},{"internalType":"uint256","name":"coverValue","type":"uint256"},{"internalType":"uint256","name":"claimPaid","type":"uint256"},{"internalType":"uint256","name":"coverPeriod","type":"uint256"},{"internalType":"uint256","name":"endDay","type":"uint256"},{"internalType":"bool","name":"isActive","type":"bool"}],"stateMutability":"view","type":"function"}],"evm":{"bytecode":{"linkReferences":{},"object":"60806040523480156200001157600080fd5b5060405162005bb638038062005bb6833981810160405281019062000037919062000346565b826001600081905550600073ffffffffffffffffffffffffffffffffffffffff168173ffffffffffffffffffffffffffffffffffffffff1603620000b55760006040517f1e4fbdf7000000000000000000000000000000000000000000000000000000008152600401620000ac9190620003c9565b60405180910390fd5b620000c6816200021660201b60201c565b5083600360006101000a81548173ffffffffffffffffffffffffffffffffffffffff021916908373ffffffffffffffffffffffffffffffffffffffff16021790555083600660006101000a81548173ffffffffffffffffffffffffffffffffffffffff021916908373ffffffffffffffffffffffffffffffffffffffff16021790555081600760006101000a81548173ffffffffffffffffffffffffffffffffffffffff021916908373ffffffffffffffffffffffffffffffffffffffff16021790555080600460006101000a81548173ffffffffffffffffffffffffffffffffffffffff021916908373ffffffffffffffffffffffffffffffffffffffff16021790555080600560006101000a81548173ffffffffffffffffffffffffffffffffffffffff021916908373ffffffffffffffffffffffffffffffffffffffff16021790555050505050620003e6565b6000600160009054906101000a900473ffffffffffffffffffffffffffffffffffffffff16905081600160006101000a81548173ffffffffffffffffffffffffffffffffffffffff021916908373ffffffffffffffffffffffffffffffffffffffff1602179055508173ffffffffffffffffffffffffffffffffffffffff168173ffffffffffffffffffffffffffffffffffffffff167f8be0079c531659141344cd1fd0a4f28419497f9722a3daafe3b4186f6b6457e060405160405180910390a35050565b600080fd5b600073ffffffffffffffffffffffffffffffffffffffff82169050919050565b60006200030e82620002e1565b9050919050565b620003208162000301565b81146200032c57600080fd5b50565b600081519050620003408162000315565b92915050565b60008060008060808587031215620003635762000362620002dc565b5b600062000373878288016200032f565b945050602062000386878288016200032f565b935050604062000399878288016200032f565b9250506060620003ac878288016200032f565b91505092959194509250565b620003c38162000301565b82525050565b6000602082019050620003e06000830184620003b8565b92915050565b6157c080620003f66000396000f3fe608060405234801561001057600080fd5b50600436106101fb5760003560e01c8063782ea6191161011a5780639732bdb5116100ad578063bfc664f31161007c578063bfc664f314610600578063cadcb4711461061c578063f2fde38b1461064c578063fb64358314610668578063feb0b8f514610698576101fb565b80639732bdb514610570578063996b8a6f1461058c5780639b4dc8cc146105aa5780639e7b399e146105c8576101fb565b80638da5cb5b116100e95780638da5cb5b146104e85780638de4d1011461050657806393b1ad381461052257806396f3a8ad14610540576101fb565b8063782ea6191461044e5780637a728e7f1461047e5780637ceb4a69146104ae5780638acee3cf146104ca576101fb565b80635aa6e675116101925780636299df6c116101615780636299df6c146103aa578063649718b2146103e4578063715018a61461041457806373cce3ee1461041e576101fb565b80635aa6e67514610322578063602710a414610340578063609c76041461035c57806362858bfa1461037a576101fb565b806334808ec3116101ce57806334808ec314610286578063357917b7146102a457806335c1d349146102c257806346f84795146102f2576101fb565b80631052581414610200578063106b5da114610230578063195ec9ee1461024c5780632d8a340c1461026a575b600080fd5b61021a60048036038101906102159190613acd565b6106b6565b6040516102279190613b1c565b60405180910390f35b61024a60048036038101906102459190613b37565b610711565b005b610254610977565b6040516102619190613c22565b60405180910390f35b610284600480360381019061027f9190613b37565b610a05565b005b61028e610de7565b60405161029b9190613ca3565b60405180910390f35b6102ac610e0d565b6040516102b99190613b1c565b60405180910390f35b6102dc60048036038101906102d79190613b37565b610e13565b6040516102e99190613ccd565b60405180910390f35b61030c60048036038101906103079190613ce8565b610e52565b6040516103199190613b1c565b60405180910390f35b61032a610e9b565b6040516103379190613ccd565b60405180910390f35b61035a60048036038101906103559190613d15565b610ec1565b005b6103646115e9565b6040516103719190613b1c565b60405180910390f35b610394600480360381019061038f9190613b37565b6115f3565b6040516103a19190613f8f565b60405180910390f35b6103c460048036038101906103bf9190613b37565b611858565b6040516103db9b9a9998979695949392919061400a565b60405180910390f35b6103fe60048036038101906103f99190613ce8565b611a57565b60405161040b919061426c565b60405180910390f35b61041c611e02565b005b61043860048036038101906104339190613acd565b611e16565b6040516104459190613b1c565b60405180910390f35b61046860048036038101906104639190613b37565b611fb6565b604051610475919061429d565b60405180910390f35b61049860048036038101906104939190613acd565b611fd6565b6040516104a59190613b1c565b60405180910390f35b6104c860048036038101906104c391906142b8565b611ffb565b005b6104d2612174565b6040516104df919061432c565b60405180910390f35b6104f061219a565b6040516104fd9190613ccd565b60405180910390f35b610520600480360381019061051b91906144a1565b6121c4565b005b61052a6127b5565b604051610537919061476a565b60405180910390f35b61055a60048036038101906105559190613ce8565b612b7c565b6040516105679190613b1c565b60405180910390f35b61058a600480360381019061058591906144a1565b612b94565b005b610594612eb2565b6040516105a19190613ccd565b60405180910390f35b6105b2612ed8565b6040516105bf9190613ccd565b60405180910390f35b6105e260048036038101906105dd9190613acd565b612efe565b6040516105f79998979695949392919061478c565b60405180910390f35b61061a60048036038101906106159190613ce8565b61301b565b005b61063660048036038101906106319190613acd565b6131e7565b60405161064391906148e5565b60405180910390f35b61066660048036038101906106619190613ce8565b6133c3565b005b610682600480360381019061067d9190613b37565b613449565b60405161068f9190613b1c565b60405180910390f35b6106a061346d565b6040516106ad9190613b1c565b60405180910390f35b6000600b60008473ffffffffffffffffffffffffffffffffffffffff1673ffffffffffffffffffffffffffffffffffffffff168152602001908152602001600020600083815260200190815260200160002054905092915050565b600660009054906101000a900473ffffffffffffffffffffffffffffffffffffffff1673ffffffffffffffffffffffffffffffffffffffff163373ffffffffffffffffffffffffffffffffffffffff16146107a1576040517f08c379a000000000000000000000000000000000000000000000000000000000815260040161079890614953565b60405180910390fd5b6107a9613473565b6000600d600083815260200190815260200160002090506000600360009054906101000a900473ffffffffffffffffffffffffffffffffffffffff1673ffffffffffffffffffffffffffffffffffffffff1663068bcd8d83600901546040518263ffffffff1660e01b81526004016108219190613b1c565b600060405180830381865afa15801561083e573d6000803e3d6000fd5b505050506040513d6000823e3d601f19601f820116820180604052508101906108679190614a39565b505094505050505060008260040154116108b6576040517f08c379a00000000000000000000000000000000000000000000000000000000081526004016108ad90614b43565b60405180910390fd5b6000670de0b6b3a76400006064670de0b6b3a764000085600401546108db9190614b92565b6108e59190614c03565b836108f09190614b92565b6108fa9190614c03565b905080600d600086815260200190815260200160002060060181905550600d600085815260200190815260200160002060070154600d60008681526020019081526020016000206006015461094f9190614c34565b600d6000868152602001908152602001600020600801819055505050506109746134b9565b50565b606060088054806020026020016040519081016040528092919081815260200182805480156109fb57602002820191906000526020600020905b8160009054906101000a900473ffffffffffffffffffffffffffffffffffffffff1673ffffffffffffffffffffffffffffffffffffffff16815260200190600101908083116109b1575b5050505050905090565b610a0d613473565b6000600360009054906101000a900473ffffffffffffffffffffffffffffffffffffffff1673ffffffffffffffffffffffffffffffffffffffff16634e05524483336040518363ffffffff1660e01b8152600401610a6c929190614c68565b61012060405180830381865afa158015610a8a573d6000803e3d6000fd5b505050506040513d601f19601f82011682018060405250810190610aae9190614db5565b905060006001811115610ac457610ac3613e1b565b5b81608001516001811115610adb57610ada613e1b565b5b14610b12576040517fe067835f00000000000000000000000000000000000000000000000000000000815260040160405180910390fd5b600080600b60003373ffffffffffffffffffffffffffffffffffffffff1673ffffffffffffffffffffffffffffffffffffffff16815260200190815260200160002060008581526020019081526020016000205403610b77578160c001519050610bcb565b600b60003373ffffffffffffffffffffffffffffffffffffffff1673ffffffffffffffffffffffffffffffffffffffff16815260200190815260200160002060008481526020019081526020016000205490505b60004290508260e00151811115610be4578260e0015190505b600061012c8383610bf59190614c34565b610bff9190614c03565b905060008111610c3b576040517fed700a6700000000000000000000000000000000000000000000000000000000815260040160405180910390fd5b6000818560600151610c4d9190614b92565b9050600254811115610c8b576040517fbc6072f100000000000000000000000000000000000000000000000000000000815260040160405180910390fd5b42600b60003373ffffffffffffffffffffffffffffffffffffffff1673ffffffffffffffffffffffffffffffffffffffff168152602001908152602001600020600088815260200190815260200160002081905550600460009054906101000a900473ffffffffffffffffffffffffffffffffffffffff1673ffffffffffffffffffffffffffffffffffffffff1663e2094eda33836040518363ffffffff1660e01b8152600401610d3d929190614de3565b600060405180830381600087803b158015610d5757600080fd5b505af1158015610d6b573d6000803e3d6000fd5b505050508060026000828254610d819190614c34565b92505081905550853373ffffffffffffffffffffffffffffffffffffffff167f0408e6e0b73daf4c873106e95fd067260fbff8bf9d1b499cad563d4480d45bac83604051610dcf9190613b1c565b60405180910390a35050505050610de46134b9565b50565b600460009054906101000a900473ffffffffffffffffffffffffffffffffffffffff1681565b60025481565b60088181548110610e2357600080fd5b906000526020600020016000915054906101000a900473ffffffffffffffffffffffffffffffffffffffff1681565b6000600960008373ffffffffffffffffffffffffffffffffffffffff1673ffffffffffffffffffffffffffffffffffffffff168152602001908152602001600020549050919050565b600760009054906101000a900473ffffffffffffffffffffffffffffffffffffffff1681565b610ec9613473565b60008111610f03576040517f2c5211c600000000000000000000000000000000000000000000000000000000815260040160405180910390fd5b601b82111580610f15575061016e8210155b15610f4c576040517f3f132b1200000000000000000000000000000000000000000000000000000000815260040160405180910390fd5b600a600085815260200190815260200160002060009054906101000a900460ff16610fa3576040517fbccd404300000000000000000000000000000000000000000000000000000000815260040160405180910390fd5b6000600d600086815260200190815260200160002090508060080154841115610ff8576040517fbc6072f100000000000000000000000000000000000000000000000000000000815260040160405180910390fd5b600084826007015461100a9190614e0c565b9050816006015481111561104a576040517fbc6072f100000000000000000000000000000000000000000000000000000000815260040160405180910390fd5b600460009054906101000a900473ffffffffffffffffffffffffffffffffffffffff1673ffffffffffffffffffffffffffffffffffffffff16639dc29fac33856040518363ffffffff1660e01b81526004016110a7929190614de3565b600060405180830381600087803b1580156110c157600080fd5b505af11580156110d5573d6000803e3d6000fd5b505050508082600701819055508082600601546110f29190614c34565b82600801819055508160070154826006015461110e9190614c34565b82600801819055506000600c60003373ffffffffffffffffffffffffffffffffffffffff1673ffffffffffffffffffffffffffffffffffffffff1681526020019081526020016000206000888152602001908152602001600020905060008160040154036113d0576040518061012001604052803373ffffffffffffffffffffffffffffffffffffffff1681526020018881526020018460020160009054906101000a900460ff1660038111156111c8576111c7613e1b565b5b81526020018460010180546111dc90614e6f565b80601f016020809104026020016040519081016040528092919081815260200182805461120890614e6f565b80156112555780601f1061122a57610100808354040283529160200191611255565b820191906000526020600020905b81548152906001019060200180831161123857829003601f168201915b505050505081526020018781526020016000815260200186815260200162015180876112819190614b92565b4261128c9190614e0c565b815260200160011515815250600c60003373ffffffffffffffffffffffffffffffffffffffff1673ffffffffffffffffffffffffffffffffffffffff168152602001908152602001600020600089815260200190815260200160002060008201518160000160006101000a81548173ffffffffffffffffffffffffffffffffffffffff021916908373ffffffffffffffffffffffffffffffffffffffff1602179055506020820151816001015560408201518160020160006101000a81548160ff0219169083600381111561136457611363613e1b565b5b0217905550606082015181600301908161137e9190615042565b506080820151816004015560a0820151816005015560c0820151816006015560e082015181600701556101008201518160080160006101000a81548160ff021916908315150217905550905050611402565b6040517f9857cbd900000000000000000000000000000000000000000000000000000000815260040160405180910390fd5b6000805b60088054905081101561149a573373ffffffffffffffffffffffffffffffffffffffff166008828154811061143e5761143d615114565b5b9060005260206000200160009054906101000a900473ffffffffffffffffffffffffffffffffffffffff1673ffffffffffffffffffffffffffffffffffffffff160361148d576001915061149a565b8080600101915050611406565b5080611504576008339080600181540180825580915050600190039060005260206000200160009091909190916101000a81548173ffffffffffffffffffffffffffffffffffffffff021916908373ffffffffffffffffffffffffffffffffffffffff1602179055505b6001600960003373ffffffffffffffffffffffffffffffffffffffff1673ffffffffffffffffffffffffffffffffffffffff16815260200190815260200160002060008282546115549190614e0c565b92505081905550846002600082825461156d9190614e0c565b925050819055503373ffffffffffffffffffffffffffffffffffffffff167f23b0f39e0762759ffb18632a1a2b79c9eb58571454e5f7c36e0a2f81759e0a3488878760020160009054906101000a900460ff166040516115cf93929190615143565b60405180910390a2505050506115e36134b9565b50505050565b6000600254905090565b6115fb6138e6565b600d6000838152602001908152602001600020604051806101600160405290816000820154815260200160018201805461163490614e6f565b80601f016020809104026020016040519081016040528092919081815260200182805461166090614e6f565b80156116ad5780601f10611682576101008083540402835291602001916116ad565b820191906000526020600020905b81548152906001019060200180831161169057829003601f168201915b505050505081526020016002820160009054906101000a900460ff1660038111156116db576116da613e1b565b5b60038111156116ed576116ec613e1b565b5b815260200160038201805461170190614e6f565b80601f016020809104026020016040519081016040528092919081815260200182805461172d90614e6f565b801561177a5780601f1061174f5761010080835404028352916020019161177a565b820191906000526020600020905b81548152906001019060200180831161175d57829003601f168201915b50505050508152602001600482015481526020016005820154815260200160068201548152602001600782015481526020016008820154815260200160098201548152602001600a820180546117cf90614e6f565b80601f01602080910402602001604051908101604052809291908181526020018280546117fb90614e6f565b80156118485780601f1061181d57610100808354040283529160200191611848565b820191906000526020600020905b81548152906001019060200180831161182b57829003601f168201915b5050505050815250509050919050565b600d60205280600052604060002060009150905080600001549080600101805461188190614e6f565b80601f01602080910402602001604051908101604052809291908181526020018280546118ad90614e6f565b80156118fa5780601f106118cf576101008083540402835291602001916118fa565b820191906000526020600020905b8154815290600101906020018083116118dd57829003601f168201915b5050505050908060020160009054906101000a900460ff169080600301805461192290614e6f565b80601f016020809104026020016040519081016040528092919081815260200182805461194e90614e6f565b801561199b5780601f106119705761010080835404028352916020019161199b565b820191906000526020600020905b81548152906001019060200180831161197e57829003601f168201915b50505050509080600401549080600501549080600601549080600701549080600801549080600901549080600a0180546119d490614e6f565b80601f0160208091040260200160405190810160405280929190818152602001828054611a0090614e6f565b8015611a4d5780601f10611a2257610100808354040283529160200191611a4d565b820191906000526020600020905b815481529060010190602001808311611a3057829003601f168201915b505050505090508b565b60606000805b600f80549050811015611b06576000600f8281548110611a8057611a7f615114565b5b906000526020600020015490506000600c60008773ffffffffffffffffffffffffffffffffffffffff1673ffffffffffffffffffffffffffffffffffffffff1681526020019081526020016000206000838152602001908152602001600020600401541115611af8578280611af49061517a565b9350505b508080600101915050611a5d565b5060008167ffffffffffffffff811115611b2357611b22614351565b5b604051908082528060200260200182016040528015611b5c57816020015b611b49613952565b815260200190600190039081611b415790505b5090506000805b600f80549050811015611df6576000600f8281548110611b8657611b85615114565b5b906000526020600020015490506000600c60008973ffffffffffffffffffffffffffffffffffffffff1673ffffffffffffffffffffffffffffffffffffffff1681526020019081526020016000206000838152602001908152602001600020600401541115611de857600c60008873ffffffffffffffffffffffffffffffffffffffff1673ffffffffffffffffffffffffffffffffffffffff1681526020019081526020016000206000828152602001908152602001600020604051806101200160405290816000820160009054906101000a900473ffffffffffffffffffffffffffffffffffffffff1673ffffffffffffffffffffffffffffffffffffffff1673ffffffffffffffffffffffffffffffffffffffff168152602001600182015481526020016002820160009054906101000a900460ff166003811115611cd057611ccf613e1b565b5b6003811115611ce257611ce1613e1b565b5b8152602001600382018054611cf690614e6f565b80601f0160208091040260200160405190810160405280929190818152602001828054611d2290614e6f565b8015611d6f5780601f10611d4457610100808354040283529160200191611d6f565b820191906000526020600020905b815481529060010190602001808311611d5257829003601f168201915b50505050508152602001600482015481526020016005820154815260200160068201548152602001600782015481526020016008820160009054906101000a900460ff161515151581525050848481518110611dce57611dcd615114565b5b60200260200101819052508280611de49061517a565b9350505b508080600101915050611b63565b50819350505050919050565b611e0a6134c3565b611e14600061354a565b565b600080600360009054906101000a900473ffffffffffffffffffffffffffffffffffffffff1673ffffffffffffffffffffffffffffffffffffffff16634e05524484866040518363ffffffff1660e01b8152600401611e76929190614c68565b61012060405180830381865afa158015611e94573d6000803e3d6000fd5b505050506040513d601f19601f82011682018060405250810190611eb89190614db5565b9050600080600b60008773ffffffffffffffffffffffffffffffffffffffff1673ffffffffffffffffffffffffffffffffffffffff16815260200190815260200160002060008681526020019081526020016000205403611f1f578160c001519050611f73565b600b60008673ffffffffffffffffffffffffffffffffffffffff1673ffffffffffffffffffffffffffffffffffffffff16815260200190815260200160002060008581526020019081526020016000205490505b60004290508260e00151811115611f8c578260e0015190505b600061012c8383611f9d9190614c34565b611fa79190614c03565b90508094505050505092915050565b600a6020528060005260406000206000915054906101000a900460ff1681565b600b602052816000526040600020602052806000526040600020600091509150505481565b600760009054906101000a900473ffffffffffffffffffffffffffffffffffffffff1673ffffffffffffffffffffffffffffffffffffffff163373ffffffffffffffffffffffffffffffffffffffff161461208b576040517f08c379a000000000000000000000000000000000000000000000000000000000815260040161208290614953565b60405180910390fd5b612093613473565b80600c60008573ffffffffffffffffffffffffffffffffffffffff1673ffffffffffffffffffffffffffffffffffffffff168152602001908152602001600020600084815260200190815260200160002060040160008282546120f69190614c34565b9250508190555080600c60008573ffffffffffffffffffffffffffffffffffffffff1673ffffffffffffffffffffffffffffffffffffffff168152602001908152602001600020600084815260200190815260200160002060050160008282546121609190614e0c565b9250508190555061216f6134b9565b505050565b600360009054906101000a900473ffffffffffffffffffffffffffffffffffffffff1681565b6000600160009054906101000a900473ffffffffffffffffffffffffffffffffffffffff16905090565b6121cc6134c3565b6000806000600360009054906101000a900473ffffffffffffffffffffffffffffffffffffffff1673ffffffffffffffffffffffffffffffffffffffff1663068bcd8d856040518263ffffffff1660e01b815260040161222c9190613b1c565b600060405180830381865afa158015612249573d6000803e3d6000fd5b505050506040513d6000823e3d601f19601f820116820180604052508101906122729190614a39565b9650509550505093505088600381111561228f5761228e613e1b565b5b8360038111156122a2576122a1613e1b565b5b1415806122ae57508086115b156122e5576040517fd3c913ea00000000000000000000000000000000000000000000000000000000815260040160405180910390fd5b6000600d60008d815260200190815260200160002090506000670de0b6b3a76400006064670de0b6b3a76400008a61231d9190614b92565b6123279190614c03565b856123329190614b92565b61233c9190614c03565b9050808260070154111561237c576040517fd3c913ea00000000000000000000000000000000000000000000000000000000815260040160405180910390fd5b6000600360009054906101000a900473ffffffffffffffffffffffffffffffffffffffff1673ffffffffffffffffffffffffffffffffffffffff16637eb111f0886040518263ffffffff1660e01b81526004016123d99190613b1c565b600060405180830381865afa1580156123f6573d6000803e3d6000fd5b505050506040513d6000823e3d601f19601f8201168201806040525081019061241f9190615408565b905060005b8151811015612508578d60405160200161243e919061548d565b6040516020818303038152906040528051906020012082828151811061246757612466615114565b5b602002602001015160200151604051602001612483919061548d565b604051602081830303815290604052805190602001201480156124c457508e8282815181106124b5576124b4615114565b5b60200260200101516000015114155b156124fb576040517fd202940c00000000000000000000000000000000000000000000000000000000815260040160405180910390fd5b8080600101915050612424565b506000836004015490508d8460010190816125239190615042565b508a8460030190816125359190615042565b508984600401819055508884600501819055508b84600a0190816125599190615042565b5082846006018190555087846009018190555083600701548361257c9190614c34565b8460080181905550898111156126315760008a8261259a9190614c34565b9050600360009054906101000a900473ffffffffffffffffffffffffffffffffffffffff1673ffffffffffffffffffffffffffffffffffffffff16639fd36b158a836040518363ffffffff1660e01b81526004016125f99291906154a4565b600060405180830381600087803b15801561261357600080fd5b505af1158015612627573d6000803e3d6000fd5b50505050506126db565b898110156126da576000818b6126479190614c34565b9050600360009054906101000a900473ffffffffffffffffffffffffffffffffffffffff1673ffffffffffffffffffffffffffffffffffffffff1663a4948d858a836040518363ffffffff1660e01b81526004016126a69291906154a4565b600060405180830381600087803b1580156126c057600080fd5b505af11580156126d4573d6000803e3d6000fd5b50505050505b5b600360009054906101000a900473ffffffffffffffffffffffffffffffffffffffff1673ffffffffffffffffffffffffffffffffffffffff1663a14764d089866040518363ffffffff1660e01b81526004016127389291906156fa565b600060405180830381600087803b15801561275257600080fd5b505af1158015612766573d6000803e3d6000fd5b505050508e7f758a67328ba53c1867c0272bbd2ca10d6fe71d37120188c523fe7ae7bdbbe4698f8f60405161279c92919061572a565b60405180910390a2505050505050505050505050505050565b60606000805b600f8054905081101561282e576000600f82815481106127de576127dd615114565b5b90600052602060002001549050600a600082815260200190815260200160002060009054906101000a900460ff161561282057828061281c9061517a565b9350505b5080806001019150506127bb565b5060008167ffffffffffffffff81111561284b5761284a614351565b5b60405190808252806020026020018201604052801561288457816020015b6128716138e6565b8152602001906001900390816128695790505b5090506000805b600f80549050811015612b72576000600f82815481106128ae576128ad615114565b5b90600052602060002001549050600a600082815260200190815260200160002060009054906101000a900460ff1615612b6457600d6000828152602001908152602001600020604051806101600160405290816000820154815260200160018201805461291a90614e6f565b80601f016020809104026020016040519081016040528092919081815260200182805461294690614e6f565b80156129935780601f1061296857610100808354040283529160200191612993565b820191906000526020600020905b81548152906001019060200180831161297657829003601f168201915b505050505081526020016002820160009054906101000a900460ff1660038111156129c1576129c0613e1b565b5b60038111156129d3576129d2613e1b565b5b81526020016003820180546129e790614e6f565b80601f0160208091040260200160405190810160405280929190818152602001828054612a1390614e6f565b8015612a605780601f10612a3557610100808354040283529160200191612a60565b820191906000526020600020905b815481529060010190602001808311612a4357829003601f168201915b50505050508152602001600482015481526020016005820154815260200160068201548152602001600782015481526020016008820154815260200160098201548152602001600a82018054612ab590614e6f565b80601f0160208091040260200160405190810160405280929190818152602001828054612ae190614e6f565b8015612b2e5780601f10612b0357610100808354040283529160200191612b2e565b820191906000526020600020905b815481529060010190602001808311612b1157829003601f168201915b505050505081525050848481518110612b4a57612b49615114565b5b60200260200101819052508280612b609061517a565b9350505b50808060010191505061288b565b5081935050505090565b60096020528060005260406000206000915090505481565b612b9c6134c3565b6000612baa86838987613610565b9050600360009054906101000a900473ffffffffffffffffffffffffffffffffffffffff1673ffffffffffffffffffffffffffffffffffffffff1663a4948d8583866040518363ffffffff1660e01b8152600401612c099291906154a4565b600060405180830381600087803b158015612c2357600080fd5b505af1158015612c37573d6000803e3d6000fd5b50505050600e6000815480929190612c4e9061517a565b919050555060006040518061016001604052808b8152602001888152602001896003811115612c8057612c7f613e1b565b5b8152602001878152602001868152602001858152602001838152602001600081526020018381526020018481526020018a815250905080600d60008c8152602001908152602001600020600082015181600001556020820151816001019081612ce99190615042565b5060408201518160020160006101000a81548160ff02191690836003811115612d1557612d14613e1b565b5b02179055506060820151816003019081612d2f9190615042565b506080820151816004015560a0820151816005015560c0820151816006015560e082015181600701556101008201518160080155610120820151816009015561014082015181600a019081612d849190615042565b50905050600f8a9080600181540180825580915050600190039060005260206000200160009091909190915055600360009054906101000a900473ffffffffffffffffffffffffffffffffffffffff1673ffffffffffffffffffffffffffffffffffffffff1663c7aa987484836040518363ffffffff1660e01b8152600401612e0e92919061575a565b600060405180830381600087803b158015612e2857600080fd5b505af1158015612e3c573d6000803e3d6000fd5b505050506001600a60008c815260200190815260200160002060006101000a81548160ff021916908315150217905550897f5928d65cc6ae9f07a7673f1a5a2f98d81f1bb0c2bc53bcaa33d6f11cf426f25e888a604051612e9e92919061572a565b60405180910390a250505050505050505050565b600560009054906101000a900473ffffffffffffffffffffffffffffffffffffffff1681565b600660009054906101000a900473ffffffffffffffffffffffffffffffffffffffff1681565b600c602052816000526040600020602052806000526040600020600091509150508060000160009054906101000a900473ffffffffffffffffffffffffffffffffffffffff16908060010154908060020160009054906101000a900460ff1690806003018054612f6d90614e6f565b80601f0160208091040260200160405190810160405280929190818152602001828054612f9990614e6f565b8015612fe65780601f10612fbb57610100808354040283529160200191612fe6565b820191906000526020600020905b815481529060010190602001808311612fc957829003601f168201915b5050505050908060040154908060050154908060060154908060070154908060080160009054906101000a900460ff16905089565b613023613473565b6000600190505b600f805490508110156131db576000600f828154811061304d5761304c615114565b5b906000526020600020015490506000600c60008573ffffffffffffffffffffffffffffffffffffffff1673ffffffffffffffffffffffffffffffffffffffff168152602001908152602001600020600083815260200190815260200160002090508060080160009054906101000a900460ff1680156130cf5750806007015442115b156131cc5760008160080160006101000a81548160ff021916908315150217905550600c60008573ffffffffffffffffffffffffffffffffffffffff1673ffffffffffffffffffffffffffffffffffffffff1681526020019081526020016000206000838152602001908152602001600020600080820160006101000a81549073ffffffffffffffffffffffffffffffffffffffff021916905560018201600090556002820160006101000a81549060ff021916905560038201600061319591906139c8565b60048201600090556005820160009055600682016000905560078201600090556008820160006101000a81549060ff021916905550505b5050808060010191505061302a565b506131e46134b9565b50565b6131ef613952565b600c60008473ffffffffffffffffffffffffffffffffffffffff1673ffffffffffffffffffffffffffffffffffffffff1681526020019081526020016000206000838152602001908152602001600020604051806101200160405290816000820160009054906101000a900473ffffffffffffffffffffffffffffffffffffffff1673ffffffffffffffffffffffffffffffffffffffff1673ffffffffffffffffffffffffffffffffffffffff168152602001600182015481526020016002820160009054906101000a900460ff1660038111156132d0576132cf613e1b565b5b60038111156132e2576132e1613e1b565b5b81526020016003820180546132f690614e6f565b80601f016020809104026020016040519081016040528092919081815260200182805461332290614e6f565b801561336f5780601f106133445761010080835404028352916020019161336f565b820191906000526020600020905b81548152906001019060200180831161335257829003601f168201915b50505050508152602001600482015481526020016005820154815260200160068201548152602001600782015481526020016008820160009054906101000a900460ff161515151581525050905092915050565b6133cb6134c3565b600073ffffffffffffffffffffffffffffffffffffffff168173ffffffffffffffffffffffffffffffffffffffff160361343d5760006040517f1e4fbdf70000000000000000000000000000000000000000000000000000000081526004016134349190613ccd565b60405180910390fd5b6134468161354a565b50565b600f818154811061345957600080fd5b906000526020600020016000915090505481565b600e5481565b6002600054036134af576040517f3ee5aeb500000000000000000000000000000000000000000000000000000000815260040160405180910390fd5b6002600081905550565b6001600081905550565b6134cb6138de565b73ffffffffffffffffffffffffffffffffffffffff166134e961219a565b73ffffffffffffffffffffffffffffffffffffffff16146135485761350c6138de565b6040517f118cdaa700000000000000000000000000000000000000000000000000000000815260040161353f9190613ccd565b60405180910390fd5b565b6000600160009054906101000a900473ffffffffffffffffffffffffffffffffffffffff16905081600160006101000a81548173ffffffffffffffffffffffffffffffffffffffff021916908373ffffffffffffffffffffffffffffffffffffffff1602179055508173ffffffffffffffffffffffffffffffffffffffff168173ffffffffffffffffffffffffffffffffffffffff167f8be0079c531659141344cd1fd0a4f28419497f9722a3daafe3b4186f6b6457e060405160405180910390a35050565b600080600360009054906101000a900473ffffffffffffffffffffffffffffffffffffffff1673ffffffffffffffffffffffffffffffffffffffff16637eb111f0866040518263ffffffff1660e01b815260040161366e9190613b1c565b600060405180830381865afa15801561368b573d6000803e3d6000fd5b505050506040513d6000823e3d601f19601f820116820180604052508101906136b49190615408565b905060005b815181101561377257866040516020016136d3919061548d565b604051602081830303815290604052805190602001208282815181106136fc576136fb615114565b5b602002602001015160200151604051602001613718919061548d565b6040516020818303038152906040528051906020012003613765576040517fd202940c00000000000000000000000000000000000000000000000000000000815260040160405180910390fd5b80806001019150506136b9565b506000806000600360009054906101000a900473ffffffffffffffffffffffffffffffffffffffff1673ffffffffffffffffffffffffffffffffffffffff1663068bcd8d896040518263ffffffff1660e01b81526004016137d39190613b1c565b600060405180830381865afa1580156137f0573d6000803e3d6000fd5b505050506040513d6000823e3d601f19601f820116820180604052508101906138199190614a39565b9650509550505093505086600381111561383657613835613e1b565b5b83600381111561384957613848613e1b565b5b14158061385557508086115b1561388c576040517fd3c913ea00000000000000000000000000000000000000000000000000000000815260040160405180910390fd5b6000670de0b6b3a76400006064670de0b6b3a7640000896138ad9190614b92565b6138b79190614c03565b846138c29190614b92565b6138cc9190614c03565b90508095505050505050949350505050565b600033905090565b60405180610160016040528060008152602001606081526020016000600381111561391457613913613e1b565b5b815260200160608152602001600081526020016000815260200160008152602001600081526020016000815260200160008152602001606081525090565b604051806101200160405280600073ffffffffffffffffffffffffffffffffffffffff168152602001600081526020016000600381111561399657613995613e1b565b5b815260200160608152602001600081526020016000815260200160008152602001600081526020016000151581525090565b5080546139d490614e6f565b6000825580601f106139e65750613a05565b601f016020900490600052602060002090810190613a049190613a08565b5b50565b5b80821115613a21576000816000905550600101613a09565b5090565b6000604051905090565b600080fd5b600080fd5b600073ffffffffffffffffffffffffffffffffffffffff82169050919050565b6000613a6482613a39565b9050919050565b613a7481613a59565b8114613a7f57600080fd5b50565b600081359050613a9181613a6b565b92915050565b6000819050919050565b613aaa81613a97565b8114613ab557600080fd5b50565b600081359050613ac781613aa1565b92915050565b60008060408385031215613ae457613ae3613a2f565b5b6000613af285828601613a82565b9250506020613b0385828601613ab8565b9150509250929050565b613b1681613a97565b82525050565b6000602082019050613b316000830184613b0d565b92915050565b600060208284031215613b4d57613b4c613a2f565b5b6000613b5b84828501613ab8565b91505092915050565b600081519050919050565b600082825260208201905092915050565b6000819050602082019050919050565b613b9981613a59565b82525050565b6000613bab8383613b90565b60208301905092915050565b6000602082019050919050565b6000613bcf82613b64565b613bd98185613b6f565b9350613be483613b80565b8060005b83811015613c15578151613bfc8882613b9f565b9750613c0783613bb7565b925050600181019050613be8565b5085935050505092915050565b60006020820190508181036000830152613c3c8184613bc4565b905092915050565b6000819050919050565b6000613c69613c64613c5f84613a39565b613c44565b613a39565b9050919050565b6000613c7b82613c4e565b9050919050565b6000613c8d82613c70565b9050919050565b613c9d81613c82565b82525050565b6000602082019050613cb86000830184613c94565b92915050565b613cc781613a59565b82525050565b6000602082019050613ce26000830184613cbe565b92915050565b600060208284031215613cfe57613cfd613a2f565b5b6000613d0c84828501613a82565b91505092915050565b60008060008060808587031215613d2f57613d2e613a2f565b5b6000613d3d87828801613ab8565b9450506020613d4e87828801613ab8565b9350506040613d5f87828801613ab8565b9250506060613d7087828801613ab8565b91505092959194509250565b613d8581613a97565b82525050565b600081519050919050565b600082825260208201905092915050565b60005b83811015613dc5578082015181840152602081019050613daa565b60008484015250505050565b6000601f19601f8301169050919050565b6000613ded82613d8b565b613df78185613d96565b9350613e07818560208601613da7565b613e1081613dd1565b840191505092915050565b7f4e487b7100000000000000000000000000000000000000000000000000000000600052602160045260246000fd5b60048110613e5b57613e5a613e1b565b5b50565b6000819050613e6c82613e4a565b919050565b6000613e7c82613e5e565b9050919050565b613e8c81613e71565b82525050565b600061016083016000830151613eab6000860182613d7c565b5060208301518482036020860152613ec38282613de2565b9150506040830151613ed86040860182613e83565b5060608301518482036060860152613ef08282613de2565b9150506080830151613f056080860182613d7c565b5060a0830151613f1860a0860182613d7c565b5060c0830151613f2b60c0860182613d7c565b5060e0830151613f3e60e0860182613d7c565b50610100830151613f53610100860182613d7c565b50610120830151613f68610120860182613d7c565b50610140830151848203610140860152613f828282613de2565b9150508091505092915050565b60006020820190508181036000830152613fa98184613e92565b905092915050565b600082825260208201905092915050565b6000613fcd82613d8b565b613fd78185613fb1565b9350613fe7818560208601613da7565b613ff081613dd1565b840191505092915050565b61400481613e71565b82525050565b600061016082019050614020600083018e613b0d565b8181036020830152614032818d613fc2565b9050614041604083018c613ffb565b8181036060830152614053818b613fc2565b9050614062608083018a613b0d565b61406f60a0830189613b0d565b61407c60c0830188613b0d565b61408960e0830187613b0d565b614097610100830186613b0d565b6140a5610120830185613b0d565b8181036101408301526140b88184613fc2565b90509c9b505050505050505050505050565b600081519050919050565b600082825260208201905092915050565b6000819050602082019050919050565b60008115159050919050565b61410b816140f6565b82525050565b60006101208301600083015161412a6000860182613b90565b50602083015161413d6020860182613d7c565b5060408301516141506040860182613e83565b50606083015184820360608601526141688282613de2565b915050608083015161417d6080860182613d7c565b5060a083015161419060a0860182613d7c565b5060c08301516141a360c0860182613d7c565b5060e08301516141b660e0860182613d7c565b506101008301516141cb610100860182614102565b508091505092915050565b60006141e28383614111565b905092915050565b6000602082019050919050565b6000614202826140ca565b61420c81856140d5565b93508360208202850161421e856140e6565b8060005b8581101561425a578484038952815161423b85826141d6565b9450614246836141ea565b925060208a01995050600181019050614222565b50829750879550505050505092915050565b6000602082019050818103600083015261428681846141f7565b905092915050565b614297816140f6565b82525050565b60006020820190506142b2600083018461428e565b92915050565b6000806000606084860312156142d1576142d0613a2f565b5b60006142df86828701613a82565b93505060206142f086828701613ab8565b925050604061430186828701613ab8565b9150509250925092565b600061431682613c70565b9050919050565b6143268161430b565b82525050565b6000602082019050614341600083018461431d565b92915050565b600080fd5b600080fd5b7f4e487b7100000000000000000000000000000000000000000000000000000000600052604160045260246000fd5b61438982613dd1565b810181811067ffffffffffffffff821117156143a8576143a7614351565b5b80604052505050565b60006143bb613a25565b90506143c78282614380565b919050565b600067ffffffffffffffff8211156143e7576143e6614351565b5b6143f082613dd1565b9050602081019050919050565b82818337600083830152505050565b600061441f61441a846143cc565b6143b1565b90508281526020810184848401111561443b5761443a61434c565b5b6144468482856143fd565b509392505050565b600082601f83011261446357614462614347565b5b813561447384826020860161440c565b91505092915050565b6004811061448957600080fd5b50565b60008135905061449b8161447c565b92915050565b600080600080600080600080610100898b0312156144c2576144c1613a2f565b5b60006144d08b828c01613ab8565b985050602089013567ffffffffffffffff8111156144f1576144f0613a34565b5b6144fd8b828c0161444e565b975050604061450e8b828c0161448c565b965050606089013567ffffffffffffffff81111561452f5761452e613a34565b5b61453b8b828c0161444e565b955050608089013567ffffffffffffffff81111561455c5761455b613a34565b5b6145688b828c0161444e565b94505060a06145798b828c01613ab8565b93505060c061458a8b828c01613ab8565b92505060e061459b8b828c01613ab8565b9150509295985092959890939650565b600081519050919050565b600082825260208201905092915050565b6000819050602082019050919050565b6000610160830160008301516145f06000860182613d7c565b50602083015184820360208601526146088282613de2565b915050604083015161461d6040860182613e83565b50606083015184820360608601526146358282613de2565b915050608083015161464a6080860182613d7c565b5060a083015161465d60a0860182613d7c565b5060c083015161467060c0860182613d7c565b5060e083015161468360e0860182613d7c565b50610100830151614698610100860182613d7c565b506101208301516146ad610120860182613d7c565b506101408301518482036101408601526146c78282613de2565b9150508091505092915050565b60006146e083836145d7565b905092915050565b6000602082019050919050565b6000614700826145ab565b61470a81856145b6565b93508360208202850161471c856145c7565b8060005b85811015614758578484038952815161473985826146d4565b9450614744836146e8565b925060208a01995050600181019050614720565b50829750879550505050505092915050565b6000602082019050818103600083015261478481846146f5565b905092915050565b6000610120820190506147a2600083018c613cbe565b6147af602083018b613b0d565b6147bc604083018a613ffb565b81810360608301526147ce8189613fc2565b90506147dd6080830188613b0d565b6147ea60a0830187613b0d565b6147f760c0830186613b0d565b61480460e0830185613b0d565b61481261010083018461428e565b9a9950505050505050505050565b6000610120830160008301516148396000860182613b90565b50602083015161484c6020860182613d7c565b50604083015161485f6040860182613e83565b50606083015184820360608601526148778282613de2565b915050608083015161488c6080860182613d7c565b5060a083015161489f60a0860182613d7c565b5060c08301516148b260c0860182613d7c565b5060e08301516148c560e0860182613d7c565b506101008301516148da610100860182614102565b508091505092915050565b600060208201905081810360008301526148ff8184614820565b905092915050565b7f4e6f7420617574686f72697a6564000000000000000000000000000000000000600082015250565b600061493d600e83613fb1565b915061494882614907565b602082019050919050565b6000602082019050818103600083015261496c81614930565b9050919050565b6000614986614981846143cc565b6143b1565b9050828152602081018484840111156149a2576149a161434c565b5b6149ad848285613da7565b509392505050565b600082601f8301126149ca576149c9614347565b5b81516149da848260208601614973565b91505092915050565b6000815190506149f28161447c565b92915050565b600081519050614a0781613aa1565b92915050565b614a16816140f6565b8114614a2157600080fd5b50565b600081519050614a3381614a0d565b92915050565b600080600080600080600060e0888a031215614a5857614a57613a2f565b5b600088015167ffffffffffffffff811115614a7657614a75613a34565b5b614a828a828b016149b5565b9750506020614a938a828b016149e3565b9650506040614aa48a828b016149f8565b9550506060614ab58a828b016149f8565b9450506080614ac68a828b016149f8565b93505060a0614ad78a828b01614a24565b92505060c0614ae88a828b016149f8565b91505092959891949750929550565b7f496e76616c696420636f76657220636170616369747900000000000000000000600082015250565b6000614b2d601683613fb1565b9150614b3882614af7565b602082019050919050565b60006020820190508181036000830152614b5c81614b20565b9050919050565b7f4e487b7100000000000000000000000000000000000000000000000000000000600052601160045260246000fd5b6000614b9d82613a97565b9150614ba883613a97565b9250828202614bb681613a97565b91508282048414831517614bcd57614bcc614b63565b5b5092915050565b7f4e487b7100000000000000000000000000000000000000000000000000000000600052601260045260246000fd5b6000614c0e82613a97565b9150614c1983613a97565b925082614c2957614c28614bd4565b5b828204905092915050565b6000614c3f82613a97565b9150614c4a83613a97565b9250828203905081811115614c6257614c61614b63565b5b92915050565b6000604082019050614c7d6000830185613b0d565b614c8a6020830184613cbe565b9392505050565b600080fd5b600080fd5b600081519050614caa81613a6b565b92915050565b60028110614cbd57600080fd5b50565b600081519050614ccf81614cb0565b92915050565b60006101208284031215614cec57614ceb614c91565b5b614cf76101206143b1565b90506000614d0784828501614c9b565b6000830152506020614d1b848285016149f8565b6020830152506040614d2f848285016149f8565b6040830152506060614d43848285016149f8565b6060830152506080614d5784828501614cc0565b60808301525060a0614d6b848285016149f8565b60a08301525060c0614d7f848285016149f8565b60c08301525060e0614d93848285016149f8565b60e083015250610100614da8848285016149f8565b6101008301525092915050565b60006101208284031215614dcc57614dcb613a2f565b5b6000614dda84828501614cd5565b91505092915050565b6000604082019050614df86000830185613cbe565b614e056020830184613b0d565b9392505050565b6000614e1782613a97565b9150614e2283613a97565b9250828201905080821115614e3a57614e39614b63565b5b92915050565b7f4e487b7100000000000000000000000000000000000000000000000000000000600052602260045260246000fd5b60006002820490506001821680614e8757607f821691505b602082108103614e9a57614e99614e40565b5b50919050565b60008190508160005260206000209050919050565b60006020601f8301049050919050565b600082821b905092915050565b600060088302614f027fffffffffffffffffffffffffffffffffffffffffffffffffffffffffffffffff82614ec5565b614f0c8683614ec5565b95508019841693508086168417925050509392505050565b6000614f3f614f3a614f3584613a97565b613c44565b613a97565b9050919050565b6000819050919050565b614f5983614f24565b614f6d614f6582614f46565b848454614ed2565b825550505050565b600090565b614f82614f75565b614f8d818484614f50565b505050565b5b81811015614fb157614fa6600082614f7a565b600181019050614f93565b5050565b601f821115614ff657614fc781614ea0565b614fd084614eb5565b81016020851015614fdf578190505b614ff3614feb85614eb5565b830182614f92565b50505b505050565b600082821c905092915050565b600061501960001984600802614ffb565b1980831691505092915050565b60006150328383615008565b9150826002028217905092915050565b61504b82613d8b565b67ffffffffffffffff81111561506457615063614351565b5b61506e8254614e6f565b615079828285614fb5565b600060209050601f8311600181146150ac576000841561509a578287015190505b6150a48582615026565b86555061510c565b601f1984166150ba86614ea0565b60005b828110156150e2578489015182556001820191506020850194506020810190506150bd565b868310156150ff57848901516150fb601f891682615008565b8355505b6001600288020188555050505b505050505050565b7f4e487b7100000000000000000000000000000000000000000000000000000000600052603260045260246000fd5b60006060820190506151586000830186613b0d565b6151656020830185613b0d565b6151726040830184613ffb565b949350505050565b600061518582613a97565b91507fffffffffffffffffffffffffffffffffffffffffffffffffffffffffffffffff82036151b7576151b6614b63565b5b600182019050919050565b600067ffffffffffffffff8211156151dd576151dc614351565b5b602082029050602081019050919050565b600080fd5b6000610160828403121561520a57615209614c91565b5b6152156101606143b1565b90506000615225848285016149f8565b600083015250602082015167ffffffffffffffff81111561524957615248614c96565b5b615255848285016149b5565b6020830152506040615269848285016149e3565b604083015250606082015167ffffffffffffffff81111561528d5761528c614c96565b5b615299848285016149b5565b60608301525060806152ad848285016149f8565b60808301525060a06152c1848285016149f8565b60a08301525060c06152d5848285016149f8565b60c08301525060e06152e9848285016149f8565b60e0830152506101006152fe848285016149f8565b61010083015250610120615314848285016149f8565b6101208301525061014082015167ffffffffffffffff81111561533a57615339614c96565b5b615346848285016149b5565b6101408301525092915050565b6000615366615361846151c2565b6143b1565b90508083825260208201905060208402830185811115615389576153886151ee565b5b835b818110156153d057805167ffffffffffffffff8111156153ae576153ad614347565b5b8086016153bb89826151f3565b8552602085019450505060208101905061538b565b5050509392505050565b600082601f8301126153ef576153ee614347565b5b81516153ff848260208601615353565b91505092915050565b60006020828403121561541e5761541d613a2f565b5b600082015167ffffffffffffffff81111561543c5761543b613a34565b5b615448848285016153da565b91505092915050565b600081905092915050565b600061546782613d8b565b6154718185615451565b9350615481818560208601613da7565b80840191505092915050565b6000615499828461545c565b915081905092915050565b60006040820190506154b96000830185613b0d565b6154c66020830184613b0d565b9392505050565b60008160001c9050919050565b6000819050919050565b60006154f76154f2836154cd565b6154da565b9050919050565b6000815461550b81614e6f565b6155158186613d96565b94506001821660008114615530576001811461554657615579565b60ff198316865281151560200286019350615579565b61554f85614ea0565b60005b8381101561557157815481890152600182019150602081019050615552565b808801955050505b50505092915050565b600060ff82169050919050565b60006155a261559d836154cd565b615582565b9050919050565b6000610160830160008084015490506155c1816154e4565b6155ce6000870182613d7c565b506001840185830360208701526155e583826154fe565b925050600284015490506155f88161558f565b6156056040870182613e83565b5060038401858303606087015261561c83826154fe565b9250506004840154905061562f816154e4565b61563c6080870182613d7c565b506005840154905061564d816154e4565b61565a60a0870182613d7c565b506006840154905061566b816154e4565b61567860c0870182613d7c565b5060078401549050615689816154e4565b61569660e0870182613d7c565b50600884015490506156a7816154e4565b6156b5610100870182613d7c565b50600984015490506156c6816154e4565b6156d4610120870182613d7c565b50600a84018583036101408701526156ec83826154fe565b925050819250505092915050565b600060408201905061570f6000830185613b0d565b818103602083015261572181846155a9565b90509392505050565b600060408201905081810360008301526157448185613fc2565b90506157536020830184613ffb565b9392505050565b600060408201905061576f6000830185613b0d565b81810360208301526157818184613e92565b9050939250505056fea2646970667358221220d4b3eb572c9e3b18be47e835d00e010644efc7d6fb3574e25ee4a849bb5e8eed64736f6c63430008180033","opcodes":"PUSH1 0x80 PUSH1 0x40 MSTORE CALLVALUE DUP1 ISZERO PUSH3 0x11 JUMPI PUSH1 0x0 DUP1 REVERT JUMPDEST POP PUSH1 0x40 MLOAD PUSH3 0x5BB6 CODESIZE SUB DUP1 PUSH3 0x5BB6 DUP4 CODECOPY DUP2 DUP2 ADD PUSH1 0x40 MSTORE DUP2 ADD SWAP1 PUSH3 0x37 SWAP2 SWAP1 PUSH3 0x346 JUMP JUMPDEST DUP3 PUSH1 0x1 PUSH1 0x0 DUP2 SWAP1 SSTORE POP PUSH1 0x0 PUSH20 0xFFFFFFFFFFFFFFFFFFFFFFFFFFFFFFFFFFFFFFFF AND DUP2 PUSH20 0xFFFFFFFFFFFFFFFFFFFFFFFFFFFFFFFFFFFFFFFF AND SUB PUSH3 0xB5 JUMPI PUSH1 0x0 PUSH1 0x40 MLOAD PUSH32 0x1E4FBDF700000000000000000000000000000000000000000000000000000000 DUP2 MSTORE PUSH1 0x4 ADD PUSH3 0xAC SWAP2 SWAP1 PUSH3 0x3C9 JUMP JUMPDEST PUSH1 0x40 MLOAD DUP1 SWAP2 SUB SWAP1 REVERT JUMPDEST PUSH3 0xC6 DUP2 PUSH3 0x216 PUSH1 0x20 SHL PUSH1 0x20 SHR JUMP JUMPDEST POP DUP4 PUSH1 0x3 PUSH1 0x0 PUSH2 0x100 EXP DUP2 SLOAD DUP2 PUSH20 0xFFFFFFFFFFFFFFFFFFFFFFFFFFFFFFFFFFFFFFFF MUL NOT AND SWAP1 DUP4 PUSH20 0xFFFFFFFFFFFFFFFFFFFFFFFFFFFFFFFFFFFFFFFF AND MUL OR SWAP1 SSTORE POP DUP4 PUSH1 0x6 PUSH1 0x0 PUSH2 0x100 EXP DUP2 SLOAD DUP2 PUSH20 0xFFFFFFFFFFFFFFFFFFFFFFFFFFFFFFFFFFFFFFFF MUL NOT AND SWAP1 DUP4 PUSH20 0xFFFFFFFFFFFFFFFFFFFFFFFFFFFFFFFFFFFFFFFF AND MUL OR SWAP1 SSTORE POP DUP2 PUSH1 0x7 PUSH1 0x0 PUSH2 0x100 EXP DUP2 SLOAD DUP2 PUSH20 0xFFFFFFFFFFFFFFFFFFFFFFFFFFFFFFFFFFFFFFFF MUL NOT AND SWAP1 DUP4 PUSH20 0xFFFFFFFFFFFFFFFFFFFFFFFFFFFFFFFFFFFFFFFF AND MUL OR SWAP1 SSTORE POP DUP1 PUSH1 0x4 PUSH1 0x0 PUSH2 0x100 EXP DUP2 SLOAD DUP2 PUSH20 0xFFFFFFFFFFFFFFFFFFFFFFFFFFFFFFFFFFFFFFFF MUL NOT AND SWAP1 DUP4 PUSH20 0xFFFFFFFFFFFFFFFFFFFFFFFFFFFFFFFFFFFFFFFF AND MUL OR SWAP1 SSTORE POP DUP1 PUSH1 0x5 PUSH1 0x0 PUSH2 0x100 EXP DUP2 SLOAD DUP2 PUSH20 0xFFFFFFFFFFFFFFFFFFFFFFFFFFFFFFFFFFFFFFFF MUL NOT AND SWAP1 DUP4 PUSH20 0xFFFFFFFFFFFFFFFFFFFFFFFFFFFFFFFFFFFFFFFF AND MUL OR SWAP1 SSTORE POP POP POP POP POP PUSH3 0x3E6 JUMP JUMPDEST PUSH1 0x0 PUSH1 0x1 PUSH1 0x0 SWAP1 SLOAD SWAP1 PUSH2 0x100 EXP SWAP1 DIV PUSH20 0xFFFFFFFFFFFFFFFFFFFFFFFFFFFFFFFFFFFFFFFF AND SWAP1 POP DUP2 PUSH1 0x1 PUSH1 0x0 PUSH2 0x100 EXP DUP2 SLOAD DUP2 PUSH20 0xFFFFFFFFFFFFFFFFFFFFFFFFFFFFFFFFFFFFFFFF MUL NOT AND SWAP1 DUP4 PUSH20 0xFFFFFFFFFFFFFFFFFFFFFFFFFFFFFFFFFFFFFFFF AND MUL OR SWAP1 SSTORE POP DUP2 PUSH20 0xFFFFFFFFFFFFFFFFFFFFFFFFFFFFFFFFFFFFFFFF AND DUP2 PUSH20 0xFFFFFFFFFFFFFFFFFFFFFFFFFFFFFFFFFFFFFFFF AND PUSH32 0x8BE0079C531659141344CD1FD0A4F28419497F9722A3DAAFE3B4186F6B6457E0 PUSH1 0x40 MLOAD PUSH1 0x40 MLOAD DUP1 SWAP2 SUB SWAP1 LOG3 POP POP JUMP JUMPDEST PUSH1 0x0 DUP1 REVERT JUMPDEST PUSH1 0x0 PUSH20 0xFFFFFFFFFFFFFFFFFFFFFFFFFFFFFFFFFFFFFFFF DUP3 AND SWAP1 POP SWAP2 SWAP1 POP JUMP JUMPDEST PUSH1 0x0 PUSH3 0x30E DUP3 PUSH3 0x2E1 JUMP JUMPDEST SWAP1 POP SWAP2 SWAP1 POP JUMP JUMPDEST PUSH3 0x320 DUP2 PUSH3 0x301 JUMP JUMPDEST DUP2 EQ PUSH3 0x32C JUMPI PUSH1 0x0 DUP1 REVERT JUMPDEST POP JUMP JUMPDEST PUSH1 0x0 DUP2 MLOAD SWAP1 POP PUSH3 0x340 DUP2 PUSH3 0x315 JUMP JUMPDEST SWAP3 SWAP2 POP POP JUMP JUMPDEST PUSH1 0x0 DUP1 PUSH1 0x0 DUP1 PUSH1 0x80 DUP6 DUP8 SUB SLT ISZERO PUSH3 0x363 JUMPI PUSH3 0x362 PUSH3 0x2DC JUMP JUMPDEST JUMPDEST PUSH1 0x0 PUSH3 0x373 DUP8 DUP3 DUP9 ADD PUSH3 0x32F JUMP JUMPDEST SWAP5 POP POP PUSH1 0x20 PUSH3 0x386 DUP8 DUP3 DUP9 ADD PUSH3 0x32F JUMP JUMPDEST SWAP4 POP POP PUSH1 0x40 PUSH3 0x399 DUP8 DUP3 DUP9 ADD PUSH3 0x32F JUMP JUMPDEST SWAP3 POP POP PUSH1 0x60 PUSH3 0x3AC DUP8 DUP3 DUP9 ADD PUSH3 0x32F JUMP JUMPDEST SWAP2 POP POP SWAP3 SWAP6 SWAP2 SWAP5 POP SWAP3 POP JUMP JUMPDEST PUSH3 0x3C3 DUP2 PUSH3 0x301 JUMP JUMPDEST DUP3 MSTORE POP POP JUMP JUMPDEST PUSH1 0x0 PUSH1 0x20 DUP3 ADD SWAP1 POP PUSH3 0x3E0 PUSH1 0x0 DUP4 ADD DUP5 PUSH3 0x3B8 JUMP JUMPDEST SWAP3 SWAP2 POP POP JUMP JUMPDEST PUSH2 0x57C0 DUP1 PUSH3 0x3F6 PUSH1 0x0 CODECOPY PUSH1 0x0 RETURN INVALID PUSH1 0x80 PUSH1 0x40 MSTORE CALLVALUE DUP1 ISZERO PUSH2 0x10 JUMPI PUSH1 0x0 DUP1 REVERT JUMPDEST POP PUSH1 0x4 CALLDATASIZE LT PUSH2 0x1FB JUMPI PUSH1 0x0 CALLDATALOAD PUSH1 0xE0 SHR DUP1 PUSH4 0x782EA619 GT PUSH2 0x11A JUMPI DUP1 PUSH4 0x9732BDB5 GT PUSH2 0xAD JUMPI DUP1 PUSH4 0xBFC664F3 GT PUSH2 0x7C JUMPI DUP1 PUSH4 0xBFC664F3 EQ PUSH2 0x600 JUMPI DUP1 PUSH4 0xCADCB471 EQ PUSH2 0x61C JUMPI DUP1 PUSH4 0xF2FDE38B EQ PUSH2 0x64C JUMPI DUP1 PUSH4 0xFB643583 EQ PUSH2 0x668 JUMPI DUP1 PUSH4 0xFEB0B8F5 EQ PUSH2 0x698 JUMPI PUSH2 0x1FB JUMP JUMPDEST DUP1 PUSH4 0x9732BDB5 EQ PUSH2 0x570 JUMPI DUP1 PUSH4 0x996B8A6F EQ PUSH2 0x58C JUMPI DUP1 PUSH4 0x9B4DC8CC EQ PUSH2 0x5AA JUMPI DUP1 PUSH4 0x9E7B399E EQ PUSH2 0x5C8 JUMPI PUSH2 0x1FB JUMP JUMPDEST DUP1 PUSH4 0x8DA5CB5B GT PUSH2 0xE9 JUMPI DUP1 PUSH4 0x8DA5CB5B EQ PUSH2 0x4E8 JUMPI DUP1 PUSH4 0x8DE4D101 EQ PUSH2 0x506 JUMPI DUP1 PUSH4 0x93B1AD38 EQ PUSH2 0x522 JUMPI DUP1 PUSH4 0x96F3A8AD EQ PUSH2 0x540 JUMPI PUSH2 0x1FB JUMP JUMPDEST DUP1 PUSH4 0x782EA619 EQ PUSH2 0x44E JUMPI DUP1 PUSH4 0x7A728E7F EQ PUSH2 0x47E JUMPI DUP1 PUSH4 0x7CEB4A69 EQ PUSH2 0x4AE JUMPI DUP1 PUSH4 0x8ACEE3CF EQ PUSH2 0x4CA JUMPI PUSH2 0x1FB JUMP JUMPDEST DUP1 PUSH4 0x5AA6E675 GT PUSH2 0x192 JUMPI DUP1 PUSH4 0x6299DF6C GT PUSH2 0x161 JUMPI DUP1 PUSH4 0x6299DF6C EQ PUSH2 0x3AA JUMPI DUP1 PUSH4 0x649718B2 EQ PUSH2 0x3E4 JUMPI DUP1 PUSH4 0x715018A6 EQ PUSH2 0x414 JUMPI DUP1 PUSH4 0x73CCE3EE EQ PUSH2 0x41E JUMPI PUSH2 0x1FB JUMP JUMPDEST DUP1 PUSH4 0x5AA6E675 EQ PUSH2 0x322 JUMPI DUP1 PUSH4 0x602710A4 EQ PUSH2 0x340 JUMPI DUP1 PUSH4 0x609C7604 EQ PUSH2 0x35C JUMPI DUP1 PUSH4 0x62858BFA EQ PUSH2 0x37A JUMPI PUSH2 0x1FB JUMP JUMPDEST DUP1 PUSH4 0x34808EC3 GT PUSH2 0x1CE JUMPI DUP1 PUSH4 0x34808EC3 EQ PUSH2 0x286 JUMPI DUP1 PUSH4 0x357917B7 EQ PUSH2 0x2A4 JUMPI DUP1 PUSH4 0x35C1D349 EQ PUSH2 0x2C2 JUMPI DUP1 PUSH4 0x46F84795 EQ PUSH2 0x2F2 JUMPI PUSH2 0x1FB JUMP JUMPDEST DUP1 PUSH4 0x10525814 EQ PUSH2 0x200 JUMPI DUP1 PUSH4 0x106B5DA1 EQ PUSH2 0x230 JUMPI DUP1 PUSH4 0x195EC9EE EQ PUSH2 0x24C JUMPI DUP1 PUSH4 0x2D8A340C EQ PUSH2 0x26A JUMPI JUMPDEST PUSH1 0x0 DUP1 REVERT JUMPDEST PUSH2 0x21A PUSH1 0x4 DUP1 CALLDATASIZE SUB DUP2 ADD SWAP1 PUSH2 0x215 SWAP2 SWAP1 PUSH2 0x3ACD JUMP JUMPDEST PUSH2 0x6B6 JUMP JUMPDEST PUSH1 0x40 MLOAD PUSH2 0x227 SWAP2 SWAP1 PUSH2 0x3B1C JUMP JUMPDEST PUSH1 0x40 MLOAD DUP1 SWAP2 SUB SWAP1 RETURN JUMPDEST PUSH2 0x24A PUSH1 0x4 DUP1 CALLDATASIZE SUB DUP2 ADD SWAP1 PUSH2 0x245 SWAP2 SWAP1 PUSH2 0x3B37 JUMP JUMPDEST PUSH2 0x711 JUMP JUMPDEST STOP JUMPDEST PUSH2 0x254 PUSH2 0x977 JUMP JUMPDEST PUSH1 0x40 MLOAD PUSH2 0x261 SWAP2 SWAP1 PUSH2 0x3C22 JUMP JUMPDEST PUSH1 0x40 MLOAD DUP1 SWAP2 SUB SWAP1 RETURN JUMPDEST PUSH2 0x284 PUSH1 0x4 DUP1 CALLDATASIZE SUB DUP2 ADD SWAP1 PUSH2 0x27F SWAP2 SWAP1 PUSH2 0x3B37 JUMP JUMPDEST PUSH2 0xA05 JUMP JUMPDEST STOP JUMPDEST PUSH2 0x28E PUSH2 0xDE7 JUMP JUMPDEST PUSH1 0x40 MLOAD PUSH2 0x29B SWAP2 SWAP1 PUSH2 0x3CA3 JUMP JUMPDEST PUSH1 0x40 MLOAD DUP1 SWAP2 SUB SWAP1 RETURN JUMPDEST PUSH2 0x2AC PUSH2 0xE0D JUMP JUMPDEST PUSH1 0x40 MLOAD PUSH2 0x2B9 SWAP2 SWAP1 PUSH2 0x3B1C JUMP JUMPDEST PUSH1 0x40 MLOAD DUP1 SWAP2 SUB SWAP1 RETURN JUMPDEST PUSH2 0x2DC PUSH1 0x4 DUP1 CALLDATASIZE SUB DUP2 ADD SWAP1 PUSH2 0x2D7 SWAP2 SWAP1 PUSH2 0x3B37 JUMP JUMPDEST PUSH2 0xE13 JUMP JUMPDEST PUSH1 0x40 MLOAD PUSH2 0x2E9 SWAP2 SWAP1 PUSH2 0x3CCD JUMP JUMPDEST PUSH1 0x40 MLOAD DUP1 SWAP2 SUB SWAP1 RETURN JUMPDEST PUSH2 0x30C PUSH1 0x4 DUP1 CALLDATASIZE SUB DUP2 ADD SWAP1 PUSH2 0x307 SWAP2 SWAP1 PUSH2 0x3CE8 JUMP JUMPDEST PUSH2 0xE52 JUMP JUMPDEST PUSH1 0x40 MLOAD PUSH2 0x319 SWAP2 SWAP1 PUSH2 0x3B1C JUMP JUMPDEST PUSH1 0x40 MLOAD DUP1 SWAP2 SUB SWAP1 RETURN JUMPDEST PUSH2 0x32A PUSH2 0xE9B JUMP JUMPDEST PUSH1 0x40 MLOAD PUSH2 0x337 SWAP2 SWAP1 PUSH2 0x3CCD JUMP JUMPDEST PUSH1 0x40 MLOAD DUP1 SWAP2 SUB SWAP1 RETURN JUMPDEST PUSH2 0x35A PUSH1 0x4 DUP1 CALLDATASIZE SUB DUP2 ADD SWAP1 PUSH2 0x355 SWAP2 SWAP1 PUSH2 0x3D15 JUMP JUMPDEST PUSH2 0xEC1 JUMP JUMPDEST STOP JUMPDEST PUSH2 0x364 PUSH2 0x15E9 JUMP JUMPDEST PUSH1 0x40 MLOAD PUSH2 0x371 SWAP2 SWAP1 PUSH2 0x3B1C JUMP JUMPDEST PUSH1 0x40 MLOAD DUP1 SWAP2 SUB SWAP1 RETURN JUMPDEST PUSH2 0x394 PUSH1 0x4 DUP1 CALLDATASIZE SUB DUP2 ADD SWAP1 PUSH2 0x38F SWAP2 SWAP1 PUSH2 0x3B37 JUMP JUMPDEST PUSH2 0x15F3 JUMP JUMPDEST PUSH1 0x40 MLOAD PUSH2 0x3A1 SWAP2 SWAP1 PUSH2 0x3F8F JUMP JUMPDEST PUSH1 0x40 MLOAD DUP1 SWAP2 SUB SWAP1 RETURN JUMPDEST PUSH2 0x3C4 PUSH1 0x4 DUP1 CALLDATASIZE SUB DUP2 ADD SWAP1 PUSH2 0x3BF SWAP2 SWAP1 PUSH2 0x3B37 JUMP JUMPDEST PUSH2 0x1858 JUMP JUMPDEST PUSH1 0x40 MLOAD PUSH2 0x3DB SWAP12 SWAP11 SWAP10 SWAP9 SWAP8 SWAP7 SWAP6 SWAP5 SWAP4 SWAP3 SWAP2 SWAP1 PUSH2 0x400A JUMP JUMPDEST PUSH1 0x40 MLOAD DUP1 SWAP2 SUB SWAP1 RETURN JUMPDEST PUSH2 0x3FE PUSH1 0x4 DUP1 CALLDATASIZE SUB DUP2 ADD SWAP1 PUSH2 0x3F9 SWAP2 SWAP1 PUSH2 0x3CE8 JUMP JUMPDEST PUSH2 0x1A57 JUMP JUMPDEST PUSH1 0x40 MLOAD PUSH2 0x40B SWAP2 SWAP1 PUSH2 0x426C JUMP JUMPDEST PUSH1 0x40 MLOAD DUP1 SWAP2 SUB SWAP1 RETURN JUMPDEST PUSH2 0x41C PUSH2 0x1E02 JUMP JUMPDEST STOP JUMPDEST PUSH2 0x438 PUSH1 0x4 DUP1 CALLDATASIZE SUB DUP2 ADD SWAP1 PUSH2 0x433 SWAP2 SWAP1 PUSH2 0x3ACD JUMP JUMPDEST PUSH2 0x1E16 JUMP JUMPDEST PUSH1 0x40 MLOAD PUSH2 0x445 SWAP2 SWAP1 PUSH2 0x3B1C JUMP JUMPDEST PUSH1 0x40 MLOAD DUP1 SWAP2 SUB SWAP1 RETURN JUMPDEST PUSH2 0x468 PUSH1 0x4 DUP1 CALLDATASIZE SUB DUP2 ADD SWAP1 PUSH2 0x463 SWAP2 SWAP1 PUSH2 0x3B37 JUMP JUMPDEST PUSH2 0x1FB6 JUMP JUMPDEST PUSH1 0x40 MLOAD PUSH2 0x475 SWAP2 SWAP1 PUSH2 0x429D JUMP JUMPDEST PUSH1 0x40 MLOAD DUP1 SWAP2 SUB SWAP1 RETURN JUMPDEST PUSH2 0x498 PUSH1 0x4 DUP1 CALLDATASIZE SUB DUP2 ADD SWAP1 PUSH2 0x493 SWAP2 SWAP1 PUSH2 0x3ACD JUMP JUMPDEST PUSH2 0x1FD6 JUMP JUMPDEST PUSH1 0x40 MLOAD PUSH2 0x4A5 SWAP2 SWAP1 PUSH2 0x3B1C JUMP JUMPDEST PUSH1 0x40 MLOAD DUP1 SWAP2 SUB SWAP1 RETURN JUMPDEST PUSH2 0x4C8 PUSH1 0x4 DUP1 CALLDATASIZE SUB DUP2 ADD SWAP1 PUSH2 0x4C3 SWAP2 SWAP1 PUSH2 0x42B8 JUMP JUMPDEST PUSH2 0x1FFB JUMP JUMPDEST STOP JUMPDEST PUSH2 0x4D2 PUSH2 0x2174 JUMP JUMPDEST PUSH1 0x40 MLOAD PUSH2 0x4DF SWAP2 SWAP1 PUSH2 0x432C JUMP JUMPDEST PUSH1 0x40 MLOAD DUP1 SWAP2 SUB SWAP1 RETURN JUMPDEST PUSH2 0x4F0 PUSH2 0x219A JUMP JUMPDEST PUSH1 0x40 MLOAD PUSH2 0x4FD SWAP2 SWAP1 PUSH2 0x3CCD JUMP JUMPDEST PUSH1 0x40 MLOAD DUP1 SWAP2 SUB SWAP1 RETURN JUMPDEST PUSH2 0x520 PUSH1 0x4 DUP1 CALLDATASIZE SUB DUP2 ADD SWAP1 PUSH2 0x51B SWAP2 SWAP1 PUSH2 0x44A1 JUMP JUMPDEST PUSH2 0x21C4 JUMP JUMPDEST STOP JUMPDEST PUSH2 0x52A PUSH2 0x27B5 JUMP JUMPDEST PUSH1 0x40 MLOAD PUSH2 0x537 SWAP2 SWAP1 PUSH2 0x476A JUMP JUMPDEST PUSH1 0x40 MLOAD DUP1 SWAP2 SUB SWAP1 RETURN JUMPDEST PUSH2 0x55A PUSH1 0x4 DUP1 CALLDATASIZE SUB DUP2 ADD SWAP1 PUSH2 0x555 SWAP2 SWAP1 PUSH2 0x3CE8 JUMP JUMPDEST PUSH2 0x2B7C JUMP JUMPDEST PUSH1 0x40 MLOAD PUSH2 0x567 SWAP2 SWAP1 PUSH2 0x3B1C JUMP JUMPDEST PUSH1 0x40 MLOAD DUP1 SWAP2 SUB SWAP1 RETURN JUMPDEST PUSH2 0x58A PUSH1 0x4 DUP1 CALLDATASIZE SUB DUP2 ADD SWAP1 PUSH2 0x585 SWAP2 SWAP1 PUSH2 0x44A1 JUMP JUMPDEST PUSH2 0x2B94 JUMP JUMPDEST STOP JUMPDEST PUSH2 0x594 PUSH2 0x2EB2 JUMP JUMPDEST PUSH1 0x40 MLOAD PUSH2 0x5A1 SWAP2 SWAP1 PUSH2 0x3CCD JUMP JUMPDEST PUSH1 0x40 MLOAD DUP1 SWAP2 SUB SWAP1 RETURN JUMPDEST PUSH2 0x5B2 PUSH2 0x2ED8 JUMP JUMPDEST PUSH1 0x40 MLOAD PUSH2 0x5BF SWAP2 SWAP1 PUSH2 0x3CCD JUMP JUMPDEST PUSH1 0x40 MLOAD DUP1 SWAP2 SUB SWAP1 RETURN JUMPDEST PUSH2 0x5E2 PUSH1 0x4 DUP1 CALLDATASIZE SUB DUP2 ADD SWAP1 PUSH2 0x5DD SWAP2 SWAP1 PUSH2 0x3ACD JUMP JUMPDEST PUSH2 0x2EFE JUMP JUMPDEST PUSH1 0x40 MLOAD PUSH2 0x5F7 SWAP10 SWAP9 SWAP8 SWAP7 SWAP6 SWAP5 SWAP4 SWAP3 SWAP2 SWAP1 PUSH2 0x478C JUMP JUMPDEST PUSH1 0x40 MLOAD DUP1 SWAP2 SUB SWAP1 RETURN JUMPDEST PUSH2 0x61A PUSH1 0x4 DUP1 CALLDATASIZE SUB DUP2 ADD SWAP1 PUSH2 0x615 SWAP2 SWAP1 PUSH2 0x3CE8 JUMP JUMPDEST PUSH2 0x301B JUMP JUMPDEST STOP JUMPDEST PUSH2 0x636 PUSH1 0x4 DUP1 CALLDATASIZE SUB DUP2 ADD SWAP1 PUSH2 0x631 SWAP2 SWAP1 PUSH2 0x3ACD JUMP JUMPDEST PUSH2 0x31E7 JUMP JUMPDEST PUSH1 0x40 MLOAD PUSH2 0x643 SWAP2 SWAP1 PUSH2 0x48E5 JUMP JUMPDEST PUSH1 0x40 MLOAD DUP1 SWAP2 SUB SWAP1 RETURN JUMPDEST PUSH2 0x666 PUSH1 0x4 DUP1 CALLDATASIZE SUB DUP2 ADD SWAP1 PUSH2 0x661 SWAP2 SWAP1 PUSH2 0x3CE8 JUMP JUMPDEST PUSH2 0x33C3 JUMP JUMPDEST STOP JUMPDEST PUSH2 0x682 PUSH1 0x4 DUP1 CALLDATASIZE SUB DUP2 ADD SWAP1 PUSH2 0x67D SWAP2 SWAP1 PUSH2 0x3B37 JUMP JUMPDEST PUSH2 0x3449 JUMP JUMPDEST PUSH1 0x40 MLOAD PUSH2 0x68F SWAP2 SWAP1 PUSH2 0x3B1C JUMP JUMPDEST PUSH1 0x40 MLOAD DUP1 SWAP2 SUB SWAP1 RETURN JUMPDEST PUSH2 0x6A0 PUSH2 0x346D JUMP JUMPDEST PUSH1 0x40 MLOAD PUSH2 0x6AD SWAP2 SWAP1 PUSH2 0x3B1C JUMP JUMPDEST PUSH1 0x40 MLOAD DUP1 SWAP2 SUB SWAP1 RETURN JUMPDEST PUSH1 0x0 PUSH1 0xB PUSH1 0x0 DUP5 PUSH20 0xFFFFFFFFFFFFFFFFFFFFFFFFFFFFFFFFFFFFFFFF AND PUSH20 0xFFFFFFFFFFFFFFFFFFFFFFFFFFFFFFFFFFFFFFFF AND DUP2 MSTORE PUSH1 0x20 ADD SWAP1 DUP2 MSTORE PUSH1 0x20 ADD PUSH1 0x0 KECCAK256 PUSH1 0x0 DUP4 DUP2 MSTORE PUSH1 0x20 ADD SWAP1 DUP2 MSTORE PUSH1 0x20 ADD PUSH1 0x0 KECCAK256 SLOAD SWAP1 POP SWAP3 SWAP2 POP POP JUMP JUMPDEST PUSH1 0x6 PUSH1 0x0 SWAP1 SLOAD SWAP1 PUSH2 0x100 EXP SWAP1 DIV PUSH20 0xFFFFFFFFFFFFFFFFFFFFFFFFFFFFFFFFFFFFFFFF AND PUSH20 0xFFFFFFFFFFFFFFFFFFFFFFFFFFFFFFFFFFFFFFFF AND CALLER PUSH20 0xFFFFFFFFFFFFFFFFFFFFFFFFFFFFFFFFFFFFFFFF AND EQ PUSH2 0x7A1 JUMPI PUSH1 0x40 MLOAD PUSH32 0x8C379A000000000000000000000000000000000000000000000000000000000 DUP2 MSTORE PUSH1 0x4 ADD PUSH2 0x798 SWAP1 PUSH2 0x4953 JUMP JUMPDEST PUSH1 0x40 MLOAD DUP1 SWAP2 SUB SWAP1 REVERT JUMPDEST PUSH2 0x7A9 PUSH2 0x3473 JUMP JUMPDEST PUSH1 0x0 PUSH1 0xD PUSH1 0x0 DUP4 DUP2 MSTORE PUSH1 0x20 ADD SWAP1 DUP2 MSTORE PUSH1 0x20 ADD PUSH1 0x0 KECCAK256 SWAP1 POP PUSH1 0x0 PUSH1 0x3 PUSH1 0x0 SWAP1 SLOAD SWAP1 PUSH2 0x100 EXP SWAP1 DIV PUSH20 0xFFFFFFFFFFFFFFFFFFFFFFFFFFFFFFFFFFFFFFFF AND PUSH20 0xFFFFFFFFFFFFFFFFFFFFFFFFFFFFFFFFFFFFFFFF AND PUSH4 0x68BCD8D DUP4 PUSH1 0x9 ADD SLOAD PUSH1 0x40 MLOAD DUP3 PUSH4 0xFFFFFFFF AND PUSH1 0xE0 SHL DUP2 MSTORE PUSH1 0x4 ADD PUSH2 0x821 SWAP2 SWAP1 PUSH2 0x3B1C JUMP JUMPDEST PUSH1 0x0 PUSH1 0x40 MLOAD DUP1 DUP4 SUB DUP2 DUP7 GAS STATICCALL ISZERO DUP1 ISZERO PUSH2 0x83E JUMPI RETURNDATASIZE PUSH1 0x0 DUP1 RETURNDATACOPY RETURNDATASIZE PUSH1 0x0 REVERT JUMPDEST POP POP POP POP PUSH1 0x40 MLOAD RETURNDATASIZE PUSH1 0x0 DUP3 RETURNDATACOPY RETURNDATASIZE PUSH1 0x1F NOT PUSH1 0x1F DUP3 ADD AND DUP3 ADD DUP1 PUSH1 0x40 MSTORE POP DUP2 ADD SWAP1 PUSH2 0x867 SWAP2 SWAP1 PUSH2 0x4A39 JUMP JUMPDEST POP POP SWAP5 POP POP POP POP POP PUSH1 0x0 DUP3 PUSH1 0x4 ADD SLOAD GT PUSH2 0x8B6 JUMPI PUSH1 0x40 MLOAD PUSH32 0x8C379A000000000000000000000000000000000000000000000000000000000 DUP2 MSTORE PUSH1 0x4 ADD PUSH2 0x8AD SWAP1 PUSH2 0x4B43 JUMP JUMPDEST PUSH1 0x40 MLOAD DUP1 SWAP2 SUB SWAP1 REVERT JUMPDEST PUSH1 0x0 PUSH8 0xDE0B6B3A7640000 PUSH1 0x64 PUSH8 0xDE0B6B3A7640000 DUP6 PUSH1 0x4 ADD SLOAD PUSH2 0x8DB SWAP2 SWAP1 PUSH2 0x4B92 JUMP JUMPDEST PUSH2 0x8E5 SWAP2 SWAP1 PUSH2 0x4C03 JUMP JUMPDEST DUP4 PUSH2 0x8F0 SWAP2 SWAP1 PUSH2 0x4B92 JUMP JUMPDEST PUSH2 0x8FA SWAP2 SWAP1 PUSH2 0x4C03 JUMP JUMPDEST SWAP1 POP DUP1 PUSH1 0xD PUSH1 0x0 DUP7 DUP2 MSTORE PUSH1 0x20 ADD SWAP1 DUP2 MSTORE PUSH1 0x20 ADD PUSH1 0x0 KECCAK256 PUSH1 0x6 ADD DUP2 SWAP1 SSTORE POP PUSH1 0xD PUSH1 0x0 DUP6 DUP2 MSTORE PUSH1 0x20 ADD SWAP1 DUP2 MSTORE PUSH1 0x20 ADD PUSH1 0x0 KECCAK256 PUSH1 0x7 ADD SLOAD PUSH1 0xD PUSH1 0x0 DUP7 DUP2 MSTORE PUSH1 0x20 ADD SWAP1 DUP2 MSTORE PUSH1 0x20 ADD PUSH1 0x0 KECCAK256 PUSH1 0x6 ADD SLOAD PUSH2 0x94F SWAP2 SWAP1 PUSH2 0x4C34 JUMP JUMPDEST PUSH1 0xD PUSH1 0x0 DUP7 DUP2 MSTORE PUSH1 0x20 ADD SWAP1 DUP2 MSTORE PUSH1 0x20 ADD PUSH1 0x0 KECCAK256 PUSH1 0x8 ADD DUP2 SWAP1 SSTORE POP POP POP POP PUSH2 0x974 PUSH2 0x34B9 JUMP JUMPDEST POP JUMP JUMPDEST PUSH1 0x60 PUSH1 0x8 DUP1 SLOAD DUP1 PUSH1 0x20 MUL PUSH1 0x20 ADD PUSH1 0x40 MLOAD SWAP1 DUP2 ADD PUSH1 0x40 MSTORE DUP1 SWAP3 SWAP2 SWAP1 DUP2 DUP2 MSTORE PUSH1 0x20 ADD DUP3 DUP1 SLOAD DUP1 ISZERO PUSH2 0x9FB JUMPI PUSH1 0x20 MUL DUP3 ADD SWAP2 SWAP1 PUSH1 0x0 MSTORE PUSH1 0x20 PUSH1 0x0 KECCAK256 SWAP1 JUMPDEST DUP2 PUSH1 0x0 SWAP1 SLOAD SWAP1 PUSH2 0x100 EXP SWAP1 DIV PUSH20 0xFFFFFFFFFFFFFFFFFFFFFFFFFFFFFFFFFFFFFFFF AND PUSH20 0xFFFFFFFFFFFFFFFFFFFFFFFFFFFFFFFFFFFFFFFF AND DUP2 MSTORE PUSH1 0x20 ADD SWAP1 PUSH1 0x1 ADD SWAP1 DUP1 DUP4 GT PUSH2 0x9B1 JUMPI JUMPDEST POP POP POP POP POP SWAP1 POP SWAP1 JUMP JUMPDEST PUSH2 0xA0D PUSH2 0x3473 JUMP JUMPDEST PUSH1 0x0 PUSH1 0x3 PUSH1 0x0 SWAP1 SLOAD SWAP1 PUSH2 0x100 EXP SWAP1 DIV PUSH20 0xFFFFFFFFFFFFFFFFFFFFFFFFFFFFFFFFFFFFFFFF AND PUSH20 0xFFFFFFFFFFFFFFFFFFFFFFFFFFFFFFFFFFFFFFFF AND PUSH4 0x4E055244 DUP4 CALLER PUSH1 0x40 MLOAD DUP4 PUSH4 0xFFFFFFFF AND PUSH1 0xE0 SHL DUP2 MSTORE PUSH1 0x4 ADD PUSH2 0xA6C SWAP3 SWAP2 SWAP1 PUSH2 0x4C68 JUMP JUMPDEST PUSH2 0x120 PUSH1 0x40 MLOAD DUP1 DUP4 SUB DUP2 DUP7 GAS STATICCALL ISZERO DUP1 ISZERO PUSH2 0xA8A JUMPI RETURNDATASIZE PUSH1 0x0 DUP1 RETURNDATACOPY RETURNDATASIZE PUSH1 0x0 REVERT JUMPDEST POP POP POP POP PUSH1 0x40 MLOAD RETURNDATASIZE PUSH1 0x1F NOT PUSH1 0x1F DUP3 ADD AND DUP3 ADD DUP1 PUSH1 0x40 MSTORE POP DUP2 ADD SWAP1 PUSH2 0xAAE SWAP2 SWAP1 PUSH2 0x4DB5 JUMP JUMPDEST SWAP1 POP PUSH1 0x0 PUSH1 0x1 DUP2 GT ISZERO PUSH2 0xAC4 JUMPI PUSH2 0xAC3 PUSH2 0x3E1B JUMP JUMPDEST JUMPDEST DUP2 PUSH1 0x80 ADD MLOAD PUSH1 0x1 DUP2 GT ISZERO PUSH2 0xADB JUMPI PUSH2 0xADA PUSH2 0x3E1B JUMP JUMPDEST JUMPDEST EQ PUSH2 0xB12 JUMPI PUSH1 0x40 MLOAD PUSH32 0xE067835F00000000000000000000000000000000000000000000000000000000 DUP2 MSTORE PUSH1 0x4 ADD PUSH1 0x40 MLOAD DUP1 SWAP2 SUB SWAP1 REVERT JUMPDEST PUSH1 0x0 DUP1 PUSH1 0xB PUSH1 0x0 CALLER PUSH20 0xFFFFFFFFFFFFFFFFFFFFFFFFFFFFFFFFFFFFFFFF AND PUSH20 0xFFFFFFFFFFFFFFFFFFFFFFFFFFFFFFFFFFFFFFFF AND DUP2 MSTORE PUSH1 0x20 ADD SWAP1 DUP2 MSTORE PUSH1 0x20 ADD PUSH1 0x0 KECCAK256 PUSH1 0x0 DUP6 DUP2 MSTORE PUSH1 0x20 ADD SWAP1 DUP2 MSTORE PUSH1 0x20 ADD PUSH1 0x0 KECCAK256 SLOAD SUB PUSH2 0xB77 JUMPI DUP2 PUSH1 0xC0 ADD MLOAD SWAP1 POP PUSH2 0xBCB JUMP JUMPDEST PUSH1 0xB PUSH1 0x0 CALLER PUSH20 0xFFFFFFFFFFFFFFFFFFFFFFFFFFFFFFFFFFFFFFFF AND PUSH20 0xFFFFFFFFFFFFFFFFFFFFFFFFFFFFFFFFFFFFFFFF AND DUP2 MSTORE PUSH1 0x20 ADD SWAP1 DUP2 MSTORE PUSH1 0x20 ADD PUSH1 0x0 KECCAK256 PUSH1 0x0 DUP5 DUP2 MSTORE PUSH1 0x20 ADD SWAP1 DUP2 MSTORE PUSH1 0x20 ADD PUSH1 0x0 KECCAK256 SLOAD SWAP1 POP JUMPDEST PUSH1 0x0 TIMESTAMP SWAP1 POP DUP3 PUSH1 0xE0 ADD MLOAD DUP2 GT ISZERO PUSH2 0xBE4 JUMPI DUP3 PUSH1 0xE0 ADD MLOAD SWAP1 POP JUMPDEST PUSH1 0x0 PUSH2 0x12C DUP4 DUP4 PUSH2 0xBF5 SWAP2 SWAP1 PUSH2 0x4C34 JUMP JUMPDEST PUSH2 0xBFF SWAP2 SWAP1 PUSH2 0x4C03 JUMP JUMPDEST SWAP1 POP PUSH1 0x0 DUP2 GT PUSH2 0xC3B JUMPI PUSH1 0x40 MLOAD PUSH32 0xED700A6700000000000000000000000000000000000000000000000000000000 DUP2 MSTORE PUSH1 0x4 ADD PUSH1 0x40 MLOAD DUP1 SWAP2 SUB SWAP1 REVERT JUMPDEST PUSH1 0x0 DUP2 DUP6 PUSH1 0x60 ADD MLOAD PUSH2 0xC4D SWAP2 SWAP1 PUSH2 0x4B92 JUMP JUMPDEST SWAP1 POP PUSH1 0x2 SLOAD DUP2 GT ISZERO PUSH2 0xC8B JUMPI PUSH1 0x40 MLOAD PUSH32 0xBC6072F100000000000000000000000000000000000000000000000000000000 DUP2 MSTORE PUSH1 0x4 ADD PUSH1 0x40 MLOAD DUP1 SWAP2 SUB SWAP1 REVERT JUMPDEST TIMESTAMP PUSH1 0xB PUSH1 0x0 CALLER PUSH20 0xFFFFFFFFFFFFFFFFFFFFFFFFFFFFFFFFFFFFFFFF AND PUSH20 0xFFFFFFFFFFFFFFFFFFFFFFFFFFFFFFFFFFFFFFFF AND DUP2 MSTORE PUSH1 0x20 ADD SWAP1 DUP2 MSTORE PUSH1 0x20 ADD PUSH1 0x0 KECCAK256 PUSH1 0x0 DUP9 DUP2 MSTORE PUSH1 0x20 ADD SWAP1 DUP2 MSTORE PUSH1 0x20 ADD PUSH1 0x0 KECCAK256 DUP2 SWAP1 SSTORE POP PUSH1 0x4 PUSH1 0x0 SWAP1 SLOAD SWAP1 PUSH2 0x100 EXP SWAP1 DIV PUSH20 0xFFFFFFFFFFFFFFFFFFFFFFFFFFFFFFFFFFFFFFFF AND PUSH20 0xFFFFFFFFFFFFFFFFFFFFFFFFFFFFFFFFFFFFFFFF AND PUSH4 0xE2094EDA CALLER DUP4 PUSH1 0x40 MLOAD DUP4 PUSH4 0xFFFFFFFF AND PUSH1 0xE0 SHL DUP2 MSTORE PUSH1 0x4 ADD PUSH2 0xD3D SWAP3 SWAP2 SWAP1 PUSH2 0x4DE3 JUMP JUMPDEST PUSH1 0x0 PUSH1 0x40 MLOAD DUP1 DUP4 SUB DUP2 PUSH1 0x0 DUP8 DUP1 EXTCODESIZE ISZERO DUP1 ISZERO PUSH2 0xD57 JUMPI PUSH1 0x0 DUP1 REVERT JUMPDEST POP GAS CALL ISZERO DUP1 ISZERO PUSH2 0xD6B JUMPI RETURNDATASIZE PUSH1 0x0 DUP1 RETURNDATACOPY RETURNDATASIZE PUSH1 0x0 REVERT JUMPDEST POP POP POP POP DUP1 PUSH1 0x2 PUSH1 0x0 DUP3 DUP3 SLOAD PUSH2 0xD81 SWAP2 SWAP1 PUSH2 0x4C34 JUMP JUMPDEST SWAP3 POP POP DUP2 SWAP1 SSTORE POP DUP6 CALLER PUSH20 0xFFFFFFFFFFFFFFFFFFFFFFFFFFFFFFFFFFFFFFFF AND PUSH32 0x408E6E0B73DAF4C873106E95FD067260FBFF8BF9D1B499CAD563D4480D45BAC DUP4 PUSH1 0x40 MLOAD PUSH2 0xDCF SWAP2 SWAP1 PUSH2 0x3B1C JUMP JUMPDEST PUSH1 0x40 MLOAD DUP1 SWAP2 SUB SWAP1 LOG3 POP POP POP POP POP PUSH2 0xDE4 PUSH2 0x34B9 JUMP JUMPDEST POP JUMP JUMPDEST PUSH1 0x4 PUSH1 0x0 SWAP1 SLOAD SWAP1 PUSH2 0x100 EXP SWAP1 DIV PUSH20 0xFFFFFFFFFFFFFFFFFFFFFFFFFFFFFFFFFFFFFFFF AND DUP2 JUMP JUMPDEST PUSH1 0x2 SLOAD DUP2 JUMP JUMPDEST PUSH1 0x8 DUP2 DUP2 SLOAD DUP2 LT PUSH2 0xE23 JUMPI PUSH1 0x0 DUP1 REVERT JUMPDEST SWAP1 PUSH1 0x0 MSTORE PUSH1 0x20 PUSH1 0x0 KECCAK256 ADD PUSH1 0x0 SWAP2 POP SLOAD SWAP1 PUSH2 0x100 EXP SWAP1 DIV PUSH20 0xFFFFFFFFFFFFFFFFFFFFFFFFFFFFFFFFFFFFFFFF AND DUP2 JUMP JUMPDEST PUSH1 0x0 PUSH1 0x9 PUSH1 0x0 DUP4 PUSH20 0xFFFFFFFFFFFFFFFFFFFFFFFFFFFFFFFFFFFFFFFF AND PUSH20 0xFFFFFFFFFFFFFFFFFFFFFFFFFFFFFFFFFFFFFFFF AND DUP2 MSTORE PUSH1 0x20 ADD SWAP1 DUP2 MSTORE PUSH1 0x20 ADD PUSH1 0x0 KECCAK256 SLOAD SWAP1 POP SWAP2 SWAP1 POP JUMP JUMPDEST PUSH1 0x7 PUSH1 0x0 SWAP1 SLOAD SWAP1 PUSH2 0x100 EXP SWAP1 DIV PUSH20 0xFFFFFFFFFFFFFFFFFFFFFFFFFFFFFFFFFFFFFFFF AND DUP2 JUMP JUMPDEST PUSH2 0xEC9 PUSH2 0x3473 JUMP JUMPDEST PUSH1 0x0 DUP2 GT PUSH2 0xF03 JUMPI PUSH1 0x40 MLOAD PUSH32 0x2C5211C600000000000000000000000000000000000000000000000000000000 DUP2 MSTORE PUSH1 0x4 ADD PUSH1 0x40 MLOAD DUP1 SWAP2 SUB SWAP1 REVERT JUMPDEST PUSH1 0x1B DUP3 GT ISZERO DUP1 PUSH2 0xF15 JUMPI POP PUSH2 0x16E DUP3 LT ISZERO JUMPDEST ISZERO PUSH2 0xF4C JUMPI PUSH1 0x40 MLOAD PUSH32 0x3F132B1200000000000000000000000000000000000000000000000000000000 DUP2 MSTORE PUSH1 0x4 ADD PUSH1 0x40 MLOAD DUP1 SWAP2 SUB SWAP1 REVERT JUMPDEST PUSH1 0xA PUSH1 0x0 DUP6 DUP2 MSTORE PUSH1 0x20 ADD SWAP1 DUP2 MSTORE PUSH1 0x20 ADD PUSH1 0x0 KECCAK256 PUSH1 0x0 SWAP1 SLOAD SWAP1 PUSH2 0x100 EXP SWAP1 DIV PUSH1 0xFF AND PUSH2 0xFA3 JUMPI PUSH1 0x40 MLOAD PUSH32 0xBCCD404300000000000000000000000000000000000000000000000000000000 DUP2 MSTORE PUSH1 0x4 ADD PUSH1 0x40 MLOAD DUP1 SWAP2 SUB SWAP1 REVERT JUMPDEST PUSH1 0x0 PUSH1 0xD PUSH1 0x0 DUP7 DUP2 MSTORE PUSH1 0x20 ADD SWAP1 DUP2 MSTORE PUSH1 0x20 ADD PUSH1 0x0 KECCAK256 SWAP1 POP DUP1 PUSH1 0x8 ADD SLOAD DUP5 GT ISZERO PUSH2 0xFF8 JUMPI PUSH1 0x40 MLOAD PUSH32 0xBC6072F100000000000000000000000000000000000000000000000000000000 DUP2 MSTORE PUSH1 0x4 ADD PUSH1 0x40 MLOAD DUP1 SWAP2 SUB SWAP1 REVERT JUMPDEST PUSH1 0x0 DUP5 DUP3 PUSH1 0x7 ADD SLOAD PUSH2 0x100A SWAP2 SWAP1 PUSH2 0x4E0C JUMP JUMPDEST SWAP1 POP DUP2 PUSH1 0x6 ADD SLOAD DUP2 GT ISZERO PUSH2 0x104A JUMPI PUSH1 0x40 MLOAD PUSH32 0xBC6072F100000000000000000000000000000000000000000000000000000000 DUP2 MSTORE PUSH1 0x4 ADD PUSH1 0x40 MLOAD DUP1 SWAP2 SUB SWAP1 REVERT JUMPDEST PUSH1 0x4 PUSH1 0x0 SWAP1 SLOAD SWAP1 PUSH2 0x100 EXP SWAP1 DIV PUSH20 0xFFFFFFFFFFFFFFFFFFFFFFFFFFFFFFFFFFFFFFFF AND PUSH20 0xFFFFFFFFFFFFFFFFFFFFFFFFFFFFFFFFFFFFFFFF AND PUSH4 0x9DC29FAC CALLER DUP6 PUSH1 0x40 MLOAD DUP4 PUSH4 0xFFFFFFFF AND PUSH1 0xE0 SHL DUP2 MSTORE PUSH1 0x4 ADD PUSH2 0x10A7 SWAP3 SWAP2 SWAP1 PUSH2 0x4DE3 JUMP JUMPDEST PUSH1 0x0 PUSH1 0x40 MLOAD DUP1 DUP4 SUB DUP2 PUSH1 0x0 DUP8 DUP1 EXTCODESIZE ISZERO DUP1 ISZERO PUSH2 0x10C1 JUMPI PUSH1 0x0 DUP1 REVERT JUMPDEST POP GAS CALL ISZERO DUP1 ISZERO PUSH2 0x10D5 JUMPI RETURNDATASIZE PUSH1 0x0 DUP1 RETURNDATACOPY RETURNDATASIZE PUSH1 0x0 REVERT JUMPDEST POP POP POP POP DUP1 DUP3 PUSH1 0x7 ADD DUP2 SWAP1 SSTORE POP DUP1 DUP3 PUSH1 0x6 ADD SLOAD PUSH2 0x10F2 SWAP2 SWAP1 PUSH2 0x4C34 JUMP JUMPDEST DUP3 PUSH1 0x8 ADD DUP2 SWAP1 SSTORE POP DUP2 PUSH1 0x7 ADD SLOAD DUP3 PUSH1 0x6 ADD SLOAD PUSH2 0x110E SWAP2 SWAP1 PUSH2 0x4C34 JUMP JUMPDEST DUP3 PUSH1 0x8 ADD DUP2 SWAP1 SSTORE POP PUSH1 0x0 PUSH1 0xC PUSH1 0x0 CALLER PUSH20 0xFFFFFFFFFFFFFFFFFFFFFFFFFFFFFFFFFFFFFFFF AND PUSH20 0xFFFFFFFFFFFFFFFFFFFFFFFFFFFFFFFFFFFFFFFF AND DUP2 MSTORE PUSH1 0x20 ADD SWAP1 DUP2 MSTORE PUSH1 0x20 ADD PUSH1 0x0 KECCAK256 PUSH1 0x0 DUP9 DUP2 MSTORE PUSH1 0x20 ADD SWAP1 DUP2 MSTORE PUSH1 0x20 ADD PUSH1 0x0 KECCAK256 SWAP1 POP PUSH1 0x0 DUP2 PUSH1 0x4 ADD SLOAD SUB PUSH2 0x13D0 JUMPI PUSH1 0x40 MLOAD DUP1 PUSH2 0x120 ADD PUSH1 0x40 MSTORE DUP1 CALLER PUSH20 0xFFFFFFFFFFFFFFFFFFFFFFFFFFFFFFFFFFFFFFFF AND DUP2 MSTORE PUSH1 0x20 ADD DUP9 DUP2 MSTORE PUSH1 0x20 ADD DUP5 PUSH1 0x2 ADD PUSH1 0x0 SWAP1 SLOAD SWAP1 PUSH2 0x100 EXP SWAP1 DIV PUSH1 0xFF AND PUSH1 0x3 DUP2 GT ISZERO PUSH2 0x11C8 JUMPI PUSH2 0x11C7 PUSH2 0x3E1B JUMP JUMPDEST JUMPDEST DUP2 MSTORE PUSH1 0x20 ADD DUP5 PUSH1 0x1 ADD DUP1 SLOAD PUSH2 0x11DC SWAP1 PUSH2 0x4E6F JUMP JUMPDEST DUP1 PUSH1 0x1F ADD PUSH1 0x20 DUP1 SWAP2 DIV MUL PUSH1 0x20 ADD PUSH1 0x40 MLOAD SWAP1 DUP2 ADD PUSH1 0x40 MSTORE DUP1 SWAP3 SWAP2 SWAP1 DUP2 DUP2 MSTORE PUSH1 0x20 ADD DUP3 DUP1 SLOAD PUSH2 0x1208 SWAP1 PUSH2 0x4E6F JUMP JUMPDEST DUP1 ISZERO PUSH2 0x1255 JUMPI DUP1 PUSH1 0x1F LT PUSH2 0x122A JUMPI PUSH2 0x100 DUP1 DUP4 SLOAD DIV MUL DUP4 MSTORE SWAP2 PUSH1 0x20 ADD SWAP2 PUSH2 0x1255 JUMP JUMPDEST DUP3 ADD SWAP2 SWAP1 PUSH1 0x0 MSTORE PUSH1 0x20 PUSH1 0x0 KECCAK256 SWAP1 JUMPDEST DUP2 SLOAD DUP2 MSTORE SWAP1 PUSH1 0x1 ADD SWAP1 PUSH1 0x20 ADD DUP1 DUP4 GT PUSH2 0x1238 JUMPI DUP3 SWAP1 SUB PUSH1 0x1F AND DUP3 ADD SWAP2 JUMPDEST POP POP POP POP POP DUP2 MSTORE PUSH1 0x20 ADD DUP8 DUP2 MSTORE PUSH1 0x20 ADD PUSH1 0x0 DUP2 MSTORE PUSH1 0x20 ADD DUP7 DUP2 MSTORE PUSH1 0x20 ADD PUSH3 0x15180 DUP8 PUSH2 0x1281 SWAP2 SWAP1 PUSH2 0x4B92 JUMP JUMPDEST TIMESTAMP PUSH2 0x128C SWAP2 SWAP1 PUSH2 0x4E0C JUMP JUMPDEST DUP2 MSTORE PUSH1 0x20 ADD PUSH1 0x1 ISZERO ISZERO DUP2 MSTORE POP PUSH1 0xC PUSH1 0x0 CALLER PUSH20 0xFFFFFFFFFFFFFFFFFFFFFFFFFFFFFFFFFFFFFFFF AND PUSH20 0xFFFFFFFFFFFFFFFFFFFFFFFFFFFFFFFFFFFFFFFF AND DUP2 MSTORE PUSH1 0x20 ADD SWAP1 DUP2 MSTORE PUSH1 0x20 ADD PUSH1 0x0 KECCAK256 PUSH1 0x0 DUP10 DUP2 MSTORE PUSH1 0x20 ADD SWAP1 DUP2 MSTORE PUSH1 0x20 ADD PUSH1 0x0 KECCAK256 PUSH1 0x0 DUP3 ADD MLOAD DUP2 PUSH1 0x0 ADD PUSH1 0x0 PUSH2 0x100 EXP DUP2 SLOAD DUP2 PUSH20 0xFFFFFFFFFFFFFFFFFFFFFFFFFFFFFFFFFFFFFFFF MUL NOT AND SWAP1 DUP4 PUSH20 0xFFFFFFFFFFFFFFFFFFFFFFFFFFFFFFFFFFFFFFFF AND MUL OR SWAP1 SSTORE POP PUSH1 0x20 DUP3 ADD MLOAD DUP2 PUSH1 0x1 ADD SSTORE PUSH1 0x40 DUP3 ADD MLOAD DUP2 PUSH1 0x2 ADD PUSH1 0x0 PUSH2 0x100 EXP DUP2 SLOAD DUP2 PUSH1 0xFF MUL NOT AND SWAP1 DUP4 PUSH1 0x3 DUP2 GT ISZERO PUSH2 0x1364 JUMPI PUSH2 0x1363 PUSH2 0x3E1B JUMP JUMPDEST JUMPDEST MUL OR SWAP1 SSTORE POP PUSH1 0x60 DUP3 ADD MLOAD DUP2 PUSH1 0x3 ADD SWAP1 DUP2 PUSH2 0x137E SWAP2 SWAP1 PUSH2 0x5042 JUMP JUMPDEST POP PUSH1 0x80 DUP3 ADD MLOAD DUP2 PUSH1 0x4 ADD SSTORE PUSH1 0xA0 DUP3 ADD MLOAD DUP2 PUSH1 0x5 ADD SSTORE PUSH1 0xC0 DUP3 ADD MLOAD DUP2 PUSH1 0x6 ADD SSTORE PUSH1 0xE0 DUP3 ADD MLOAD DUP2 PUSH1 0x7 ADD SSTORE PUSH2 0x100 DUP3 ADD MLOAD DUP2 PUSH1 0x8 ADD PUSH1 0x0 PUSH2 0x100 EXP DUP2 SLOAD DUP2 PUSH1 0xFF MUL NOT AND SWAP1 DUP4 ISZERO ISZERO MUL OR SWAP1 SSTORE POP SWAP1 POP POP PUSH2 0x1402 JUMP JUMPDEST PUSH1 0x40 MLOAD PUSH32 0x9857CBD900000000000000000000000000000000000000000000000000000000 DUP2 MSTORE PUSH1 0x4 ADD PUSH1 0x40 MLOAD DUP1 SWAP2 SUB SWAP1 REVERT JUMPDEST PUSH1 0x0 DUP1 JUMPDEST PUSH1 0x8 DUP1 SLOAD SWAP1 POP DUP2 LT ISZERO PUSH2 0x149A JUMPI CALLER PUSH20 0xFFFFFFFFFFFFFFFFFFFFFFFFFFFFFFFFFFFFFFFF AND PUSH1 0x8 DUP3 DUP2 SLOAD DUP2 LT PUSH2 0x143E JUMPI PUSH2 0x143D PUSH2 0x5114 JUMP JUMPDEST JUMPDEST SWAP1 PUSH1 0x0 MSTORE PUSH1 0x20 PUSH1 0x0 KECCAK256 ADD PUSH1 0x0 SWAP1 SLOAD SWAP1 PUSH2 0x100 EXP SWAP1 DIV PUSH20 0xFFFFFFFFFFFFFFFFFFFFFFFFFFFFFFFFFFFFFFFF AND PUSH20 0xFFFFFFFFFFFFFFFFFFFFFFFFFFFFFFFFFFFFFFFF AND SUB PUSH2 0x148D JUMPI PUSH1 0x1 SWAP2 POP PUSH2 0x149A JUMP JUMPDEST DUP1 DUP1 PUSH1 0x1 ADD SWAP2 POP POP PUSH2 0x1406 JUMP JUMPDEST POP DUP1 PUSH2 0x1504 JUMPI PUSH1 0x8 CALLER SWAP1 DUP1 PUSH1 0x1 DUP2 SLOAD ADD DUP1 DUP3 SSTORE DUP1 SWAP2 POP POP PUSH1 0x1 SWAP1 SUB SWAP1 PUSH1 0x0 MSTORE PUSH1 0x20 PUSH1 0x0 KECCAK256 ADD PUSH1 0x0 SWAP1 SWAP2 SWAP1 SWAP2 SWAP1 SWAP2 PUSH2 0x100 EXP DUP2 SLOAD DUP2 PUSH20 0xFFFFFFFFFFFFFFFFFFFFFFFFFFFFFFFFFFFFFFFF MUL NOT AND SWAP1 DUP4 PUSH20 0xFFFFFFFFFFFFFFFFFFFFFFFFFFFFFFFFFFFFFFFF AND MUL OR SWAP1 SSTORE POP JUMPDEST PUSH1 0x1 PUSH1 0x9 PUSH1 0x0 CALLER PUSH20 0xFFFFFFFFFFFFFFFFFFFFFFFFFFFFFFFFFFFFFFFF AND PUSH20 0xFFFFFFFFFFFFFFFFFFFFFFFFFFFFFFFFFFFFFFFF AND DUP2 MSTORE PUSH1 0x20 ADD SWAP1 DUP2 MSTORE PUSH1 0x20 ADD PUSH1 0x0 KECCAK256 PUSH1 0x0 DUP3 DUP3 SLOAD PUSH2 0x1554 SWAP2 SWAP1 PUSH2 0x4E0C JUMP JUMPDEST SWAP3 POP POP DUP2 SWAP1 SSTORE POP DUP5 PUSH1 0x2 PUSH1 0x0 DUP3 DUP3 SLOAD PUSH2 0x156D SWAP2 SWAP1 PUSH2 0x4E0C JUMP JUMPDEST SWAP3 POP POP DUP2 SWAP1 SSTORE POP CALLER PUSH20 0xFFFFFFFFFFFFFFFFFFFFFFFFFFFFFFFFFFFFFFFF AND PUSH32 0x23B0F39E0762759FFB18632A1A2B79C9EB58571454E5F7C36E0A2F81759E0A34 DUP9 DUP8 DUP8 PUSH1 0x2 ADD PUSH1 0x0 SWAP1 SLOAD SWAP1 PUSH2 0x100 EXP SWAP1 DIV PUSH1 0xFF AND PUSH1 0x40 MLOAD PUSH2 0x15CF SWAP4 SWAP3 SWAP2 SWAP1 PUSH2 0x5143 JUMP JUMPDEST PUSH1 0x40 MLOAD DUP1 SWAP2 SUB SWAP1 LOG2 POP POP POP POP PUSH2 0x15E3 PUSH2 0x34B9 JUMP JUMPDEST POP POP POP POP JUMP JUMPDEST PUSH1 0x0 PUSH1 0x2 SLOAD SWAP1 POP SWAP1 JUMP JUMPDEST PUSH2 0x15FB PUSH2 0x38E6 JUMP JUMPDEST PUSH1 0xD PUSH1 0x0 DUP4 DUP2 MSTORE PUSH1 0x20 ADD SWAP1 DUP2 MSTORE PUSH1 0x20 ADD PUSH1 0x0 KECCAK256 PUSH1 0x40 MLOAD DUP1 PUSH2 0x160 ADD PUSH1 0x40 MSTORE SWAP1 DUP2 PUSH1 0x0 DUP3 ADD SLOAD DUP2 MSTORE PUSH1 0x20 ADD PUSH1 0x1 DUP3 ADD DUP1 SLOAD PUSH2 0x1634 SWAP1 PUSH2 0x4E6F JUMP JUMPDEST DUP1 PUSH1 0x1F ADD PUSH1 0x20 DUP1 SWAP2 DIV MUL PUSH1 0x20 ADD PUSH1 0x40 MLOAD SWAP1 DUP2 ADD PUSH1 0x40 MSTORE DUP1 SWAP3 SWAP2 SWAP1 DUP2 DUP2 MSTORE PUSH1 0x20 ADD DUP3 DUP1 SLOAD PUSH2 0x1660 SWAP1 PUSH2 0x4E6F JUMP JUMPDEST DUP1 ISZERO PUSH2 0x16AD JUMPI DUP1 PUSH1 0x1F LT PUSH2 0x1682 JUMPI PUSH2 0x100 DUP1 DUP4 SLOAD DIV MUL DUP4 MSTORE SWAP2 PUSH1 0x20 ADD SWAP2 PUSH2 0x16AD JUMP JUMPDEST DUP3 ADD SWAP2 SWAP1 PUSH1 0x0 MSTORE PUSH1 0x20 PUSH1 0x0 KECCAK256 SWAP1 JUMPDEST DUP2 SLOAD DUP2 MSTORE SWAP1 PUSH1 0x1 ADD SWAP1 PUSH1 0x20 ADD DUP1 DUP4 GT PUSH2 0x1690 JUMPI DUP3 SWAP1 SUB PUSH1 0x1F AND DUP3 ADD SWAP2 JUMPDEST POP POP POP POP POP DUP2 MSTORE PUSH1 0x20 ADD PUSH1 0x2 DUP3 ADD PUSH1 0x0 SWAP1 SLOAD SWAP1 PUSH2 0x100 EXP SWAP1 DIV PUSH1 0xFF AND PUSH1 0x3 DUP2 GT ISZERO PUSH2 0x16DB JUMPI PUSH2 0x16DA PUSH2 0x3E1B JUMP JUMPDEST JUMPDEST PUSH1 0x3 DUP2 GT ISZERO PUSH2 0x16ED JUMPI PUSH2 0x16EC PUSH2 0x3E1B JUMP JUMPDEST JUMPDEST DUP2 MSTORE PUSH1 0x20 ADD PUSH1 0x3 DUP3 ADD DUP1 SLOAD PUSH2 0x1701 SWAP1 PUSH2 0x4E6F JUMP JUMPDEST DUP1 PUSH1 0x1F ADD PUSH1 0x20 DUP1 SWAP2 DIV MUL PUSH1 0x20 ADD PUSH1 0x40 MLOAD SWAP1 DUP2 ADD PUSH1 0x40 MSTORE DUP1 SWAP3 SWAP2 SWAP1 DUP2 DUP2 MSTORE PUSH1 0x20 ADD DUP3 DUP1 SLOAD PUSH2 0x172D SWAP1 PUSH2 0x4E6F JUMP JUMPDEST DUP1 ISZERO PUSH2 0x177A JUMPI DUP1 PUSH1 0x1F LT PUSH2 0x174F JUMPI PUSH2 0x100 DUP1 DUP4 SLOAD DIV MUL DUP4 MSTORE SWAP2 PUSH1 0x20 ADD SWAP2 PUSH2 0x177A JUMP JUMPDEST DUP3 ADD SWAP2 SWAP1 PUSH1 0x0 MSTORE PUSH1 0x20 PUSH1 0x0 KECCAK256 SWAP1 JUMPDEST DUP2 SLOAD DUP2 MSTORE SWAP1 PUSH1 0x1 ADD SWAP1 PUSH1 0x20 ADD DUP1 DUP4 GT PUSH2 0x175D JUMPI DUP3 SWAP1 SUB PUSH1 0x1F AND DUP3 ADD SWAP2 JUMPDEST POP POP POP POP POP DUP2 MSTORE PUSH1 0x20 ADD PUSH1 0x4 DUP3 ADD SLOAD DUP2 MSTORE PUSH1 0x20 ADD PUSH1 0x5 DUP3 ADD SLOAD DUP2 MSTORE PUSH1 0x20 ADD PUSH1 0x6 DUP3 ADD SLOAD DUP2 MSTORE PUSH1 0x20 ADD PUSH1 0x7 DUP3 ADD SLOAD DUP2 MSTORE PUSH1 0x20 ADD PUSH1 0x8 DUP3 ADD SLOAD DUP2 MSTORE PUSH1 0x20 ADD PUSH1 0x9 DUP3 ADD SLOAD DUP2 MSTORE PUSH1 0x20 ADD PUSH1 0xA DUP3 ADD DUP1 SLOAD PUSH2 0x17CF SWAP1 PUSH2 0x4E6F JUMP JUMPDEST DUP1 PUSH1 0x1F ADD PUSH1 0x20 DUP1 SWAP2 DIV MUL PUSH1 0x20 ADD PUSH1 0x40 MLOAD SWAP1 DUP2 ADD PUSH1 0x40 MSTORE DUP1 SWAP3 SWAP2 SWAP1 DUP2 DUP2 MSTORE PUSH1 0x20 ADD DUP3 DUP1 SLOAD PUSH2 0x17FB SWAP1 PUSH2 0x4E6F JUMP JUMPDEST DUP1 ISZERO PUSH2 0x1848 JUMPI DUP1 PUSH1 0x1F LT PUSH2 0x181D JUMPI PUSH2 0x100 DUP1 DUP4 SLOAD DIV MUL DUP4 MSTORE SWAP2 PUSH1 0x20 ADD SWAP2 PUSH2 0x1848 JUMP JUMPDEST DUP3 ADD SWAP2 SWAP1 PUSH1 0x0 MSTORE PUSH1 0x20 PUSH1 0x0 KECCAK256 SWAP1 JUMPDEST DUP2 SLOAD DUP2 MSTORE SWAP1 PUSH1 0x1 ADD SWAP1 PUSH1 0x20 ADD DUP1 DUP4 GT PUSH2 0x182B JUMPI DUP3 SWAP1 SUB PUSH1 0x1F AND DUP3 ADD SWAP2 JUMPDEST POP POP POP POP POP DUP2 MSTORE POP POP SWAP1 POP SWAP2 SWAP1 POP JUMP JUMPDEST PUSH1 0xD PUSH1 0x20 MSTORE DUP1 PUSH1 0x0 MSTORE PUSH1 0x40 PUSH1 0x0 KECCAK256 PUSH1 0x0 SWAP2 POP SWAP1 POP DUP1 PUSH1 0x0 ADD SLOAD SWAP1 DUP1 PUSH1 0x1 ADD DUP1 SLOAD PUSH2 0x1881 SWAP1 PUSH2 0x4E6F JUMP JUMPDEST DUP1 PUSH1 0x1F ADD PUSH1 0x20 DUP1 SWAP2 DIV MUL PUSH1 0x20 ADD PUSH1 0x40 MLOAD SWAP1 DUP2 ADD PUSH1 0x40 MSTORE DUP1 SWAP3 SWAP2 SWAP1 DUP2 DUP2 MSTORE PUSH1 0x20 ADD DUP3 DUP1 SLOAD PUSH2 0x18AD SWAP1 PUSH2 0x4E6F JUMP JUMPDEST DUP1 ISZERO PUSH2 0x18FA JUMPI DUP1 PUSH1 0x1F LT PUSH2 0x18CF JUMPI PUSH2 0x100 DUP1 DUP4 SLOAD DIV MUL DUP4 MSTORE SWAP2 PUSH1 0x20 ADD SWAP2 PUSH2 0x18FA JUMP JUMPDEST DUP3 ADD SWAP2 SWAP1 PUSH1 0x0 MSTORE PUSH1 0x20 PUSH1 0x0 KECCAK256 SWAP1 JUMPDEST DUP2 SLOAD DUP2 MSTORE SWAP1 PUSH1 0x1 ADD SWAP1 PUSH1 0x20 ADD DUP1 DUP4 GT PUSH2 0x18DD JUMPI DUP3 SWAP1 SUB PUSH1 0x1F AND DUP3 ADD SWAP2 JUMPDEST POP POP POP POP POP SWAP1 DUP1 PUSH1 0x2 ADD PUSH1 0x0 SWAP1 SLOAD SWAP1 PUSH2 0x100 EXP SWAP1 DIV PUSH1 0xFF AND SWAP1 DUP1 PUSH1 0x3 ADD DUP1 SLOAD PUSH2 0x1922 SWAP1 PUSH2 0x4E6F JUMP JUMPDEST DUP1 PUSH1 0x1F ADD PUSH1 0x20 DUP1 SWAP2 DIV MUL PUSH1 0x20 ADD PUSH1 0x40 MLOAD SWAP1 DUP2 ADD PUSH1 0x40 MSTORE DUP1 SWAP3 SWAP2 SWAP1 DUP2 DUP2 MSTORE PUSH1 0x20 ADD DUP3 DUP1 SLOAD PUSH2 0x194E SWAP1 PUSH2 0x4E6F JUMP JUMPDEST DUP1 ISZERO PUSH2 0x199B JUMPI DUP1 PUSH1 0x1F LT PUSH2 0x1970 JUMPI PUSH2 0x100 DUP1 DUP4 SLOAD DIV MUL DUP4 MSTORE SWAP2 PUSH1 0x20 ADD SWAP2 PUSH2 0x199B JUMP JUMPDEST DUP3 ADD SWAP2 SWAP1 PUSH1 0x0 MSTORE PUSH1 0x20 PUSH1 0x0 KECCAK256 SWAP1 JUMPDEST DUP2 SLOAD DUP2 MSTORE SWAP1 PUSH1 0x1 ADD SWAP1 PUSH1 0x20 ADD DUP1 DUP4 GT PUSH2 0x197E JUMPI DUP3 SWAP1 SUB PUSH1 0x1F AND DUP3 ADD SWAP2 JUMPDEST POP POP POP POP POP SWAP1 DUP1 PUSH1 0x4 ADD SLOAD SWAP1 DUP1 PUSH1 0x5 ADD SLOAD SWAP1 DUP1 PUSH1 0x6 ADD SLOAD SWAP1 DUP1 PUSH1 0x7 ADD SLOAD SWAP1 DUP1 PUSH1 0x8 ADD SLOAD SWAP1 DUP1 PUSH1 0x9 ADD SLOAD SWAP1 DUP1 PUSH1 0xA ADD DUP1 SLOAD PUSH2 0x19D4 SWAP1 PUSH2 0x4E6F JUMP JUMPDEST DUP1 PUSH1 0x1F ADD PUSH1 0x20 DUP1 SWAP2 DIV MUL PUSH1 0x20 ADD PUSH1 0x40 MLOAD SWAP1 DUP2 ADD PUSH1 0x40 MSTORE DUP1 SWAP3 SWAP2 SWAP1 DUP2 DUP2 MSTORE PUSH1 0x20 ADD DUP3 DUP1 SLOAD PUSH2 0x1A00 SWAP1 PUSH2 0x4E6F JUMP JUMPDEST DUP1 ISZERO PUSH2 0x1A4D JUMPI DUP1 PUSH1 0x1F LT PUSH2 0x1A22 JUMPI PUSH2 0x100 DUP1 DUP4 SLOAD DIV MUL DUP4 MSTORE SWAP2 PUSH1 0x20 ADD SWAP2 PUSH2 0x1A4D JUMP JUMPDEST DUP3 ADD SWAP2 SWAP1 PUSH1 0x0 MSTORE PUSH1 0x20 PUSH1 0x0 KECCAK256 SWAP1 JUMPDEST DUP2 SLOAD DUP2 MSTORE SWAP1 PUSH1 0x1 ADD SWAP1 PUSH1 0x20 ADD DUP1 DUP4 GT PUSH2 0x1A30 JUMPI DUP3 SWAP1 SUB PUSH1 0x1F AND DUP3 ADD SWAP2 JUMPDEST POP POP POP POP POP SWAP1 POP DUP12 JUMP JUMPDEST PUSH1 0x60 PUSH1 0x0 DUP1 JUMPDEST PUSH1 0xF DUP1 SLOAD SWAP1 POP DUP2 LT ISZERO PUSH2 0x1B06 JUMPI PUSH1 0x0 PUSH1 0xF DUP3 DUP2 SLOAD DUP2 LT PUSH2 0x1A80 JUMPI PUSH2 0x1A7F PUSH2 0x5114 JUMP JUMPDEST JUMPDEST SWAP1 PUSH1 0x0 MSTORE PUSH1 0x20 PUSH1 0x0 KECCAK256 ADD SLOAD SWAP1 POP PUSH1 0x0 PUSH1 0xC PUSH1 0x0 DUP8 PUSH20 0xFFFFFFFFFFFFFFFFFFFFFFFFFFFFFFFFFFFFFFFF AND PUSH20 0xFFFFFFFFFFFFFFFFFFFFFFFFFFFFFFFFFFFFFFFF AND DUP2 MSTORE PUSH1 0x20 ADD SWAP1 DUP2 MSTORE PUSH1 0x20 ADD PUSH1 0x0 KECCAK256 PUSH1 0x0 DUP4 DUP2 MSTORE PUSH1 0x20 ADD SWAP1 DUP2 MSTORE PUSH1 0x20 ADD PUSH1 0x0 KECCAK256 PUSH1 0x4 ADD SLOAD GT ISZERO PUSH2 0x1AF8 JUMPI DUP3 DUP1 PUSH2 0x1AF4 SWAP1 PUSH2 0x517A JUMP JUMPDEST SWAP4 POP POP JUMPDEST POP DUP1 DUP1 PUSH1 0x1 ADD SWAP2 POP POP PUSH2 0x1A5D JUMP JUMPDEST POP PUSH1 0x0 DUP2 PUSH8 0xFFFFFFFFFFFFFFFF DUP2 GT ISZERO PUSH2 0x1B23 JUMPI PUSH2 0x1B22 PUSH2 0x4351 JUMP JUMPDEST JUMPDEST PUSH1 0x40 MLOAD SWAP1 DUP1 DUP3 MSTORE DUP1 PUSH1 0x20 MUL PUSH1 0x20 ADD DUP3 ADD PUSH1 0x40 MSTORE DUP1 ISZERO PUSH2 0x1B5C JUMPI DUP2 PUSH1 0x20 ADD JUMPDEST PUSH2 0x1B49 PUSH2 0x3952 JUMP JUMPDEST DUP2 MSTORE PUSH1 0x20 ADD SWAP1 PUSH1 0x1 SWAP1 SUB SWAP1 DUP2 PUSH2 0x1B41 JUMPI SWAP1 POP JUMPDEST POP SWAP1 POP PUSH1 0x0 DUP1 JUMPDEST PUSH1 0xF DUP1 SLOAD SWAP1 POP DUP2 LT ISZERO PUSH2 0x1DF6 JUMPI PUSH1 0x0 PUSH1 0xF DUP3 DUP2 SLOAD DUP2 LT PUSH2 0x1B86 JUMPI PUSH2 0x1B85 PUSH2 0x5114 JUMP JUMPDEST JUMPDEST SWAP1 PUSH1 0x0 MSTORE PUSH1 0x20 PUSH1 0x0 KECCAK256 ADD SLOAD SWAP1 POP PUSH1 0x0 PUSH1 0xC PUSH1 0x0 DUP10 PUSH20 0xFFFFFFFFFFFFFFFFFFFFFFFFFFFFFFFFFFFFFFFF AND PUSH20 0xFFFFFFFFFFFFFFFFFFFFFFFFFFFFFFFFFFFFFFFF AND DUP2 MSTORE PUSH1 0x20 ADD SWAP1 DUP2 MSTORE PUSH1 0x20 ADD PUSH1 0x0 KECCAK256 PUSH1 0x0 DUP4 DUP2 MSTORE PUSH1 0x20 ADD SWAP1 DUP2 MSTORE PUSH1 0x20 ADD PUSH1 0x0 KECCAK256 PUSH1 0x4 ADD SLOAD GT ISZERO PUSH2 0x1DE8 JUMPI PUSH1 0xC PUSH1 0x0 DUP9 PUSH20 0xFFFFFFFFFFFFFFFFFFFFFFFFFFFFFFFFFFFFFFFF AND PUSH20 0xFFFFFFFFFFFFFFFFFFFFFFFFFFFFFFFFFFFFFFFF AND DUP2 MSTORE PUSH1 0x20 ADD SWAP1 DUP2 MSTORE PUSH1 0x20 ADD PUSH1 0x0 KECCAK256 PUSH1 0x0 DUP3 DUP2 MSTORE PUSH1 0x20 ADD SWAP1 DUP2 MSTORE PUSH1 0x20 ADD PUSH1 0x0 KECCAK256 PUSH1 0x40 MLOAD DUP1 PUSH2 0x120 ADD PUSH1 0x40 MSTORE SWAP1 DUP2 PUSH1 0x0 DUP3 ADD PUSH1 0x0 SWAP1 SLOAD SWAP1 PUSH2 0x100 EXP SWAP1 DIV PUSH20 0xFFFFFFFFFFFFFFFFFFFFFFFFFFFFFFFFFFFFFFFF AND PUSH20 0xFFFFFFFFFFFFFFFFFFFFFFFFFFFFFFFFFFFFFFFF AND PUSH20 0xFFFFFFFFFFFFFFFFFFFFFFFFFFFFFFFFFFFFFFFF AND DUP2 MSTORE PUSH1 0x20 ADD PUSH1 0x1 DUP3 ADD SLOAD DUP2 MSTORE PUSH1 0x20 ADD PUSH1 0x2 DUP3 ADD PUSH1 0x0 SWAP1 SLOAD SWAP1 PUSH2 0x100 EXP SWAP1 DIV PUSH1 0xFF AND PUSH1 0x3 DUP2 GT ISZERO PUSH2 0x1CD0 JUMPI PUSH2 0x1CCF PUSH2 0x3E1B JUMP JUMPDEST JUMPDEST PUSH1 0x3 DUP2 GT ISZERO PUSH2 0x1CE2 JUMPI PUSH2 0x1CE1 PUSH2 0x3E1B JUMP JUMPDEST JUMPDEST DUP2 MSTORE PUSH1 0x20 ADD PUSH1 0x3 DUP3 ADD DUP1 SLOAD PUSH2 0x1CF6 SWAP1 PUSH2 0x4E6F JUMP JUMPDEST DUP1 PUSH1 0x1F ADD PUSH1 0x20 DUP1 SWAP2 DIV MUL PUSH1 0x20 ADD PUSH1 0x40 MLOAD SWAP1 DUP2 ADD PUSH1 0x40 MSTORE DUP1 SWAP3 SWAP2 SWAP1 DUP2 DUP2 MSTORE PUSH1 0x20 ADD DUP3 DUP1 SLOAD PUSH2 0x1D22 SWAP1 PUSH2 0x4E6F JUMP JUMPDEST DUP1 ISZERO PUSH2 0x1D6F JUMPI DUP1 PUSH1 0x1F LT PUSH2 0x1D44 JUMPI PUSH2 0x100 DUP1 DUP4 SLOAD DIV MUL DUP4 MSTORE SWAP2 PUSH1 0x20 ADD SWAP2 PUSH2 0x1D6F JUMP JUMPDEST DUP3 ADD SWAP2 SWAP1 PUSH1 0x0 MSTORE PUSH1 0x20 PUSH1 0x0 KECCAK256 SWAP1 JUMPDEST DUP2 SLOAD DUP2 MSTORE SWAP1 PUSH1 0x1 ADD SWAP1 PUSH1 0x20 ADD DUP1 DUP4 GT PUSH2 0x1D52 JUMPI DUP3 SWAP1 SUB PUSH1 0x1F AND DUP3 ADD SWAP2 JUMPDEST POP POP POP POP POP DUP2 MSTORE PUSH1 0x20 ADD PUSH1 0x4 DUP3 ADD SLOAD DUP2 MSTORE PUSH1 0x20 ADD PUSH1 0x5 DUP3 ADD SLOAD DUP2 MSTORE PUSH1 0x20 ADD PUSH1 0x6 DUP3 ADD SLOAD DUP2 MSTORE PUSH1 0x20 ADD PUSH1 0x7 DUP3 ADD SLOAD DUP2 MSTORE PUSH1 0x20 ADD PUSH1 0x8 DUP3 ADD PUSH1 0x0 SWAP1 SLOAD SWAP1 PUSH2 0x100 EXP SWAP1 DIV PUSH1 0xFF AND ISZERO ISZERO ISZERO ISZERO DUP2 MSTORE POP POP DUP5 DUP5 DUP2 MLOAD DUP2 LT PUSH2 0x1DCE JUMPI PUSH2 0x1DCD PUSH2 0x5114 JUMP JUMPDEST JUMPDEST PUSH1 0x20 MUL PUSH1 0x20 ADD ADD DUP2 SWAP1 MSTORE POP DUP3 DUP1 PUSH2 0x1DE4 SWAP1 PUSH2 0x517A JUMP JUMPDEST SWAP4 POP POP JUMPDEST POP DUP1 DUP1 PUSH1 0x1 ADD SWAP2 POP POP PUSH2 0x1B63 JUMP JUMPDEST POP DUP2 SWAP4 POP POP POP POP SWAP2 SWAP1 POP JUMP JUMPDEST PUSH2 0x1E0A PUSH2 0x34C3 JUMP JUMPDEST PUSH2 0x1E14 PUSH1 0x0 PUSH2 0x354A JUMP JUMPDEST JUMP JUMPDEST PUSH1 0x0 DUP1 PUSH1 0x3 PUSH1 0x0 SWAP1 SLOAD SWAP1 PUSH2 0x100 EXP SWAP1 DIV PUSH20 0xFFFFFFFFFFFFFFFFFFFFFFFFFFFFFFFFFFFFFFFF AND PUSH20 0xFFFFFFFFFFFFFFFFFFFFFFFFFFFFFFFFFFFFFFFF AND PUSH4 0x4E055244 DUP5 DUP7 PUSH1 0x40 MLOAD DUP4 PUSH4 0xFFFFFFFF AND PUSH1 0xE0 SHL DUP2 MSTORE PUSH1 0x4 ADD PUSH2 0x1E76 SWAP3 SWAP2 SWAP1 PUSH2 0x4C68 JUMP JUMPDEST PUSH2 0x120 PUSH1 0x40 MLOAD DUP1 DUP4 SUB DUP2 DUP7 GAS STATICCALL ISZERO DUP1 ISZERO PUSH2 0x1E94 JUMPI RETURNDATASIZE PUSH1 0x0 DUP1 RETURNDATACOPY RETURNDATASIZE PUSH1 0x0 REVERT JUMPDEST POP POP POP POP PUSH1 0x40 MLOAD RETURNDATASIZE PUSH1 0x1F NOT PUSH1 0x1F DUP3 ADD AND DUP3 ADD DUP1 PUSH1 0x40 MSTORE POP DUP2 ADD SWAP1 PUSH2 0x1EB8 SWAP2 SWAP1 PUSH2 0x4DB5 JUMP JUMPDEST SWAP1 POP PUSH1 0x0 DUP1 PUSH1 0xB PUSH1 0x0 DUP8 PUSH20 0xFFFFFFFFFFFFFFFFFFFFFFFFFFFFFFFFFFFFFFFF AND PUSH20 0xFFFFFFFFFFFFFFFFFFFFFFFFFFFFFFFFFFFFFFFF AND DUP2 MSTORE PUSH1 0x20 ADD SWAP1 DUP2 MSTORE PUSH1 0x20 ADD PUSH1 0x0 KECCAK256 PUSH1 0x0 DUP7 DUP2 MSTORE PUSH1 0x20 ADD SWAP1 DUP2 MSTORE PUSH1 0x20 ADD PUSH1 0x0 KECCAK256 SLOAD SUB PUSH2 0x1F1F JUMPI DUP2 PUSH1 0xC0 ADD MLOAD SWAP1 POP PUSH2 0x1F73 JUMP JUMPDEST PUSH1 0xB PUSH1 0x0 DUP7 PUSH20 0xFFFFFFFFFFFFFFFFFFFFFFFFFFFFFFFFFFFFFFFF AND PUSH20 0xFFFFFFFFFFFFFFFFFFFFFFFFFFFFFFFFFFFFFFFF AND DUP2 MSTORE PUSH1 0x20 ADD SWAP1 DUP2 MSTORE PUSH1 0x20 ADD PUSH1 0x0 KECCAK256 PUSH1 0x0 DUP6 DUP2 MSTORE PUSH1 0x20 ADD SWAP1 DUP2 MSTORE PUSH1 0x20 ADD PUSH1 0x0 KECCAK256 SLOAD SWAP1 POP JUMPDEST PUSH1 0x0 TIMESTAMP SWAP1 POP DUP3 PUSH1 0xE0 ADD MLOAD DUP2 GT ISZERO PUSH2 0x1F8C JUMPI DUP3 PUSH1 0xE0 ADD MLOAD SWAP1 POP JUMPDEST PUSH1 0x0 PUSH2 0x12C DUP4 DUP4 PUSH2 0x1F9D SWAP2 SWAP1 PUSH2 0x4C34 JUMP JUMPDEST PUSH2 0x1FA7 SWAP2 SWAP1 PUSH2 0x4C03 JUMP JUMPDEST SWAP1 POP DUP1 SWAP5 POP POP POP POP POP SWAP3 SWAP2 POP POP JUMP JUMPDEST PUSH1 0xA PUSH1 0x20 MSTORE DUP1 PUSH1 0x0 MSTORE PUSH1 0x40 PUSH1 0x0 KECCAK256 PUSH1 0x0 SWAP2 POP SLOAD SWAP1 PUSH2 0x100 EXP SWAP1 DIV PUSH1 0xFF AND DUP2 JUMP JUMPDEST PUSH1 0xB PUSH1 0x20 MSTORE DUP2 PUSH1 0x0 MSTORE PUSH1 0x40 PUSH1 0x0 KECCAK256 PUSH1 0x20 MSTORE DUP1 PUSH1 0x0 MSTORE PUSH1 0x40 PUSH1 0x0 KECCAK256 PUSH1 0x0 SWAP2 POP SWAP2 POP POP SLOAD DUP2 JUMP JUMPDEST PUSH1 0x7 PUSH1 0x0 SWAP1 SLOAD SWAP1 PUSH2 0x100 EXP SWAP1 DIV PUSH20 0xFFFFFFFFFFFFFFFFFFFFFFFFFFFFFFFFFFFFFFFF AND PUSH20 0xFFFFFFFFFFFFFFFFFFFFFFFFFFFFFFFFFFFFFFFF AND CALLER PUSH20 0xFFFFFFFFFFFFFFFFFFFFFFFFFFFFFFFFFFFFFFFF AND EQ PUSH2 0x208B JUMPI PUSH1 0x40 MLOAD PUSH32 0x8C379A000000000000000000000000000000000000000000000000000000000 DUP2 MSTORE PUSH1 0x4 ADD PUSH2 0x2082 SWAP1 PUSH2 0x4953 JUMP JUMPDEST PUSH1 0x40 MLOAD DUP1 SWAP2 SUB SWAP1 REVERT JUMPDEST PUSH2 0x2093 PUSH2 0x3473 JUMP JUMPDEST DUP1 PUSH1 0xC PUSH1 0x0 DUP6 PUSH20 0xFFFFFFFFFFFFFFFFFFFFFFFFFFFFFFFFFFFFFFFF AND PUSH20 0xFFFFFFFFFFFFFFFFFFFFFFFFFFFFFFFFFFFFFFFF AND DUP2 MSTORE PUSH1 0x20 ADD SWAP1 DUP2 MSTORE PUSH1 0x20 ADD PUSH1 0x0 KECCAK256 PUSH1 0x0 DUP5 DUP2 MSTORE PUSH1 0x20 ADD SWAP1 DUP2 MSTORE PUSH1 0x20 ADD PUSH1 0x0 KECCAK256 PUSH1 0x4 ADD PUSH1 0x0 DUP3 DUP3 SLOAD PUSH2 0x20F6 SWAP2 SWAP1 PUSH2 0x4C34 JUMP JUMPDEST SWAP3 POP POP DUP2 SWAP1 SSTORE POP DUP1 PUSH1 0xC PUSH1 0x0 DUP6 PUSH20 0xFFFFFFFFFFFFFFFFFFFFFFFFFFFFFFFFFFFFFFFF AND PUSH20 0xFFFFFFFFFFFFFFFFFFFFFFFFFFFFFFFFFFFFFFFF AND DUP2 MSTORE PUSH1 0x20 ADD SWAP1 DUP2 MSTORE PUSH1 0x20 ADD PUSH1 0x0 KECCAK256 PUSH1 0x0 DUP5 DUP2 MSTORE PUSH1 0x20 ADD SWAP1 DUP2 MSTORE PUSH1 0x20 ADD PUSH1 0x0 KECCAK256 PUSH1 0x5 ADD PUSH1 0x0 DUP3 DUP3 SLOAD PUSH2 0x2160 SWAP2 SWAP1 PUSH2 0x4E0C JUMP JUMPDEST SWAP3 POP POP DUP2 SWAP1 SSTORE POP PUSH2 0x216F PUSH2 0x34B9 JUMP JUMPDEST POP POP POP JUMP JUMPDEST PUSH1 0x3 PUSH1 0x0 SWAP1 SLOAD SWAP1 PUSH2 0x100 EXP SWAP1 DIV PUSH20 0xFFFFFFFFFFFFFFFFFFFFFFFFFFFFFFFFFFFFFFFF AND DUP2 JUMP JUMPDEST PUSH1 0x0 PUSH1 0x1 PUSH1 0x0 SWAP1 SLOAD SWAP1 PUSH2 0x100 EXP SWAP1 DIV PUSH20 0xFFFFFFFFFFFFFFFFFFFFFFFFFFFFFFFFFFFFFFFF AND SWAP1 POP SWAP1 JUMP JUMPDEST PUSH2 0x21CC PUSH2 0x34C3 JUMP JUMPDEST PUSH1 0x0 DUP1 PUSH1 0x0 PUSH1 0x3 PUSH1 0x0 SWAP1 SLOAD SWAP1 PUSH2 0x100 EXP SWAP1 DIV PUSH20 0xFFFFFFFFFFFFFFFFFFFFFFFFFFFFFFFFFFFFFFFF AND PUSH20 0xFFFFFFFFFFFFFFFFFFFFFFFFFFFFFFFFFFFFFFFF AND PUSH4 0x68BCD8D DUP6 PUSH1 0x40 MLOAD DUP3 PUSH4 0xFFFFFFFF AND PUSH1 0xE0 SHL DUP2 MSTORE PUSH1 0x4 ADD PUSH2 0x222C SWAP2 SWAP1 PUSH2 0x3B1C JUMP JUMPDEST PUSH1 0x0 PUSH1 0x40 MLOAD DUP1 DUP4 SUB DUP2 DUP7 GAS STATICCALL ISZERO DUP1 ISZERO PUSH2 0x2249 JUMPI RETURNDATASIZE PUSH1 0x0 DUP1 RETURNDATACOPY RETURNDATASIZE PUSH1 0x0 REVERT JUMPDEST POP POP POP POP PUSH1 0x40 MLOAD RETURNDATASIZE PUSH1 0x0 DUP3 RETURNDATACOPY RETURNDATASIZE PUSH1 0x1F NOT PUSH1 0x1F DUP3 ADD AND DUP3 ADD DUP1 PUSH1 0x40 MSTORE POP DUP2 ADD SWAP1 PUSH2 0x2272 SWAP2 SWAP1 PUSH2 0x4A39 JUMP JUMPDEST SWAP7 POP POP SWAP6 POP POP POP SWAP4 POP POP DUP9 PUSH1 0x3 DUP2 GT ISZERO PUSH2 0x228F JUMPI PUSH2 0x228E PUSH2 0x3E1B JUMP JUMPDEST JUMPDEST DUP4 PUSH1 0x3 DUP2 GT ISZERO PUSH2 0x22A2 JUMPI PUSH2 0x22A1 PUSH2 0x3E1B JUMP JUMPDEST JUMPDEST EQ ISZERO DUP1 PUSH2 0x22AE JUMPI POP DUP1 DUP7 GT JUMPDEST ISZERO PUSH2 0x22E5 JUMPI PUSH1 0x40 MLOAD PUSH32 0xD3C913EA00000000000000000000000000000000000000000000000000000000 DUP2 MSTORE PUSH1 0x4 ADD PUSH1 0x40 MLOAD DUP1 SWAP2 SUB SWAP1 REVERT JUMPDEST PUSH1 0x0 PUSH1 0xD PUSH1 0x0 DUP14 DUP2 MSTORE PUSH1 0x20 ADD SWAP1 DUP2 MSTORE PUSH1 0x20 ADD PUSH1 0x0 KECCAK256 SWAP1 POP PUSH1 0x0 PUSH8 0xDE0B6B3A7640000 PUSH1 0x64 PUSH8 0xDE0B6B3A7640000 DUP11 PUSH2 0x231D SWAP2 SWAP1 PUSH2 0x4B92 JUMP JUMPDEST PUSH2 0x2327 SWAP2 SWAP1 PUSH2 0x4C03 JUMP JUMPDEST DUP6 PUSH2 0x2332 SWAP2 SWAP1 PUSH2 0x4B92 JUMP JUMPDEST PUSH2 0x233C SWAP2 SWAP1 PUSH2 0x4C03 JUMP JUMPDEST SWAP1 POP DUP1 DUP3 PUSH1 0x7 ADD SLOAD GT ISZERO PUSH2 0x237C JUMPI PUSH1 0x40 MLOAD PUSH32 0xD3C913EA00000000000000000000000000000000000000000000000000000000 DUP2 MSTORE PUSH1 0x4 ADD PUSH1 0x40 MLOAD DUP1 SWAP2 SUB SWAP1 REVERT JUMPDEST PUSH1 0x0 PUSH1 0x3 PUSH1 0x0 SWAP1 SLOAD SWAP1 PUSH2 0x100 EXP SWAP1 DIV PUSH20 0xFFFFFFFFFFFFFFFFFFFFFFFFFFFFFFFFFFFFFFFF AND PUSH20 0xFFFFFFFFFFFFFFFFFFFFFFFFFFFFFFFFFFFFFFFF AND PUSH4 0x7EB111F0 DUP9 PUSH1 0x40 MLOAD DUP3 PUSH4 0xFFFFFFFF AND PUSH1 0xE0 SHL DUP2 MSTORE PUSH1 0x4 ADD PUSH2 0x23D9 SWAP2 SWAP1 PUSH2 0x3B1C JUMP JUMPDEST PUSH1 0x0 PUSH1 0x40 MLOAD DUP1 DUP4 SUB DUP2 DUP7 GAS STATICCALL ISZERO DUP1 ISZERO PUSH2 0x23F6 JUMPI RETURNDATASIZE PUSH1 0x0 DUP1 RETURNDATACOPY RETURNDATASIZE PUSH1 0x0 REVERT JUMPDEST POP POP POP POP PUSH1 0x40 MLOAD RETURNDATASIZE PUSH1 0x0 DUP3 RETURNDATACOPY RETURNDATASIZE PUSH1 0x1F NOT PUSH1 0x1F DUP3 ADD AND DUP3 ADD DUP1 PUSH1 0x40 MSTORE POP DUP2 ADD SWAP1 PUSH2 0x241F SWAP2 SWAP1 PUSH2 0x5408 JUMP JUMPDEST SWAP1 POP PUSH1 0x0 JUMPDEST DUP2 MLOAD DUP2 LT ISZERO PUSH2 0x2508 JUMPI DUP14 PUSH1 0x40 MLOAD PUSH1 0x20 ADD PUSH2 0x243E SWAP2 SWAP1 PUSH2 0x548D JUMP JUMPDEST PUSH1 0x40 MLOAD PUSH1 0x20 DUP2 DUP4 SUB SUB DUP2 MSTORE SWAP1 PUSH1 0x40 MSTORE DUP1 MLOAD SWAP1 PUSH1 0x20 ADD KECCAK256 DUP3 DUP3 DUP2 MLOAD DUP2 LT PUSH2 0x2467 JUMPI PUSH2 0x2466 PUSH2 0x5114 JUMP JUMPDEST JUMPDEST PUSH1 0x20 MUL PUSH1 0x20 ADD ADD MLOAD PUSH1 0x20 ADD MLOAD PUSH1 0x40 MLOAD PUSH1 0x20 ADD PUSH2 0x2483 SWAP2 SWAP1 PUSH2 0x548D JUMP JUMPDEST PUSH1 0x40 MLOAD PUSH1 0x20 DUP2 DUP4 SUB SUB DUP2 MSTORE SWAP1 PUSH1 0x40 MSTORE DUP1 MLOAD SWAP1 PUSH1 0x20 ADD KECCAK256 EQ DUP1 ISZERO PUSH2 0x24C4 JUMPI POP DUP15 DUP3 DUP3 DUP2 MLOAD DUP2 LT PUSH2 0x24B5 JUMPI PUSH2 0x24B4 PUSH2 0x5114 JUMP JUMPDEST JUMPDEST PUSH1 0x20 MUL PUSH1 0x20 ADD ADD MLOAD PUSH1 0x0 ADD MLOAD EQ ISZERO JUMPDEST ISZERO PUSH2 0x24FB JUMPI PUSH1 0x40 MLOAD PUSH32 0xD202940C00000000000000000000000000000000000000000000000000000000 DUP2 MSTORE PUSH1 0x4 ADD PUSH1 0x40 MLOAD DUP1 SWAP2 SUB SWAP1 REVERT JUMPDEST DUP1 DUP1 PUSH1 0x1 ADD SWAP2 POP POP PUSH2 0x2424 JUMP JUMPDEST POP PUSH1 0x0 DUP4 PUSH1 0x4 ADD SLOAD SWAP1 POP DUP14 DUP5 PUSH1 0x1 ADD SWAP1 DUP2 PUSH2 0x2523 SWAP2 SWAP1 PUSH2 0x5042 JUMP JUMPDEST POP DUP11 DUP5 PUSH1 0x3 ADD SWAP1 DUP2 PUSH2 0x2535 SWAP2 SWAP1 PUSH2 0x5042 JUMP JUMPDEST POP DUP10 DUP5 PUSH1 0x4 ADD DUP2 SWAP1 SSTORE POP DUP9 DUP5 PUSH1 0x5 ADD DUP2 SWAP1 SSTORE POP DUP12 DUP5 PUSH1 0xA ADD SWAP1 DUP2 PUSH2 0x2559 SWAP2 SWAP1 PUSH2 0x5042 JUMP JUMPDEST POP DUP3 DUP5 PUSH1 0x6 ADD DUP2 SWAP1 SSTORE POP DUP8 DUP5 PUSH1 0x9 ADD DUP2 SWAP1 SSTORE POP DUP4 PUSH1 0x7 ADD SLOAD DUP4 PUSH2 0x257C SWAP2 SWAP1 PUSH2 0x4C34 JUMP JUMPDEST DUP5 PUSH1 0x8 ADD DUP2 SWAP1 SSTORE POP DUP10 DUP2 GT ISZERO PUSH2 0x2631 JUMPI PUSH1 0x0 DUP11 DUP3 PUSH2 0x259A SWAP2 SWAP1 PUSH2 0x4C34 JUMP JUMPDEST SWAP1 POP PUSH1 0x3 PUSH1 0x0 SWAP1 SLOAD SWAP1 PUSH2 0x100 EXP SWAP1 DIV PUSH20 0xFFFFFFFFFFFFFFFFFFFFFFFFFFFFFFFFFFFFFFFF AND PUSH20 0xFFFFFFFFFFFFFFFFFFFFFFFFFFFFFFFFFFFFFFFF AND PUSH4 0x9FD36B15 DUP11 DUP4 PUSH1 0x40 MLOAD DUP4 PUSH4 0xFFFFFFFF AND PUSH1 0xE0 SHL DUP2 MSTORE PUSH1 0x4 ADD PUSH2 0x25F9 SWAP3 SWAP2 SWAP1 PUSH2 0x54A4 JUMP JUMPDEST PUSH1 0x0 PUSH1 0x40 MLOAD DUP1 DUP4 SUB DUP2 PUSH1 0x0 DUP8 DUP1 EXTCODESIZE ISZERO DUP1 ISZERO PUSH2 0x2613 JUMPI PUSH1 0x0 DUP1 REVERT JUMPDEST POP GAS CALL ISZERO DUP1 ISZERO PUSH2 0x2627 JUMPI RETURNDATASIZE PUSH1 0x0 DUP1 RETURNDATACOPY RETURNDATASIZE PUSH1 0x0 REVERT JUMPDEST POP POP POP POP POP PUSH2 0x26DB JUMP JUMPDEST DUP10 DUP2 LT ISZERO PUSH2 0x26DA JUMPI PUSH1 0x0 DUP2 DUP12 PUSH2 0x2647 SWAP2 SWAP1 PUSH2 0x4C34 JUMP JUMPDEST SWAP1 POP PUSH1 0x3 PUSH1 0x0 SWAP1 SLOAD SWAP1 PUSH2 0x100 EXP SWAP1 DIV PUSH20 0xFFFFFFFFFFFFFFFFFFFFFFFFFFFFFFFFFFFFFFFF AND PUSH20 0xFFFFFFFFFFFFFFFFFFFFFFFFFFFFFFFFFFFFFFFF AND PUSH4 0xA4948D85 DUP11 DUP4 PUSH1 0x40 MLOAD DUP4 PUSH4 0xFFFFFFFF AND PUSH1 0xE0 SHL DUP2 MSTORE PUSH1 0x4 ADD PUSH2 0x26A6 SWAP3 SWAP2 SWAP1 PUSH2 0x54A4 JUMP JUMPDEST PUSH1 0x0 PUSH1 0x40 MLOAD DUP1 DUP4 SUB DUP2 PUSH1 0x0 DUP8 DUP1 EXTCODESIZE ISZERO DUP1 ISZERO PUSH2 0x26C0 JUMPI PUSH1 0x0 DUP1 REVERT JUMPDEST POP GAS CALL ISZERO DUP1 ISZERO PUSH2 0x26D4 JUMPI RETURNDATASIZE PUSH1 0x0 DUP1 RETURNDATACOPY RETURNDATASIZE PUSH1 0x0 REVERT JUMPDEST POP POP POP POP POP JUMPDEST JUMPDEST PUSH1 0x3 PUSH1 0x0 SWAP1 SLOAD SWAP1 PUSH2 0x100 EXP SWAP1 DIV PUSH20 0xFFFFFFFFFFFFFFFFFFFFFFFFFFFFFFFFFFFFFFFF AND PUSH20 0xFFFFFFFFFFFFFFFFFFFFFFFFFFFFFFFFFFFFFFFF AND PUSH4 0xA14764D0 DUP10 DUP7 PUSH1 0x40 MLOAD DUP4 PUSH4 0xFFFFFFFF AND PUSH1 0xE0 SHL DUP2 MSTORE PUSH1 0x4 ADD PUSH2 0x2738 SWAP3 SWAP2 SWAP1 PUSH2 0x56FA JUMP JUMPDEST PUSH1 0x0 PUSH1 0x40 MLOAD DUP1 DUP4 SUB DUP2 PUSH1 0x0 DUP8 DUP1 EXTCODESIZE ISZERO DUP1 ISZERO PUSH2 0x2752 JUMPI PUSH1 0x0 DUP1 REVERT JUMPDEST POP GAS CALL ISZERO DUP1 ISZERO PUSH2 0x2766 JUMPI RETURNDATASIZE PUSH1 0x0 DUP1 RETURNDATACOPY RETURNDATASIZE PUSH1 0x0 REVERT JUMPDEST POP POP POP POP DUP15 PUSH32 0x758A67328BA53C1867C0272BBD2CA10D6FE71D37120188C523FE7AE7BDBBE469 DUP16 DUP16 PUSH1 0x40 MLOAD PUSH2 0x279C SWAP3 SWAP2 SWAP1 PUSH2 0x572A JUMP JUMPDEST PUSH1 0x40 MLOAD DUP1 SWAP2 SUB SWAP1 LOG2 POP POP POP POP POP POP POP POP POP POP POP POP POP POP POP JUMP JUMPDEST PUSH1 0x60 PUSH1 0x0 DUP1 JUMPDEST PUSH1 0xF DUP1 SLOAD SWAP1 POP DUP2 LT ISZERO PUSH2 0x282E JUMPI PUSH1 0x0 PUSH1 0xF DUP3 DUP2 SLOAD DUP2 LT PUSH2 0x27DE JUMPI PUSH2 0x27DD PUSH2 0x5114 JUMP JUMPDEST JUMPDEST SWAP1 PUSH1 0x0 MSTORE PUSH1 0x20 PUSH1 0x0 KECCAK256 ADD SLOAD SWAP1 POP PUSH1 0xA PUSH1 0x0 DUP3 DUP2 MSTORE PUSH1 0x20 ADD SWAP1 DUP2 MSTORE PUSH1 0x20 ADD PUSH1 0x0 KECCAK256 PUSH1 0x0 SWAP1 SLOAD SWAP1 PUSH2 0x100 EXP SWAP1 DIV PUSH1 0xFF AND ISZERO PUSH2 0x2820 JUMPI DUP3 DUP1 PUSH2 0x281C SWAP1 PUSH2 0x517A JUMP JUMPDEST SWAP4 POP POP JUMPDEST POP DUP1 DUP1 PUSH1 0x1 ADD SWAP2 POP POP PUSH2 0x27BB JUMP JUMPDEST POP PUSH1 0x0 DUP2 PUSH8 0xFFFFFFFFFFFFFFFF DUP2 GT ISZERO PUSH2 0x284B JUMPI PUSH2 0x284A PUSH2 0x4351 JUMP JUMPDEST JUMPDEST PUSH1 0x40 MLOAD SWAP1 DUP1 DUP3 MSTORE DUP1 PUSH1 0x20 MUL PUSH1 0x20 ADD DUP3 ADD PUSH1 0x40 MSTORE DUP1 ISZERO PUSH2 0x2884 JUMPI DUP2 PUSH1 0x20 ADD JUMPDEST PUSH2 0x2871 PUSH2 0x38E6 JUMP JUMPDEST DUP2 MSTORE PUSH1 0x20 ADD SWAP1 PUSH1 0x1 SWAP1 SUB SWAP1 DUP2 PUSH2 0x2869 JUMPI SWAP1 POP JUMPDEST POP SWAP1 POP PUSH1 0x0 DUP1 JUMPDEST PUSH1 0xF DUP1 SLOAD SWAP1 POP DUP2 LT ISZERO PUSH2 0x2B72 JUMPI PUSH1 0x0 PUSH1 0xF DUP3 DUP2 SLOAD DUP2 LT PUSH2 0x28AE JUMPI PUSH2 0x28AD PUSH2 0x5114 JUMP JUMPDEST JUMPDEST SWAP1 PUSH1 0x0 MSTORE PUSH1 0x20 PUSH1 0x0 KECCAK256 ADD SLOAD SWAP1 POP PUSH1 0xA PUSH1 0x0 DUP3 DUP2 MSTORE PUSH1 0x20 ADD SWAP1 DUP2 MSTORE PUSH1 0x20 ADD PUSH1 0x0 KECCAK256 PUSH1 0x0 SWAP1 SLOAD SWAP1 PUSH2 0x100 EXP SWAP1 DIV PUSH1 0xFF AND ISZERO PUSH2 0x2B64 JUMPI PUSH1 0xD PUSH1 0x0 DUP3 DUP2 MSTORE PUSH1 0x20 ADD SWAP1 DUP2 MSTORE PUSH1 0x20 ADD PUSH1 0x0 KECCAK256 PUSH1 0x40 MLOAD DUP1 PUSH2 0x160 ADD PUSH1 0x40 MSTORE SWAP1 DUP2 PUSH1 0x0 DUP3 ADD SLOAD DUP2 MSTORE PUSH1 0x20 ADD PUSH1 0x1 DUP3 ADD DUP1 SLOAD PUSH2 0x291A SWAP1 PUSH2 0x4E6F JUMP JUMPDEST DUP1 PUSH1 0x1F ADD PUSH1 0x20 DUP1 SWAP2 DIV MUL PUSH1 0x20 ADD PUSH1 0x40 MLOAD SWAP1 DUP2 ADD PUSH1 0x40 MSTORE DUP1 SWAP3 SWAP2 SWAP1 DUP2 DUP2 MSTORE PUSH1 0x20 ADD DUP3 DUP1 SLOAD PUSH2 0x2946 SWAP1 PUSH2 0x4E6F JUMP JUMPDEST DUP1 ISZERO PUSH2 0x2993 JUMPI DUP1 PUSH1 0x1F LT PUSH2 0x2968 JUMPI PUSH2 0x100 DUP1 DUP4 SLOAD DIV MUL DUP4 MSTORE SWAP2 PUSH1 0x20 ADD SWAP2 PUSH2 0x2993 JUMP JUMPDEST DUP3 ADD SWAP2 SWAP1 PUSH1 0x0 MSTORE PUSH1 0x20 PUSH1 0x0 KECCAK256 SWAP1 JUMPDEST DUP2 SLOAD DUP2 MSTORE SWAP1 PUSH1 0x1 ADD SWAP1 PUSH1 0x20 ADD DUP1 DUP4 GT PUSH2 0x2976 JUMPI DUP3 SWAP1 SUB PUSH1 0x1F AND DUP3 ADD SWAP2 JUMPDEST POP POP POP POP POP DUP2 MSTORE PUSH1 0x20 ADD PUSH1 0x2 DUP3 ADD PUSH1 0x0 SWAP1 SLOAD SWAP1 PUSH2 0x100 EXP SWAP1 DIV PUSH1 0xFF AND PUSH1 0x3 DUP2 GT ISZERO PUSH2 0x29C1 JUMPI PUSH2 0x29C0 PUSH2 0x3E1B JUMP JUMPDEST JUMPDEST PUSH1 0x3 DUP2 GT ISZERO PUSH2 0x29D3 JUMPI PUSH2 0x29D2 PUSH2 0x3E1B JUMP JUMPDEST JUMPDEST DUP2 MSTORE PUSH1 0x20 ADD PUSH1 0x3 DUP3 ADD DUP1 SLOAD PUSH2 0x29E7 SWAP1 PUSH2 0x4E6F JUMP JUMPDEST DUP1 PUSH1 0x1F ADD PUSH1 0x20 DUP1 SWAP2 DIV MUL PUSH1 0x20 ADD PUSH1 0x40 MLOAD SWAP1 DUP2 ADD PUSH1 0x40 MSTORE DUP1 SWAP3 SWAP2 SWAP1 DUP2 DUP2 MSTORE PUSH1 0x20 ADD DUP3 DUP1 SLOAD PUSH2 0x2A13 SWAP1 PUSH2 0x4E6F JUMP JUMPDEST DUP1 ISZERO PUSH2 0x2A60 JUMPI DUP1 PUSH1 0x1F LT PUSH2 0x2A35 JUMPI PUSH2 0x100 DUP1 DUP4 SLOAD DIV MUL DUP4 MSTORE SWAP2 PUSH1 0x20 ADD SWAP2 PUSH2 0x2A60 JUMP JUMPDEST DUP3 ADD SWAP2 SWAP1 PUSH1 0x0 MSTORE PUSH1 0x20 PUSH1 0x0 KECCAK256 SWAP1 JUMPDEST DUP2 SLOAD DUP2 MSTORE SWAP1 PUSH1 0x1 ADD SWAP1 PUSH1 0x20 ADD DUP1 DUP4 GT PUSH2 0x2A43 JUMPI DUP3 SWAP1 SUB PUSH1 0x1F AND DUP3 ADD SWAP2 JUMPDEST POP POP POP POP POP DUP2 MSTORE PUSH1 0x20 ADD PUSH1 0x4 DUP3 ADD SLOAD DUP2 MSTORE PUSH1 0x20 ADD PUSH1 0x5 DUP3 ADD SLOAD DUP2 MSTORE PUSH1 0x20 ADD PUSH1 0x6 DUP3 ADD SLOAD DUP2 MSTORE PUSH1 0x20 ADD PUSH1 0x7 DUP3 ADD SLOAD DUP2 MSTORE PUSH1 0x20 ADD PUSH1 0x8 DUP3 ADD SLOAD DUP2 MSTORE PUSH1 0x20 ADD PUSH1 0x9 DUP3 ADD SLOAD DUP2 MSTORE PUSH1 0x20 ADD PUSH1 0xA DUP3 ADD DUP1 SLOAD PUSH2 0x2AB5 SWAP1 PUSH2 0x4E6F JUMP JUMPDEST DUP1 PUSH1 0x1F ADD PUSH1 0x20 DUP1 SWAP2 DIV MUL PUSH1 0x20 ADD PUSH1 0x40 MLOAD SWAP1 DUP2 ADD PUSH1 0x40 MSTORE DUP1 SWAP3 SWAP2 SWAP1 DUP2 DUP2 MSTORE PUSH1 0x20 ADD DUP3 DUP1 SLOAD PUSH2 0x2AE1 SWAP1 PUSH2 0x4E6F JUMP JUMPDEST DUP1 ISZERO PUSH2 0x2B2E JUMPI DUP1 PUSH1 0x1F LT PUSH2 0x2B03 JUMPI PUSH2 0x100 DUP1 DUP4 SLOAD DIV MUL DUP4 MSTORE SWAP2 PUSH1 0x20 ADD SWAP2 PUSH2 0x2B2E JUMP JUMPDEST DUP3 ADD SWAP2 SWAP1 PUSH1 0x0 MSTORE PUSH1 0x20 PUSH1 0x0 KECCAK256 SWAP1 JUMPDEST DUP2 SLOAD DUP2 MSTORE SWAP1 PUSH1 0x1 ADD SWAP1 PUSH1 0x20 ADD DUP1 DUP4 GT PUSH2 0x2B11 JUMPI DUP3 SWAP1 SUB PUSH1 0x1F AND DUP3 ADD SWAP2 JUMPDEST POP POP POP POP POP DUP2 MSTORE POP POP DUP5 DUP5 DUP2 MLOAD DUP2 LT PUSH2 0x2B4A JUMPI PUSH2 0x2B49 PUSH2 0x5114 JUMP JUMPDEST JUMPDEST PUSH1 0x20 MUL PUSH1 0x20 ADD ADD DUP2 SWAP1 MSTORE POP DUP3 DUP1 PUSH2 0x2B60 SWAP1 PUSH2 0x517A JUMP JUMPDEST SWAP4 POP POP JUMPDEST POP DUP1 DUP1 PUSH1 0x1 ADD SWAP2 POP POP PUSH2 0x288B JUMP JUMPDEST POP DUP2 SWAP4 POP POP POP POP SWAP1 JUMP JUMPDEST PUSH1 0x9 PUSH1 0x20 MSTORE DUP1 PUSH1 0x0 MSTORE PUSH1 0x40 PUSH1 0x0 KECCAK256 PUSH1 0x0 SWAP2 POP SWAP1 POP SLOAD DUP2 JUMP JUMPDEST PUSH2 0x2B9C PUSH2 0x34C3 JUMP JUMPDEST PUSH1 0x0 PUSH2 0x2BAA DUP7 DUP4 DUP10 DUP8 PUSH2 0x3610 JUMP JUMPDEST SWAP1 POP PUSH1 0x3 PUSH1 0x0 SWAP1 SLOAD SWAP1 PUSH2 0x100 EXP SWAP1 DIV PUSH20 0xFFFFFFFFFFFFFFFFFFFFFFFFFFFFFFFFFFFFFFFF AND PUSH20 0xFFFFFFFFFFFFFFFFFFFFFFFFFFFFFFFFFFFFFFFF AND PUSH4 0xA4948D85 DUP4 DUP7 PUSH1 0x40 MLOAD DUP4 PUSH4 0xFFFFFFFF AND PUSH1 0xE0 SHL DUP2 MSTORE PUSH1 0x4 ADD PUSH2 0x2C09 SWAP3 SWAP2 SWAP1 PUSH2 0x54A4 JUMP JUMPDEST PUSH1 0x0 PUSH1 0x40 MLOAD DUP1 DUP4 SUB DUP2 PUSH1 0x0 DUP8 DUP1 EXTCODESIZE ISZERO DUP1 ISZERO PUSH2 0x2C23 JUMPI PUSH1 0x0 DUP1 REVERT JUMPDEST POP GAS CALL ISZERO DUP1 ISZERO PUSH2 0x2C37 JUMPI RETURNDATASIZE PUSH1 0x0 DUP1 RETURNDATACOPY RETURNDATASIZE PUSH1 0x0 REVERT JUMPDEST POP POP POP POP PUSH1 0xE PUSH1 0x0 DUP2 SLOAD DUP1 SWAP3 SWAP2 SWAP1 PUSH2 0x2C4E SWAP1 PUSH2 0x517A JUMP JUMPDEST SWAP2 SWAP1 POP SSTORE POP PUSH1 0x0 PUSH1 0x40 MLOAD DUP1 PUSH2 0x160 ADD PUSH1 0x40 MSTORE DUP1 DUP12 DUP2 MSTORE PUSH1 0x20 ADD DUP9 DUP2 MSTORE PUSH1 0x20 ADD DUP10 PUSH1 0x3 DUP2 GT ISZERO PUSH2 0x2C80 JUMPI PUSH2 0x2C7F PUSH2 0x3E1B JUMP JUMPDEST JUMPDEST DUP2 MSTORE PUSH1 0x20 ADD DUP8 DUP2 MSTORE PUSH1 0x20 ADD DUP7 DUP2 MSTORE PUSH1 0x20 ADD DUP6 DUP2 MSTORE PUSH1 0x20 ADD DUP4 DUP2 MSTORE PUSH1 0x20 ADD PUSH1 0x0 DUP2 MSTORE PUSH1 0x20 ADD DUP4 DUP2 MSTORE PUSH1 0x20 ADD DUP5 DUP2 MSTORE PUSH1 0x20 ADD DUP11 DUP2 MSTORE POP SWAP1 POP DUP1 PUSH1 0xD PUSH1 0x0 DUP13 DUP2 MSTORE PUSH1 0x20 ADD SWAP1 DUP2 MSTORE PUSH1 0x20 ADD PUSH1 0x0 KECCAK256 PUSH1 0x0 DUP3 ADD MLOAD DUP2 PUSH1 0x0 ADD SSTORE PUSH1 0x20 DUP3 ADD MLOAD DUP2 PUSH1 0x1 ADD SWAP1 DUP2 PUSH2 0x2CE9 SWAP2 SWAP1 PUSH2 0x5042 JUMP JUMPDEST POP PUSH1 0x40 DUP3 ADD MLOAD DUP2 PUSH1 0x2 ADD PUSH1 0x0 PUSH2 0x100 EXP DUP2 SLOAD DUP2 PUSH1 0xFF MUL NOT AND SWAP1 DUP4 PUSH1 0x3 DUP2 GT ISZERO PUSH2 0x2D15 JUMPI PUSH2 0x2D14 PUSH2 0x3E1B JUMP JUMPDEST JUMPDEST MUL OR SWAP1 SSTORE POP PUSH1 0x60 DUP3 ADD MLOAD DUP2 PUSH1 0x3 ADD SWAP1 DUP2 PUSH2 0x2D2F SWAP2 SWAP1 PUSH2 0x5042 JUMP JUMPDEST POP PUSH1 0x80 DUP3 ADD MLOAD DUP2 PUSH1 0x4 ADD SSTORE PUSH1 0xA0 DUP3 ADD MLOAD DUP2 PUSH1 0x5 ADD SSTORE PUSH1 0xC0 DUP3 ADD MLOAD DUP2 PUSH1 0x6 ADD SSTORE PUSH1 0xE0 DUP3 ADD MLOAD DUP2 PUSH1 0x7 ADD SSTORE PUSH2 0x100 DUP3 ADD MLOAD DUP2 PUSH1 0x8 ADD SSTORE PUSH2 0x120 DUP3 ADD MLOAD DUP2 PUSH1 0x9 ADD SSTORE PUSH2 0x140 DUP3 ADD MLOAD DUP2 PUSH1 0xA ADD SWAP1 DUP2 PUSH2 0x2D84 SWAP2 SWAP1 PUSH2 0x5042 JUMP JUMPDEST POP SWAP1 POP POP PUSH1 0xF DUP11 SWAP1 DUP1 PUSH1 0x1 DUP2 SLOAD ADD DUP1 DUP3 SSTORE DUP1 SWAP2 POP POP PUSH1 0x1 SWAP1 SUB SWAP1 PUSH1 0x0 MSTORE PUSH1 0x20 PUSH1 0x0 KECCAK256 ADD PUSH1 0x0 SWAP1 SWAP2 SWAP1 SWAP2 SWAP1 SWAP2 POP SSTORE PUSH1 0x3 PUSH1 0x0 SWAP1 SLOAD SWAP1 PUSH2 0x100 EXP SWAP1 DIV PUSH20 0xFFFFFFFFFFFFFFFFFFFFFFFFFFFFFFFFFFFFFFFF AND PUSH20 0xFFFFFFFFFFFFFFFFFFFFFFFFFFFFFFFFFFFFFFFF AND PUSH4 0xC7AA9874 DUP5 DUP4 PUSH1 0x40 MLOAD DUP4 PUSH4 0xFFFFFFFF AND PUSH1 0xE0 SHL DUP2 MSTORE PUSH1 0x4 ADD PUSH2 0x2E0E SWAP3 SWAP2 SWAP1 PUSH2 0x575A JUMP JUMPDEST PUSH1 0x0 PUSH1 0x40 MLOAD DUP1 DUP4 SUB DUP2 PUSH1 0x0 DUP8 DUP1 EXTCODESIZE ISZERO DUP1 ISZERO PUSH2 0x2E28 JUMPI PUSH1 0x0 DUP1 REVERT JUMPDEST POP GAS CALL ISZERO DUP1 ISZERO PUSH2 0x2E3C JUMPI RETURNDATASIZE PUSH1 0x0 DUP1 RETURNDATACOPY RETURNDATASIZE PUSH1 0x0 REVERT JUMPDEST POP POP POP POP PUSH1 0x1 PUSH1 0xA PUSH1 0x0 DUP13 DUP2 MSTORE PUSH1 0x20 ADD SWAP1 DUP2 MSTORE PUSH1 0x20 ADD PUSH1 0x0 KECCAK256 PUSH1 0x0 PUSH2 0x100 EXP DUP2 SLOAD DUP2 PUSH1 0xFF MUL NOT AND SWAP1 DUP4 ISZERO ISZERO MUL OR SWAP1 SSTORE POP DUP10 PUSH32 0x5928D65CC6AE9F07A7673F1A5A2F98D81F1BB0C2BC53BCAA33D6F11CF426F25E DUP9 DUP11 PUSH1 0x40 MLOAD PUSH2 0x2E9E SWAP3 SWAP2 SWAP1 PUSH2 0x572A JUMP JUMPDEST PUSH1 0x40 MLOAD DUP1 SWAP2 SUB SWAP1 LOG2 POP POP POP POP POP POP POP POP POP POP JUMP JUMPDEST PUSH1 0x5 PUSH1 0x0 SWAP1 SLOAD SWAP1 PUSH2 0x100 EXP SWAP1 DIV PUSH20 0xFFFFFFFFFFFFFFFFFFFFFFFFFFFFFFFFFFFFFFFF AND DUP2 JUMP JUMPDEST PUSH1 0x6 PUSH1 0x0 SWAP1 SLOAD SWAP1 PUSH2 0x100 EXP SWAP1 DIV PUSH20 0xFFFFFFFFFFFFFFFFFFFFFFFFFFFFFFFFFFFFFFFF AND DUP2 JUMP JUMPDEST PUSH1 0xC PUSH1 0x20 MSTORE DUP2 PUSH1 0x0 MSTORE PUSH1 0x40 PUSH1 0x0 KECCAK256 PUSH1 0x20 MSTORE DUP1 PUSH1 0x0 MSTORE PUSH1 0x40 PUSH1 0x0 KECCAK256 PUSH1 0x0 SWAP2 POP SWAP2 POP POP DUP1 PUSH1 0x0 ADD PUSH1 0x0 SWAP1 SLOAD SWAP1 PUSH2 0x100 EXP SWAP1 DIV PUSH20 0xFFFFFFFFFFFFFFFFFFFFFFFFFFFFFFFFFFFFFFFF AND SWAP1 DUP1 PUSH1 0x1 ADD SLOAD SWAP1 DUP1 PUSH1 0x2 ADD PUSH1 0x0 SWAP1 SLOAD SWAP1 PUSH2 0x100 EXP SWAP1 DIV PUSH1 0xFF AND SWAP1 DUP1 PUSH1 0x3 ADD DUP1 SLOAD PUSH2 0x2F6D SWAP1 PUSH2 0x4E6F JUMP JUMPDEST DUP1 PUSH1 0x1F ADD PUSH1 0x20 DUP1 SWAP2 DIV MUL PUSH1 0x20 ADD PUSH1 0x40 MLOAD SWAP1 DUP2 ADD PUSH1 0x40 MSTORE DUP1 SWAP3 SWAP2 SWAP1 DUP2 DUP2 MSTORE PUSH1 0x20 ADD DUP3 DUP1 SLOAD PUSH2 0x2F99 SWAP1 PUSH2 0x4E6F JUMP JUMPDEST DUP1 ISZERO PUSH2 0x2FE6 JUMPI DUP1 PUSH1 0x1F LT PUSH2 0x2FBB JUMPI PUSH2 0x100 DUP1 DUP4 SLOAD DIV MUL DUP4 MSTORE SWAP2 PUSH1 0x20 ADD SWAP2 PUSH2 0x2FE6 JUMP JUMPDEST DUP3 ADD SWAP2 SWAP1 PUSH1 0x0 MSTORE PUSH1 0x20 PUSH1 0x0 KECCAK256 SWAP1 JUMPDEST DUP2 SLOAD DUP2 MSTORE SWAP1 PUSH1 0x1 ADD SWAP1 PUSH1 0x20 ADD DUP1 DUP4 GT PUSH2 0x2FC9 JUMPI DUP3 SWAP1 SUB PUSH1 0x1F AND DUP3 ADD SWAP2 JUMPDEST POP POP POP POP POP SWAP1 DUP1 PUSH1 0x4 ADD SLOAD SWAP1 DUP1 PUSH1 0x5 ADD SLOAD SWAP1 DUP1 PUSH1 0x6 ADD SLOAD SWAP1 DUP1 PUSH1 0x7 ADD SLOAD SWAP1 DUP1 PUSH1 0x8 ADD PUSH1 0x0 SWAP1 SLOAD SWAP1 PUSH2 0x100 EXP SWAP1 DIV PUSH1 0xFF AND SWAP1 POP DUP10 JUMP JUMPDEST PUSH2 0x3023 PUSH2 0x3473 JUMP JUMPDEST PUSH1 0x0 PUSH1 0x1 SWAP1 POP JUMPDEST PUSH1 0xF DUP1 SLOAD SWAP1 POP DUP2 LT ISZERO PUSH2 0x31DB JUMPI PUSH1 0x0 PUSH1 0xF DUP3 DUP2 SLOAD DUP2 LT PUSH2 0x304D JUMPI PUSH2 0x304C PUSH2 0x5114 JUMP JUMPDEST JUMPDEST SWAP1 PUSH1 0x0 MSTORE PUSH1 0x20 PUSH1 0x0 KECCAK256 ADD SLOAD SWAP1 POP PUSH1 0x0 PUSH1 0xC PUSH1 0x0 DUP6 PUSH20 0xFFFFFFFFFFFFFFFFFFFFFFFFFFFFFFFFFFFFFFFF AND PUSH20 0xFFFFFFFFFFFFFFFFFFFFFFFFFFFFFFFFFFFFFFFF AND DUP2 MSTORE PUSH1 0x20 ADD SWAP1 DUP2 MSTORE PUSH1 0x20 ADD PUSH1 0x0 KECCAK256 PUSH1 0x0 DUP4 DUP2 MSTORE PUSH1 0x20 ADD SWAP1 DUP2 MSTORE PUSH1 0x20 ADD PUSH1 0x0 KECCAK256 SWAP1 POP DUP1 PUSH1 0x8 ADD PUSH1 0x0 SWAP1 SLOAD SWAP1 PUSH2 0x100 EXP SWAP1 DIV PUSH1 0xFF AND DUP1 ISZERO PUSH2 0x30CF JUMPI POP DUP1 PUSH1 0x7 ADD SLOAD TIMESTAMP GT JUMPDEST ISZERO PUSH2 0x31CC JUMPI PUSH1 0x0 DUP2 PUSH1 0x8 ADD PUSH1 0x0 PUSH2 0x100 EXP DUP2 SLOAD DUP2 PUSH1 0xFF MUL NOT AND SWAP1 DUP4 ISZERO ISZERO MUL OR SWAP1 SSTORE POP PUSH1 0xC PUSH1 0x0 DUP6 PUSH20 0xFFFFFFFFFFFFFFFFFFFFFFFFFFFFFFFFFFFFFFFF AND PUSH20 0xFFFFFFFFFFFFFFFFFFFFFFFFFFFFFFFFFFFFFFFF AND DUP2 MSTORE PUSH1 0x20 ADD SWAP1 DUP2 MSTORE PUSH1 0x20 ADD PUSH1 0x0 KECCAK256 PUSH1 0x0 DUP4 DUP2 MSTORE PUSH1 0x20 ADD SWAP1 DUP2 MSTORE PUSH1 0x20 ADD PUSH1 0x0 KECCAK256 PUSH1 0x0 DUP1 DUP3 ADD PUSH1 0x0 PUSH2 0x100 EXP DUP2 SLOAD SWAP1 PUSH20 0xFFFFFFFFFFFFFFFFFFFFFFFFFFFFFFFFFFFFFFFF MUL NOT AND SWAP1 SSTORE PUSH1 0x1 DUP3 ADD PUSH1 0x0 SWAP1 SSTORE PUSH1 0x2 DUP3 ADD PUSH1 0x0 PUSH2 0x100 EXP DUP2 SLOAD SWAP1 PUSH1 0xFF MUL NOT AND SWAP1 SSTORE PUSH1 0x3 DUP3 ADD PUSH1 0x0 PUSH2 0x3195 SWAP2 SWAP1 PUSH2 0x39C8 JUMP JUMPDEST PUSH1 0x4 DUP3 ADD PUSH1 0x0 SWAP1 SSTORE PUSH1 0x5 DUP3 ADD PUSH1 0x0 SWAP1 SSTORE PUSH1 0x6 DUP3 ADD PUSH1 0x0 SWAP1 SSTORE PUSH1 0x7 DUP3 ADD PUSH1 0x0 SWAP1 SSTORE PUSH1 0x8 DUP3 ADD PUSH1 0x0 PUSH2 0x100 EXP DUP2 SLOAD SWAP1 PUSH1 0xFF MUL NOT AND SWAP1 SSTORE POP POP JUMPDEST POP POP DUP1 DUP1 PUSH1 0x1 ADD SWAP2 POP POP PUSH2 0x302A JUMP JUMPDEST POP PUSH2 0x31E4 PUSH2 0x34B9 JUMP JUMPDEST POP JUMP JUMPDEST PUSH2 0x31EF PUSH2 0x3952 JUMP JUMPDEST PUSH1 0xC PUSH1 0x0 DUP5 PUSH20 0xFFFFFFFFFFFFFFFFFFFFFFFFFFFFFFFFFFFFFFFF AND PUSH20 0xFFFFFFFFFFFFFFFFFFFFFFFFFFFFFFFFFFFFFFFF AND DUP2 MSTORE PUSH1 0x20 ADD SWAP1 DUP2 MSTORE PUSH1 0x20 ADD PUSH1 0x0 KECCAK256 PUSH1 0x0 DUP4 DUP2 MSTORE PUSH1 0x20 ADD SWAP1 DUP2 MSTORE PUSH1 0x20 ADD PUSH1 0x0 KECCAK256 PUSH1 0x40 MLOAD DUP1 PUSH2 0x120 ADD PUSH1 0x40 MSTORE SWAP1 DUP2 PUSH1 0x0 DUP3 ADD PUSH1 0x0 SWAP1 SLOAD SWAP1 PUSH2 0x100 EXP SWAP1 DIV PUSH20 0xFFFFFFFFFFFFFFFFFFFFFFFFFFFFFFFFFFFFFFFF AND PUSH20 0xFFFFFFFFFFFFFFFFFFFFFFFFFFFFFFFFFFFFFFFF AND PUSH20 0xFFFFFFFFFFFFFFFFFFFFFFFFFFFFFFFFFFFFFFFF AND DUP2 MSTORE PUSH1 0x20 ADD PUSH1 0x1 DUP3 ADD SLOAD DUP2 MSTORE PUSH1 0x20 ADD PUSH1 0x2 DUP3 ADD PUSH1 0x0 SWAP1 SLOAD SWAP1 PUSH2 0x100 EXP SWAP1 DIV PUSH1 0xFF AND PUSH1 0x3 DUP2 GT ISZERO PUSH2 0x32D0 JUMPI PUSH2 0x32CF PUSH2 0x3E1B JUMP JUMPDEST JUMPDEST PUSH1 0x3 DUP2 GT ISZERO PUSH2 0x32E2 JUMPI PUSH2 0x32E1 PUSH2 0x3E1B JUMP JUMPDEST JUMPDEST DUP2 MSTORE PUSH1 0x20 ADD PUSH1 0x3 DUP3 ADD DUP1 SLOAD PUSH2 0x32F6 SWAP1 PUSH2 0x4E6F JUMP JUMPDEST DUP1 PUSH1 0x1F ADD PUSH1 0x20 DUP1 SWAP2 DIV MUL PUSH1 0x20 ADD PUSH1 0x40 MLOAD SWAP1 DUP2 ADD PUSH1 0x40 MSTORE DUP1 SWAP3 SWAP2 SWAP1 DUP2 DUP2 MSTORE PUSH1 0x20 ADD DUP3 DUP1 SLOAD PUSH2 0x3322 SWAP1 PUSH2 0x4E6F JUMP JUMPDEST DUP1 ISZERO PUSH2 0x336F JUMPI DUP1 PUSH1 0x1F LT PUSH2 0x3344 JUMPI PUSH2 0x100 DUP1 DUP4 SLOAD DIV MUL DUP4 MSTORE SWAP2 PUSH1 0x20 ADD SWAP2 PUSH2 0x336F JUMP JUMPDEST DUP3 ADD SWAP2 SWAP1 PUSH1 0x0 MSTORE PUSH1 0x20 PUSH1 0x0 KECCAK256 SWAP1 JUMPDEST DUP2 SLOAD DUP2 MSTORE SWAP1 PUSH1 0x1 ADD SWAP1 PUSH1 0x20 ADD DUP1 DUP4 GT PUSH2 0x3352 JUMPI DUP3 SWAP1 SUB PUSH1 0x1F AND DUP3 ADD SWAP2 JUMPDEST POP POP POP POP POP DUP2 MSTORE PUSH1 0x20 ADD PUSH1 0x4 DUP3 ADD SLOAD DUP2 MSTORE PUSH1 0x20 ADD PUSH1 0x5 DUP3 ADD SLOAD DUP2 MSTORE PUSH1 0x20 ADD PUSH1 0x6 DUP3 ADD SLOAD DUP2 MSTORE PUSH1 0x20 ADD PUSH1 0x7 DUP3 ADD SLOAD DUP2 MSTORE PUSH1 0x20 ADD PUSH1 0x8 DUP3 ADD PUSH1 0x0 SWAP1 SLOAD SWAP1 PUSH2 0x100 EXP SWAP1 DIV PUSH1 0xFF AND ISZERO ISZERO ISZERO ISZERO DUP2 MSTORE POP POP SWAP1 POP SWAP3 SWAP2 POP POP JUMP JUMPDEST PUSH2 0x33CB PUSH2 0x34C3 JUMP JUMPDEST PUSH1 0x0 PUSH20 0xFFFFFFFFFFFFFFFFFFFFFFFFFFFFFFFFFFFFFFFF AND DUP2 PUSH20 0xFFFFFFFFFFFFFFFFFFFFFFFFFFFFFFFFFFFFFFFF AND SUB PUSH2 0x343D JUMPI PUSH1 0x0 PUSH1 0x40 MLOAD PUSH32 0x1E4FBDF700000000000000000000000000000000000000000000000000000000 DUP2 MSTORE PUSH1 0x4 ADD PUSH2 0x3434 SWAP2 SWAP1 PUSH2 0x3CCD JUMP JUMPDEST PUSH1 0x40 MLOAD DUP1 SWAP2 SUB SWAP1 REVERT JUMPDEST PUSH2 0x3446 DUP2 PUSH2 0x354A JUMP JUMPDEST POP JUMP JUMPDEST PUSH1 0xF DUP2 DUP2 SLOAD DUP2 LT PUSH2 0x3459 JUMPI PUSH1 0x0 DUP1 REVERT JUMPDEST SWAP1 PUSH1 0x0 MSTORE PUSH1 0x20 PUSH1 0x0 KECCAK256 ADD PUSH1 0x0 SWAP2 POP SWAP1 POP SLOAD DUP2 JUMP JUMPDEST PUSH1 0xE SLOAD DUP2 JUMP JUMPDEST PUSH1 0x2 PUSH1 0x0 SLOAD SUB PUSH2 0x34AF JUMPI PUSH1 0x40 MLOAD PUSH32 0x3EE5AEB500000000000000000000000000000000000000000000000000000000 DUP2 MSTORE PUSH1 0x4 ADD PUSH1 0x40 MLOAD DUP1 SWAP2 SUB SWAP1 REVERT JUMPDEST PUSH1 0x2 PUSH1 0x0 DUP2 SWAP1 SSTORE POP JUMP JUMPDEST PUSH1 0x1 PUSH1 0x0 DUP2 SWAP1 SSTORE POP JUMP JUMPDEST PUSH2 0x34CB PUSH2 0x38DE JUMP JUMPDEST PUSH20 0xFFFFFFFFFFFFFFFFFFFFFFFFFFFFFFFFFFFFFFFF AND PUSH2 0x34E9 PUSH2 0x219A JUMP JUMPDEST PUSH20 0xFFFFFFFFFFFFFFFFFFFFFFFFFFFFFFFFFFFFFFFF AND EQ PUSH2 0x3548 JUMPI PUSH2 0x350C PUSH2 0x38DE JUMP JUMPDEST PUSH1 0x40 MLOAD PUSH32 0x118CDAA700000000000000000000000000000000000000000000000000000000 DUP2 MSTORE PUSH1 0x4 ADD PUSH2 0x353F SWAP2 SWAP1 PUSH2 0x3CCD JUMP JUMPDEST PUSH1 0x40 MLOAD DUP1 SWAP2 SUB SWAP1 REVERT JUMPDEST JUMP JUMPDEST PUSH1 0x0 PUSH1 0x1 PUSH1 0x0 SWAP1 SLOAD SWAP1 PUSH2 0x100 EXP SWAP1 DIV PUSH20 0xFFFFFFFFFFFFFFFFFFFFFFFFFFFFFFFFFFFFFFFF AND SWAP1 POP DUP2 PUSH1 0x1 PUSH1 0x0 PUSH2 0x100 EXP DUP2 SLOAD DUP2 PUSH20 0xFFFFFFFFFFFFFFFFFFFFFFFFFFFFFFFFFFFFFFFF MUL NOT AND SWAP1 DUP4 PUSH20 0xFFFFFFFFFFFFFFFFFFFFFFFFFFFFFFFFFFFFFFFF AND MUL OR SWAP1 SSTORE POP DUP2 PUSH20 0xFFFFFFFFFFFFFFFFFFFFFFFFFFFFFFFFFFFFFFFF AND DUP2 PUSH20 0xFFFFFFFFFFFFFFFFFFFFFFFFFFFFFFFFFFFFFFFF AND PUSH32 0x8BE0079C531659141344CD1FD0A4F28419497F9722A3DAAFE3B4186F6B6457E0 PUSH1 0x40 MLOAD PUSH1 0x40 MLOAD DUP1 SWAP2 SUB SWAP1 LOG3 POP POP JUMP JUMPDEST PUSH1 0x0 DUP1 PUSH1 0x3 PUSH1 0x0 SWAP1 SLOAD SWAP1 PUSH2 0x100 EXP SWAP1 DIV PUSH20 0xFFFFFFFFFFFFFFFFFFFFFFFFFFFFFFFFFFFFFFFF AND PUSH20 0xFFFFFFFFFFFFFFFFFFFFFFFFFFFFFFFFFFFFFFFF AND PUSH4 0x7EB111F0 DUP7 PUSH1 0x40 MLOAD DUP3 PUSH4 0xFFFFFFFF AND PUSH1 0xE0 SHL DUP2 MSTORE PUSH1 0x4 ADD PUSH2 0x366E SWAP2 SWAP1 PUSH2 0x3B1C JUMP JUMPDEST PUSH1 0x0 PUSH1 0x40 MLOAD DUP1 DUP4 SUB DUP2 DUP7 GAS STATICCALL ISZERO DUP1 ISZERO PUSH2 0x368B JUMPI RETURNDATASIZE PUSH1 0x0 DUP1 RETURNDATACOPY RETURNDATASIZE PUSH1 0x0 REVERT JUMPDEST POP POP POP POP PUSH1 0x40 MLOAD RETURNDATASIZE PUSH1 0x0 DUP3 RETURNDATACOPY RETURNDATASIZE PUSH1 0x1F NOT PUSH1 0x1F DUP3 ADD AND DUP3 ADD DUP1 PUSH1 0x40 MSTORE POP DUP2 ADD SWAP1 PUSH2 0x36B4 SWAP2 SWAP1 PUSH2 0x5408 JUMP JUMPDEST SWAP1 POP PUSH1 0x0 JUMPDEST DUP2 MLOAD DUP2 LT ISZERO PUSH2 0x3772 JUMPI DUP7 PUSH1 0x40 MLOAD PUSH1 0x20 ADD PUSH2 0x36D3 SWAP2 SWAP1 PUSH2 0x548D JUMP JUMPDEST PUSH1 0x40 MLOAD PUSH1 0x20 DUP2 DUP4 SUB SUB DUP2 MSTORE SWAP1 PUSH1 0x40 MSTORE DUP1 MLOAD SWAP1 PUSH1 0x20 ADD KECCAK256 DUP3 DUP3 DUP2 MLOAD DUP2 LT PUSH2 0x36FC JUMPI PUSH2 0x36FB PUSH2 0x5114 JUMP JUMPDEST JUMPDEST PUSH1 0x20 MUL PUSH1 0x20 ADD ADD MLOAD PUSH1 0x20 ADD MLOAD PUSH1 0x40 MLOAD PUSH1 0x20 ADD PUSH2 0x3718 SWAP2 SWAP1 PUSH2 0x548D JUMP JUMPDEST PUSH1 0x40 MLOAD PUSH1 0x20 DUP2 DUP4 SUB SUB DUP2 MSTORE SWAP1 PUSH1 0x40 MSTORE DUP1 MLOAD SWAP1 PUSH1 0x20 ADD KECCAK256 SUB PUSH2 0x3765 JUMPI PUSH1 0x40 MLOAD PUSH32 0xD202940C00000000000000000000000000000000000000000000000000000000 DUP2 MSTORE PUSH1 0x4 ADD PUSH1 0x40 MLOAD DUP1 SWAP2 SUB SWAP1 REVERT JUMPDEST DUP1 DUP1 PUSH1 0x1 ADD SWAP2 POP POP PUSH2 0x36B9 JUMP JUMPDEST POP PUSH1 0x0 DUP1 PUSH1 0x0 PUSH1 0x3 PUSH1 0x0 SWAP1 SLOAD SWAP1 PUSH2 0x100 EXP SWAP1 DIV PUSH20 0xFFFFFFFFFFFFFFFFFFFFFFFFFFFFFFFFFFFFFFFF AND PUSH20 0xFFFFFFFFFFFFFFFFFFFFFFFFFFFFFFFFFFFFFFFF AND PUSH4 0x68BCD8D DUP10 PUSH1 0x40 MLOAD DUP3 PUSH4 0xFFFFFFFF AND PUSH1 0xE0 SHL DUP2 MSTORE PUSH1 0x4 ADD PUSH2 0x37D3 SWAP2 SWAP1 PUSH2 0x3B1C JUMP JUMPDEST PUSH1 0x0 PUSH1 0x40 MLOAD DUP1 DUP4 SUB DUP2 DUP7 GAS STATICCALL ISZERO DUP1 ISZERO PUSH2 0x37F0 JUMPI RETURNDATASIZE PUSH1 0x0 DUP1 RETURNDATACOPY RETURNDATASIZE PUSH1 0x0 REVERT JUMPDEST POP POP POP POP PUSH1 0x40 MLOAD RETURNDATASIZE PUSH1 0x0 DUP3 RETURNDATACOPY RETURNDATASIZE PUSH1 0x1F NOT PUSH1 0x1F DUP3 ADD AND DUP3 ADD DUP1 PUSH1 0x40 MSTORE POP DUP2 ADD SWAP1 PUSH2 0x3819 SWAP2 SWAP1 PUSH2 0x4A39 JUMP JUMPDEST SWAP7 POP POP SWAP6 POP POP POP SWAP4 POP POP DUP7 PUSH1 0x3 DUP2 GT ISZERO PUSH2 0x3836 JUMPI PUSH2 0x3835 PUSH2 0x3E1B JUMP JUMPDEST JUMPDEST DUP4 PUSH1 0x3 DUP2 GT ISZERO PUSH2 0x3849 JUMPI PUSH2 0x3848 PUSH2 0x3E1B JUMP JUMPDEST JUMPDEST EQ ISZERO DUP1 PUSH2 0x3855 JUMPI POP DUP1 DUP7 GT JUMPDEST ISZERO PUSH2 0x388C JUMPI PUSH1 0x40 MLOAD PUSH32 0xD3C913EA00000000000000000000000000000000000000000000000000000000 DUP2 MSTORE PUSH1 0x4 ADD PUSH1 0x40 MLOAD DUP1 SWAP2 SUB SWAP1 REVERT JUMPDEST PUSH1 0x0 PUSH8 0xDE0B6B3A7640000 PUSH1 0x64 PUSH8 0xDE0B6B3A7640000 DUP10 PUSH2 0x38AD SWAP2 SWAP1 PUSH2 0x4B92 JUMP JUMPDEST PUSH2 0x38B7 SWAP2 SWAP1 PUSH2 0x4C03 JUMP JUMPDEST DUP5 PUSH2 0x38C2 SWAP2 SWAP1 PUSH2 0x4B92 JUMP JUMPDEST PUSH2 0x38CC SWAP2 SWAP1 PUSH2 0x4C03 JUMP JUMPDEST SWAP1 POP DUP1 SWAP6 POP POP POP POP POP POP SWAP5 SWAP4 POP POP POP POP JUMP JUMPDEST PUSH1 0x0 CALLER SWAP1 POP SWAP1 JUMP JUMPDEST PUSH1 0x40 MLOAD DUP1 PUSH2 0x160 ADD PUSH1 0x40 MSTORE DUP1 PUSH1 0x0 DUP2 MSTORE PUSH1 0x20 ADD PUSH1 0x60 DUP2 MSTORE PUSH1 0x20 ADD PUSH1 0x0 PUSH1 0x3 DUP2 GT ISZERO PUSH2 0x3914 JUMPI PUSH2 0x3913 PUSH2 0x3E1B JUMP JUMPDEST JUMPDEST DUP2 MSTORE PUSH1 0x20 ADD PUSH1 0x60 DUP2 MSTORE PUSH1 0x20 ADD PUSH1 0x0 DUP2 MSTORE PUSH1 0x20 ADD PUSH1 0x0 DUP2 MSTORE PUSH1 0x20 ADD PUSH1 0x0 DUP2 MSTORE PUSH1 0x20 ADD PUSH1 0x0 DUP2 MSTORE PUSH1 0x20 ADD PUSH1 0x0 DUP2 MSTORE PUSH1 0x20 ADD PUSH1 0x0 DUP2 MSTORE PUSH1 0x20 ADD PUSH1 0x60 DUP2 MSTORE POP SWAP1 JUMP JUMPDEST PUSH1 0x40 MLOAD DUP1 PUSH2 0x120 ADD PUSH1 0x40 MSTORE DUP1 PUSH1 0x0 PUSH20 0xFFFFFFFFFFFFFFFFFFFFFFFFFFFFFFFFFFFFFFFF AND DUP2 MSTORE PUSH1 0x20 ADD PUSH1 0x0 DUP2 MSTORE PUSH1 0x20 ADD PUSH1 0x0 PUSH1 0x3 DUP2 GT ISZERO PUSH2 0x3996 JUMPI PUSH2 0x3995 PUSH2 0x3E1B JUMP JUMPDEST JUMPDEST DUP2 MSTORE PUSH1 0x20 ADD PUSH1 0x60 DUP2 MSTORE PUSH1 0x20 ADD PUSH1 0x0 DUP2 MSTORE PUSH1 0x20 ADD PUSH1 0x0 DUP2 MSTORE PUSH1 0x20 ADD PUSH1 0x0 DUP2 MSTORE PUSH1 0x20 ADD PUSH1 0x0 DUP2 MSTORE PUSH1 0x20 ADD PUSH1 0x0 ISZERO ISZERO DUP2 MSTORE POP SWAP1 JUMP JUMPDEST POP DUP1 SLOAD PUSH2 0x39D4 SWAP1 PUSH2 0x4E6F JUMP JUMPDEST PUSH1 0x0 DUP3 SSTORE DUP1 PUSH1 0x1F LT PUSH2 0x39E6 JUMPI POP PUSH2 0x3A05 JUMP JUMPDEST PUSH1 0x1F ADD PUSH1 0x20 SWAP1 DIV SWAP1 PUSH1 0x0 MSTORE PUSH1 0x20 PUSH1 0x0 KECCAK256 SWAP1 DUP2 ADD SWAP1 PUSH2 0x3A04 SWAP2 SWAP1 PUSH2 0x3A08 JUMP JUMPDEST JUMPDEST POP JUMP JUMPDEST JUMPDEST DUP1 DUP3 GT ISZERO PUSH2 0x3A21 JUMPI PUSH1 0x0 DUP2 PUSH1 0x0 SWAP1 SSTORE POP PUSH1 0x1 ADD PUSH2 0x3A09 JUMP JUMPDEST POP SWAP1 JUMP JUMPDEST PUSH1 0x0 PUSH1 0x40 MLOAD SWAP1 POP SWAP1 JUMP JUMPDEST PUSH1 0x0 DUP1 REVERT JUMPDEST PUSH1 0x0 DUP1 REVERT JUMPDEST PUSH1 0x0 PUSH20 0xFFFFFFFFFFFFFFFFFFFFFFFFFFFFFFFFFFFFFFFF DUP3 AND SWAP1 POP SWAP2 SWAP1 POP JUMP JUMPDEST PUSH1 0x0 PUSH2 0x3A64 DUP3 PUSH2 0x3A39 JUMP JUMPDEST SWAP1 POP SWAP2 SWAP1 POP JUMP JUMPDEST PUSH2 0x3A74 DUP2 PUSH2 0x3A59 JUMP JUMPDEST DUP2 EQ PUSH2 0x3A7F JUMPI PUSH1 0x0 DUP1 REVERT JUMPDEST POP JUMP JUMPDEST PUSH1 0x0 DUP2 CALLDATALOAD SWAP1 POP PUSH2 0x3A91 DUP2 PUSH2 0x3A6B JUMP JUMPDEST SWAP3 SWAP2 POP POP JUMP JUMPDEST PUSH1 0x0 DUP2 SWAP1 POP SWAP2 SWAP1 POP JUMP JUMPDEST PUSH2 0x3AAA DUP2 PUSH2 0x3A97 JUMP JUMPDEST DUP2 EQ PUSH2 0x3AB5 JUMPI PUSH1 0x0 DUP1 REVERT JUMPDEST POP JUMP JUMPDEST PUSH1 0x0 DUP2 CALLDATALOAD SWAP1 POP PUSH2 0x3AC7 DUP2 PUSH2 0x3AA1 JUMP JUMPDEST SWAP3 SWAP2 POP POP JUMP JUMPDEST PUSH1 0x0 DUP1 PUSH1 0x40 DUP4 DUP6 SUB SLT ISZERO PUSH2 0x3AE4 JUMPI PUSH2 0x3AE3 PUSH2 0x3A2F JUMP JUMPDEST JUMPDEST PUSH1 0x0 PUSH2 0x3AF2 DUP6 DUP3 DUP7 ADD PUSH2 0x3A82 JUMP JUMPDEST SWAP3 POP POP PUSH1 0x20 PUSH2 0x3B03 DUP6 DUP3 DUP7 ADD PUSH2 0x3AB8 JUMP JUMPDEST SWAP2 POP POP SWAP3 POP SWAP3 SWAP1 POP JUMP JUMPDEST PUSH2 0x3B16 DUP2 PUSH2 0x3A97 JUMP JUMPDEST DUP3 MSTORE POP POP JUMP JUMPDEST PUSH1 0x0 PUSH1 0x20 DUP3 ADD SWAP1 POP PUSH2 0x3B31 PUSH1 0x0 DUP4 ADD DUP5 PUSH2 0x3B0D JUMP JUMPDEST SWAP3 SWAP2 POP POP JUMP JUMPDEST PUSH1 0x0 PUSH1 0x20 DUP3 DUP5 SUB SLT ISZERO PUSH2 0x3B4D JUMPI PUSH2 0x3B4C PUSH2 0x3A2F JUMP JUMPDEST JUMPDEST PUSH1 0x0 PUSH2 0x3B5B DUP5 DUP3 DUP6 ADD PUSH2 0x3AB8 JUMP JUMPDEST SWAP2 POP POP SWAP3 SWAP2 POP POP JUMP JUMPDEST PUSH1 0x0 DUP2 MLOAD SWAP1 POP SWAP2 SWAP1 POP JUMP JUMPDEST PUSH1 0x0 DUP3 DUP3 MSTORE PUSH1 0x20 DUP3 ADD SWAP1 POP SWAP3 SWAP2 POP POP JUMP JUMPDEST PUSH1 0x0 DUP2 SWAP1 POP PUSH1 0x20 DUP3 ADD SWAP1 POP SWAP2 SWAP1 POP JUMP JUMPDEST PUSH2 0x3B99 DUP2 PUSH2 0x3A59 JUMP JUMPDEST DUP3 MSTORE POP POP JUMP JUMPDEST PUSH1 0x0 PUSH2 0x3BAB DUP4 DUP4 PUSH2 0x3B90 JUMP JUMPDEST PUSH1 0x20 DUP4 ADD SWAP1 POP SWAP3 SWAP2 POP POP JUMP JUMPDEST PUSH1 0x0 PUSH1 0x20 DUP3 ADD SWAP1 POP SWAP2 SWAP1 POP JUMP JUMPDEST PUSH1 0x0 PUSH2 0x3BCF DUP3 PUSH2 0x3B64 JUMP JUMPDEST PUSH2 0x3BD9 DUP2 DUP6 PUSH2 0x3B6F JUMP JUMPDEST SWAP4 POP PUSH2 0x3BE4 DUP4 PUSH2 0x3B80 JUMP JUMPDEST DUP1 PUSH1 0x0 JUMPDEST DUP4 DUP2 LT ISZERO PUSH2 0x3C15 JUMPI DUP2 MLOAD PUSH2 0x3BFC DUP9 DUP3 PUSH2 0x3B9F JUMP JUMPDEST SWAP8 POP PUSH2 0x3C07 DUP4 PUSH2 0x3BB7 JUMP JUMPDEST SWAP3 POP POP PUSH1 0x1 DUP2 ADD SWAP1 POP PUSH2 0x3BE8 JUMP JUMPDEST POP DUP6 SWAP4 POP POP POP POP SWAP3 SWAP2 POP POP JUMP JUMPDEST PUSH1 0x0 PUSH1 0x20 DUP3 ADD SWAP1 POP DUP2 DUP2 SUB PUSH1 0x0 DUP4 ADD MSTORE PUSH2 0x3C3C DUP2 DUP5 PUSH2 0x3BC4 JUMP JUMPDEST SWAP1 POP SWAP3 SWAP2 POP POP JUMP JUMPDEST PUSH1 0x0 DUP2 SWAP1 POP SWAP2 SWAP1 POP JUMP JUMPDEST PUSH1 0x0 PUSH2 0x3C69 PUSH2 0x3C64 PUSH2 0x3C5F DUP5 PUSH2 0x3A39 JUMP JUMPDEST PUSH2 0x3C44 JUMP JUMPDEST PUSH2 0x3A39 JUMP JUMPDEST SWAP1 POP SWAP2 SWAP1 POP JUMP JUMPDEST PUSH1 0x0 PUSH2 0x3C7B DUP3 PUSH2 0x3C4E JUMP JUMPDEST SWAP1 POP SWAP2 SWAP1 POP JUMP JUMPDEST PUSH1 0x0 PUSH2 0x3C8D DUP3 PUSH2 0x3C70 JUMP JUMPDEST SWAP1 POP SWAP2 SWAP1 POP JUMP JUMPDEST PUSH2 0x3C9D DUP2 PUSH2 0x3C82 JUMP JUMPDEST DUP3 MSTORE POP POP JUMP JUMPDEST PUSH1 0x0 PUSH1 0x20 DUP3 ADD SWAP1 POP PUSH2 0x3CB8 PUSH1 0x0 DUP4 ADD DUP5 PUSH2 0x3C94 JUMP JUMPDEST SWAP3 SWAP2 POP POP JUMP JUMPDEST PUSH2 0x3CC7 DUP2 PUSH2 0x3A59 JUMP JUMPDEST DUP3 MSTORE POP POP JUMP JUMPDEST PUSH1 0x0 PUSH1 0x20 DUP3 ADD SWAP1 POP PUSH2 0x3CE2 PUSH1 0x0 DUP4 ADD DUP5 PUSH2 0x3CBE JUMP JUMPDEST SWAP3 SWAP2 POP POP JUMP JUMPDEST PUSH1 0x0 PUSH1 0x20 DUP3 DUP5 SUB SLT ISZERO PUSH2 0x3CFE JUMPI PUSH2 0x3CFD PUSH2 0x3A2F JUMP JUMPDEST JUMPDEST PUSH1 0x0 PUSH2 0x3D0C DUP5 DUP3 DUP6 ADD PUSH2 0x3A82 JUMP JUMPDEST SWAP2 POP POP SWAP3 SWAP2 POP POP JUMP JUMPDEST PUSH1 0x0 DUP1 PUSH1 0x0 DUP1 PUSH1 0x80 DUP6 DUP8 SUB SLT ISZERO PUSH2 0x3D2F JUMPI PUSH2 0x3D2E PUSH2 0x3A2F JUMP JUMPDEST JUMPDEST PUSH1 0x0 PUSH2 0x3D3D DUP8 DUP3 DUP9 ADD PUSH2 0x3AB8 JUMP JUMPDEST SWAP5 POP POP PUSH1 0x20 PUSH2 0x3D4E DUP8 DUP3 DUP9 ADD PUSH2 0x3AB8 JUMP JUMPDEST SWAP4 POP POP PUSH1 0x40 PUSH2 0x3D5F DUP8 DUP3 DUP9 ADD PUSH2 0x3AB8 JUMP JUMPDEST SWAP3 POP POP PUSH1 0x60 PUSH2 0x3D70 DUP8 DUP3 DUP9 ADD PUSH2 0x3AB8 JUMP JUMPDEST SWAP2 POP POP SWAP3 SWAP6 SWAP2 SWAP5 POP SWAP3 POP JUMP JUMPDEST PUSH2 0x3D85 DUP2 PUSH2 0x3A97 JUMP JUMPDEST DUP3 MSTORE POP POP JUMP JUMPDEST PUSH1 0x0 DUP2 MLOAD SWAP1 POP SWAP2 SWAP1 POP JUMP JUMPDEST PUSH1 0x0 DUP3 DUP3 MSTORE PUSH1 0x20 DUP3 ADD SWAP1 POP SWAP3 SWAP2 POP POP JUMP JUMPDEST PUSH1 0x0 JUMPDEST DUP4 DUP2 LT ISZERO PUSH2 0x3DC5 JUMPI DUP1 DUP3 ADD MLOAD DUP2 DUP5 ADD MSTORE PUSH1 0x20 DUP2 ADD SWAP1 POP PUSH2 0x3DAA JUMP JUMPDEST PUSH1 0x0 DUP5 DUP5 ADD MSTORE POP POP POP POP JUMP JUMPDEST PUSH1 0x0 PUSH1 0x1F NOT PUSH1 0x1F DUP4 ADD AND SWAP1 POP SWAP2 SWAP1 POP JUMP JUMPDEST PUSH1 0x0 PUSH2 0x3DED DUP3 PUSH2 0x3D8B JUMP JUMPDEST PUSH2 0x3DF7 DUP2 DUP6 PUSH2 0x3D96 JUMP JUMPDEST SWAP4 POP PUSH2 0x3E07 DUP2 DUP6 PUSH1 0x20 DUP7 ADD PUSH2 0x3DA7 JUMP JUMPDEST PUSH2 0x3E10 DUP2 PUSH2 0x3DD1 JUMP JUMPDEST DUP5 ADD SWAP2 POP POP SWAP3 SWAP2 POP POP JUMP JUMPDEST PUSH32 0x4E487B7100000000000000000000000000000000000000000000000000000000 PUSH1 0x0 MSTORE PUSH1 0x21 PUSH1 0x4 MSTORE PUSH1 0x24 PUSH1 0x0 REVERT JUMPDEST PUSH1 0x4 DUP2 LT PUSH2 0x3E5B JUMPI PUSH2 0x3E5A PUSH2 0x3E1B JUMP JUMPDEST JUMPDEST POP JUMP JUMPDEST PUSH1 0x0 DUP2 SWAP1 POP PUSH2 0x3E6C DUP3 PUSH2 0x3E4A JUMP JUMPDEST SWAP2 SWAP1 POP JUMP JUMPDEST PUSH1 0x0 PUSH2 0x3E7C DUP3 PUSH2 0x3E5E JUMP JUMPDEST SWAP1 POP SWAP2 SWAP1 POP JUMP JUMPDEST PUSH2 0x3E8C DUP2 PUSH2 0x3E71 JUMP JUMPDEST DUP3 MSTORE POP POP JUMP JUMPDEST PUSH1 0x0 PUSH2 0x160 DUP4 ADD PUSH1 0x0 DUP4 ADD MLOAD PUSH2 0x3EAB PUSH1 0x0 DUP7 ADD DUP3 PUSH2 0x3D7C JUMP JUMPDEST POP PUSH1 0x20 DUP4 ADD MLOAD DUP5 DUP3 SUB PUSH1 0x20 DUP7 ADD MSTORE PUSH2 0x3EC3 DUP3 DUP3 PUSH2 0x3DE2 JUMP JUMPDEST SWAP2 POP POP PUSH1 0x40 DUP4 ADD MLOAD PUSH2 0x3ED8 PUSH1 0x40 DUP7 ADD DUP3 PUSH2 0x3E83 JUMP JUMPDEST POP PUSH1 0x60 DUP4 ADD MLOAD DUP5 DUP3 SUB PUSH1 0x60 DUP7 ADD MSTORE PUSH2 0x3EF0 DUP3 DUP3 PUSH2 0x3DE2 JUMP JUMPDEST SWAP2 POP POP PUSH1 0x80 DUP4 ADD MLOAD PUSH2 0x3F05 PUSH1 0x80 DUP7 ADD DUP3 PUSH2 0x3D7C JUMP JUMPDEST POP PUSH1 0xA0 DUP4 ADD MLOAD PUSH2 0x3F18 PUSH1 0xA0 DUP7 ADD DUP3 PUSH2 0x3D7C JUMP JUMPDEST POP PUSH1 0xC0 DUP4 ADD MLOAD PUSH2 0x3F2B PUSH1 0xC0 DUP7 ADD DUP3 PUSH2 0x3D7C JUMP JUMPDEST POP PUSH1 0xE0 DUP4 ADD MLOAD PUSH2 0x3F3E PUSH1 0xE0 DUP7 ADD DUP3 PUSH2 0x3D7C JUMP JUMPDEST POP PUSH2 0x100 DUP4 ADD MLOAD PUSH2 0x3F53 PUSH2 0x100 DUP7 ADD DUP3 PUSH2 0x3D7C JUMP JUMPDEST POP PUSH2 0x120 DUP4 ADD MLOAD PUSH2 0x3F68 PUSH2 0x120 DUP7 ADD DUP3 PUSH2 0x3D7C JUMP JUMPDEST POP PUSH2 0x140 DUP4 ADD MLOAD DUP5 DUP3 SUB PUSH2 0x140 DUP7 ADD MSTORE PUSH2 0x3F82 DUP3 DUP3 PUSH2 0x3DE2 JUMP JUMPDEST SWAP2 POP POP DUP1 SWAP2 POP POP SWAP3 SWAP2 POP POP JUMP JUMPDEST PUSH1 0x0 PUSH1 0x20 DUP3 ADD SWAP1 POP DUP2 DUP2 SUB PUSH1 0x0 DUP4 ADD MSTORE PUSH2 0x3FA9 DUP2 DUP5 PUSH2 0x3E92 JUMP JUMPDEST SWAP1 POP SWAP3 SWAP2 POP POP JUMP JUMPDEST PUSH1 0x0 DUP3 DUP3 MSTORE PUSH1 0x20 DUP3 ADD SWAP1 POP SWAP3 SWAP2 POP POP JUMP JUMPDEST PUSH1 0x0 PUSH2 0x3FCD DUP3 PUSH2 0x3D8B JUMP JUMPDEST PUSH2 0x3FD7 DUP2 DUP6 PUSH2 0x3FB1 JUMP JUMPDEST SWAP4 POP PUSH2 0x3FE7 DUP2 DUP6 PUSH1 0x20 DUP7 ADD PUSH2 0x3DA7 JUMP JUMPDEST PUSH2 0x3FF0 DUP2 PUSH2 0x3DD1 JUMP JUMPDEST DUP5 ADD SWAP2 POP POP SWAP3 SWAP2 POP POP JUMP JUMPDEST PUSH2 0x4004 DUP2 PUSH2 0x3E71 JUMP JUMPDEST DUP3 MSTORE POP POP JUMP JUMPDEST PUSH1 0x0 PUSH2 0x160 DUP3 ADD SWAP1 POP PUSH2 0x4020 PUSH1 0x0 DUP4 ADD DUP15 PUSH2 0x3B0D JUMP JUMPDEST DUP2 DUP2 SUB PUSH1 0x20 DUP4 ADD MSTORE PUSH2 0x4032 DUP2 DUP14 PUSH2 0x3FC2 JUMP JUMPDEST SWAP1 POP PUSH2 0x4041 PUSH1 0x40 DUP4 ADD DUP13 PUSH2 0x3FFB JUMP JUMPDEST DUP2 DUP2 SUB PUSH1 0x60 DUP4 ADD MSTORE PUSH2 0x4053 DUP2 DUP12 PUSH2 0x3FC2 JUMP JUMPDEST SWAP1 POP PUSH2 0x4062 PUSH1 0x80 DUP4 ADD DUP11 PUSH2 0x3B0D JUMP JUMPDEST PUSH2 0x406F PUSH1 0xA0 DUP4 ADD DUP10 PUSH2 0x3B0D JUMP JUMPDEST PUSH2 0x407C PUSH1 0xC0 DUP4 ADD DUP9 PUSH2 0x3B0D JUMP JUMPDEST PUSH2 0x4089 PUSH1 0xE0 DUP4 ADD DUP8 PUSH2 0x3B0D JUMP JUMPDEST PUSH2 0x4097 PUSH2 0x100 DUP4 ADD DUP7 PUSH2 0x3B0D JUMP JUMPDEST PUSH2 0x40A5 PUSH2 0x120 DUP4 ADD DUP6 PUSH2 0x3B0D JUMP JUMPDEST DUP2 DUP2 SUB PUSH2 0x140 DUP4 ADD MSTORE PUSH2 0x40B8 DUP2 DUP5 PUSH2 0x3FC2 JUMP JUMPDEST SWAP1 POP SWAP13 SWAP12 POP POP POP POP POP POP POP POP POP POP POP POP JUMP JUMPDEST PUSH1 0x0 DUP2 MLOAD SWAP1 POP SWAP2 SWAP1 POP JUMP JUMPDEST PUSH1 0x0 DUP3 DUP3 MSTORE PUSH1 0x20 DUP3 ADD SWAP1 POP SWAP3 SWAP2 POP POP JUMP JUMPDEST PUSH1 0x0 DUP2 SWAP1 POP PUSH1 0x20 DUP3 ADD SWAP1 POP SWAP2 SWAP1 POP JUMP JUMPDEST PUSH1 0x0 DUP2 ISZERO ISZERO SWAP1 POP SWAP2 SWAP1 POP JUMP JUMPDEST PUSH2 0x410B DUP2 PUSH2 0x40F6 JUMP JUMPDEST DUP3 MSTORE POP POP JUMP JUMPDEST PUSH1 0x0 PUSH2 0x120 DUP4 ADD PUSH1 0x0 DUP4 ADD MLOAD PUSH2 0x412A PUSH1 0x0 DUP7 ADD DUP3 PUSH2 0x3B90 JUMP JUMPDEST POP PUSH1 0x20 DUP4 ADD MLOAD PUSH2 0x413D PUSH1 0x20 DUP7 ADD DUP3 PUSH2 0x3D7C JUMP JUMPDEST POP PUSH1 0x40 DUP4 ADD MLOAD PUSH2 0x4150 PUSH1 0x40 DUP7 ADD DUP3 PUSH2 0x3E83 JUMP JUMPDEST POP PUSH1 0x60 DUP4 ADD MLOAD DUP5 DUP3 SUB PUSH1 0x60 DUP7 ADD MSTORE PUSH2 0x4168 DUP3 DUP3 PUSH2 0x3DE2 JUMP JUMPDEST SWAP2 POP POP PUSH1 0x80 DUP4 ADD MLOAD PUSH2 0x417D PUSH1 0x80 DUP7 ADD DUP3 PUSH2 0x3D7C JUMP JUMPDEST POP PUSH1 0xA0 DUP4 ADD MLOAD PUSH2 0x4190 PUSH1 0xA0 DUP7 ADD DUP3 PUSH2 0x3D7C JUMP JUMPDEST POP PUSH1 0xC0 DUP4 ADD MLOAD PUSH2 0x41A3 PUSH1 0xC0 DUP7 ADD DUP3 PUSH2 0x3D7C JUMP JUMPDEST POP PUSH1 0xE0 DUP4 ADD MLOAD PUSH2 0x41B6 PUSH1 0xE0 DUP7 ADD DUP3 PUSH2 0x3D7C JUMP JUMPDEST POP PUSH2 0x100 DUP4 ADD MLOAD PUSH2 0x41CB PUSH2 0x100 DUP7 ADD DUP3 PUSH2 0x4102 JUMP JUMPDEST POP DUP1 SWAP2 POP POP SWAP3 SWAP2 POP POP JUMP JUMPDEST PUSH1 0x0 PUSH2 0x41E2 DUP4 DUP4 PUSH2 0x4111 JUMP JUMPDEST SWAP1 POP SWAP3 SWAP2 POP POP JUMP JUMPDEST PUSH1 0x0 PUSH1 0x20 DUP3 ADD SWAP1 POP SWAP2 SWAP1 POP JUMP JUMPDEST PUSH1 0x0 PUSH2 0x4202 DUP3 PUSH2 0x40CA JUMP JUMPDEST PUSH2 0x420C DUP2 DUP6 PUSH2 0x40D5 JUMP JUMPDEST SWAP4 POP DUP4 PUSH1 0x20 DUP3 MUL DUP6 ADD PUSH2 0x421E DUP6 PUSH2 0x40E6 JUMP JUMPDEST DUP1 PUSH1 0x0 JUMPDEST DUP6 DUP2 LT ISZERO PUSH2 0x425A JUMPI DUP5 DUP5 SUB DUP10 MSTORE DUP2 MLOAD PUSH2 0x423B DUP6 DUP3 PUSH2 0x41D6 JUMP JUMPDEST SWAP5 POP PUSH2 0x4246 DUP4 PUSH2 0x41EA JUMP JUMPDEST SWAP3 POP PUSH1 0x20 DUP11 ADD SWAP10 POP POP PUSH1 0x1 DUP2 ADD SWAP1 POP PUSH2 0x4222 JUMP JUMPDEST POP DUP3 SWAP8 POP DUP8 SWAP6 POP POP POP POP POP POP SWAP3 SWAP2 POP POP JUMP JUMPDEST PUSH1 0x0 PUSH1 0x20 DUP3 ADD SWAP1 POP DUP2 DUP2 SUB PUSH1 0x0 DUP4 ADD MSTORE PUSH2 0x4286 DUP2 DUP5 PUSH2 0x41F7 JUMP JUMPDEST SWAP1 POP SWAP3 SWAP2 POP POP JUMP JUMPDEST PUSH2 0x4297 DUP2 PUSH2 0x40F6 JUMP JUMPDEST DUP3 MSTORE POP POP JUMP JUMPDEST PUSH1 0x0 PUSH1 0x20 DUP3 ADD SWAP1 POP PUSH2 0x42B2 PUSH1 0x0 DUP4 ADD DUP5 PUSH2 0x428E JUMP JUMPDEST SWAP3 SWAP2 POP POP JUMP JUMPDEST PUSH1 0x0 DUP1 PUSH1 0x0 PUSH1 0x60 DUP5 DUP7 SUB SLT ISZERO PUSH2 0x42D1 JUMPI PUSH2 0x42D0 PUSH2 0x3A2F JUMP JUMPDEST JUMPDEST PUSH1 0x0 PUSH2 0x42DF DUP7 DUP3 DUP8 ADD PUSH2 0x3A82 JUMP JUMPDEST SWAP4 POP POP PUSH1 0x20 PUSH2 0x42F0 DUP7 DUP3 DUP8 ADD PUSH2 0x3AB8 JUMP JUMPDEST SWAP3 POP POP PUSH1 0x40 PUSH2 0x4301 DUP7 DUP3 DUP8 ADD PUSH2 0x3AB8 JUMP JUMPDEST SWAP2 POP POP SWAP3 POP SWAP3 POP SWAP3 JUMP JUMPDEST PUSH1 0x0 PUSH2 0x4316 DUP3 PUSH2 0x3C70 JUMP JUMPDEST SWAP1 POP SWAP2 SWAP1 POP JUMP JUMPDEST PUSH2 0x4326 DUP2 PUSH2 0x430B JUMP JUMPDEST DUP3 MSTORE POP POP JUMP JUMPDEST PUSH1 0x0 PUSH1 0x20 DUP3 ADD SWAP1 POP PUSH2 0x4341 PUSH1 0x0 DUP4 ADD DUP5 PUSH2 0x431D JUMP JUMPDEST SWAP3 SWAP2 POP POP JUMP JUMPDEST PUSH1 0x0 DUP1 REVERT JUMPDEST PUSH1 0x0 DUP1 REVERT JUMPDEST PUSH32 0x4E487B7100000000000000000000000000000000000000000000000000000000 PUSH1 0x0 MSTORE PUSH1 0x41 PUSH1 0x4 MSTORE PUSH1 0x24 PUSH1 0x0 REVERT JUMPDEST PUSH2 0x4389 DUP3 PUSH2 0x3DD1 JUMP JUMPDEST DUP2 ADD DUP2 DUP2 LT PUSH8 0xFFFFFFFFFFFFFFFF DUP3 GT OR ISZERO PUSH2 0x43A8 JUMPI PUSH2 0x43A7 PUSH2 0x4351 JUMP JUMPDEST JUMPDEST DUP1 PUSH1 0x40 MSTORE POP POP POP JUMP JUMPDEST PUSH1 0x0 PUSH2 0x43BB PUSH2 0x3A25 JUMP JUMPDEST SWAP1 POP PUSH2 0x43C7 DUP3 DUP3 PUSH2 0x4380 JUMP JUMPDEST SWAP2 SWAP1 POP JUMP JUMPDEST PUSH1 0x0 PUSH8 0xFFFFFFFFFFFFFFFF DUP3 GT ISZERO PUSH2 0x43E7 JUMPI PUSH2 0x43E6 PUSH2 0x4351 JUMP JUMPDEST JUMPDEST PUSH2 0x43F0 DUP3 PUSH2 0x3DD1 JUMP JUMPDEST SWAP1 POP PUSH1 0x20 DUP2 ADD SWAP1 POP SWAP2 SWAP1 POP JUMP JUMPDEST DUP3 DUP2 DUP4 CALLDATACOPY PUSH1 0x0 DUP4 DUP4 ADD MSTORE POP POP POP JUMP JUMPDEST PUSH1 0x0 PUSH2 0x441F PUSH2 0x441A DUP5 PUSH2 0x43CC JUMP JUMPDEST PUSH2 0x43B1 JUMP JUMPDEST SWAP1 POP DUP3 DUP2 MSTORE PUSH1 0x20 DUP2 ADD DUP5 DUP5 DUP5 ADD GT ISZERO PUSH2 0x443B JUMPI PUSH2 0x443A PUSH2 0x434C JUMP JUMPDEST JUMPDEST PUSH2 0x4446 DUP5 DUP3 DUP6 PUSH2 0x43FD JUMP JUMPDEST POP SWAP4 SWAP3 POP POP POP JUMP JUMPDEST PUSH1 0x0 DUP3 PUSH1 0x1F DUP4 ADD SLT PUSH2 0x4463 JUMPI PUSH2 0x4462 PUSH2 0x4347 JUMP JUMPDEST JUMPDEST DUP2 CALLDATALOAD PUSH2 0x4473 DUP5 DUP3 PUSH1 0x20 DUP7 ADD PUSH2 0x440C JUMP JUMPDEST SWAP2 POP POP SWAP3 SWAP2 POP POP JUMP JUMPDEST PUSH1 0x4 DUP2 LT PUSH2 0x4489 JUMPI PUSH1 0x0 DUP1 REVERT JUMPDEST POP JUMP JUMPDEST PUSH1 0x0 DUP2 CALLDATALOAD SWAP1 POP PUSH2 0x449B DUP2 PUSH2 0x447C JUMP JUMPDEST SWAP3 SWAP2 POP POP JUMP JUMPDEST PUSH1 0x0 DUP1 PUSH1 0x0 DUP1 PUSH1 0x0 DUP1 PUSH1 0x0 DUP1 PUSH2 0x100 DUP10 DUP12 SUB SLT ISZERO PUSH2 0x44C2 JUMPI PUSH2 0x44C1 PUSH2 0x3A2F JUMP JUMPDEST JUMPDEST PUSH1 0x0 PUSH2 0x44D0 DUP12 DUP3 DUP13 ADD PUSH2 0x3AB8 JUMP JUMPDEST SWAP9 POP POP PUSH1 0x20 DUP10 ADD CALLDATALOAD PUSH8 0xFFFFFFFFFFFFFFFF DUP2 GT ISZERO PUSH2 0x44F1 JUMPI PUSH2 0x44F0 PUSH2 0x3A34 JUMP JUMPDEST JUMPDEST PUSH2 0x44FD DUP12 DUP3 DUP13 ADD PUSH2 0x444E JUMP JUMPDEST SWAP8 POP POP PUSH1 0x40 PUSH2 0x450E DUP12 DUP3 DUP13 ADD PUSH2 0x448C JUMP JUMPDEST SWAP7 POP POP PUSH1 0x60 DUP10 ADD CALLDATALOAD PUSH8 0xFFFFFFFFFFFFFFFF DUP2 GT ISZERO PUSH2 0x452F JUMPI PUSH2 0x452E PUSH2 0x3A34 JUMP JUMPDEST JUMPDEST PUSH2 0x453B DUP12 DUP3 DUP13 ADD PUSH2 0x444E JUMP JUMPDEST SWAP6 POP POP PUSH1 0x80 DUP10 ADD CALLDATALOAD PUSH8 0xFFFFFFFFFFFFFFFF DUP2 GT ISZERO PUSH2 0x455C JUMPI PUSH2 0x455B PUSH2 0x3A34 JUMP JUMPDEST JUMPDEST PUSH2 0x4568 DUP12 DUP3 DUP13 ADD PUSH2 0x444E JUMP JUMPDEST SWAP5 POP POP PUSH1 0xA0 PUSH2 0x4579 DUP12 DUP3 DUP13 ADD PUSH2 0x3AB8 JUMP JUMPDEST SWAP4 POP POP PUSH1 0xC0 PUSH2 0x458A DUP12 DUP3 DUP13 ADD PUSH2 0x3AB8 JUMP JUMPDEST SWAP3 POP POP PUSH1 0xE0 PUSH2 0x459B DUP12 DUP3 DUP13 ADD PUSH2 0x3AB8 JUMP JUMPDEST SWAP2 POP POP SWAP3 SWAP6 SWAP9 POP SWAP3 SWAP6 SWAP9 SWAP1 SWAP4 SWAP7 POP JUMP JUMPDEST PUSH1 0x0 DUP2 MLOAD SWAP1 POP SWAP2 SWAP1 POP JUMP JUMPDEST PUSH1 0x0 DUP3 DUP3 MSTORE PUSH1 0x20 DUP3 ADD SWAP1 POP SWAP3 SWAP2 POP POP JUMP JUMPDEST PUSH1 0x0 DUP2 SWAP1 POP PUSH1 0x20 DUP3 ADD SWAP1 POP SWAP2 SWAP1 POP JUMP JUMPDEST PUSH1 0x0 PUSH2 0x160 DUP4 ADD PUSH1 0x0 DUP4 ADD MLOAD PUSH2 0x45F0 PUSH1 0x0 DUP7 ADD DUP3 PUSH2 0x3D7C JUMP JUMPDEST POP PUSH1 0x20 DUP4 ADD MLOAD DUP5 DUP3 SUB PUSH1 0x20 DUP7 ADD MSTORE PUSH2 0x4608 DUP3 DUP3 PUSH2 0x3DE2 JUMP JUMPDEST SWAP2 POP POP PUSH1 0x40 DUP4 ADD MLOAD PUSH2 0x461D PUSH1 0x40 DUP7 ADD DUP3 PUSH2 0x3E83 JUMP JUMPDEST POP PUSH1 0x60 DUP4 ADD MLOAD DUP5 DUP3 SUB PUSH1 0x60 DUP7 ADD MSTORE PUSH2 0x4635 DUP3 DUP3 PUSH2 0x3DE2 JUMP JUMPDEST SWAP2 POP POP PUSH1 0x80 DUP4 ADD MLOAD PUSH2 0x464A PUSH1 0x80 DUP7 ADD DUP3 PUSH2 0x3D7C JUMP JUMPDEST POP PUSH1 0xA0 DUP4 ADD MLOAD PUSH2 0x465D PUSH1 0xA0 DUP7 ADD DUP3 PUSH2 0x3D7C JUMP JUMPDEST POP PUSH1 0xC0 DUP4 ADD MLOAD PUSH2 0x4670 PUSH1 0xC0 DUP7 ADD DUP3 PUSH2 0x3D7C JUMP JUMPDEST POP PUSH1 0xE0 DUP4 ADD MLOAD PUSH2 0x4683 PUSH1 0xE0 DUP7 ADD DUP3 PUSH2 0x3D7C JUMP JUMPDEST POP PUSH2 0x100 DUP4 ADD MLOAD PUSH2 0x4698 PUSH2 0x100 DUP7 ADD DUP3 PUSH2 0x3D7C JUMP JUMPDEST POP PUSH2 0x120 DUP4 ADD MLOAD PUSH2 0x46AD PUSH2 0x120 DUP7 ADD DUP3 PUSH2 0x3D7C JUMP JUMPDEST POP PUSH2 0x140 DUP4 ADD MLOAD DUP5 DUP3 SUB PUSH2 0x140 DUP7 ADD MSTORE PUSH2 0x46C7 DUP3 DUP3 PUSH2 0x3DE2 JUMP JUMPDEST SWAP2 POP POP DUP1 SWAP2 POP POP SWAP3 SWAP2 POP POP JUMP JUMPDEST PUSH1 0x0 PUSH2 0x46E0 DUP4 DUP4 PUSH2 0x45D7 JUMP JUMPDEST SWAP1 POP SWAP3 SWAP2 POP POP JUMP JUMPDEST PUSH1 0x0 PUSH1 0x20 DUP3 ADD SWAP1 POP SWAP2 SWAP1 POP JUMP JUMPDEST PUSH1 0x0 PUSH2 0x4700 DUP3 PUSH2 0x45AB JUMP JUMPDEST PUSH2 0x470A DUP2 DUP6 PUSH2 0x45B6 JUMP JUMPDEST SWAP4 POP DUP4 PUSH1 0x20 DUP3 MUL DUP6 ADD PUSH2 0x471C DUP6 PUSH2 0x45C7 JUMP JUMPDEST DUP1 PUSH1 0x0 JUMPDEST DUP6 DUP2 LT ISZERO PUSH2 0x4758 JUMPI DUP5 DUP5 SUB DUP10 MSTORE DUP2 MLOAD PUSH2 0x4739 DUP6 DUP3 PUSH2 0x46D4 JUMP JUMPDEST SWAP5 POP PUSH2 0x4744 DUP4 PUSH2 0x46E8 JUMP JUMPDEST SWAP3 POP PUSH1 0x20 DUP11 ADD SWAP10 POP POP PUSH1 0x1 DUP2 ADD SWAP1 POP PUSH2 0x4720 JUMP JUMPDEST POP DUP3 SWAP8 POP DUP8 SWAP6 POP POP POP POP POP POP SWAP3 SWAP2 POP POP JUMP JUMPDEST PUSH1 0x0 PUSH1 0x20 DUP3 ADD SWAP1 POP DUP2 DUP2 SUB PUSH1 0x0 DUP4 ADD MSTORE PUSH2 0x4784 DUP2 DUP5 PUSH2 0x46F5 JUMP JUMPDEST SWAP1 POP SWAP3 SWAP2 POP POP JUMP JUMPDEST PUSH1 0x0 PUSH2 0x120 DUP3 ADD SWAP1 POP PUSH2 0x47A2 PUSH1 0x0 DUP4 ADD DUP13 PUSH2 0x3CBE JUMP JUMPDEST PUSH2 0x47AF PUSH1 0x20 DUP4 ADD DUP12 PUSH2 0x3B0D JUMP JUMPDEST PUSH2 0x47BC PUSH1 0x40 DUP4 ADD DUP11 PUSH2 0x3FFB JUMP JUMPDEST DUP2 DUP2 SUB PUSH1 0x60 DUP4 ADD MSTORE PUSH2 0x47CE DUP2 DUP10 PUSH2 0x3FC2 JUMP JUMPDEST SWAP1 POP PUSH2 0x47DD PUSH1 0x80 DUP4 ADD DUP9 PUSH2 0x3B0D JUMP JUMPDEST PUSH2 0x47EA PUSH1 0xA0 DUP4 ADD DUP8 PUSH2 0x3B0D JUMP JUMPDEST PUSH2 0x47F7 PUSH1 0xC0 DUP4 ADD DUP7 PUSH2 0x3B0D JUMP JUMPDEST PUSH2 0x4804 PUSH1 0xE0 DUP4 ADD DUP6 PUSH2 0x3B0D JUMP JUMPDEST PUSH2 0x4812 PUSH2 0x100 DUP4 ADD DUP5 PUSH2 0x428E JUMP JUMPDEST SWAP11 SWAP10 POP POP POP POP POP POP POP POP POP POP JUMP JUMPDEST PUSH1 0x0 PUSH2 0x120 DUP4 ADD PUSH1 0x0 DUP4 ADD MLOAD PUSH2 0x4839 PUSH1 0x0 DUP7 ADD DUP3 PUSH2 0x3B90 JUMP JUMPDEST POP PUSH1 0x20 DUP4 ADD MLOAD PUSH2 0x484C PUSH1 0x20 DUP7 ADD DUP3 PUSH2 0x3D7C JUMP JUMPDEST POP PUSH1 0x40 DUP4 ADD MLOAD PUSH2 0x485F PUSH1 0x40 DUP7 ADD DUP3 PUSH2 0x3E83 JUMP JUMPDEST POP PUSH1 0x60 DUP4 ADD MLOAD DUP5 DUP3 SUB PUSH1 0x60 DUP7 ADD MSTORE PUSH2 0x4877 DUP3 DUP3 PUSH2 0x3DE2 JUMP JUMPDEST SWAP2 POP POP PUSH1 0x80 DUP4 ADD MLOAD PUSH2 0x488C PUSH1 0x80 DUP7 ADD DUP3 PUSH2 0x3D7C JUMP JUMPDEST POP PUSH1 0xA0 DUP4 ADD MLOAD PUSH2 0x489F PUSH1 0xA0 DUP7 ADD DUP3 PUSH2 0x3D7C JUMP JUMPDEST POP PUSH1 0xC0 DUP4 ADD MLOAD PUSH2 0x48B2 PUSH1 0xC0 DUP7 ADD DUP3 PUSH2 0x3D7C JUMP JUMPDEST POP PUSH1 0xE0 DUP4 ADD MLOAD PUSH2 0x48C5 PUSH1 0xE0 DUP7 ADD DUP3 PUSH2 0x3D7C JUMP JUMPDEST POP PUSH2 0x100 DUP4 ADD MLOAD PUSH2 0x48DA PUSH2 0x100 DUP7 ADD DUP3 PUSH2 0x4102 JUMP JUMPDEST POP DUP1 SWAP2 POP POP SWAP3 SWAP2 POP POP JUMP JUMPDEST PUSH1 0x0 PUSH1 0x20 DUP3 ADD SWAP1 POP DUP2 DUP2 SUB PUSH1 0x0 DUP4 ADD MSTORE PUSH2 0x48FF DUP2 DUP5 PUSH2 0x4820 JUMP JUMPDEST SWAP1 POP SWAP3 SWAP2 POP POP JUMP JUMPDEST PUSH32 0x4E6F7420617574686F72697A6564000000000000000000000000000000000000 PUSH1 0x0 DUP3 ADD MSTORE POP JUMP JUMPDEST PUSH1 0x0 PUSH2 0x493D PUSH1 0xE DUP4 PUSH2 0x3FB1 JUMP JUMPDEST SWAP2 POP PUSH2 0x4948 DUP3 PUSH2 0x4907 JUMP JUMPDEST PUSH1 0x20 DUP3 ADD SWAP1 POP SWAP2 SWAP1 POP JUMP JUMPDEST PUSH1 0x0 PUSH1 0x20 DUP3 ADD SWAP1 POP DUP2 DUP2 SUB PUSH1 0x0 DUP4 ADD MSTORE PUSH2 0x496C DUP2 PUSH2 0x4930 JUMP JUMPDEST SWAP1 POP SWAP2 SWAP1 POP JUMP JUMPDEST PUSH1 0x0 PUSH2 0x4986 PUSH2 0x4981 DUP5 PUSH2 0x43CC JUMP JUMPDEST PUSH2 0x43B1 JUMP JUMPDEST SWAP1 POP DUP3 DUP2 MSTORE PUSH1 0x20 DUP2 ADD DUP5 DUP5 DUP5 ADD GT ISZERO PUSH2 0x49A2 JUMPI PUSH2 0x49A1 PUSH2 0x434C JUMP JUMPDEST JUMPDEST PUSH2 0x49AD DUP5 DUP3 DUP6 PUSH2 0x3DA7 JUMP JUMPDEST POP SWAP4 SWAP3 POP POP POP JUMP JUMPDEST PUSH1 0x0 DUP3 PUSH1 0x1F DUP4 ADD SLT PUSH2 0x49CA JUMPI PUSH2 0x49C9 PUSH2 0x4347 JUMP JUMPDEST JUMPDEST DUP2 MLOAD PUSH2 0x49DA DUP5 DUP3 PUSH1 0x20 DUP7 ADD PUSH2 0x4973 JUMP JUMPDEST SWAP2 POP POP SWAP3 SWAP2 POP POP JUMP JUMPDEST PUSH1 0x0 DUP2 MLOAD SWAP1 POP PUSH2 0x49F2 DUP2 PUSH2 0x447C JUMP JUMPDEST SWAP3 SWAP2 POP POP JUMP JUMPDEST PUSH1 0x0 DUP2 MLOAD SWAP1 POP PUSH2 0x4A07 DUP2 PUSH2 0x3AA1 JUMP JUMPDEST SWAP3 SWAP2 POP POP JUMP JUMPDEST PUSH2 0x4A16 DUP2 PUSH2 0x40F6 JUMP JUMPDEST DUP2 EQ PUSH2 0x4A21 JUMPI PUSH1 0x0 DUP1 REVERT JUMPDEST POP JUMP JUMPDEST PUSH1 0x0 DUP2 MLOAD SWAP1 POP PUSH2 0x4A33 DUP2 PUSH2 0x4A0D JUMP JUMPDEST SWAP3 SWAP2 POP POP JUMP JUMPDEST PUSH1 0x0 DUP1 PUSH1 0x0 DUP1 PUSH1 0x0 DUP1 PUSH1 0x0 PUSH1 0xE0 DUP9 DUP11 SUB SLT ISZERO PUSH2 0x4A58 JUMPI PUSH2 0x4A57 PUSH2 0x3A2F JUMP JUMPDEST JUMPDEST PUSH1 0x0 DUP9 ADD MLOAD PUSH8 0xFFFFFFFFFFFFFFFF DUP2 GT ISZERO PUSH2 0x4A76 JUMPI PUSH2 0x4A75 PUSH2 0x3A34 JUMP JUMPDEST JUMPDEST PUSH2 0x4A82 DUP11 DUP3 DUP12 ADD PUSH2 0x49B5 JUMP JUMPDEST SWAP8 POP POP PUSH1 0x20 PUSH2 0x4A93 DUP11 DUP3 DUP12 ADD PUSH2 0x49E3 JUMP JUMPDEST SWAP7 POP POP PUSH1 0x40 PUSH2 0x4AA4 DUP11 DUP3 DUP12 ADD PUSH2 0x49F8 JUMP JUMPDEST SWAP6 POP POP PUSH1 0x60 PUSH2 0x4AB5 DUP11 DUP3 DUP12 ADD PUSH2 0x49F8 JUMP JUMPDEST SWAP5 POP POP PUSH1 0x80 PUSH2 0x4AC6 DUP11 DUP3 DUP12 ADD PUSH2 0x49F8 JUMP JUMPDEST SWAP4 POP POP PUSH1 0xA0 PUSH2 0x4AD7 DUP11 DUP3 DUP12 ADD PUSH2 0x4A24 JUMP JUMPDEST SWAP3 POP POP PUSH1 0xC0 PUSH2 0x4AE8 DUP11 DUP3 DUP12 ADD PUSH2 0x49F8 JUMP JUMPDEST SWAP2 POP POP SWAP3 SWAP6 SWAP9 SWAP2 SWAP5 SWAP8 POP SWAP3 SWAP6 POP JUMP JUMPDEST PUSH32 0x496E76616C696420636F76657220636170616369747900000000000000000000 PUSH1 0x0 DUP3 ADD MSTORE POP JUMP JUMPDEST PUSH1 0x0 PUSH2 0x4B2D PUSH1 0x16 DUP4 PUSH2 0x3FB1 JUMP JUMPDEST SWAP2 POP PUSH2 0x4B38 DUP3 PUSH2 0x4AF7 JUMP JUMPDEST PUSH1 0x20 DUP3 ADD SWAP1 POP SWAP2 SWAP1 POP JUMP JUMPDEST PUSH1 0x0 PUSH1 0x20 DUP3 ADD SWAP1 POP DUP2 DUP2 SUB PUSH1 0x0 DUP4 ADD MSTORE PUSH2 0x4B5C DUP2 PUSH2 0x4B20 JUMP JUMPDEST SWAP1 POP SWAP2 SWAP1 POP JUMP JUMPDEST PUSH32 0x4E487B7100000000000000000000000000000000000000000000000000000000 PUSH1 0x0 MSTORE PUSH1 0x11 PUSH1 0x4 MSTORE PUSH1 0x24 PUSH1 0x0 REVERT JUMPDEST PUSH1 0x0 PUSH2 0x4B9D DUP3 PUSH2 0x3A97 JUMP JUMPDEST SWAP2 POP PUSH2 0x4BA8 DUP4 PUSH2 0x3A97 JUMP JUMPDEST SWAP3 POP DUP3 DUP3 MUL PUSH2 0x4BB6 DUP2 PUSH2 0x3A97 JUMP JUMPDEST SWAP2 POP DUP3 DUP3 DIV DUP5 EQ DUP4 ISZERO OR PUSH2 0x4BCD JUMPI PUSH2 0x4BCC PUSH2 0x4B63 JUMP JUMPDEST JUMPDEST POP SWAP3 SWAP2 POP POP JUMP JUMPDEST PUSH32 0x4E487B7100000000000000000000000000000000000000000000000000000000 PUSH1 0x0 MSTORE PUSH1 0x12 PUSH1 0x4 MSTORE PUSH1 0x24 PUSH1 0x0 REVERT JUMPDEST PUSH1 0x0 PUSH2 0x4C0E DUP3 PUSH2 0x3A97 JUMP JUMPDEST SWAP2 POP PUSH2 0x4C19 DUP4 PUSH2 0x3A97 JUMP JUMPDEST SWAP3 POP DUP3 PUSH2 0x4C29 JUMPI PUSH2 0x4C28 PUSH2 0x4BD4 JUMP JUMPDEST JUMPDEST DUP3 DUP3 DIV SWAP1 POP SWAP3 SWAP2 POP POP JUMP JUMPDEST PUSH1 0x0 PUSH2 0x4C3F DUP3 PUSH2 0x3A97 JUMP JUMPDEST SWAP2 POP PUSH2 0x4C4A DUP4 PUSH2 0x3A97 JUMP JUMPDEST SWAP3 POP DUP3 DUP3 SUB SWAP1 POP DUP2 DUP2 GT ISZERO PUSH2 0x4C62 JUMPI PUSH2 0x4C61 PUSH2 0x4B63 JUMP JUMPDEST JUMPDEST SWAP3 SWAP2 POP POP JUMP JUMPDEST PUSH1 0x0 PUSH1 0x40 DUP3 ADD SWAP1 POP PUSH2 0x4C7D PUSH1 0x0 DUP4 ADD DUP6 PUSH2 0x3B0D JUMP JUMPDEST PUSH2 0x4C8A PUSH1 0x20 DUP4 ADD DUP5 PUSH2 0x3CBE JUMP JUMPDEST SWAP4 SWAP3 POP POP POP JUMP JUMPDEST PUSH1 0x0 DUP1 REVERT JUMPDEST PUSH1 0x0 DUP1 REVERT JUMPDEST PUSH1 0x0 DUP2 MLOAD SWAP1 POP PUSH2 0x4CAA DUP2 PUSH2 0x3A6B JUMP JUMPDEST SWAP3 SWAP2 POP POP JUMP JUMPDEST PUSH1 0x2 DUP2 LT PUSH2 0x4CBD JUMPI PUSH1 0x0 DUP1 REVERT JUMPDEST POP JUMP JUMPDEST PUSH1 0x0 DUP2 MLOAD SWAP1 POP PUSH2 0x4CCF DUP2 PUSH2 0x4CB0 JUMP JUMPDEST SWAP3 SWAP2 POP POP JUMP JUMPDEST PUSH1 0x0 PUSH2 0x120 DUP3 DUP5 SUB SLT ISZERO PUSH2 0x4CEC JUMPI PUSH2 0x4CEB PUSH2 0x4C91 JUMP JUMPDEST JUMPDEST PUSH2 0x4CF7 PUSH2 0x120 PUSH2 0x43B1 JUMP JUMPDEST SWAP1 POP PUSH1 0x0 PUSH2 0x4D07 DUP5 DUP3 DUP6 ADD PUSH2 0x4C9B JUMP JUMPDEST PUSH1 0x0 DUP4 ADD MSTORE POP PUSH1 0x20 PUSH2 0x4D1B DUP5 DUP3 DUP6 ADD PUSH2 0x49F8 JUMP JUMPDEST PUSH1 0x20 DUP4 ADD MSTORE POP PUSH1 0x40 PUSH2 0x4D2F DUP5 DUP3 DUP6 ADD PUSH2 0x49F8 JUMP JUMPDEST PUSH1 0x40 DUP4 ADD MSTORE POP PUSH1 0x60 PUSH2 0x4D43 DUP5 DUP3 DUP6 ADD PUSH2 0x49F8 JUMP JUMPDEST PUSH1 0x60 DUP4 ADD MSTORE POP PUSH1 0x80 PUSH2 0x4D57 DUP5 DUP3 DUP6 ADD PUSH2 0x4CC0 JUMP JUMPDEST PUSH1 0x80 DUP4 ADD MSTORE POP PUSH1 0xA0 PUSH2 0x4D6B DUP5 DUP3 DUP6 ADD PUSH2 0x49F8 JUMP JUMPDEST PUSH1 0xA0 DUP4 ADD MSTORE POP PUSH1 0xC0 PUSH2 0x4D7F DUP5 DUP3 DUP6 ADD PUSH2 0x49F8 JUMP JUMPDEST PUSH1 0xC0 DUP4 ADD MSTORE POP PUSH1 0xE0 PUSH2 0x4D93 DUP5 DUP3 DUP6 ADD PUSH2 0x49F8 JUMP JUMPDEST PUSH1 0xE0 DUP4 ADD MSTORE POP PUSH2 0x100 PUSH2 0x4DA8 DUP5 DUP3 DUP6 ADD PUSH2 0x49F8 JUMP JUMPDEST PUSH2 0x100 DUP4 ADD MSTORE POP SWAP3 SWAP2 POP POP JUMP JUMPDEST PUSH1 0x0 PUSH2 0x120 DUP3 DUP5 SUB SLT ISZERO PUSH2 0x4DCC JUMPI PUSH2 0x4DCB PUSH2 0x3A2F JUMP JUMPDEST JUMPDEST PUSH1 0x0 PUSH2 0x4DDA DUP5 DUP3 DUP6 ADD PUSH2 0x4CD5 JUMP JUMPDEST SWAP2 POP POP SWAP3 SWAP2 POP POP JUMP JUMPDEST PUSH1 0x0 PUSH1 0x40 DUP3 ADD SWAP1 POP PUSH2 0x4DF8 PUSH1 0x0 DUP4 ADD DUP6 PUSH2 0x3CBE JUMP JUMPDEST PUSH2 0x4E05 PUSH1 0x20 DUP4 ADD DUP5 PUSH2 0x3B0D JUMP JUMPDEST SWAP4 SWAP3 POP POP POP JUMP JUMPDEST PUSH1 0x0 PUSH2 0x4E17 DUP3 PUSH2 0x3A97 JUMP JUMPDEST SWAP2 POP PUSH2 0x4E22 DUP4 PUSH2 0x3A97 JUMP JUMPDEST SWAP3 POP DUP3 DUP3 ADD SWAP1 POP DUP1 DUP3 GT ISZERO PUSH2 0x4E3A JUMPI PUSH2 0x4E39 PUSH2 0x4B63 JUMP JUMPDEST JUMPDEST SWAP3 SWAP2 POP POP JUMP JUMPDEST PUSH32 0x4E487B7100000000000000000000000000000000000000000000000000000000 PUSH1 0x0 MSTORE PUSH1 0x22 PUSH1 0x4 MSTORE PUSH1 0x24 PUSH1 0x0 REVERT JUMPDEST PUSH1 0x0 PUSH1 0x2 DUP3 DIV SWAP1 POP PUSH1 0x1 DUP3 AND DUP1 PUSH2 0x4E87 JUMPI PUSH1 0x7F DUP3 AND SWAP2 POP JUMPDEST PUSH1 0x20 DUP3 LT DUP2 SUB PUSH2 0x4E9A JUMPI PUSH2 0x4E99 PUSH2 0x4E40 JUMP JUMPDEST JUMPDEST POP SWAP2 SWAP1 POP JUMP JUMPDEST PUSH1 0x0 DUP2 SWAP1 POP DUP2 PUSH1 0x0 MSTORE PUSH1 0x20 PUSH1 0x0 KECCAK256 SWAP1 POP SWAP2 SWAP1 POP JUMP JUMPDEST PUSH1 0x0 PUSH1 0x20 PUSH1 0x1F DUP4 ADD DIV SWAP1 POP SWAP2 SWAP1 POP JUMP JUMPDEST PUSH1 0x0 DUP3 DUP3 SHL SWAP1 POP SWAP3 SWAP2 POP POP JUMP JUMPDEST PUSH1 0x0 PUSH1 0x8 DUP4 MUL PUSH2 0x4F02 PUSH32 0xFFFFFFFFFFFFFFFFFFFFFFFFFFFFFFFFFFFFFFFFFFFFFFFFFFFFFFFFFFFFFFFF DUP3 PUSH2 0x4EC5 JUMP JUMPDEST PUSH2 0x4F0C DUP7 DUP4 PUSH2 0x4EC5 JUMP JUMPDEST SWAP6 POP DUP1 NOT DUP5 AND SWAP4 POP DUP1 DUP7 AND DUP5 OR SWAP3 POP POP POP SWAP4 SWAP3 POP POP POP JUMP JUMPDEST PUSH1 0x0 PUSH2 0x4F3F PUSH2 0x4F3A PUSH2 0x4F35 DUP5 PUSH2 0x3A97 JUMP JUMPDEST PUSH2 0x3C44 JUMP JUMPDEST PUSH2 0x3A97 JUMP JUMPDEST SWAP1 POP SWAP2 SWAP1 POP JUMP JUMPDEST PUSH1 0x0 DUP2 SWAP1 POP SWAP2 SWAP1 POP JUMP JUMPDEST PUSH2 0x4F59 DUP4 PUSH2 0x4F24 JUMP JUMPDEST PUSH2 0x4F6D PUSH2 0x4F65 DUP3 PUSH2 0x4F46 JUMP JUMPDEST DUP5 DUP5 SLOAD PUSH2 0x4ED2 JUMP JUMPDEST DUP3 SSTORE POP POP POP POP JUMP JUMPDEST PUSH1 0x0 SWAP1 JUMP JUMPDEST PUSH2 0x4F82 PUSH2 0x4F75 JUMP JUMPDEST PUSH2 0x4F8D DUP2 DUP5 DUP5 PUSH2 0x4F50 JUMP JUMPDEST POP POP POP JUMP JUMPDEST JUMPDEST DUP2 DUP2 LT ISZERO PUSH2 0x4FB1 JUMPI PUSH2 0x4FA6 PUSH1 0x0 DUP3 PUSH2 0x4F7A JUMP JUMPDEST PUSH1 0x1 DUP2 ADD SWAP1 POP PUSH2 0x4F93 JUMP JUMPDEST POP POP JUMP JUMPDEST PUSH1 0x1F DUP3 GT ISZERO PUSH2 0x4FF6 JUMPI PUSH2 0x4FC7 DUP2 PUSH2 0x4EA0 JUMP JUMPDEST PUSH2 0x4FD0 DUP5 PUSH2 0x4EB5 JUMP JUMPDEST DUP2 ADD PUSH1 0x20 DUP6 LT ISZERO PUSH2 0x4FDF JUMPI DUP2 SWAP1 POP JUMPDEST PUSH2 0x4FF3 PUSH2 0x4FEB DUP6 PUSH2 0x4EB5 JUMP JUMPDEST DUP4 ADD DUP3 PUSH2 0x4F92 JUMP JUMPDEST POP POP JUMPDEST POP POP POP JUMP JUMPDEST PUSH1 0x0 DUP3 DUP3 SHR SWAP1 POP SWAP3 SWAP2 POP POP JUMP JUMPDEST PUSH1 0x0 PUSH2 0x5019 PUSH1 0x0 NOT DUP5 PUSH1 0x8 MUL PUSH2 0x4FFB JUMP JUMPDEST NOT DUP1 DUP4 AND SWAP2 POP POP SWAP3 SWAP2 POP POP JUMP JUMPDEST PUSH1 0x0 PUSH2 0x5032 DUP4 DUP4 PUSH2 0x5008 JUMP JUMPDEST SWAP2 POP DUP3 PUSH1 0x2 MUL DUP3 OR SWAP1 POP SWAP3 SWAP2 POP POP JUMP JUMPDEST PUSH2 0x504B DUP3 PUSH2 0x3D8B JUMP JUMPDEST PUSH8 0xFFFFFFFFFFFFFFFF DUP2 GT ISZERO PUSH2 0x5064 JUMPI PUSH2 0x5063 PUSH2 0x4351 JUMP JUMPDEST JUMPDEST PUSH2 0x506E DUP3 SLOAD PUSH2 0x4E6F JUMP JUMPDEST PUSH2 0x5079 DUP3 DUP3 DUP6 PUSH2 0x4FB5 JUMP JUMPDEST PUSH1 0x0 PUSH1 0x20 SWAP1 POP PUSH1 0x1F DUP4 GT PUSH1 0x1 DUP2 EQ PUSH2 0x50AC JUMPI PUSH1 0x0 DUP5 ISZERO PUSH2 0x509A JUMPI DUP3 DUP8 ADD MLOAD SWAP1 POP JUMPDEST PUSH2 0x50A4 DUP6 DUP3 PUSH2 0x5026 JUMP JUMPDEST DUP7 SSTORE POP PUSH2 0x510C JUMP JUMPDEST PUSH1 0x1F NOT DUP5 AND PUSH2 0x50BA DUP7 PUSH2 0x4EA0 JUMP JUMPDEST PUSH1 0x0 JUMPDEST DUP3 DUP2 LT ISZERO PUSH2 0x50E2 JUMPI DUP5 DUP10 ADD MLOAD DUP3 SSTORE PUSH1 0x1 DUP3 ADD SWAP2 POP PUSH1 0x20 DUP6 ADD SWAP5 POP PUSH1 0x20 DUP2 ADD SWAP1 POP PUSH2 0x50BD JUMP JUMPDEST DUP7 DUP4 LT ISZERO PUSH2 0x50FF JUMPI DUP5 DUP10 ADD MLOAD PUSH2 0x50FB PUSH1 0x1F DUP10 AND DUP3 PUSH2 0x5008 JUMP JUMPDEST DUP4 SSTORE POP JUMPDEST PUSH1 0x1 PUSH1 0x2 DUP9 MUL ADD DUP9 SSTORE POP POP POP JUMPDEST POP POP POP POP POP POP JUMP JUMPDEST PUSH32 0x4E487B7100000000000000000000000000000000000000000000000000000000 PUSH1 0x0 MSTORE PUSH1 0x32 PUSH1 0x4 MSTORE PUSH1 0x24 PUSH1 0x0 REVERT JUMPDEST PUSH1 0x0 PUSH1 0x60 DUP3 ADD SWAP1 POP PUSH2 0x5158 PUSH1 0x0 DUP4 ADD DUP7 PUSH2 0x3B0D JUMP JUMPDEST PUSH2 0x5165 PUSH1 0x20 DUP4 ADD DUP6 PUSH2 0x3B0D JUMP JUMPDEST PUSH2 0x5172 PUSH1 0x40 DUP4 ADD DUP5 PUSH2 0x3FFB JUMP JUMPDEST SWAP5 SWAP4 POP POP POP POP JUMP JUMPDEST PUSH1 0x0 PUSH2 0x5185 DUP3 PUSH2 0x3A97 JUMP JUMPDEST SWAP2 POP PUSH32 0xFFFFFFFFFFFFFFFFFFFFFFFFFFFFFFFFFFFFFFFFFFFFFFFFFFFFFFFFFFFFFFFF DUP3 SUB PUSH2 0x51B7 JUMPI PUSH2 0x51B6 PUSH2 0x4B63 JUMP JUMPDEST JUMPDEST PUSH1 0x1 DUP3 ADD SWAP1 POP SWAP2 SWAP1 POP JUMP JUMPDEST PUSH1 0x0 PUSH8 0xFFFFFFFFFFFFFFFF DUP3 GT ISZERO PUSH2 0x51DD JUMPI PUSH2 0x51DC PUSH2 0x4351 JUMP JUMPDEST JUMPDEST PUSH1 0x20 DUP3 MUL SWAP1 POP PUSH1 0x20 DUP2 ADD SWAP1 POP SWAP2 SWAP1 POP JUMP JUMPDEST PUSH1 0x0 DUP1 REVERT JUMPDEST PUSH1 0x0 PUSH2 0x160 DUP3 DUP5 SUB SLT ISZERO PUSH2 0x520A JUMPI PUSH2 0x5209 PUSH2 0x4C91 JUMP JUMPDEST JUMPDEST PUSH2 0x5215 PUSH2 0x160 PUSH2 0x43B1 JUMP JUMPDEST SWAP1 POP PUSH1 0x0 PUSH2 0x5225 DUP5 DUP3 DUP6 ADD PUSH2 0x49F8 JUMP JUMPDEST PUSH1 0x0 DUP4 ADD MSTORE POP PUSH1 0x20 DUP3 ADD MLOAD PUSH8 0xFFFFFFFFFFFFFFFF DUP2 GT ISZERO PUSH2 0x5249 JUMPI PUSH2 0x5248 PUSH2 0x4C96 JUMP JUMPDEST JUMPDEST PUSH2 0x5255 DUP5 DUP3 DUP6 ADD PUSH2 0x49B5 JUMP JUMPDEST PUSH1 0x20 DUP4 ADD MSTORE POP PUSH1 0x40 PUSH2 0x5269 DUP5 DUP3 DUP6 ADD PUSH2 0x49E3 JUMP JUMPDEST PUSH1 0x40 DUP4 ADD MSTORE POP PUSH1 0x60 DUP3 ADD MLOAD PUSH8 0xFFFFFFFFFFFFFFFF DUP2 GT ISZERO PUSH2 0x528D JUMPI PUSH2 0x528C PUSH2 0x4C96 JUMP JUMPDEST JUMPDEST PUSH2 0x5299 DUP5 DUP3 DUP6 ADD PUSH2 0x49B5 JUMP JUMPDEST PUSH1 0x60 DUP4 ADD MSTORE POP PUSH1 0x80 PUSH2 0x52AD DUP5 DUP3 DUP6 ADD PUSH2 0x49F8 JUMP JUMPDEST PUSH1 0x80 DUP4 ADD MSTORE POP PUSH1 0xA0 PUSH2 0x52C1 DUP5 DUP3 DUP6 ADD PUSH2 0x49F8 JUMP JUMPDEST PUSH1 0xA0 DUP4 ADD MSTORE POP PUSH1 0xC0 PUSH2 0x52D5 DUP5 DUP3 DUP6 ADD PUSH2 0x49F8 JUMP JUMPDEST PUSH1 0xC0 DUP4 ADD MSTORE POP PUSH1 0xE0 PUSH2 0x52E9 DUP5 DUP3 DUP6 ADD PUSH2 0x49F8 JUMP JUMPDEST PUSH1 0xE0 DUP4 ADD MSTORE POP PUSH2 0x100 PUSH2 0x52FE DUP5 DUP3 DUP6 ADD PUSH2 0x49F8 JUMP JUMPDEST PUSH2 0x100 DUP4 ADD MSTORE POP PUSH2 0x120 PUSH2 0x5314 DUP5 DUP3 DUP6 ADD PUSH2 0x49F8 JUMP JUMPDEST PUSH2 0x120 DUP4 ADD MSTORE POP PUSH2 0x140 DUP3 ADD MLOAD PUSH8 0xFFFFFFFFFFFFFFFF DUP2 GT ISZERO PUSH2 0x533A JUMPI PUSH2 0x5339 PUSH2 0x4C96 JUMP JUMPDEST JUMPDEST PUSH2 0x5346 DUP5 DUP3 DUP6 ADD PUSH2 0x49B5 JUMP JUMPDEST PUSH2 0x140 DUP4 ADD MSTORE POP SWAP3 SWAP2 POP POP JUMP JUMPDEST PUSH1 0x0 PUSH2 0x5366 PUSH2 0x5361 DUP5 PUSH2 0x51C2 JUMP JUMPDEST PUSH2 0x43B1 JUMP JUMPDEST SWAP1 POP DUP1 DUP4 DUP3 MSTORE PUSH1 0x20 DUP3 ADD SWAP1 POP PUSH1 0x20 DUP5 MUL DUP4 ADD DUP6 DUP2 GT ISZERO PUSH2 0x5389 JUMPI PUSH2 0x5388 PUSH2 0x51EE JUMP JUMPDEST JUMPDEST DUP4 JUMPDEST DUP2 DUP2 LT ISZERO PUSH2 0x53D0 JUMPI DUP1 MLOAD PUSH8 0xFFFFFFFFFFFFFFFF DUP2 GT ISZERO PUSH2 0x53AE JUMPI PUSH2 0x53AD PUSH2 0x4347 JUMP JUMPDEST JUMPDEST DUP1 DUP7 ADD PUSH2 0x53BB DUP10 DUP3 PUSH2 0x51F3 JUMP JUMPDEST DUP6 MSTORE PUSH1 0x20 DUP6 ADD SWAP5 POP POP POP PUSH1 0x20 DUP2 ADD SWAP1 POP PUSH2 0x538B JUMP JUMPDEST POP POP POP SWAP4 SWAP3 POP POP POP JUMP JUMPDEST PUSH1 0x0 DUP3 PUSH1 0x1F DUP4 ADD SLT PUSH2 0x53EF JUMPI PUSH2 0x53EE PUSH2 0x4347 JUMP JUMPDEST JUMPDEST DUP2 MLOAD PUSH2 0x53FF DUP5 DUP3 PUSH1 0x20 DUP7 ADD PUSH2 0x5353 JUMP JUMPDEST SWAP2 POP POP SWAP3 SWAP2 POP POP JUMP JUMPDEST PUSH1 0x0 PUSH1 0x20 DUP3 DUP5 SUB SLT ISZERO PUSH2 0x541E JUMPI PUSH2 0x541D PUSH2 0x3A2F JUMP JUMPDEST JUMPDEST PUSH1 0x0 DUP3 ADD MLOAD PUSH8 0xFFFFFFFFFFFFFFFF DUP2 GT ISZERO PUSH2 0x543C JUMPI PUSH2 0x543B PUSH2 0x3A34 JUMP JUMPDEST JUMPDEST PUSH2 0x5448 DUP5 DUP3 DUP6 ADD PUSH2 0x53DA JUMP JUMPDEST SWAP2 POP POP SWAP3 SWAP2 POP POP JUMP JUMPDEST PUSH1 0x0 DUP2 SWAP1 POP SWAP3 SWAP2 POP POP JUMP JUMPDEST PUSH1 0x0 PUSH2 0x5467 DUP3 PUSH2 0x3D8B JUMP JUMPDEST PUSH2 0x5471 DUP2 DUP6 PUSH2 0x5451 JUMP JUMPDEST SWAP4 POP PUSH2 0x5481 DUP2 DUP6 PUSH1 0x20 DUP7 ADD PUSH2 0x3DA7 JUMP JUMPDEST DUP1 DUP5 ADD SWAP2 POP POP SWAP3 SWAP2 POP POP JUMP JUMPDEST PUSH1 0x0 PUSH2 0x5499 DUP3 DUP5 PUSH2 0x545C JUMP JUMPDEST SWAP2 POP DUP2 SWAP1 POP SWAP3 SWAP2 POP POP JUMP JUMPDEST PUSH1 0x0 PUSH1 0x40 DUP3 ADD SWAP1 POP PUSH2 0x54B9 PUSH1 0x0 DUP4 ADD DUP6 PUSH2 0x3B0D JUMP JUMPDEST PUSH2 0x54C6 PUSH1 0x20 DUP4 ADD DUP5 PUSH2 0x3B0D JUMP JUMPDEST SWAP4 SWAP3 POP POP POP JUMP JUMPDEST PUSH1 0x0 DUP2 PUSH1 0x0 SHR SWAP1 POP SWAP2 SWAP1 POP JUMP JUMPDEST PUSH1 0x0 DUP2 SWAP1 POP SWAP2 SWAP1 POP JUMP JUMPDEST PUSH1 0x0 PUSH2 0x54F7 PUSH2 0x54F2 DUP4 PUSH2 0x54CD JUMP JUMPDEST PUSH2 0x54DA JUMP JUMPDEST SWAP1 POP SWAP2 SWAP1 POP JUMP JUMPDEST PUSH1 0x0 DUP2 SLOAD PUSH2 0x550B DUP2 PUSH2 0x4E6F JUMP JUMPDEST PUSH2 0x5515 DUP2 DUP7 PUSH2 0x3D96 JUMP JUMPDEST SWAP5 POP PUSH1 0x1 DUP3 AND PUSH1 0x0 DUP2 EQ PUSH2 0x5530 JUMPI PUSH1 0x1 DUP2 EQ PUSH2 0x5546 JUMPI PUSH2 0x5579 JUMP JUMPDEST PUSH1 0xFF NOT DUP4 AND DUP7 MSTORE DUP2 ISZERO ISZERO PUSH1 0x20 MUL DUP7 ADD SWAP4 POP PUSH2 0x5579 JUMP JUMPDEST PUSH2 0x554F DUP6 PUSH2 0x4EA0 JUMP JUMPDEST PUSH1 0x0 JUMPDEST DUP4 DUP2 LT ISZERO PUSH2 0x5571 JUMPI DUP2 SLOAD DUP2 DUP10 ADD MSTORE PUSH1 0x1 DUP3 ADD SWAP2 POP PUSH1 0x20 DUP2 ADD SWAP1 POP PUSH2 0x5552 JUMP JUMPDEST DUP1 DUP9 ADD SWAP6 POP POP POP JUMPDEST POP POP POP SWAP3 SWAP2 POP POP JUMP JUMPDEST PUSH1 0x0 PUSH1 0xFF DUP3 AND SWAP1 POP SWAP2 SWAP1 POP JUMP JUMPDEST PUSH1 0x0 PUSH2 0x55A2 PUSH2 0x559D DUP4 PUSH2 0x54CD JUMP JUMPDEST PUSH2 0x5582 JUMP JUMPDEST SWAP1 POP SWAP2 SWAP1 POP JUMP JUMPDEST PUSH1 0x0 PUSH2 0x160 DUP4 ADD PUSH1 0x0 DUP1 DUP5 ADD SLOAD SWAP1 POP PUSH2 0x55C1 DUP2 PUSH2 0x54E4 JUMP JUMPDEST PUSH2 0x55CE PUSH1 0x0 DUP8 ADD DUP3 PUSH2 0x3D7C JUMP JUMPDEST POP PUSH1 0x1 DUP5 ADD DUP6 DUP4 SUB PUSH1 0x20 DUP8 ADD MSTORE PUSH2 0x55E5 DUP4 DUP3 PUSH2 0x54FE JUMP JUMPDEST SWAP3 POP POP PUSH1 0x2 DUP5 ADD SLOAD SWAP1 POP PUSH2 0x55F8 DUP2 PUSH2 0x558F JUMP JUMPDEST PUSH2 0x5605 PUSH1 0x40 DUP8 ADD DUP3 PUSH2 0x3E83 JUMP JUMPDEST POP PUSH1 0x3 DUP5 ADD DUP6 DUP4 SUB PUSH1 0x60 DUP8 ADD MSTORE PUSH2 0x561C DUP4 DUP3 PUSH2 0x54FE JUMP JUMPDEST SWAP3 POP POP PUSH1 0x4 DUP5 ADD SLOAD SWAP1 POP PUSH2 0x562F DUP2 PUSH2 0x54E4 JUMP JUMPDEST PUSH2 0x563C PUSH1 0x80 DUP8 ADD DUP3 PUSH2 0x3D7C JUMP JUMPDEST POP PUSH1 0x5 DUP5 ADD SLOAD SWAP1 POP PUSH2 0x564D DUP2 PUSH2 0x54E4 JUMP JUMPDEST PUSH2 0x565A PUSH1 0xA0 DUP8 ADD DUP3 PUSH2 0x3D7C JUMP JUMPDEST POP PUSH1 0x6 DUP5 ADD SLOAD SWAP1 POP PUSH2 0x566B DUP2 PUSH2 0x54E4 JUMP JUMPDEST PUSH2 0x5678 PUSH1 0xC0 DUP8 ADD DUP3 PUSH2 0x3D7C JUMP JUMPDEST POP PUSH1 0x7 DUP5 ADD SLOAD SWAP1 POP PUSH2 0x5689 DUP2 PUSH2 0x54E4 JUMP JUMPDEST PUSH2 0x5696 PUSH1 0xE0 DUP8 ADD DUP3 PUSH2 0x3D7C JUMP JUMPDEST POP PUSH1 0x8 DUP5 ADD SLOAD SWAP1 POP PUSH2 0x56A7 DUP2 PUSH2 0x54E4 JUMP JUMPDEST PUSH2 0x56B5 PUSH2 0x100 DUP8 ADD DUP3 PUSH2 0x3D7C JUMP JUMPDEST POP PUSH1 0x9 DUP5 ADD SLOAD SWAP1 POP PUSH2 0x56C6 DUP2 PUSH2 0x54E4 JUMP JUMPDEST PUSH2 0x56D4 PUSH2 0x120 DUP8 ADD DUP3 PUSH2 0x3D7C JUMP JUMPDEST POP PUSH1 0xA DUP5 ADD DUP6 DUP4 SUB PUSH2 0x140 DUP8 ADD MSTORE PUSH2 0x56EC DUP4 DUP3 PUSH2 0x54FE JUMP JUMPDEST SWAP3 POP POP DUP2 SWAP3 POP POP POP SWAP3 SWAP2 POP POP JUMP JUMPDEST PUSH1 0x0 PUSH1 0x40 DUP3 ADD SWAP1 POP PUSH2 0x570F PUSH1 0x0 DUP4 ADD DUP6 PUSH2 0x3B0D JUMP JUMPDEST DUP2 DUP2 SUB PUSH1 0x20 DUP4 ADD MSTORE PUSH2 0x5721 DUP2 DUP5 PUSH2 0x55A9 JUMP JUMPDEST SWAP1 POP SWAP4 SWAP3 POP POP POP JUMP JUMPDEST PUSH1 0x0 PUSH1 0x40 DUP3 ADD SWAP1 POP DUP2 DUP2 SUB PUSH1 0x0 DUP4 ADD MSTORE PUSH2 0x5744 DUP2 DUP6 PUSH2 0x3FC2 JUMP JUMPDEST SWAP1 POP PUSH2 0x5753 PUSH1 0x20 DUP4 ADD DUP5 PUSH2 0x3FFB JUMP JUMPDEST SWAP4 SWAP3 POP POP POP JUMP JUMPDEST PUSH1 0x0 PUSH1 0x40 DUP3 ADD SWAP1 POP PUSH2 0x576F PUSH1 0x0 DUP4 ADD DUP6 PUSH2 0x3B0D JUMP JUMPDEST DUP2 DUP2 SUB PUSH1 0x20 DUP4 ADD MSTORE PUSH2 0x5781 DUP2 DUP5 PUSH2 0x3E92 JUMP JUMPDEST SWAP1 POP SWAP4 SWAP3 POP POP POP JUMP INVALID LOG2 PUSH5 0x6970667358 0x22 SLT KECCAK256 0xD4 0xB3 0xEB JUMPI 0x2C SWAP15 EXTCODESIZE XOR 0xBE SELFBALANCE 0xE8 CALLDATALOAD 0xD0 0xE ADD MOD PREVRANDAO 0xEF 0xC7 0xD6 0xFB CALLDATALOAD PUSH21 0xE25EE4A849BB5E8EED64736F6C6343000818003300 "},"methodIdentifiers":{"NextLpClaimTime(address,uint256)":"7a728e7f","bqBTC()":"34808ec3","bqBTCAddress()":"996b8a6f","claimPayoutForLP(uint256)":"2d8a340c","coverCount()":"feb0b8f5","coverExists(uint256)":"782ea619","coverFeeBalance()":"357917b7","coverIds(uint256)":"fb643583","covers(uint256)":"6299df6c","createCover(uint256,string,uint8,string,string,uint256,uint256,uint256)":"9732bdb5","deleteExpiredUserCovers(address)":"bfc664f3","getAllAvailableCovers()":"93b1ad38","getAllParticipants()":"195ec9ee","getAllUserCovers(address)":"649718b2","getCoverFeeBalance()":"609c7604","getCoverInfo(uint256)":"62858bfa","getDepositClaimableDays(address,uint256)":"73cce3ee","getLastClaimTime(address,uint256)":"10525814","getUserCoverInfo(address,uint256)":"cadcb471","getUserParticipation(address)":"46f84795","governance()":"5aa6e675","lpAddress()":"9b4dc8cc","lpContract()":"8acee3cf","owner()":"8da5cb5b","participants(uint256)":"35c1d349","participation(address)":"96f3a8ad","purchaseCover(uint256,uint256,uint256,uint256)":"602710a4","renounceOwnership()":"715018a6","transferOwnership(address)":"f2fde38b","updateCover(uint256,string,uint8,string,string,uint256,uint256,uint256)":"8de4d101","updateMaxAmount(uint256)":"106b5da1","updateUserCoverValue(address,uint256,uint256)":"7ceb4a69","userCovers(address,uint256)":"9e7b399e"}}}}}