{"contracts/InsurancePool.sol":{"InsurancePool":{"abi":[{"inputs":[{"internalType":"address","name":"_initialOwner","type":"address"},{"internalType":"address","name":"_bqBTC","type":"address"}],"stateMutability":"nonpayable","type":"constructor"},{"inputs":[],"name":"LpNotActive","type":"error"},{"inputs":[{"internalType":"address","name":"owner","type":"address"}],"name":"OwnableInvalidOwner","type":"error"},{"inputs":[{"internalType":"address","name":"account","type":"address"}],"name":"OwnableUnauthorizedAccount","type":"error"},{"inputs":[],"name":"ReentrancyGuardReentrantCall","type":"error"},{"anonymous":false,"inputs":[{"indexed":false,"internalType":"uint256","name":"","type":"uint256"},{"indexed":false,"internalType":"uint256","name":"","type":"uint256"},{"indexed":false,"internalType":"address","name":"","type":"address"}],"name":"ClaimAttempt","type":"event"},{"anonymous":false,"inputs":[{"indexed":true,"internalType":"address","name":"recipient","type":"address"},{"indexed":false,"internalType":"string","name":"pool","type":"string"},{"indexed":false,"internalType":"uint256","name":"amount","type":"uint256"}],"name":"ClaimPaid","type":"event"},{"anonymous":false,"inputs":[{"indexed":true,"internalType":"address","name":"user","type":"address"},{"indexed":false,"internalType":"uint256","name":"amount","type":"uint256"},{"indexed":false,"internalType":"string","name":"pool","type":"string"}],"name":"Deposited","type":"event"},{"anonymous":false,"inputs":[{"indexed":true,"internalType":"address","name":"previousOwner","type":"address"},{"indexed":true,"internalType":"address","name":"newOwner","type":"address"}],"name":"OwnershipTransferred","type":"event"},{"anonymous":false,"inputs":[{"indexed":true,"internalType":"uint256","name":"id","type":"uint256"},{"indexed":false,"internalType":"string","name":"poolName","type":"string"}],"name":"PoolCreated","type":"event"},{"anonymous":false,"inputs":[{"indexed":true,"internalType":"uint256","name":"poolId","type":"uint256"},{"indexed":false,"internalType":"uint256","name":"apy","type":"uint256"},{"indexed":false,"internalType":"uint256","name":"_minPeriod","type":"uint256"}],"name":"PoolUpdated","type":"event"},{"anonymous":false,"inputs":[{"indexed":true,"internalType":"address","name":"user","type":"address"},{"indexed":false,"internalType":"uint256","name":"amount","type":"uint256"},{"indexed":false,"internalType":"string","name":"pool","type":"string"}],"name":"Withdraw","type":"event"},{"inputs":[],"name":"ICoverContract","outputs":[{"internalType":"contract ICover","name":"","type":"address"}],"stateMutability":"view","type":"function"},{"inputs":[],"name":"IGovernanceContract","outputs":[{"internalType":"contract IGov","name":"","type":"address"}],"stateMutability":"view","type":"function"},{"inputs":[{"internalType":"uint256","name":"_poolId","type":"uint256"},{"components":[{"internalType":"uint256","name":"id","type":"uint256"},{"internalType":"string","name":"coverName","type":"string"},{"internalType":"enum CoverLib.RiskType","name":"riskType","type":"uint8"},{"internalType":"string","name":"chains","type":"string"},{"internalType":"uint256","name":"capacity","type":"uint256"},{"internalType":"uint256","name":"cost","type":"uint256"},{"internalType":"uint256","name":"capacityAmount","type":"uint256"},{"internalType":"uint256","name":"coverValues","type":"uint256"},{"internalType":"uint256","name":"maxAmount","type":"uint256"},{"internalType":"uint256","name":"poolId","type":"uint256"},{"internalType":"string","name":"CID","type":"string"}],"internalType":"struct CoverLib.Cover","name":"_cover","type":"tuple"}],"name":"addPoolCover","outputs":[],"stateMutability":"nonpayable","type":"function"},{"inputs":[],"name":"bqBTC","outputs":[{"internalType":"contract IbqBTC","name":"","type":"address"}],"stateMutability":"view","type":"function"},{"inputs":[],"name":"bqBTCAddress","outputs":[{"internalType":"address","name":"","type":"address"}],"stateMutability":"view","type":"function"},{"inputs":[{"internalType":"uint256","name":"_proposalId","type":"uint256"}],"name":"claimProposalFunds","outputs":[],"stateMutability":"nonpayable","type":"function"},{"inputs":[],"name":"coverContract","outputs":[{"internalType":"address","name":"","type":"address"}],"stateMutability":"view","type":"function"},{"inputs":[{"internalType":"enum CoverLib.RiskType","name":"_riskType","type":"uint8"},{"internalType":"string","name":"_poolName","type":"string"},{"internalType":"uint256","name":"_apy","type":"uint256"},{"internalType":"uint256","name":"_minPeriod","type":"uint256"}],"name":"createPool","outputs":[],"stateMutability":"nonpayable","type":"function"},{"inputs":[{"internalType":"uint256","name":"_poolId","type":"uint256"}],"name":"deactivatePool","outputs":[],"stateMutability":"nonpayable","type":"function"},{"inputs":[{"internalType":"uint256","name":"_poolId","type":"uint256"},{"internalType":"uint256","name":"_amount","type":"uint256"}],"name":"deposit","outputs":[],"stateMutability":"nonpayable","type":"function"},{"inputs":[{"internalType":"uint256","name":"_poolId","type":"uint256"},{"internalType":"address","name":"_user","type":"address"}],"name":"externalFunctions","outputs":[{"internalType":"uint256","name":"","type":"uint256"},{"internalType":"uint256","name":"","type":"uint256"}],"stateMutability":"view","type":"function"},{"inputs":[],"name":"getAllParticipants","outputs":[{"internalType":"address[]","name":"","type":"address[]"}],"stateMutability":"view","type":"function"},{"inputs":[],"name":"getAllPools","outputs":[{"components":[{"internalType":"uint256","name":"poolId","type":"uint256"},{"internalType":"string","name":"poolName","type":"string"},{"internalType":"enum CoverLib.RiskType","name":"riskType","type":"uint8"},{"internalType":"uint256","name":"apy","type":"uint256"},{"internalType":"uint256","name":"minPeriod","type":"uint256"},{"internalType":"uint256","name":"tvl","type":"uint256"},{"internalType":"uint256","name":"tcp","type":"uint256"},{"internalType":"bool","name":"isActive","type":"bool"},{"internalType":"uint256","name":"percentageSplitBalance","type":"uint256"}],"internalType":"struct InsurancePool.NPool[]","name":"","type":"tuple[]"}],"stateMutability":"view","type":"function"},{"inputs":[{"internalType":"uint256","name":"_poolId","type":"uint256"}],"name":"getPool","outputs":[{"internalType":"string","name":"name","type":"string"},{"internalType":"enum CoverLib.RiskType","name":"riskType","type":"uint8"},{"internalType":"uint256","name":"apy","type":"uint256"},{"internalType":"uint256","name":"minPeriod","type":"uint256"},{"internalType":"uint256","name":"tvl","type":"uint256"},{"internalType":"bool","name":"isActive","type":"bool"},{"internalType":"uint256","name":"percentageSplitBalance","type":"uint256"}],"stateMutability":"view","type":"function"},{"inputs":[{"internalType":"uint256","name":"_poolId","type":"uint256"}],"name":"getPoolCovers","outputs":[{"components":[{"internalType":"uint256","name":"id","type":"uint256"},{"internalType":"string","name":"coverName","type":"string"},{"internalType":"enum CoverLib.RiskType","name":"riskType","type":"uint8"},{"internalType":"string","name":"chains","type":"string"},{"internalType":"uint256","name":"capacity","type":"uint256"},{"internalType":"uint256","name":"cost","type":"uint256"},{"internalType":"uint256","name":"capacityAmount","type":"uint256"},{"internalType":"uint256","name":"coverValues","type":"uint256"},{"internalType":"uint256","name":"maxAmount","type":"uint256"},{"internalType":"uint256","name":"poolId","type":"uint256"},{"internalType":"string","name":"CID","type":"string"}],"internalType":"struct CoverLib.Cover[]","name":"","type":"tuple[]"}],"stateMutability":"view","type":"function"},{"inputs":[{"internalType":"uint256","name":"_poolId","type":"uint256"}],"name":"getPoolTVL","outputs":[{"internalType":"uint256","name":"","type":"uint256"}],"stateMutability":"view","type":"function"},{"inputs":[{"internalType":"address","name":"_userAddress","type":"address"}],"name":"getPoolsByAddress","outputs":[{"components":[{"internalType":"string","name":"poolName","type":"string"},{"internalType":"uint256","name":"poolId","type":"uint256"},{"internalType":"uint256","name":"dailyPayout","type":"uint256"},{"internalType":"uint256","name":"depositAmount","type":"uint256"},{"internalType":"uint256","name":"apy","type":"uint256"},{"internalType":"uint256","name":"minPeriod","type":"uint256"},{"internalType":"uint256","name":"tvl","type":"uint256"},{"internalType":"uint256","name":"tcp","type":"uint256"},{"internalType":"bool","name":"isActive","type":"bool"},{"internalType":"uint256","name":"accruedPayout","type":"uint256"}],"internalType":"struct InsurancePool.PoolInfo[]","name":"","type":"tuple[]"}],"stateMutability":"view","type":"function"},{"inputs":[{"internalType":"uint256","name":"_poolId","type":"uint256"},{"internalType":"address","name":"_user","type":"address"}],"name":"getUDep","outputs":[{"components":[{"internalType":"address","name":"lp","type":"address"},{"internalType":"uint256","name":"amount","type":"uint256"},{"internalType":"uint256","name":"poolId","type":"uint256"},{"internalType":"uint256","name":"dailyPayout","type":"uint256"},{"internalType":"enum InsurancePool.Status","name":"status","type":"uint8"},{"internalType":"uint256","name":"daysLeft","type":"uint256"},{"internalType":"uint256","name":"startDate","type":"uint256"},{"internalType":"uint256","name":"expiryDate","type":"uint256"},{"internalType":"uint256","name":"accruedPayout","type":"uint256"}],"internalType":"struct InsurancePool.Deposits","name":"","type":"tuple"}],"stateMutability":"view","type":"function"},{"inputs":[{"internalType":"uint256","name":"_poolId","type":"uint256"},{"internalType":"address","name":"_user","type":"address"}],"name":"getUserDeposit","outputs":[{"components":[{"internalType":"address","name":"lp","type":"address"},{"internalType":"uint256","name":"amount","type":"uint256"},{"internalType":"uint256","name":"poolId","type":"uint256"},{"internalType":"uint256","name":"dailyPayout","type":"uint256"},{"internalType":"enum InsurancePool.Status","name":"status","type":"uint8"},{"internalType":"uint256","name":"daysLeft","type":"uint256"},{"internalType":"uint256","name":"startDate","type":"uint256"},{"internalType":"uint256","name":"expiryDate","type":"uint256"},{"internalType":"uint256","name":"accruedPayout","type":"uint256"}],"internalType":"struct InsurancePool.Deposits","name":"","type":"tuple"}],"stateMutability":"view","type":"function"},{"inputs":[{"internalType":"address","name":"user","type":"address"}],"name":"getUserParticipation","outputs":[{"internalType":"uint256","name":"","type":"uint256"}],"stateMutability":"view","type":"function"},{"inputs":[],"name":"governance","outputs":[{"internalType":"address","name":"","type":"address"}],"stateMutability":"view","type":"function"},{"inputs":[{"internalType":"uint256","name":"_poolId","type":"uint256"},{"internalType":"uint256","name":"__poolPercentageSplit","type":"uint256"}],"name":"increasePercentageSplit","outputs":[],"stateMutability":"nonpayable","type":"function"},{"inputs":[],"name":"initialOwner","outputs":[{"internalType":"address","name":"","type":"address"}],"stateMutability":"view","type":"function"},{"inputs":[],"name":"owner","outputs":[{"internalType":"address","name":"","type":"address"}],"stateMutability":"view","type":"function"},{"inputs":[{"internalType":"uint256","name":"","type":"uint256"}],"name":"participants","outputs":[{"internalType":"address","name":"","type":"address"}],"stateMutability":"view","type":"function"},{"inputs":[{"internalType":"address","name":"","type":"address"}],"name":"participation","outputs":[{"internalType":"uint256","name":"","type":"uint256"}],"stateMutability":"view","type":"function"},{"inputs":[{"internalType":"uint256","name":"poolId","type":"uint256"}],"name":"poolActive","outputs":[{"internalType":"bool","name":"","type":"bool"}],"stateMutability":"view","type":"function"},{"inputs":[],"name":"poolCount","outputs":[{"internalType":"uint256","name":"","type":"uint256"}],"stateMutability":"view","type":"function"},{"inputs":[{"internalType":"uint256","name":"","type":"uint256"}],"name":"pools","outputs":[{"internalType":"string","name":"poolName","type":"string"},{"internalType":"enum CoverLib.RiskType","name":"riskType","type":"uint8"},{"internalType":"uint256","name":"apy","type":"uint256"},{"internalType":"uint256","name":"minPeriod","type":"uint256"},{"internalType":"uint256","name":"tvl","type":"uint256"},{"internalType":"uint256","name":"tcp","type":"uint256"},{"internalType":"bool","name":"isActive","type":"bool"},{"internalType":"uint256","name":"percentageSplitBalance","type":"uint256"}],"stateMutability":"view","type":"function"},{"inputs":[{"internalType":"uint256","name":"_poolId","type":"uint256"},{"internalType":"uint256","name":"__poolPercentageSplit","type":"uint256"}],"name":"reducePercentageSplit","outputs":[],"stateMutability":"nonpayable","type":"function"},{"inputs":[],"name":"renounceOwnership","outputs":[],"stateMutability":"nonpayable","type":"function"},{"inputs":[{"internalType":"address","name":"_coverContract","type":"address"}],"name":"setCover","outputs":[],"stateMutability":"nonpayable","type":"function"},{"inputs":[{"internalType":"address","name":"_governance","type":"address"}],"name":"setGovernance","outputs":[],"stateMutability":"nonpayable","type":"function"},{"inputs":[{"internalType":"address","name":"newOwner","type":"address"}],"name":"transferOwnership","outputs":[],"stateMutability":"nonpayable","type":"function"},{"inputs":[{"internalType":"uint256","name":"_poolId","type":"uint256"},{"internalType":"uint256","name":"_apy","type":"uint256"},{"internalType":"uint256","name":"_minPeriod","type":"uint256"}],"name":"updatePool","outputs":[],"stateMutability":"nonpayable","type":"function"},{"inputs":[{"internalType":"uint256","name":"_poolId","type":"uint256"},{"components":[{"internalType":"uint256","name":"id","type":"uint256"},{"internalType":"string","name":"coverName","type":"string"},{"internalType":"enum CoverLib.RiskType","name":"riskType","type":"uint8"},{"internalType":"string","name":"chains","type":"string"},{"internalType":"uint256","name":"capacity","type":"uint256"},{"internalType":"uint256","name":"cost","type":"uint256"},{"internalType":"uint256","name":"capacityAmount","type":"uint256"},{"internalType":"uint256","name":"coverValues","type":"uint256"},{"internalType":"uint256","name":"maxAmount","type":"uint256"},{"internalType":"uint256","name":"poolId","type":"uint256"},{"internalType":"string","name":"CID","type":"string"}],"internalType":"struct CoverLib.Cover","name":"_cover","type":"tuple"}],"name":"updatePoolCovers","outputs":[],"stateMutability":"nonpayable","type":"function"},{"inputs":[{"internalType":"uint256","name":"_poolId","type":"uint256"}],"name":"withdraw","outputs":[],"stateMutability":"nonpayable","type":"function"}],"evm":{"bytecode":{"linkReferences":{},"object":"60806040523480156200001157600080fd5b5060405162006046380380620060468339818101604052810190620000379190620002c2565b816001600081905550600073ffffffffffffffffffffffffffffffffffffffff168173ffffffffffffffffffffffffffffffffffffffff1603620000b55760006040517f1e4fbdf7000000000000000000000000000000000000000000000000000000008152600401620000ac91906200031a565b60405180910390fd5b620000c6816200019260201b60201c565b5081600b60006101000a81548173ffffffffffffffffffffffffffffffffffffffff021916908373ffffffffffffffffffffffffffffffffffffffff16021790555080600860006101000a81548173ffffffffffffffffffffffffffffffffffffffff021916908373ffffffffffffffffffffffffffffffffffffffff16021790555080600960006101000a81548173ffffffffffffffffffffffffffffffffffffffff021916908373ffffffffffffffffffffffffffffffffffffffff160217905550505062000337565b6000600160009054906101000a900473ffffffffffffffffffffffffffffffffffffffff16905081600160006101000a81548173ffffffffffffffffffffffffffffffffffffffff021916908373ffffffffffffffffffffffffffffffffffffffff1602179055508173ffffffffffffffffffffffffffffffffffffffff168173ffffffffffffffffffffffffffffffffffffffff167f8be0079c531659141344cd1fd0a4f28419497f9722a3daafe3b4186f6b6457e060405160405180910390a35050565b600080fd5b600073ffffffffffffffffffffffffffffffffffffffff82169050919050565b60006200028a826200025d565b9050919050565b6200029c816200027d565b8114620002a857600080fd5b50565b600081519050620002bc8162000291565b92915050565b60008060408385031215620002dc57620002db62000258565b5b6000620002ec85828601620002ab565b9250506020620002ff85828601620002ab565b9150509250929050565b62000314816200027d565b82525050565b600060208201905062000331600083018462000309565b92915050565b615cff80620003476000396000f3fe608060405234801561001057600080fd5b50600436106102275760003560e01c806396f3a8ad11610130578063c7aa9874116100b8578063e2bbb1581161007c578063e2bbb158146106aa578063e35f8129146106c6578063f2fde38b146106e2578063f525cb68146106fe578063f6e805581461071c57610227565b8063c7aa987414610608578063cd16d3dd14610624578063d86c044414610654578063d88ff1f414610670578063da533fd31461068e57610227565b8063a14764d0116100ff578063a14764d01461055f578063a4948d851461057b578063ab033ea914610597578063ac4afa38146105b3578063b5d90c28146105ea57610227565b806396f3a8ad146104d9578063996b8a6f146105095780639abd9b05146105275780639fd36b151461054357610227565b806335c1d349116101b3578063715018a611610182578063715018a6146104355780637c366cc61461043f5780637eb111f01461045b5780638da5cb5b1461048b5780638f244630146104a957610227565b806335c1d3491461038757806346f84795146103b75780634e055244146103e75780635aa6e6751461041757610227565b806325f11e8d116101fa57806325f11e8d146102cf57806329ba7bb2146102ff5780632e1a7d4d1461031d578063318667631461033957806334808ec31461036957610227565b8063068bcd8d1461022c578063143fd7c614610262578063195ec9ee14610293578063248a75b7146102b1575b600080fd5b61024660048036038101906102419190613be0565b61073a565b6040516102599796959493929190613d3e565b60405180910390f35b61027c60048036038101906102779190613e12565b61083e565b60405161028a929190613e52565b60405180910390f35b61029b610994565b6040516102a89190613f39565b60405180910390f35b6102b9610a22565b6040516102c69190613f6a565b60405180910390f35b6102e960048036038101906102e49190613be0565b610a48565b6040516102f69190613f85565b60405180910390f35b610307610a7a565b6040516103149190613f6a565b60405180910390f35b61033760048036038101906103329190613be0565b610aa0565b005b610353600480360381019061034e9190613fa0565b610e20565b60405161036091906141d1565b60405180910390f35b610371611343565b60405161037e9190614252565b60405180910390f35b6103a1600480360381019061039c9190613be0565b611369565b6040516103ae9190613f6a565b60405180910390f35b6103d160048036038101906103cc9190613fa0565b6113a8565b6040516103de919061426d565b60405180910390f35b61040160048036038101906103fc9190613e12565b6113f1565b60405161040e9190614387565b60405180910390f35b61041f6116af565b60405161042c9190613f6a565b60405180910390f35b61043d6116d5565b005b61045960048036038101906104549190613fa0565b6116e9565b005b61047560048036038101906104709190613be0565b611876565b6040516104829190614571565b60405180910390f35b610493611b20565b6040516104a09190613f6a565b60405180910390f35b6104c360048036038101906104be9190613be0565b611b4a565b6040516104d0919061426d565b60405180910390f35b6104f360048036038101906104ee9190613fa0565b611b6a565b604051610500919061426d565b60405180910390f35b610511611b82565b60405161051e9190613f6a565b60405180910390f35b610541600480360381019061053c9190613be0565b611ba8565b005b61055d60048036038101906105589190614593565b611c3c565b005b61057960048036038101906105749190614897565b611d55565b005b61059560048036038101906105909190614593565b611fa8565b005b6105b160048036038101906105ac9190613fa0565b6120c1565b005b6105cd60048036038101906105c89190613be0565b61224e565b6040516105e19897969594939291906148f3565b60405180910390f35b6105f2612338565b6040516105ff9190614999565b60405180910390f35b610622600480360381019061061d9190614897565b61235e565b005b61063e60048036038101906106399190613e12565b612544565b60405161064b9190614387565b60405180910390f35b61066e600480360381019061066991906149b4565b61268a565b005b6106786127f0565b6040516106859190614b8e565b60405180910390f35b6106a860048036038101906106a39190614bb0565b6129cf565b005b6106c460048036038101906106bf9190614593565b612acc565b005b6106e060048036038101906106db9190613be0565b6132db565b005b6106fc60048036038101906106f79190613fa0565b613816565b005b61070661389c565b604051610713919061426d565b60405180910390f35b6107246138a2565b6040516107319190614c54565b60405180910390f35b60606000806000806000806000600360008a81526020019081526020016000209050806000018160010160009054906101000a900460ff168260020154836003015484600401548560060160009054906101000a900460ff1686600701548680546107a490614c9e565b80601f01602080910402602001604051908101604052809291908181526020018280546107d090614c9e565b801561081d5780601f106107f25761010080835404028352916020019161081d565b820191906000526020600020905b81548152906001019060200180831161080057829003601f168201915b50505050509650975097509750975097509750975050919395979092949650565b6000806000600660009054906101000a900473ffffffffffffffffffffffffffffffffffffffff1673ffffffffffffffffffffffffffffffffffffffff16631052581485876040518363ffffffff1660e01b81526004016108a0929190614ccf565b602060405180830381865afa1580156108bd573d6000803e3d6000fd5b505050506040513d601f19601f820116820180604052508101906108e19190614d0d565b90506000600660009054906101000a900473ffffffffffffffffffffffffffffffffffffffff1673ffffffffffffffffffffffffffffffffffffffff166373cce3ee86886040518363ffffffff1660e01b8152600401610942929190614ccf565b602060405180830381865afa15801561095f573d6000803e3d6000fd5b505050506040513d601f19601f820116820180604052508101906109839190614d0d565b905081819350935050509250929050565b6060600c805480602002602001604051908101604052809291908181526020018280548015610a1857602002820191906000526020600020905b8160009054906101000a900473ffffffffffffffffffffffffffffffffffffffff1673ffffffffffffffffffffffffffffffffffffffff16815260200190600101908083116109ce575b5050505050905090565b600a60009054906101000a900473ffffffffffffffffffffffffffffffffffffffff1681565b6000806003600084815260200190815260200160002090508060060160009054906101000a900460ff16915050919050565b600b60009054906101000a900473ffffffffffffffffffffffffffffffffffffffff1681565b610aa86138c8565b600060036000838152602001908152602001600020905060008160080160003373ffffffffffffffffffffffffffffffffffffffff1673ffffffffffffffffffffffffffffffffffffffff16815260200190815260200160002090506000816001015411610b4b576040517f08c379a0000000000000000000000000000000000000000000000000000000008152600401610b4290614dac565b60405180910390fd5b60006001811115610b5f57610b5e613c9d565b5b8160040160009054906101000a900460ff166001811115610b8357610b82613c9d565b5b14610bc3576040517f08c379a0000000000000000000000000000000000000000000000000000000008152600401610bba90614e18565b60405180910390fd5b8060070154421015610c0a576040517f08c379a0000000000000000000000000000000000000000000000000000000008152600401610c0190614e84565b60405180910390fd5b60018160040160006101000a81548160ff02191690836001811115610c3257610c31613c9d565b5b02179055508060010154826004016000828254610c4f9190614ed3565b925050819055506000610c6184611876565b905060005b8151811015610d2757600660009054906101000a900473ffffffffffffffffffffffffffffffffffffffff1673ffffffffffffffffffffffffffffffffffffffff1663106b5da1838381518110610cc057610cbf614f07565b5b6020026020010151600001516040518263ffffffff1660e01b8152600401610ce8919061426d565b600060405180830381600087803b158015610d0257600080fd5b505af1158015610d16573d6000803e3d6000fd5b505050508080600101915050610c66565b50600860009054906101000a900473ffffffffffffffffffffffffffffffffffffffff1673ffffffffffffffffffffffffffffffffffffffff1663e2094eda3384600101546040518363ffffffff1660e01b8152600401610d89929190614ccf565b600060405180830381600087803b158015610da357600080fd5b505af1158015610db7573d6000803e3d6000fd5b505050503373ffffffffffffffffffffffffffffffffffffffff167f485f1bb6524c663555797e00171a10f341656e59b02d6b557a0a38ba7d5d9751836001015485600001604051610e0a929190614fcf565b60405180910390a2505050610e1d61390e565b50565b6060600080600190505b6004548111610eba57600060036000838152602001908152602001600020905060008160080160008773ffffffffffffffffffffffffffffffffffffffff1673ffffffffffffffffffffffffffffffffffffffff168152602001908152602001600020600101541115610ea6578280610ea290614fff565b9350505b508080610eb290614fff565b915050610e2a565b5060008167ffffffffffffffff811115610ed757610ed66145d8565b5b604051908082528060200260200182016040528015610f1057816020015b610efd613a6d565b815260200190600190039081610ef55790505b509050600080600190505b600454811161133757600060036000838152602001908152602001600020905060006003600084815260200190815260200160002060080160008973ffffffffffffffffffffffffffffffffffffffff1673ffffffffffffffffffffffffffffffffffffffff168152602001908152602001600020604051806101200160405290816000820160009054906101000a900473ffffffffffffffffffffffffffffffffffffffff1673ffffffffffffffffffffffffffffffffffffffff1673ffffffffffffffffffffffffffffffffffffffff1681526020016001820154815260200160028201548152602001600382015481526020016004820160009054906101000a900460ff16600181111561103557611034613c9d565b5b600181111561104757611046613c9d565b5b815260200160058201548152602001600682015481526020016007820154815260200160088201548152505090506000600660009054906101000a900473ffffffffffffffffffffffffffffffffffffffff1673ffffffffffffffffffffffffffffffffffffffff166373cce3ee8a866040518363ffffffff1660e01b81526004016110d4929190614ccf565b602060405180830381865afa1580156110f1573d6000803e3d6000fd5b505050506040513d601f19601f820116820180604052508101906111159190614d0d565b905060008183606001516111299190615047565b905060008460080160008c73ffffffffffffffffffffffffffffffffffffffff1673ffffffffffffffffffffffffffffffffffffffff1681526020019081526020016000206001015411156113205760405180610140016040528085600001805461119390614c9e565b80601f01602080910402602001604051908101604052809291908181526020018280546111bf90614c9e565b801561120c5780601f106111e15761010080835404028352916020019161120c565b820191906000526020600020905b8154815290600101906020018083116111ef57829003601f168201915b505050505081526020018681526020018560080160008d73ffffffffffffffffffffffffffffffffffffffff1673ffffffffffffffffffffffffffffffffffffffff1681526020019081526020016000206003015481526020018560080160008d73ffffffffffffffffffffffffffffffffffffffff1673ffffffffffffffffffffffffffffffffffffffff168152602001908152602001600020600101548152602001856002015481526020018560030154815260200185600401548152602001856005015481526020018560060160009054906101000a900460ff16151581526020018281525087878061130190614fff565b98508151811061131457611313614f07565b5b60200260200101819052505b50505050808061132f90614fff565b915050610f1b565b50819350505050919050565b600860009054906101000a900473ffffffffffffffffffffffffffffffffffffffff1681565b600c818154811061137957600080fd5b906000526020600020016000915054906101000a900473ffffffffffffffffffffffffffffffffffffffff1681565b6000600d60008373ffffffffffffffffffffffffffffffffffffffff1673ffffffffffffffffffffffffffffffffffffffff168152602001908152602001600020549050919050565b6113f9613ac2565b60006003600085815260200190815260200160002060080160008473ffffffffffffffffffffffffffffffffffffffff1673ffffffffffffffffffffffffffffffffffffffff168152602001908152602001600020604051806101200160405290816000820160009054906101000a900473ffffffffffffffffffffffffffffffffffffffff1673ffffffffffffffffffffffffffffffffffffffff1673ffffffffffffffffffffffffffffffffffffffff1681526020016001820154815260200160028201548152602001600382015481526020016004820160009054906101000a900460ff1660018111156114f3576114f2613c9d565b5b600181111561150557611504613c9d565b5b815260200160058201548152602001600682015481526020016007820154815260200160088201548152505090506000600660009054906101000a900473ffffffffffffffffffffffffffffffffffffffff1673ffffffffffffffffffffffffffffffffffffffff16631052581485876040518363ffffffff1660e01b8152600401611592929190614ccf565b602060405180830381865afa1580156115af573d6000803e3d6000fd5b505050506040513d601f19601f820116820180604052508101906115d39190614d0d565b905060008082036115ea578260c0015190506115ee565b8190505b60004290508360e00151811115611607578360e0015190505b600061012c83836116189190614ed3565b61162291906150b8565b90508085606001516116349190615047565b85610100018181525050428560e00151116116595760008560a00181815250506116a1565b6000428660e0015161166b9190614ed3565b9050620151806001620151808361168291906150e9565b61168c9190614ed3565b61169691906150b8565b8660a0018181525050505b849550505050505092915050565b600560009054906101000a900473ffffffffffffffffffffffffffffffffffffffff1681565b6116dd613918565b6116e7600061399f565b565b6116f1613918565b600073ffffffffffffffffffffffffffffffffffffffff16600a60009054906101000a900473ffffffffffffffffffffffffffffffffffffffff1673ffffffffffffffffffffffffffffffffffffffff1614611782576040517f08c379a000000000000000000000000000000000000000000000000000000000815260040161177990615169565b60405180910390fd5b600073ffffffffffffffffffffffffffffffffffffffff168173ffffffffffffffffffffffffffffffffffffffff16036117f1576040517f08c379a00000000000000000000000000000000000000000000000000000000081526004016117e8906151fb565b60405180910390fd5b80600660006101000a81548173ffffffffffffffffffffffffffffffffffffffff021916908373ffffffffffffffffffffffffffffffffffffffff16021790555080600a60006101000a81548173ffffffffffffffffffffffffffffffffffffffff021916908373ffffffffffffffffffffffffffffffffffffffff16021790555050565b606060026000838152602001908152602001600020805480602002602001604051908101604052809291908181526020016000905b82821015611b1557838290600052602060002090600b020160405180610160016040529081600082015481526020016001820180546118e990614c9e565b80601f016020809104026020016040519081016040528092919081815260200182805461191590614c9e565b80156119625780601f1061193757610100808354040283529160200191611962565b820191906000526020600020905b81548152906001019060200180831161194557829003601f168201915b505050505081526020016002820160009054906101000a900460ff1660038111156119905761198f613c9d565b5b60038111156119a2576119a1613c9d565b5b81526020016003820180546119b690614c9e565b80601f01602080910402602001604051908101604052809291908181526020018280546119e290614c9e565b8015611a2f5780601f10611a0457610100808354040283529160200191611a2f565b820191906000526020600020905b815481529060010190602001808311611a1257829003601f168201915b50505050508152602001600482015481526020016005820154815260200160068201548152602001600782015481526020016008820154815260200160098201548152602001600a82018054611a8490614c9e565b80601f0160208091040260200160405190810160405280929190818152602001828054611ab090614c9e565b8015611afd5780601f10611ad257610100808354040283529160200191611afd565b820191906000526020600020905b815481529060010190602001808311611ae057829003601f168201915b505050505081525050815260200190600101906118ab565b505050509050919050565b6000600160009054906101000a900473ffffffffffffffffffffffffffffffffffffffff16905090565b600060036000838152602001908152602001600020600401549050919050565b600d6020528060005260406000206000915090505481565b600960009054906101000a900473ffffffffffffffffffffffffffffffffffffffff1681565b611bb0613918565b6003600082815260200190815260200160002060060160009054906101000a900460ff16611c0a576040517fe067835f00000000000000000000000000000000000000000000000000000000815260040160405180910390fd5b60006003600083815260200190815260200160002060060160006101000a81548160ff02191690831515021790555050565b600a60009054906101000a900473ffffffffffffffffffffffffffffffffffffffff1673ffffffffffffffffffffffffffffffffffffffff163373ffffffffffffffffffffffffffffffffffffffff161480611ce55750600b60009054906101000a900473ffffffffffffffffffffffffffffffffffffffff1673ffffffffffffffffffffffffffffffffffffffff163373ffffffffffffffffffffffffffffffffffffffff16145b611d24576040517f08c379a0000000000000000000000000000000000000000000000000000000008152600401611d1b9061528d565b60405180910390fd5b80600360008481526020019081526020016000206007016000828254611d4a91906150e9565b925050819055505050565b600a60009054906101000a900473ffffffffffffffffffffffffffffffffffffffff1673ffffffffffffffffffffffffffffffffffffffff163373ffffffffffffffffffffffffffffffffffffffff161480611dfe5750600b60009054906101000a900473ffffffffffffffffffffffffffffffffffffffff1673ffffffffffffffffffffffffffffffffffffffff163373ffffffffffffffffffffffffffffffffffffffff16145b611e3d576040517f08c379a0000000000000000000000000000000000000000000000000000000008152600401611e349061528d565b60405180910390fd5b60005b6002600084815260200190815260200160002080549050811015611fa3578160000151600260008581526020019081526020016000208281548110611e8857611e87614f07565b5b90600052602060002090600b02016000015403611f965781600260008581526020019081526020016000208281548110611ec557611ec4614f07565b5b90600052602060002090600b0201600082015181600001556020820151816001019081611ef2919061543a565b5060408201518160020160006101000a81548160ff02191690836003811115611f1e57611f1d613c9d565b5b02179055506060820151816003019081611f38919061543a565b506080820151816004015560a0820151816005015560c0820151816006015560e082015181600701556101008201518160080155610120820151816009015561014082015181600a019081611f8d919061543a565b50905050611fa3565b8080600101915050611e40565b505050565b600a60009054906101000a900473ffffffffffffffffffffffffffffffffffffffff1673ffffffffffffffffffffffffffffffffffffffff163373ffffffffffffffffffffffffffffffffffffffff1614806120515750600b60009054906101000a900473ffffffffffffffffffffffffffffffffffffffff1673ffffffffffffffffffffffffffffffffffffffff163373ffffffffffffffffffffffffffffffffffffffff16145b612090576040517f08c379a00000000000000000000000000000000000000000000000000000000081526004016120879061528d565b60405180910390fd5b806003600084815260200190815260200160002060070160008282546120b69190614ed3565b925050819055505050565b6120c9613918565b600073ffffffffffffffffffffffffffffffffffffffff16600560009054906101000a900473ffffffffffffffffffffffffffffffffffffffff1673ffffffffffffffffffffffffffffffffffffffff161461215a576040517f08c379a000000000000000000000000000000000000000000000000000000000815260040161215190615169565b60405180910390fd5b600073ffffffffffffffffffffffffffffffffffffffff168173ffffffffffffffffffffffffffffffffffffffff16036121c9576040517f08c379a00000000000000000000000000000000000000000000000000000000081526004016121c0906151fb565b60405180910390fd5b80600560006101000a81548173ffffffffffffffffffffffffffffffffffffffff021916908373ffffffffffffffffffffffffffffffffffffffff16021790555080600760006101000a81548173ffffffffffffffffffffffffffffffffffffffff021916908373ffffffffffffffffffffffffffffffffffffffff16021790555050565b600360205280600052604060002060009150905080600001805461227190614c9e565b80601f016020809104026020016040519081016040528092919081815260200182805461229d90614c9e565b80156122ea5780601f106122bf576101008083540402835291602001916122ea565b820191906000526020600020905b8154815290600101906020018083116122cd57829003601f168201915b5050505050908060010160009054906101000a900460ff16908060020154908060030154908060040154908060050154908060060160009054906101000a900460ff16908060070154905088565b600760009054906101000a900473ffffffffffffffffffffffffffffffffffffffff1681565b600a60009054906101000a900473ffffffffffffffffffffffffffffffffffffffff1673ffffffffffffffffffffffffffffffffffffffff163373ffffffffffffffffffffffffffffffffffffffff1614806124075750600b60009054906101000a900473ffffffffffffffffffffffffffffffffffffffff1673ffffffffffffffffffffffffffffffffffffffff163373ffffffffffffffffffffffffffffffffffffffff16145b612446576040517f08c379a000000000000000000000000000000000000000000000000000000000815260040161243d9061528d565b60405180910390fd5b600260008381526020019081526020016000208190806001815401808255809150506001900390600052602060002090600b02016000909190919091506000820151816000015560208201518160010190816124a2919061543a565b5060408201518160020160006101000a81548160ff021916908360038111156124ce576124cd613c9d565b5b021790555060608201518160030190816124e8919061543a565b506080820151816004015560a0820151816005015560c0820151816006015560e082015181600701556101008201518160080155610120820151816009015561014082015181600a01908161253d919061543a565b5050505050565b61254c613ac2565b6003600084815260200190815260200160002060080160008373ffffffffffffffffffffffffffffffffffffffff1673ffffffffffffffffffffffffffffffffffffffff168152602001908152602001600020604051806101200160405290816000820160009054906101000a900473ffffffffffffffffffffffffffffffffffffffff1673ffffffffffffffffffffffffffffffffffffffff1673ffffffffffffffffffffffffffffffffffffffff1681526020016001820154815260200160028201548152602001600382015481526020016004820160009054906101000a900460ff16600181111561264457612643613c9d565b5b600181111561265657612655613c9d565b5b8152602001600582015481526020016006820154815260200160078201548152602001600882015481525050905092915050565b612692613918565b6003600084815260200190815260200160002060060160009054906101000a900460ff166126f5576040517f08c379a00000000000000000000000000000000000000000000000000000000081526004016126ec9061557e565b60405180910390fd5b60008211612738576040517f08c379a000000000000000000000000000000000000000000000000000000000815260040161272f906155ea565b60405180910390fd5b6000811161277b576040517f08c379a000000000000000000000000000000000000000000000000000000000815260040161277290615656565b60405180910390fd5b816003600085815260200190815260200160002060020181905550806003600085815260200190815260200160002060030181905550827f17b8644f386d1c7c7138ef98b3c8035622bbe94d7be9b26f71d2654a547c294383836040516127e3929190613e52565b60405180910390a2505050565b6060600060045467ffffffffffffffff8111156128105761280f6145d8565b5b60405190808252806020026020018201604052801561284957816020015b612836613b36565b81526020019060019003908161282e5790505b5090506000600190505b60045481116129c757600060036000838152602001908152602001600020905060405180610120016040528083815260200182600001805461289490614c9e565b80601f01602080910402602001604051908101604052809291908181526020018280546128c090614c9e565b801561290d5780601f106128e25761010080835404028352916020019161290d565b820191906000526020600020905b8154815290600101906020018083116128f057829003601f168201915b505050505081526020018260010160009054906101000a900460ff16600381111561293b5761293a613c9d565b5b8152602001826002015481526020018260030154815260200182600401548152602001826005015481526020018260060160009054906101000a900460ff16151581526020018260070154815250836001846129979190614ed3565b815181106129a8576129a7614f07565b5b60200260200101819052505080806129bf90614fff565b915050612853565b508091505090565b6129d7613918565b6001600460008282546129ea91906150e9565b925050819055506000600360006004548152602001908152602001600020905083816000019081612a1b919061543a565b508281600201819055508181600301819055506000816004018190555060018160060160006101000a81548160ff021916908315150217905550848160010160006101000a81548160ff02191690836003811115612a7c57612a7b613c9d565b5b0217905550606481600701819055506004547ff01906dc0ac306fa816e50166a7ed46af1f05721cb90cea30beebdd8dede3a6d85604051612abd9190615676565b60405180910390a25050505050565b612ad46138c8565b600060036000848152602001908152602001600020905060008211612b2e576040517f08c379a0000000000000000000000000000000000000000000000000000000008152600401612b25906156e4565b60405180910390fd5b8060060160009054906101000a900460ff16612b7f576040517f08c379a0000000000000000000000000000000000000000000000000000000008152600401612b7690615776565b60405180910390fd5b600860009054906101000a900473ffffffffffffffffffffffffffffffffffffffff1673ffffffffffffffffffffffffffffffffffffffff16639dc29fac33846040518363ffffffff1660e01b8152600401612bdc929190614ccf565b600060405180830381600087803b158015612bf657600080fd5b505af1158015612c0a573d6000803e3d6000fd5b5050505081816004016000828254612c2291906150e9565b9250508190555060008160080160003373ffffffffffffffffffffffffffffffffffffffff1673ffffffffffffffffffffffffffffffffffffffff168152602001908152602001600020600101541115612e94576000828260080160003373ffffffffffffffffffffffffffffffffffffffff1673ffffffffffffffffffffffffffffffffffffffff16815260200190815260200160002060010154612cc891906150e9565b9050808260080160003373ffffffffffffffffffffffffffffffffffffffff1673ffffffffffffffffffffffffffffffffffffffff16815260200190815260200160002060010181905550620151808260030154612d269190615047565b42612d3191906150e9565b8260080160003373ffffffffffffffffffffffffffffffffffffffff1673ffffffffffffffffffffffffffffffffffffffff16815260200190815260200160002060070181905550428260080160003373ffffffffffffffffffffffffffffffffffffffff1673ffffffffffffffffffffffffffffffffffffffff1681526020019081526020016000206006018190555061016d6064836002015483612dd79190615047565b612de191906150b8565b612deb91906150b8565b8260080160003373ffffffffffffffffffffffffffffffffffffffff1673ffffffffffffffffffffffffffffffffffffffff16815260200190815260200160002060030181905550620151808260030154612e469190615047565b8260080160003373ffffffffffffffffffffffffffffffffffffffff1673ffffffffffffffffffffffffffffffffffffffff168152602001908152602001600020600501819055505061304e565b600061016d6064836002015485612eab9190615047565b612eb591906150b8565b612ebf91906150b8565b90506040518061012001604052803373ffffffffffffffffffffffffffffffffffffffff16815260200184815260200185815260200182815260200160006001811115612f0f57612f0e613c9d565b5b815260200183600301548152602001428152602001603c8460030154612f359190615047565b42612f4091906150e9565b815260200160008152508260080160003373ffffffffffffffffffffffffffffffffffffffff1673ffffffffffffffffffffffffffffffffffffffff16815260200190815260200160002060008201518160000160006101000a81548173ffffffffffffffffffffffffffffffffffffffff021916908373ffffffffffffffffffffffffffffffffffffffff16021790555060208201518160010155604082015181600201556060820151816003015560808201518160040160006101000a81548160ff0219169083600181111561301b5761301a613c9d565b5b021790555060a0820151816005015560c0820151816006015560e082015181600701556101008201518160080155905050505b600061305984611876565b905060005b815181101561311f57600660009054906101000a900473ffffffffffffffffffffffffffffffffffffffff1673ffffffffffffffffffffffffffffffffffffffff1663106b5da18383815181106130b8576130b7614f07565b5b6020026020010151600001516040518263ffffffff1660e01b81526004016130e0919061426d565b600060405180830381600087803b1580156130fa57600080fd5b505af115801561310e573d6000803e3d6000fd5b50505050808060010191505061305e565b506000805b600c805490508110156131b8573373ffffffffffffffffffffffffffffffffffffffff16600c828154811061315c5761315b614f07565b5b9060005260206000200160009054906101000a900473ffffffffffffffffffffffffffffffffffffffff1673ffffffffffffffffffffffffffffffffffffffff16036131ab57600191506131b8565b8080600101915050613124565b508061322257600c339080600181540180825580915050600190039060005260206000200160009091909190916101000a81548173ffffffffffffffffffffffffffffffffffffffff021916908373ffffffffffffffffffffffffffffffffffffffff1602179055505b6001600d60003373ffffffffffffffffffffffffffffffffffffffff1673ffffffffffffffffffffffffffffffffffffffff168152602001908152602001600020600082825461327291906150e9565b925050819055503373ffffffffffffffffffffffffffffffffffffffff167f6f85d9948d6ca3dd6ce6ce7d175da22b4e865827ae6fcd530ec7edac1240f92885856000016040516132c4929190614fcf565b60405180910390a25050506132d761390e565b5050565b6132e36138c8565b6000600760009054906101000a900473ffffffffffffffffffffffffffffffffffffffff1673ffffffffffffffffffffffffffffffffffffffff16633b4d01a7836040518263ffffffff1660e01b8152600401613340919061426d565b6000604051808303816000875af115801561335f573d6000803e3d6000fd5b505050506040513d6000823e3d601f19601f820116820180604052508101906133889190615a69565b905060008161010001519050600260048111156133a8576133a7613c9d565b5b8260c0015160048111156133bf576133be613c9d565b5b1480156133cd57508160e001515b61340c576040517f08c379a000000000000000000000000000000000000000000000000000000000815260040161340390615afe565b60405180910390fd5b6000600360008360a0015181526020019081526020016000209050816000015173ffffffffffffffffffffffffffffffffffffffff163373ffffffffffffffffffffffffffffffffffffffff1614613499576040517f08c379a000000000000000000000000000000000000000000000000000000000815260040161349090615b6a565b60405180910390fd5b8060060160009054906101000a900460ff166134ea576040517f08c379a00000000000000000000000000000000000000000000000000000000081526004016134e190615bd6565b60405180910390fd5b8160c0015181600401541015613535576040517f08c379a000000000000000000000000000000000000000000000000000000000815260040161352c90615c42565b60405180910390fd5b8160c0015181600501600082825461354d91906150e9565b925050819055508160c0015181600401600082825461356c9190614ed3565b9250508190555060006135828360a00151611876565b905060005b815181101561364857600660009054906101000a900473ffffffffffffffffffffffffffffffffffffffff1673ffffffffffffffffffffffffffffffffffffffff1663106b5da18383815181106135e1576135e0614f07565b5b6020026020010151600001516040518263ffffffff1660e01b8152600401613609919061426d565b600060405180830381600087803b15801561362357600080fd5b505af1158015613637573d6000803e3d6000fd5b505050508080600101915050613587565b50600760009054906101000a900473ffffffffffffffffffffffffffffffffffffffff1673ffffffffffffffffffffffffffffffffffffffff1663f1b4bf9d866040518263ffffffff1660e01b81526004016136a4919061426d565b600060405180830381600087803b1580156136be57600080fd5b505af11580156136d2573d6000803e3d6000fd5b505050507feef4955e8b18dcb6d1c19905b7b86e5fe56138ad1ce2c5e540ce4e959312f5118360a001518460c00151856000015160405161371593929190615c62565b60405180910390a1600860009054906101000a900473ffffffffffffffffffffffffffffffffffffffff1673ffffffffffffffffffffffffffffffffffffffff1663e2094eda338560c001516040518363ffffffff1660e01b815260040161377e929190614ccf565b600060405180830381600087803b15801561379857600080fd5b505af11580156137ac573d6000803e3d6000fd5b505050503373ffffffffffffffffffffffffffffffffffffffff167f415071086c9ea63f7f39884c21a8af430af53bfd511a362dff69cabcb1b8bcc1836000018560c001516040516137ff929190615c99565b60405180910390a25050505061381361390e565b50565b61381e613918565b600073ffffffffffffffffffffffffffffffffffffffff168173ffffffffffffffffffffffffffffffffffffffff16036138905760006040517f1e4fbdf70000000000000000000000000000000000000000000000000000000081526004016138879190613f6a565b60405180910390fd5b6138998161399f565b50565b60045481565b600660009054906101000a900473ffffffffffffffffffffffffffffffffffffffff1681565b600260005403613904576040517f3ee5aeb500000000000000000000000000000000000000000000000000000000815260040160405180910390fd5b6002600081905550565b6001600081905550565b613920613a65565b73ffffffffffffffffffffffffffffffffffffffff1661393e611b20565b73ffffffffffffffffffffffffffffffffffffffff161461399d57613961613a65565b6040517f118cdaa70000000000000000000000000000000000000000000000000000000081526004016139949190613f6a565b60405180910390fd5b565b6000600160009054906101000a900473ffffffffffffffffffffffffffffffffffffffff16905081600160006101000a81548173ffffffffffffffffffffffffffffffffffffffff021916908373ffffffffffffffffffffffffffffffffffffffff1602179055508173ffffffffffffffffffffffffffffffffffffffff168173ffffffffffffffffffffffffffffffffffffffff167f8be0079c531659141344cd1fd0a4f28419497f9722a3daafe3b4186f6b6457e060405160405180910390a35050565b600033905090565b6040518061014001604052806060815260200160008152602001600081526020016000815260200160008152602001600081526020016000815260200160008152602001600015158152602001600081525090565b604051806101200160405280600073ffffffffffffffffffffffffffffffffffffffff16815260200160008152602001600081526020016000815260200160006001811115613b1457613b13613c9d565b5b8152602001600081526020016000815260200160008152602001600081525090565b604051806101200160405280600081526020016060815260200160006003811115613b6457613b63613c9d565b5b815260200160008152602001600081526020016000815260200160008152602001600015158152602001600081525090565b6000604051905090565b600080fd5b600080fd5b6000819050919050565b613bbd81613baa565b8114613bc857600080fd5b50565b600081359050613bda81613bb4565b92915050565b600060208284031215613bf657613bf5613ba0565b5b6000613c0484828501613bcb565b91505092915050565b600081519050919050565b600082825260208201905092915050565b60005b83811015613c47578082015181840152602081019050613c2c565b60008484015250505050565b6000601f19601f8301169050919050565b6000613c6f82613c0d565b613c798185613c18565b9350613c89818560208601613c29565b613c9281613c53565b840191505092915050565b7f4e487b7100000000000000000000000000000000000000000000000000000000600052602160045260246000fd5b60048110613cdd57613cdc613c9d565b5b50565b6000819050613cee82613ccc565b919050565b6000613cfe82613ce0565b9050919050565b613d0e81613cf3565b82525050565b613d1d81613baa565b82525050565b60008115159050919050565b613d3881613d23565b82525050565b600060e0820190508181036000830152613d58818a613c64565b9050613d676020830189613d05565b613d746040830188613d14565b613d816060830187613d14565b613d8e6080830186613d14565b613d9b60a0830185613d2f565b613da860c0830184613d14565b98975050505050505050565b600073ffffffffffffffffffffffffffffffffffffffff82169050919050565b6000613ddf82613db4565b9050919050565b613def81613dd4565b8114613dfa57600080fd5b50565b600081359050613e0c81613de6565b92915050565b60008060408385031215613e2957613e28613ba0565b5b6000613e3785828601613bcb565b9250506020613e4885828601613dfd565b9150509250929050565b6000604082019050613e676000830185613d14565b613e746020830184613d14565b9392505050565b600081519050919050565b600082825260208201905092915050565b6000819050602082019050919050565b613eb081613dd4565b82525050565b6000613ec28383613ea7565b60208301905092915050565b6000602082019050919050565b6000613ee682613e7b565b613ef08185613e86565b9350613efb83613e97565b8060005b83811015613f2c578151613f138882613eb6565b9750613f1e83613ece565b925050600181019050613eff565b5085935050505092915050565b60006020820190508181036000830152613f538184613edb565b905092915050565b613f6481613dd4565b82525050565b6000602082019050613f7f6000830184613f5b565b92915050565b6000602082019050613f9a6000830184613d2f565b92915050565b600060208284031215613fb657613fb5613ba0565b5b6000613fc484828501613dfd565b91505092915050565b600081519050919050565b600082825260208201905092915050565b6000819050602082019050919050565b600082825260208201905092915050565b600061401582613c0d565b61401f8185613ff9565b935061402f818560208601613c29565b61403881613c53565b840191505092915050565b61404c81613baa565b82525050565b61405b81613d23565b82525050565b600061014083016000830151848203600086015261407f828261400a565b91505060208301516140946020860182614043565b5060408301516140a76040860182614043565b5060608301516140ba6060860182614043565b5060808301516140cd6080860182614043565b5060a08301516140e060a0860182614043565b5060c08301516140f360c0860182614043565b5060e083015161410660e0860182614043565b5061010083015161411b610100860182614052565b50610120830151614130610120860182614043565b508091505092915050565b60006141478383614061565b905092915050565b6000602082019050919050565b600061416782613fcd565b6141718185613fd8565b93508360208202850161418385613fe9565b8060005b858110156141bf57848403895281516141a0858261413b565b94506141ab8361414f565b925060208a01995050600181019050614187565b50829750879550505050505092915050565b600060208201905081810360008301526141eb818461415c565b905092915050565b6000819050919050565b600061421861421361420e84613db4565b6141f3565b613db4565b9050919050565b600061422a826141fd565b9050919050565b600061423c8261421f565b9050919050565b61424c81614231565b82525050565b60006020820190506142676000830184614243565b92915050565b60006020820190506142826000830184613d14565b92915050565b6002811061429957614298613c9d565b5b50565b60008190506142aa82614288565b919050565b60006142ba8261429c565b9050919050565b6142ca816142af565b82525050565b610120820160008201516142e76000850182613ea7565b5060208201516142fa6020850182614043565b50604082015161430d6040850182614043565b5060608201516143206060850182614043565b50608082015161433360808501826142c1565b5060a082015161434660a0850182614043565b5060c082015161435960c0850182614043565b5060e082015161436c60e0850182614043565b50610100820151614381610100850182614043565b50505050565b60006101208201905061439d60008301846142d0565b92915050565b600081519050919050565b600082825260208201905092915050565b6000819050602082019050919050565b6143d881613cf3565b82525050565b6000610160830160008301516143f76000860182614043565b506020830151848203602086015261440f828261400a565b915050604083015161442460408601826143cf565b506060830151848203606086015261443c828261400a565b91505060808301516144516080860182614043565b5060a083015161446460a0860182614043565b5060c083015161447760c0860182614043565b5060e083015161448a60e0860182614043565b5061010083015161449f610100860182614043565b506101208301516144b4610120860182614043565b506101408301518482036101408601526144ce828261400a565b9150508091505092915050565b60006144e783836143de565b905092915050565b6000602082019050919050565b6000614507826143a3565b61451181856143ae565b935083602082028501614523856143bf565b8060005b8581101561455f578484038952815161454085826144db565b945061454b836144ef565b925060208a01995050600181019050614527565b50829750879550505050505092915050565b6000602082019050818103600083015261458b81846144fc565b905092915050565b600080604083850312156145aa576145a9613ba0565b5b60006145b885828601613bcb565b92505060206145c985828601613bcb565b9150509250929050565b600080fd5b7f4e487b7100000000000000000000000000000000000000000000000000000000600052604160045260246000fd5b61461082613c53565b810181811067ffffffffffffffff8211171561462f5761462e6145d8565b5b80604052505050565b6000614642613b96565b905061464e8282614607565b919050565b600080fd5b600080fd5b600080fd5b600067ffffffffffffffff82111561467d5761467c6145d8565b5b61468682613c53565b9050602081019050919050565b82818337600083830152505050565b60006146b56146b084614662565b614638565b9050828152602081018484840111156146d1576146d061465d565b5b6146dc848285614693565b509392505050565b600082601f8301126146f9576146f8614658565b5b81356147098482602086016146a2565b91505092915050565b6004811061471f57600080fd5b50565b60008135905061473181614712565b92915050565b6000610160828403121561474e5761474d6145d3565b5b614759610160614638565b9050600061476984828501613bcb565b600083015250602082013567ffffffffffffffff81111561478d5761478c614653565b5b614799848285016146e4565b60208301525060406147ad84828501614722565b604083015250606082013567ffffffffffffffff8111156147d1576147d0614653565b5b6147dd848285016146e4565b60608301525060806147f184828501613bcb565b60808301525060a061480584828501613bcb565b60a08301525060c061481984828501613bcb565b60c08301525060e061482d84828501613bcb565b60e08301525061010061484284828501613bcb565b6101008301525061012061485884828501613bcb565b6101208301525061014082013567ffffffffffffffff81111561487e5761487d614653565b5b61488a848285016146e4565b6101408301525092915050565b600080604083850312156148ae576148ad613ba0565b5b60006148bc85828601613bcb565b925050602083013567ffffffffffffffff8111156148dd576148dc613ba5565b5b6148e985828601614737565b9150509250929050565b600061010082019050818103600083015261490e818b613c64565b905061491d602083018a613d05565b61492a6040830189613d14565b6149376060830188613d14565b6149446080830187613d14565b61495160a0830186613d14565b61495e60c0830185613d2f565b61496b60e0830184613d14565b9998505050505050505050565b60006149838261421f565b9050919050565b61499381614978565b82525050565b60006020820190506149ae600083018461498a565b92915050565b6000806000606084860312156149cd576149cc613ba0565b5b60006149db86828701613bcb565b93505060206149ec86828701613bcb565b92505060406149fd86828701613bcb565b9150509250925092565b600081519050919050565b600082825260208201905092915050565b6000819050602082019050919050565b600061012083016000830151614a4c6000860182614043565b5060208301518482036020860152614a64828261400a565b9150506040830151614a7960408601826143cf565b506060830151614a8c6060860182614043565b506080830151614a9f6080860182614043565b5060a0830151614ab260a0860182614043565b5060c0830151614ac560c0860182614043565b5060e0830151614ad860e0860182614052565b50610100830151614aed610100860182614043565b508091505092915050565b6000614b048383614a33565b905092915050565b6000602082019050919050565b6000614b2482614a07565b614b2e8185614a12565b935083602082028501614b4085614a23565b8060005b85811015614b7c5784840389528151614b5d8582614af8565b9450614b6883614b0c565b925060208a01995050600181019050614b44565b50829750879550505050505092915050565b60006020820190508181036000830152614ba88184614b19565b905092915050565b60008060008060808587031215614bca57614bc9613ba0565b5b6000614bd887828801614722565b945050602085013567ffffffffffffffff811115614bf957614bf8613ba5565b5b614c05878288016146e4565b9350506040614c1687828801613bcb565b9250506060614c2787828801613bcb565b91505092959194509250565b6000614c3e8261421f565b9050919050565b614c4e81614c33565b82525050565b6000602082019050614c696000830184614c45565b92915050565b7f4e487b7100000000000000000000000000000000000000000000000000000000600052602260045260246000fd5b60006002820490506001821680614cb657607f821691505b602082108103614cc957614cc8614c6f565b5b50919050565b6000604082019050614ce46000830185613f5b565b614cf16020830184613d14565b9392505050565b600081519050614d0781613bb4565b92915050565b600060208284031215614d2357614d22613ba0565b5b6000614d3184828501614cf8565b91505092915050565b7f4e6f206465706f73697420666f756e6420666f7220746869732061646472657360008201527f7300000000000000000000000000000000000000000000000000000000000000602082015250565b6000614d96602183613c18565b9150614da182614d3a565b604082019050919050565b60006020820190508181036000830152614dc581614d89565b9050919050565b7f4465706f736974206973206e6f74206163746976650000000000000000000000600082015250565b6000614e02601583613c18565b9150614e0d82614dcc565b602082019050919050565b60006020820190508181036000830152614e3181614df5565b9050919050565b7f4465706f73697420706572696f6420686173206e6f7420656e64656400000000600082015250565b6000614e6e601c83613c18565b9150614e7982614e38565b602082019050919050565b60006020820190508181036000830152614e9d81614e61565b9050919050565b7f4e487b7100000000000000000000000000000000000000000000000000000000600052601160045260246000fd5b6000614ede82613baa565b9150614ee983613baa565b9250828203905081811115614f0157614f00614ea4565b5b92915050565b7f4e487b7100000000000000000000000000000000000000000000000000000000600052603260045260246000fd5b60008190508160005260206000209050919050565b60008154614f5881614c9e565b614f628186613c18565b94506001821660008114614f7d5760018114614f9357614fc6565b60ff198316865281151560200286019350614fc6565b614f9c85614f36565b60005b83811015614fbe57815481890152600182019150602081019050614f9f565b808801955050505b50505092915050565b6000604082019050614fe46000830185613d14565b8181036020830152614ff68184614f4b565b90509392505050565b600061500a82613baa565b91507fffffffffffffffffffffffffffffffffffffffffffffffffffffffffffffffff820361503c5761503b614ea4565b5b600182019050919050565b600061505282613baa565b915061505d83613baa565b925082820261506b81613baa565b9150828204841483151761508257615081614ea4565b5b5092915050565b7f4e487b7100000000000000000000000000000000000000000000000000000000600052601260045260246000fd5b60006150c382613baa565b91506150ce83613baa565b9250826150de576150dd615089565b5b828204905092915050565b60006150f482613baa565b91506150ff83613baa565b925082820190508082111561511757615116614ea4565b5b92915050565b7f476f7665726e616e636520616c72656164792073657400000000000000000000600082015250565b6000615153601683613c18565b915061515e8261511d565b602082019050919050565b6000602082019050818103600083015261518281615146565b9050919050565b7f476f7665726e616e636520616464726573732063616e6e6f74206265207a657260008201527f6f00000000000000000000000000000000000000000000000000000000000000602082015250565b60006151e5602183613c18565b91506151f082615189565b604082019050919050565b60006020820190508181036000830152615214816151d8565b9050919050565b7f43616c6c6572206973206e6f742074686520676f7665726e616e636520636f6e60008201527f7472616374000000000000000000000000000000000000000000000000000000602082015250565b6000615277602583613c18565b91506152828261521b565b604082019050919050565b600060208201905081810360008301526152a68161526a565b9050919050565b60006020601f8301049050919050565b600082821b905092915050565b6000600883026152fa7fffffffffffffffffffffffffffffffffffffffffffffffffffffffffffffffff826152bd565b61530486836152bd565b95508019841693508086168417925050509392505050565b600061533761533261532d84613baa565b6141f3565b613baa565b9050919050565b6000819050919050565b6153518361531c565b61536561535d8261533e565b8484546152ca565b825550505050565b600090565b61537a61536d565b615385818484615348565b505050565b5b818110156153a95761539e600082615372565b60018101905061538b565b5050565b601f8211156153ee576153bf81614f36565b6153c8846152ad565b810160208510156153d7578190505b6153eb6153e3856152ad565b83018261538a565b50505b505050565b600082821c905092915050565b6000615411600019846008026153f3565b1980831691505092915050565b600061542a8383615400565b9150826002028217905092915050565b61544382613c0d565b67ffffffffffffffff81111561545c5761545b6145d8565b5b6154668254614c9e565b6154718282856153ad565b600060209050601f8311600181146154a45760008415615492578287015190505b61549c858261541e565b865550615504565b601f1984166154b286614f36565b60005b828110156154da578489015182556001820191506020850194506020810190506154b5565b868310156154f757848901516154f3601f891682615400565b8355505b6001600288020188555050505b505050505050565b7f506f6f6c20646f6573206e6f74206578697374206f7220697320696e6163746960008201527f7665000000000000000000000000000000000000000000000000000000000000602082015250565b6000615568602283613c18565b91506155738261550c565b604082019050919050565b600060208201905081810360008301526155978161555b565b9050919050565b7f496e76616c696420415059000000000000000000000000000000000000000000600082015250565b60006155d4600b83613c18565b91506155df8261559e565b602082019050919050565b60006020820190508181036000830152615603816155c7565b9050919050565b7f496e76616c6964206d696e696d756d20706572696f6400000000000000000000600082015250565b6000615640601683613c18565b915061564b8261560a565b602082019050919050565b6000602082019050818103600083015261566f81615633565b9050919050565b600060208201905081810360008301526156908184613c64565b905092915050565b7f416d6f756e74206d7573742062652067726561746572207468616e2030000000600082015250565b60006156ce601d83613c18565b91506156d982615698565b602082019050919050565b600060208201905081810360008301526156fd816156c1565b9050919050565b7f506f6f6c20697320696e616374697665206f7220646f6573206e6f742065786960008201527f7374000000000000000000000000000000000000000000000000000000000000602082015250565b6000615760602283613c18565b915061576b82615704565b604082019050919050565b6000602082019050818103600083015261578f81615753565b9050919050565b600581106157a357600080fd5b50565b6000815190506157b581615796565b92915050565b6157c481613d23565b81146157cf57600080fd5b50565b6000815190506157e1816157bb565b92915050565b6000815190506157f681613de6565b92915050565b60008151905061580b81614712565b92915050565b600061582461581f84614662565b614638565b9050828152602081018484840111156158405761583f61465d565b5b61584b848285613c29565b509392505050565b600082601f83011261586857615867614658565b5b8151615878848260208601615811565b91505092915050565b600060e08284031215615897576158966145d3565b5b6158a160e0614638565b905060006158b1848285016157e7565b60008301525060206158c5848285016157fc565b60208301525060406158d984828501614cf8565b604083015250606082015167ffffffffffffffff8111156158fd576158fc614653565b5b61590984828501615853565b606083015250608082015167ffffffffffffffff81111561592d5761592c614653565b5b61593984828501615853565b60808301525060a061594d84828501614cf8565b60a08301525060c061596184828501614cf8565b60c08301525092915050565b60006101208284031215615984576159836145d3565b5b61598f610120614638565b9050600061599f84828501614cf8565b60008301525060206159b384828501614cf8565b60208301525060406159c784828501614cf8565b60408301525060606159db84828501614cf8565b60608301525060806159ef84828501614cf8565b60808301525060a0615a0384828501614cf8565b60a08301525060c0615a17848285016157a6565b60c08301525060e0615a2b848285016157d2565b60e08301525061010082015167ffffffffffffffff811115615a5057615a4f614653565b5b615a5c84828501615881565b6101008301525092915050565b600060208284031215615a7f57615a7e613ba0565b5b600082015167ffffffffffffffff811115615a9d57615a9c613ba5565b5b615aa98482850161596d565b91505092915050565b7f50726f706f73616c206e6f7420617070726f7665640000000000000000000000600082015250565b6000615ae8601583613c18565b9150615af382615ab2565b602082019050919050565b60006020820190508181036000830152615b1781615adb565b9050919050565b7f4e6f7420612076616c69642070726f706f73616c000000000000000000000000600082015250565b6000615b54601483613c18565b9150615b5f82615b1e565b602082019050919050565b60006020820190508181036000830152615b8381615b47565b9050919050565b7f506f6f6c206973206e6f74206163746976650000000000000000000000000000600082015250565b6000615bc0601283613c18565b9150615bcb82615b8a565b602082019050919050565b60006020820190508181036000830152615bef81615bb3565b9050919050565b7f4e6f7420656e6f7567682066756e647320696e2074686520706f6f6c00000000600082015250565b6000615c2c601c83613c18565b9150615c3782615bf6565b602082019050919050565b60006020820190508181036000830152615c5b81615c1f565b9050919050565b6000606082019050615c776000830186613d14565b615c846020830185613d14565b615c916040830184613f5b565b949350505050565b60006040820190508181036000830152615cb38185614f4b565b9050615cc26020830184613d14565b939250505056fea2646970667358221220126d700d81f7c0ed11e230fb08e03eda3faf02865379bc4fda4da6ac76bc623c64736f6c63430008180033","opcodes":"PUSH1 0x80 PUSH1 0x40 MSTORE CALLVALUE DUP1 ISZERO PUSH3 0x11 JUMPI PUSH1 0x0 DUP1 REVERT JUMPDEST POP PUSH1 0x40 MLOAD PUSH3 0x6046 CODESIZE SUB DUP1 PUSH3 0x6046 DUP4 CODECOPY DUP2 DUP2 ADD PUSH1 0x40 MSTORE DUP2 ADD SWAP1 PUSH3 0x37 SWAP2 SWAP1 PUSH3 0x2C2 JUMP JUMPDEST DUP2 PUSH1 0x1 PUSH1 0x0 DUP2 SWAP1 SSTORE POP PUSH1 0x0 PUSH20 0xFFFFFFFFFFFFFFFFFFFFFFFFFFFFFFFFFFFFFFFF AND DUP2 PUSH20 0xFFFFFFFFFFFFFFFFFFFFFFFFFFFFFFFFFFFFFFFF AND SUB PUSH3 0xB5 JUMPI PUSH1 0x0 PUSH1 0x40 MLOAD PUSH32 0x1E4FBDF700000000000000000000000000000000000000000000000000000000 DUP2 MSTORE PUSH1 0x4 ADD PUSH3 0xAC SWAP2 SWAP1 PUSH3 0x31A JUMP JUMPDEST PUSH1 0x40 MLOAD DUP1 SWAP2 SUB SWAP1 REVERT JUMPDEST PUSH3 0xC6 DUP2 PUSH3 0x192 PUSH1 0x20 SHL PUSH1 0x20 SHR JUMP JUMPDEST POP DUP2 PUSH1 0xB PUSH1 0x0 PUSH2 0x100 EXP DUP2 SLOAD DUP2 PUSH20 0xFFFFFFFFFFFFFFFFFFFFFFFFFFFFFFFFFFFFFFFF MUL NOT AND SWAP1 DUP4 PUSH20 0xFFFFFFFFFFFFFFFFFFFFFFFFFFFFFFFFFFFFFFFF AND MUL OR SWAP1 SSTORE POP DUP1 PUSH1 0x8 PUSH1 0x0 PUSH2 0x100 EXP DUP2 SLOAD DUP2 PUSH20 0xFFFFFFFFFFFFFFFFFFFFFFFFFFFFFFFFFFFFFFFF MUL NOT AND SWAP1 DUP4 PUSH20 0xFFFFFFFFFFFFFFFFFFFFFFFFFFFFFFFFFFFFFFFF AND MUL OR SWAP1 SSTORE POP DUP1 PUSH1 0x9 PUSH1 0x0 PUSH2 0x100 EXP DUP2 SLOAD DUP2 PUSH20 0xFFFFFFFFFFFFFFFFFFFFFFFFFFFFFFFFFFFFFFFF MUL NOT AND SWAP1 DUP4 PUSH20 0xFFFFFFFFFFFFFFFFFFFFFFFFFFFFFFFFFFFFFFFF AND MUL OR SWAP1 SSTORE POP POP POP PUSH3 0x337 JUMP JUMPDEST PUSH1 0x0 PUSH1 0x1 PUSH1 0x0 SWAP1 SLOAD SWAP1 PUSH2 0x100 EXP SWAP1 DIV PUSH20 0xFFFFFFFFFFFFFFFFFFFFFFFFFFFFFFFFFFFFFFFF AND SWAP1 POP DUP2 PUSH1 0x1 PUSH1 0x0 PUSH2 0x100 EXP DUP2 SLOAD DUP2 PUSH20 0xFFFFFFFFFFFFFFFFFFFFFFFFFFFFFFFFFFFFFFFF MUL NOT AND SWAP1 DUP4 PUSH20 0xFFFFFFFFFFFFFFFFFFFFFFFFFFFFFFFFFFFFFFFF AND MUL OR SWAP1 SSTORE POP DUP2 PUSH20 0xFFFFFFFFFFFFFFFFFFFFFFFFFFFFFFFFFFFFFFFF AND DUP2 PUSH20 0xFFFFFFFFFFFFFFFFFFFFFFFFFFFFFFFFFFFFFFFF AND PUSH32 0x8BE0079C531659141344CD1FD0A4F28419497F9722A3DAAFE3B4186F6B6457E0 PUSH1 0x40 MLOAD PUSH1 0x40 MLOAD DUP1 SWAP2 SUB SWAP1 LOG3 POP POP JUMP JUMPDEST PUSH1 0x0 DUP1 REVERT JUMPDEST PUSH1 0x0 PUSH20 0xFFFFFFFFFFFFFFFFFFFFFFFFFFFFFFFFFFFFFFFF DUP3 AND SWAP1 POP SWAP2 SWAP1 POP JUMP JUMPDEST PUSH1 0x0 PUSH3 0x28A DUP3 PUSH3 0x25D JUMP JUMPDEST SWAP1 POP SWAP2 SWAP1 POP JUMP JUMPDEST PUSH3 0x29C DUP2 PUSH3 0x27D JUMP JUMPDEST DUP2 EQ PUSH3 0x2A8 JUMPI PUSH1 0x0 DUP1 REVERT JUMPDEST POP JUMP JUMPDEST PUSH1 0x0 DUP2 MLOAD SWAP1 POP PUSH3 0x2BC DUP2 PUSH3 0x291 JUMP JUMPDEST SWAP3 SWAP2 POP POP JUMP JUMPDEST PUSH1 0x0 DUP1 PUSH1 0x40 DUP4 DUP6 SUB SLT ISZERO PUSH3 0x2DC JUMPI PUSH3 0x2DB PUSH3 0x258 JUMP JUMPDEST JUMPDEST PUSH1 0x0 PUSH3 0x2EC DUP6 DUP3 DUP7 ADD PUSH3 0x2AB JUMP JUMPDEST SWAP3 POP POP PUSH1 0x20 PUSH3 0x2FF DUP6 DUP3 DUP7 ADD PUSH3 0x2AB JUMP JUMPDEST SWAP2 POP POP SWAP3 POP SWAP3 SWAP1 POP JUMP JUMPDEST PUSH3 0x314 DUP2 PUSH3 0x27D JUMP JUMPDEST DUP3 MSTORE POP POP JUMP JUMPDEST PUSH1 0x0 PUSH1 0x20 DUP3 ADD SWAP1 POP PUSH3 0x331 PUSH1 0x0 DUP4 ADD DUP5 PUSH3 0x309 JUMP JUMPDEST SWAP3 SWAP2 POP POP JUMP JUMPDEST PUSH2 0x5CFF DUP1 PUSH3 0x347 PUSH1 0x0 CODECOPY PUSH1 0x0 RETURN INVALID PUSH1 0x80 PUSH1 0x40 MSTORE CALLVALUE DUP1 ISZERO PUSH2 0x10 JUMPI PUSH1 0x0 DUP1 REVERT JUMPDEST POP PUSH1 0x4 CALLDATASIZE LT PUSH2 0x227 JUMPI PUSH1 0x0 CALLDATALOAD PUSH1 0xE0 SHR DUP1 PUSH4 0x96F3A8AD GT PUSH2 0x130 JUMPI DUP1 PUSH4 0xC7AA9874 GT PUSH2 0xB8 JUMPI DUP1 PUSH4 0xE2BBB158 GT PUSH2 0x7C JUMPI DUP1 PUSH4 0xE2BBB158 EQ PUSH2 0x6AA JUMPI DUP1 PUSH4 0xE35F8129 EQ PUSH2 0x6C6 JUMPI DUP1 PUSH4 0xF2FDE38B EQ PUSH2 0x6E2 JUMPI DUP1 PUSH4 0xF525CB68 EQ PUSH2 0x6FE JUMPI DUP1 PUSH4 0xF6E80558 EQ PUSH2 0x71C JUMPI PUSH2 0x227 JUMP JUMPDEST DUP1 PUSH4 0xC7AA9874 EQ PUSH2 0x608 JUMPI DUP1 PUSH4 0xCD16D3DD EQ PUSH2 0x624 JUMPI DUP1 PUSH4 0xD86C0444 EQ PUSH2 0x654 JUMPI DUP1 PUSH4 0xD88FF1F4 EQ PUSH2 0x670 JUMPI DUP1 PUSH4 0xDA533FD3 EQ PUSH2 0x68E JUMPI PUSH2 0x227 JUMP JUMPDEST DUP1 PUSH4 0xA14764D0 GT PUSH2 0xFF JUMPI DUP1 PUSH4 0xA14764D0 EQ PUSH2 0x55F JUMPI DUP1 PUSH4 0xA4948D85 EQ PUSH2 0x57B JUMPI DUP1 PUSH4 0xAB033EA9 EQ PUSH2 0x597 JUMPI DUP1 PUSH4 0xAC4AFA38 EQ PUSH2 0x5B3 JUMPI DUP1 PUSH4 0xB5D90C28 EQ PUSH2 0x5EA JUMPI PUSH2 0x227 JUMP JUMPDEST DUP1 PUSH4 0x96F3A8AD EQ PUSH2 0x4D9 JUMPI DUP1 PUSH4 0x996B8A6F EQ PUSH2 0x509 JUMPI DUP1 PUSH4 0x9ABD9B05 EQ PUSH2 0x527 JUMPI DUP1 PUSH4 0x9FD36B15 EQ PUSH2 0x543 JUMPI PUSH2 0x227 JUMP JUMPDEST DUP1 PUSH4 0x35C1D349 GT PUSH2 0x1B3 JUMPI DUP1 PUSH4 0x715018A6 GT PUSH2 0x182 JUMPI DUP1 PUSH4 0x715018A6 EQ PUSH2 0x435 JUMPI DUP1 PUSH4 0x7C366CC6 EQ PUSH2 0x43F JUMPI DUP1 PUSH4 0x7EB111F0 EQ PUSH2 0x45B JUMPI DUP1 PUSH4 0x8DA5CB5B EQ PUSH2 0x48B JUMPI DUP1 PUSH4 0x8F244630 EQ PUSH2 0x4A9 JUMPI PUSH2 0x227 JUMP JUMPDEST DUP1 PUSH4 0x35C1D349 EQ PUSH2 0x387 JUMPI DUP1 PUSH4 0x46F84795 EQ PUSH2 0x3B7 JUMPI DUP1 PUSH4 0x4E055244 EQ PUSH2 0x3E7 JUMPI DUP1 PUSH4 0x5AA6E675 EQ PUSH2 0x417 JUMPI PUSH2 0x227 JUMP JUMPDEST DUP1 PUSH4 0x25F11E8D GT PUSH2 0x1FA JUMPI DUP1 PUSH4 0x25F11E8D EQ PUSH2 0x2CF JUMPI DUP1 PUSH4 0x29BA7BB2 EQ PUSH2 0x2FF JUMPI DUP1 PUSH4 0x2E1A7D4D EQ PUSH2 0x31D JUMPI DUP1 PUSH4 0x31866763 EQ PUSH2 0x339 JUMPI DUP1 PUSH4 0x34808EC3 EQ PUSH2 0x369 JUMPI PUSH2 0x227 JUMP JUMPDEST DUP1 PUSH4 0x68BCD8D EQ PUSH2 0x22C JUMPI DUP1 PUSH4 0x143FD7C6 EQ PUSH2 0x262 JUMPI DUP1 PUSH4 0x195EC9EE EQ PUSH2 0x293 JUMPI DUP1 PUSH4 0x248A75B7 EQ PUSH2 0x2B1 JUMPI JUMPDEST PUSH1 0x0 DUP1 REVERT JUMPDEST PUSH2 0x246 PUSH1 0x4 DUP1 CALLDATASIZE SUB DUP2 ADD SWAP1 PUSH2 0x241 SWAP2 SWAP1 PUSH2 0x3BE0 JUMP JUMPDEST PUSH2 0x73A JUMP JUMPDEST PUSH1 0x40 MLOAD PUSH2 0x259 SWAP8 SWAP7 SWAP6 SWAP5 SWAP4 SWAP3 SWAP2 SWAP1 PUSH2 0x3D3E JUMP JUMPDEST PUSH1 0x40 MLOAD DUP1 SWAP2 SUB SWAP1 RETURN JUMPDEST PUSH2 0x27C PUSH1 0x4 DUP1 CALLDATASIZE SUB DUP2 ADD SWAP1 PUSH2 0x277 SWAP2 SWAP1 PUSH2 0x3E12 JUMP JUMPDEST PUSH2 0x83E JUMP JUMPDEST PUSH1 0x40 MLOAD PUSH2 0x28A SWAP3 SWAP2 SWAP1 PUSH2 0x3E52 JUMP JUMPDEST PUSH1 0x40 MLOAD DUP1 SWAP2 SUB SWAP1 RETURN JUMPDEST PUSH2 0x29B PUSH2 0x994 JUMP JUMPDEST PUSH1 0x40 MLOAD PUSH2 0x2A8 SWAP2 SWAP1 PUSH2 0x3F39 JUMP JUMPDEST PUSH1 0x40 MLOAD DUP1 SWAP2 SUB SWAP1 RETURN JUMPDEST PUSH2 0x2B9 PUSH2 0xA22 JUMP JUMPDEST PUSH1 0x40 MLOAD PUSH2 0x2C6 SWAP2 SWAP1 PUSH2 0x3F6A JUMP JUMPDEST PUSH1 0x40 MLOAD DUP1 SWAP2 SUB SWAP1 RETURN JUMPDEST PUSH2 0x2E9 PUSH1 0x4 DUP1 CALLDATASIZE SUB DUP2 ADD SWAP1 PUSH2 0x2E4 SWAP2 SWAP1 PUSH2 0x3BE0 JUMP JUMPDEST PUSH2 0xA48 JUMP JUMPDEST PUSH1 0x40 MLOAD PUSH2 0x2F6 SWAP2 SWAP1 PUSH2 0x3F85 JUMP JUMPDEST PUSH1 0x40 MLOAD DUP1 SWAP2 SUB SWAP1 RETURN JUMPDEST PUSH2 0x307 PUSH2 0xA7A JUMP JUMPDEST PUSH1 0x40 MLOAD PUSH2 0x314 SWAP2 SWAP1 PUSH2 0x3F6A JUMP JUMPDEST PUSH1 0x40 MLOAD DUP1 SWAP2 SUB SWAP1 RETURN JUMPDEST PUSH2 0x337 PUSH1 0x4 DUP1 CALLDATASIZE SUB DUP2 ADD SWAP1 PUSH2 0x332 SWAP2 SWAP1 PUSH2 0x3BE0 JUMP JUMPDEST PUSH2 0xAA0 JUMP JUMPDEST STOP JUMPDEST PUSH2 0x353 PUSH1 0x4 DUP1 CALLDATASIZE SUB DUP2 ADD SWAP1 PUSH2 0x34E SWAP2 SWAP1 PUSH2 0x3FA0 JUMP JUMPDEST PUSH2 0xE20 JUMP JUMPDEST PUSH1 0x40 MLOAD PUSH2 0x360 SWAP2 SWAP1 PUSH2 0x41D1 JUMP JUMPDEST PUSH1 0x40 MLOAD DUP1 SWAP2 SUB SWAP1 RETURN JUMPDEST PUSH2 0x371 PUSH2 0x1343 JUMP JUMPDEST PUSH1 0x40 MLOAD PUSH2 0x37E SWAP2 SWAP1 PUSH2 0x4252 JUMP JUMPDEST PUSH1 0x40 MLOAD DUP1 SWAP2 SUB SWAP1 RETURN JUMPDEST PUSH2 0x3A1 PUSH1 0x4 DUP1 CALLDATASIZE SUB DUP2 ADD SWAP1 PUSH2 0x39C SWAP2 SWAP1 PUSH2 0x3BE0 JUMP JUMPDEST PUSH2 0x1369 JUMP JUMPDEST PUSH1 0x40 MLOAD PUSH2 0x3AE SWAP2 SWAP1 PUSH2 0x3F6A JUMP JUMPDEST PUSH1 0x40 MLOAD DUP1 SWAP2 SUB SWAP1 RETURN JUMPDEST PUSH2 0x3D1 PUSH1 0x4 DUP1 CALLDATASIZE SUB DUP2 ADD SWAP1 PUSH2 0x3CC SWAP2 SWAP1 PUSH2 0x3FA0 JUMP JUMPDEST PUSH2 0x13A8 JUMP JUMPDEST PUSH1 0x40 MLOAD PUSH2 0x3DE SWAP2 SWAP1 PUSH2 0x426D JUMP JUMPDEST PUSH1 0x40 MLOAD DUP1 SWAP2 SUB SWAP1 RETURN JUMPDEST PUSH2 0x401 PUSH1 0x4 DUP1 CALLDATASIZE SUB DUP2 ADD SWAP1 PUSH2 0x3FC SWAP2 SWAP1 PUSH2 0x3E12 JUMP JUMPDEST PUSH2 0x13F1 JUMP JUMPDEST PUSH1 0x40 MLOAD PUSH2 0x40E SWAP2 SWAP1 PUSH2 0x4387 JUMP JUMPDEST PUSH1 0x40 MLOAD DUP1 SWAP2 SUB SWAP1 RETURN JUMPDEST PUSH2 0x41F PUSH2 0x16AF JUMP JUMPDEST PUSH1 0x40 MLOAD PUSH2 0x42C SWAP2 SWAP1 PUSH2 0x3F6A JUMP JUMPDEST PUSH1 0x40 MLOAD DUP1 SWAP2 SUB SWAP1 RETURN JUMPDEST PUSH2 0x43D PUSH2 0x16D5 JUMP JUMPDEST STOP JUMPDEST PUSH2 0x459 PUSH1 0x4 DUP1 CALLDATASIZE SUB DUP2 ADD SWAP1 PUSH2 0x454 SWAP2 SWAP1 PUSH2 0x3FA0 JUMP JUMPDEST PUSH2 0x16E9 JUMP JUMPDEST STOP JUMPDEST PUSH2 0x475 PUSH1 0x4 DUP1 CALLDATASIZE SUB DUP2 ADD SWAP1 PUSH2 0x470 SWAP2 SWAP1 PUSH2 0x3BE0 JUMP JUMPDEST PUSH2 0x1876 JUMP JUMPDEST PUSH1 0x40 MLOAD PUSH2 0x482 SWAP2 SWAP1 PUSH2 0x4571 JUMP JUMPDEST PUSH1 0x40 MLOAD DUP1 SWAP2 SUB SWAP1 RETURN JUMPDEST PUSH2 0x493 PUSH2 0x1B20 JUMP JUMPDEST PUSH1 0x40 MLOAD PUSH2 0x4A0 SWAP2 SWAP1 PUSH2 0x3F6A JUMP JUMPDEST PUSH1 0x40 MLOAD DUP1 SWAP2 SUB SWAP1 RETURN JUMPDEST PUSH2 0x4C3 PUSH1 0x4 DUP1 CALLDATASIZE SUB DUP2 ADD SWAP1 PUSH2 0x4BE SWAP2 SWAP1 PUSH2 0x3BE0 JUMP JUMPDEST PUSH2 0x1B4A JUMP JUMPDEST PUSH1 0x40 MLOAD PUSH2 0x4D0 SWAP2 SWAP1 PUSH2 0x426D JUMP JUMPDEST PUSH1 0x40 MLOAD DUP1 SWAP2 SUB SWAP1 RETURN JUMPDEST PUSH2 0x4F3 PUSH1 0x4 DUP1 CALLDATASIZE SUB DUP2 ADD SWAP1 PUSH2 0x4EE SWAP2 SWAP1 PUSH2 0x3FA0 JUMP JUMPDEST PUSH2 0x1B6A JUMP JUMPDEST PUSH1 0x40 MLOAD PUSH2 0x500 SWAP2 SWAP1 PUSH2 0x426D JUMP JUMPDEST PUSH1 0x40 MLOAD DUP1 SWAP2 SUB SWAP1 RETURN JUMPDEST PUSH2 0x511 PUSH2 0x1B82 JUMP JUMPDEST PUSH1 0x40 MLOAD PUSH2 0x51E SWAP2 SWAP1 PUSH2 0x3F6A JUMP JUMPDEST PUSH1 0x40 MLOAD DUP1 SWAP2 SUB SWAP1 RETURN JUMPDEST PUSH2 0x541 PUSH1 0x4 DUP1 CALLDATASIZE SUB DUP2 ADD SWAP1 PUSH2 0x53C SWAP2 SWAP1 PUSH2 0x3BE0 JUMP JUMPDEST PUSH2 0x1BA8 JUMP JUMPDEST STOP JUMPDEST PUSH2 0x55D PUSH1 0x4 DUP1 CALLDATASIZE SUB DUP2 ADD SWAP1 PUSH2 0x558 SWAP2 SWAP1 PUSH2 0x4593 JUMP JUMPDEST PUSH2 0x1C3C JUMP JUMPDEST STOP JUMPDEST PUSH2 0x579 PUSH1 0x4 DUP1 CALLDATASIZE SUB DUP2 ADD SWAP1 PUSH2 0x574 SWAP2 SWAP1 PUSH2 0x4897 JUMP JUMPDEST PUSH2 0x1D55 JUMP JUMPDEST STOP JUMPDEST PUSH2 0x595 PUSH1 0x4 DUP1 CALLDATASIZE SUB DUP2 ADD SWAP1 PUSH2 0x590 SWAP2 SWAP1 PUSH2 0x4593 JUMP JUMPDEST PUSH2 0x1FA8 JUMP JUMPDEST STOP JUMPDEST PUSH2 0x5B1 PUSH1 0x4 DUP1 CALLDATASIZE SUB DUP2 ADD SWAP1 PUSH2 0x5AC SWAP2 SWAP1 PUSH2 0x3FA0 JUMP JUMPDEST PUSH2 0x20C1 JUMP JUMPDEST STOP JUMPDEST PUSH2 0x5CD PUSH1 0x4 DUP1 CALLDATASIZE SUB DUP2 ADD SWAP1 PUSH2 0x5C8 SWAP2 SWAP1 PUSH2 0x3BE0 JUMP JUMPDEST PUSH2 0x224E JUMP JUMPDEST PUSH1 0x40 MLOAD PUSH2 0x5E1 SWAP9 SWAP8 SWAP7 SWAP6 SWAP5 SWAP4 SWAP3 SWAP2 SWAP1 PUSH2 0x48F3 JUMP JUMPDEST PUSH1 0x40 MLOAD DUP1 SWAP2 SUB SWAP1 RETURN JUMPDEST PUSH2 0x5F2 PUSH2 0x2338 JUMP JUMPDEST PUSH1 0x40 MLOAD PUSH2 0x5FF SWAP2 SWAP1 PUSH2 0x4999 JUMP JUMPDEST PUSH1 0x40 MLOAD DUP1 SWAP2 SUB SWAP1 RETURN JUMPDEST PUSH2 0x622 PUSH1 0x4 DUP1 CALLDATASIZE SUB DUP2 ADD SWAP1 PUSH2 0x61D SWAP2 SWAP1 PUSH2 0x4897 JUMP JUMPDEST PUSH2 0x235E JUMP JUMPDEST STOP JUMPDEST PUSH2 0x63E PUSH1 0x4 DUP1 CALLDATASIZE SUB DUP2 ADD SWAP1 PUSH2 0x639 SWAP2 SWAP1 PUSH2 0x3E12 JUMP JUMPDEST PUSH2 0x2544 JUMP JUMPDEST PUSH1 0x40 MLOAD PUSH2 0x64B SWAP2 SWAP1 PUSH2 0x4387 JUMP JUMPDEST PUSH1 0x40 MLOAD DUP1 SWAP2 SUB SWAP1 RETURN JUMPDEST PUSH2 0x66E PUSH1 0x4 DUP1 CALLDATASIZE SUB DUP2 ADD SWAP1 PUSH2 0x669 SWAP2 SWAP1 PUSH2 0x49B4 JUMP JUMPDEST PUSH2 0x268A JUMP JUMPDEST STOP JUMPDEST PUSH2 0x678 PUSH2 0x27F0 JUMP JUMPDEST PUSH1 0x40 MLOAD PUSH2 0x685 SWAP2 SWAP1 PUSH2 0x4B8E JUMP JUMPDEST PUSH1 0x40 MLOAD DUP1 SWAP2 SUB SWAP1 RETURN JUMPDEST PUSH2 0x6A8 PUSH1 0x4 DUP1 CALLDATASIZE SUB DUP2 ADD SWAP1 PUSH2 0x6A3 SWAP2 SWAP1 PUSH2 0x4BB0 JUMP JUMPDEST PUSH2 0x29CF JUMP JUMPDEST STOP JUMPDEST PUSH2 0x6C4 PUSH1 0x4 DUP1 CALLDATASIZE SUB DUP2 ADD SWAP1 PUSH2 0x6BF SWAP2 SWAP1 PUSH2 0x4593 JUMP JUMPDEST PUSH2 0x2ACC JUMP JUMPDEST STOP JUMPDEST PUSH2 0x6E0 PUSH1 0x4 DUP1 CALLDATASIZE SUB DUP2 ADD SWAP1 PUSH2 0x6DB SWAP2 SWAP1 PUSH2 0x3BE0 JUMP JUMPDEST PUSH2 0x32DB JUMP JUMPDEST STOP JUMPDEST PUSH2 0x6FC PUSH1 0x4 DUP1 CALLDATASIZE SUB DUP2 ADD SWAP1 PUSH2 0x6F7 SWAP2 SWAP1 PUSH2 0x3FA0 JUMP JUMPDEST PUSH2 0x3816 JUMP JUMPDEST STOP JUMPDEST PUSH2 0x706 PUSH2 0x389C JUMP JUMPDEST PUSH1 0x40 MLOAD PUSH2 0x713 SWAP2 SWAP1 PUSH2 0x426D JUMP JUMPDEST PUSH1 0x40 MLOAD DUP1 SWAP2 SUB SWAP1 RETURN JUMPDEST PUSH2 0x724 PUSH2 0x38A2 JUMP JUMPDEST PUSH1 0x40 MLOAD PUSH2 0x731 SWAP2 SWAP1 PUSH2 0x4C54 JUMP JUMPDEST PUSH1 0x40 MLOAD DUP1 SWAP2 SUB SWAP1 RETURN JUMPDEST PUSH1 0x60 PUSH1 0x0 DUP1 PUSH1 0x0 DUP1 PUSH1 0x0 DUP1 PUSH1 0x0 PUSH1 0x3 PUSH1 0x0 DUP11 DUP2 MSTORE PUSH1 0x20 ADD SWAP1 DUP2 MSTORE PUSH1 0x20 ADD PUSH1 0x0 KECCAK256 SWAP1 POP DUP1 PUSH1 0x0 ADD DUP2 PUSH1 0x1 ADD PUSH1 0x0 SWAP1 SLOAD SWAP1 PUSH2 0x100 EXP SWAP1 DIV PUSH1 0xFF AND DUP3 PUSH1 0x2 ADD SLOAD DUP4 PUSH1 0x3 ADD SLOAD DUP5 PUSH1 0x4 ADD SLOAD DUP6 PUSH1 0x6 ADD PUSH1 0x0 SWAP1 SLOAD SWAP1 PUSH2 0x100 EXP SWAP1 DIV PUSH1 0xFF AND DUP7 PUSH1 0x7 ADD SLOAD DUP7 DUP1 SLOAD PUSH2 0x7A4 SWAP1 PUSH2 0x4C9E JUMP JUMPDEST DUP1 PUSH1 0x1F ADD PUSH1 0x20 DUP1 SWAP2 DIV MUL PUSH1 0x20 ADD PUSH1 0x40 MLOAD SWAP1 DUP2 ADD PUSH1 0x40 MSTORE DUP1 SWAP3 SWAP2 SWAP1 DUP2 DUP2 MSTORE PUSH1 0x20 ADD DUP3 DUP1 SLOAD PUSH2 0x7D0 SWAP1 PUSH2 0x4C9E JUMP JUMPDEST DUP1 ISZERO PUSH2 0x81D JUMPI DUP1 PUSH1 0x1F LT PUSH2 0x7F2 JUMPI PUSH2 0x100 DUP1 DUP4 SLOAD DIV MUL DUP4 MSTORE SWAP2 PUSH1 0x20 ADD SWAP2 PUSH2 0x81D JUMP JUMPDEST DUP3 ADD SWAP2 SWAP1 PUSH1 0x0 MSTORE PUSH1 0x20 PUSH1 0x0 KECCAK256 SWAP1 JUMPDEST DUP2 SLOAD DUP2 MSTORE SWAP1 PUSH1 0x1 ADD SWAP1 PUSH1 0x20 ADD DUP1 DUP4 GT PUSH2 0x800 JUMPI DUP3 SWAP1 SUB PUSH1 0x1F AND DUP3 ADD SWAP2 JUMPDEST POP POP POP POP POP SWAP7 POP SWAP8 POP SWAP8 POP SWAP8 POP SWAP8 POP SWAP8 POP SWAP8 POP SWAP8 POP POP SWAP2 SWAP4 SWAP6 SWAP8 SWAP1 SWAP3 SWAP5 SWAP7 POP JUMP JUMPDEST PUSH1 0x0 DUP1 PUSH1 0x0 PUSH1 0x6 PUSH1 0x0 SWAP1 SLOAD SWAP1 PUSH2 0x100 EXP SWAP1 DIV PUSH20 0xFFFFFFFFFFFFFFFFFFFFFFFFFFFFFFFFFFFFFFFF AND PUSH20 0xFFFFFFFFFFFFFFFFFFFFFFFFFFFFFFFFFFFFFFFF AND PUSH4 0x10525814 DUP6 DUP8 PUSH1 0x40 MLOAD DUP4 PUSH4 0xFFFFFFFF AND PUSH1 0xE0 SHL DUP2 MSTORE PUSH1 0x4 ADD PUSH2 0x8A0 SWAP3 SWAP2 SWAP1 PUSH2 0x4CCF JUMP JUMPDEST PUSH1 0x20 PUSH1 0x40 MLOAD DUP1 DUP4 SUB DUP2 DUP7 GAS STATICCALL ISZERO DUP1 ISZERO PUSH2 0x8BD JUMPI RETURNDATASIZE PUSH1 0x0 DUP1 RETURNDATACOPY RETURNDATASIZE PUSH1 0x0 REVERT JUMPDEST POP POP POP POP PUSH1 0x40 MLOAD RETURNDATASIZE PUSH1 0x1F NOT PUSH1 0x1F DUP3 ADD AND DUP3 ADD DUP1 PUSH1 0x40 MSTORE POP DUP2 ADD SWAP1 PUSH2 0x8E1 SWAP2 SWAP1 PUSH2 0x4D0D JUMP JUMPDEST SWAP1 POP PUSH1 0x0 PUSH1 0x6 PUSH1 0x0 SWAP1 SLOAD SWAP1 PUSH2 0x100 EXP SWAP1 DIV PUSH20 0xFFFFFFFFFFFFFFFFFFFFFFFFFFFFFFFFFFFFFFFF AND PUSH20 0xFFFFFFFFFFFFFFFFFFFFFFFFFFFFFFFFFFFFFFFF AND PUSH4 0x73CCE3EE DUP7 DUP9 PUSH1 0x40 MLOAD DUP4 PUSH4 0xFFFFFFFF AND PUSH1 0xE0 SHL DUP2 MSTORE PUSH1 0x4 ADD PUSH2 0x942 SWAP3 SWAP2 SWAP1 PUSH2 0x4CCF JUMP JUMPDEST PUSH1 0x20 PUSH1 0x40 MLOAD DUP1 DUP4 SUB DUP2 DUP7 GAS STATICCALL ISZERO DUP1 ISZERO PUSH2 0x95F JUMPI RETURNDATASIZE PUSH1 0x0 DUP1 RETURNDATACOPY RETURNDATASIZE PUSH1 0x0 REVERT JUMPDEST POP POP POP POP PUSH1 0x40 MLOAD RETURNDATASIZE PUSH1 0x1F NOT PUSH1 0x1F DUP3 ADD AND DUP3 ADD DUP1 PUSH1 0x40 MSTORE POP DUP2 ADD SWAP1 PUSH2 0x983 SWAP2 SWAP1 PUSH2 0x4D0D JUMP JUMPDEST SWAP1 POP DUP2 DUP2 SWAP4 POP SWAP4 POP POP POP SWAP3 POP SWAP3 SWAP1 POP JUMP JUMPDEST PUSH1 0x60 PUSH1 0xC DUP1 SLOAD DUP1 PUSH1 0x20 MUL PUSH1 0x20 ADD PUSH1 0x40 MLOAD SWAP1 DUP2 ADD PUSH1 0x40 MSTORE DUP1 SWAP3 SWAP2 SWAP1 DUP2 DUP2 MSTORE PUSH1 0x20 ADD DUP3 DUP1 SLOAD DUP1 ISZERO PUSH2 0xA18 JUMPI PUSH1 0x20 MUL DUP3 ADD SWAP2 SWAP1 PUSH1 0x0 MSTORE PUSH1 0x20 PUSH1 0x0 KECCAK256 SWAP1 JUMPDEST DUP2 PUSH1 0x0 SWAP1 SLOAD SWAP1 PUSH2 0x100 EXP SWAP1 DIV PUSH20 0xFFFFFFFFFFFFFFFFFFFFFFFFFFFFFFFFFFFFFFFF AND PUSH20 0xFFFFFFFFFFFFFFFFFFFFFFFFFFFFFFFFFFFFFFFF AND DUP2 MSTORE PUSH1 0x20 ADD SWAP1 PUSH1 0x1 ADD SWAP1 DUP1 DUP4 GT PUSH2 0x9CE JUMPI JUMPDEST POP POP POP POP POP SWAP1 POP SWAP1 JUMP JUMPDEST PUSH1 0xA PUSH1 0x0 SWAP1 SLOAD SWAP1 PUSH2 0x100 EXP SWAP1 DIV PUSH20 0xFFFFFFFFFFFFFFFFFFFFFFFFFFFFFFFFFFFFFFFF AND DUP2 JUMP JUMPDEST PUSH1 0x0 DUP1 PUSH1 0x3 PUSH1 0x0 DUP5 DUP2 MSTORE PUSH1 0x20 ADD SWAP1 DUP2 MSTORE PUSH1 0x20 ADD PUSH1 0x0 KECCAK256 SWAP1 POP DUP1 PUSH1 0x6 ADD PUSH1 0x0 SWAP1 SLOAD SWAP1 PUSH2 0x100 EXP SWAP1 DIV PUSH1 0xFF AND SWAP2 POP POP SWAP2 SWAP1 POP JUMP JUMPDEST PUSH1 0xB PUSH1 0x0 SWAP1 SLOAD SWAP1 PUSH2 0x100 EXP SWAP1 DIV PUSH20 0xFFFFFFFFFFFFFFFFFFFFFFFFFFFFFFFFFFFFFFFF AND DUP2 JUMP JUMPDEST PUSH2 0xAA8 PUSH2 0x38C8 JUMP JUMPDEST PUSH1 0x0 PUSH1 0x3 PUSH1 0x0 DUP4 DUP2 MSTORE PUSH1 0x20 ADD SWAP1 DUP2 MSTORE PUSH1 0x20 ADD PUSH1 0x0 KECCAK256 SWAP1 POP PUSH1 0x0 DUP2 PUSH1 0x8 ADD PUSH1 0x0 CALLER PUSH20 0xFFFFFFFFFFFFFFFFFFFFFFFFFFFFFFFFFFFFFFFF AND PUSH20 0xFFFFFFFFFFFFFFFFFFFFFFFFFFFFFFFFFFFFFFFF AND DUP2 MSTORE PUSH1 0x20 ADD SWAP1 DUP2 MSTORE PUSH1 0x20 ADD PUSH1 0x0 KECCAK256 SWAP1 POP PUSH1 0x0 DUP2 PUSH1 0x1 ADD SLOAD GT PUSH2 0xB4B JUMPI PUSH1 0x40 MLOAD PUSH32 0x8C379A000000000000000000000000000000000000000000000000000000000 DUP2 MSTORE PUSH1 0x4 ADD PUSH2 0xB42 SWAP1 PUSH2 0x4DAC JUMP JUMPDEST PUSH1 0x40 MLOAD DUP1 SWAP2 SUB SWAP1 REVERT JUMPDEST PUSH1 0x0 PUSH1 0x1 DUP2 GT ISZERO PUSH2 0xB5F JUMPI PUSH2 0xB5E PUSH2 0x3C9D JUMP JUMPDEST JUMPDEST DUP2 PUSH1 0x4 ADD PUSH1 0x0 SWAP1 SLOAD SWAP1 PUSH2 0x100 EXP SWAP1 DIV PUSH1 0xFF AND PUSH1 0x1 DUP2 GT ISZERO PUSH2 0xB83 JUMPI PUSH2 0xB82 PUSH2 0x3C9D JUMP JUMPDEST JUMPDEST EQ PUSH2 0xBC3 JUMPI PUSH1 0x40 MLOAD PUSH32 0x8C379A000000000000000000000000000000000000000000000000000000000 DUP2 MSTORE PUSH1 0x4 ADD PUSH2 0xBBA SWAP1 PUSH2 0x4E18 JUMP JUMPDEST PUSH1 0x40 MLOAD DUP1 SWAP2 SUB SWAP1 REVERT JUMPDEST DUP1 PUSH1 0x7 ADD SLOAD TIMESTAMP LT ISZERO PUSH2 0xC0A JUMPI PUSH1 0x40 MLOAD PUSH32 0x8C379A000000000000000000000000000000000000000000000000000000000 DUP2 MSTORE PUSH1 0x4 ADD PUSH2 0xC01 SWAP1 PUSH2 0x4E84 JUMP JUMPDEST PUSH1 0x40 MLOAD DUP1 SWAP2 SUB SWAP1 REVERT JUMPDEST PUSH1 0x1 DUP2 PUSH1 0x4 ADD PUSH1 0x0 PUSH2 0x100 EXP DUP2 SLOAD DUP2 PUSH1 0xFF MUL NOT AND SWAP1 DUP4 PUSH1 0x1 DUP2 GT ISZERO PUSH2 0xC32 JUMPI PUSH2 0xC31 PUSH2 0x3C9D JUMP JUMPDEST JUMPDEST MUL OR SWAP1 SSTORE POP DUP1 PUSH1 0x1 ADD SLOAD DUP3 PUSH1 0x4 ADD PUSH1 0x0 DUP3 DUP3 SLOAD PUSH2 0xC4F SWAP2 SWAP1 PUSH2 0x4ED3 JUMP JUMPDEST SWAP3 POP POP DUP2 SWAP1 SSTORE POP PUSH1 0x0 PUSH2 0xC61 DUP5 PUSH2 0x1876 JUMP JUMPDEST SWAP1 POP PUSH1 0x0 JUMPDEST DUP2 MLOAD DUP2 LT ISZERO PUSH2 0xD27 JUMPI PUSH1 0x6 PUSH1 0x0 SWAP1 SLOAD SWAP1 PUSH2 0x100 EXP SWAP1 DIV PUSH20 0xFFFFFFFFFFFFFFFFFFFFFFFFFFFFFFFFFFFFFFFF AND PUSH20 0xFFFFFFFFFFFFFFFFFFFFFFFFFFFFFFFFFFFFFFFF AND PUSH4 0x106B5DA1 DUP4 DUP4 DUP2 MLOAD DUP2 LT PUSH2 0xCC0 JUMPI PUSH2 0xCBF PUSH2 0x4F07 JUMP JUMPDEST JUMPDEST PUSH1 0x20 MUL PUSH1 0x20 ADD ADD MLOAD PUSH1 0x0 ADD MLOAD PUSH1 0x40 MLOAD DUP3 PUSH4 0xFFFFFFFF AND PUSH1 0xE0 SHL DUP2 MSTORE PUSH1 0x4 ADD PUSH2 0xCE8 SWAP2 SWAP1 PUSH2 0x426D JUMP JUMPDEST PUSH1 0x0 PUSH1 0x40 MLOAD DUP1 DUP4 SUB DUP2 PUSH1 0x0 DUP8 DUP1 EXTCODESIZE ISZERO DUP1 ISZERO PUSH2 0xD02 JUMPI PUSH1 0x0 DUP1 REVERT JUMPDEST POP GAS CALL ISZERO DUP1 ISZERO PUSH2 0xD16 JUMPI RETURNDATASIZE PUSH1 0x0 DUP1 RETURNDATACOPY RETURNDATASIZE PUSH1 0x0 REVERT JUMPDEST POP POP POP POP DUP1 DUP1 PUSH1 0x1 ADD SWAP2 POP POP PUSH2 0xC66 JUMP JUMPDEST POP PUSH1 0x8 PUSH1 0x0 SWAP1 SLOAD SWAP1 PUSH2 0x100 EXP SWAP1 DIV PUSH20 0xFFFFFFFFFFFFFFFFFFFFFFFFFFFFFFFFFFFFFFFF AND PUSH20 0xFFFFFFFFFFFFFFFFFFFFFFFFFFFFFFFFFFFFFFFF AND PUSH4 0xE2094EDA CALLER DUP5 PUSH1 0x1 ADD SLOAD PUSH1 0x40 MLOAD DUP4 PUSH4 0xFFFFFFFF AND PUSH1 0xE0 SHL DUP2 MSTORE PUSH1 0x4 ADD PUSH2 0xD89 SWAP3 SWAP2 SWAP1 PUSH2 0x4CCF JUMP JUMPDEST PUSH1 0x0 PUSH1 0x40 MLOAD DUP1 DUP4 SUB DUP2 PUSH1 0x0 DUP8 DUP1 EXTCODESIZE ISZERO DUP1 ISZERO PUSH2 0xDA3 JUMPI PUSH1 0x0 DUP1 REVERT JUMPDEST POP GAS CALL ISZERO DUP1 ISZERO PUSH2 0xDB7 JUMPI RETURNDATASIZE PUSH1 0x0 DUP1 RETURNDATACOPY RETURNDATASIZE PUSH1 0x0 REVERT JUMPDEST POP POP POP POP CALLER PUSH20 0xFFFFFFFFFFFFFFFFFFFFFFFFFFFFFFFFFFFFFFFF AND PUSH32 0x485F1BB6524C663555797E00171A10F341656E59B02D6B557A0A38BA7D5D9751 DUP4 PUSH1 0x1 ADD SLOAD DUP6 PUSH1 0x0 ADD PUSH1 0x40 MLOAD PUSH2 0xE0A SWAP3 SWAP2 SWAP1 PUSH2 0x4FCF JUMP JUMPDEST PUSH1 0x40 MLOAD DUP1 SWAP2 SUB SWAP1 LOG2 POP POP POP PUSH2 0xE1D PUSH2 0x390E JUMP JUMPDEST POP JUMP JUMPDEST PUSH1 0x60 PUSH1 0x0 DUP1 PUSH1 0x1 SWAP1 POP JUMPDEST PUSH1 0x4 SLOAD DUP2 GT PUSH2 0xEBA JUMPI PUSH1 0x0 PUSH1 0x3 PUSH1 0x0 DUP4 DUP2 MSTORE PUSH1 0x20 ADD SWAP1 DUP2 MSTORE PUSH1 0x20 ADD PUSH1 0x0 KECCAK256 SWAP1 POP PUSH1 0x0 DUP2 PUSH1 0x8 ADD PUSH1 0x0 DUP8 PUSH20 0xFFFFFFFFFFFFFFFFFFFFFFFFFFFFFFFFFFFFFFFF AND PUSH20 0xFFFFFFFFFFFFFFFFFFFFFFFFFFFFFFFFFFFFFFFF AND DUP2 MSTORE PUSH1 0x20 ADD SWAP1 DUP2 MSTORE PUSH1 0x20 ADD PUSH1 0x0 KECCAK256 PUSH1 0x1 ADD SLOAD GT ISZERO PUSH2 0xEA6 JUMPI DUP3 DUP1 PUSH2 0xEA2 SWAP1 PUSH2 0x4FFF JUMP JUMPDEST SWAP4 POP POP JUMPDEST POP DUP1 DUP1 PUSH2 0xEB2 SWAP1 PUSH2 0x4FFF JUMP JUMPDEST SWAP2 POP POP PUSH2 0xE2A JUMP JUMPDEST POP PUSH1 0x0 DUP2 PUSH8 0xFFFFFFFFFFFFFFFF DUP2 GT ISZERO PUSH2 0xED7 JUMPI PUSH2 0xED6 PUSH2 0x45D8 JUMP JUMPDEST JUMPDEST PUSH1 0x40 MLOAD SWAP1 DUP1 DUP3 MSTORE DUP1 PUSH1 0x20 MUL PUSH1 0x20 ADD DUP3 ADD PUSH1 0x40 MSTORE DUP1 ISZERO PUSH2 0xF10 JUMPI DUP2 PUSH1 0x20 ADD JUMPDEST PUSH2 0xEFD PUSH2 0x3A6D JUMP JUMPDEST DUP2 MSTORE PUSH1 0x20 ADD SWAP1 PUSH1 0x1 SWAP1 SUB SWAP1 DUP2 PUSH2 0xEF5 JUMPI SWAP1 POP JUMPDEST POP SWAP1 POP PUSH1 0x0 DUP1 PUSH1 0x1 SWAP1 POP JUMPDEST PUSH1 0x4 SLOAD DUP2 GT PUSH2 0x1337 JUMPI PUSH1 0x0 PUSH1 0x3 PUSH1 0x0 DUP4 DUP2 MSTORE PUSH1 0x20 ADD SWAP1 DUP2 MSTORE PUSH1 0x20 ADD PUSH1 0x0 KECCAK256 SWAP1 POP PUSH1 0x0 PUSH1 0x3 PUSH1 0x0 DUP5 DUP2 MSTORE PUSH1 0x20 ADD SWAP1 DUP2 MSTORE PUSH1 0x20 ADD PUSH1 0x0 KECCAK256 PUSH1 0x8 ADD PUSH1 0x0 DUP10 PUSH20 0xFFFFFFFFFFFFFFFFFFFFFFFFFFFFFFFFFFFFFFFF AND PUSH20 0xFFFFFFFFFFFFFFFFFFFFFFFFFFFFFFFFFFFFFFFF AND DUP2 MSTORE PUSH1 0x20 ADD SWAP1 DUP2 MSTORE PUSH1 0x20 ADD PUSH1 0x0 KECCAK256 PUSH1 0x40 MLOAD DUP1 PUSH2 0x120 ADD PUSH1 0x40 MSTORE SWAP1 DUP2 PUSH1 0x0 DUP3 ADD PUSH1 0x0 SWAP1 SLOAD SWAP1 PUSH2 0x100 EXP SWAP1 DIV PUSH20 0xFFFFFFFFFFFFFFFFFFFFFFFFFFFFFFFFFFFFFFFF AND PUSH20 0xFFFFFFFFFFFFFFFFFFFFFFFFFFFFFFFFFFFFFFFF AND PUSH20 0xFFFFFFFFFFFFFFFFFFFFFFFFFFFFFFFFFFFFFFFF AND DUP2 MSTORE PUSH1 0x20 ADD PUSH1 0x1 DUP3 ADD SLOAD DUP2 MSTORE PUSH1 0x20 ADD PUSH1 0x2 DUP3 ADD SLOAD DUP2 MSTORE PUSH1 0x20 ADD PUSH1 0x3 DUP3 ADD SLOAD DUP2 MSTORE PUSH1 0x20 ADD PUSH1 0x4 DUP3 ADD PUSH1 0x0 SWAP1 SLOAD SWAP1 PUSH2 0x100 EXP SWAP1 DIV PUSH1 0xFF AND PUSH1 0x1 DUP2 GT ISZERO PUSH2 0x1035 JUMPI PUSH2 0x1034 PUSH2 0x3C9D JUMP JUMPDEST JUMPDEST PUSH1 0x1 DUP2 GT ISZERO PUSH2 0x1047 JUMPI PUSH2 0x1046 PUSH2 0x3C9D JUMP JUMPDEST JUMPDEST DUP2 MSTORE PUSH1 0x20 ADD PUSH1 0x5 DUP3 ADD SLOAD DUP2 MSTORE PUSH1 0x20 ADD PUSH1 0x6 DUP3 ADD SLOAD DUP2 MSTORE PUSH1 0x20 ADD PUSH1 0x7 DUP3 ADD SLOAD DUP2 MSTORE PUSH1 0x20 ADD PUSH1 0x8 DUP3 ADD SLOAD DUP2 MSTORE POP POP SWAP1 POP PUSH1 0x0 PUSH1 0x6 PUSH1 0x0 SWAP1 SLOAD SWAP1 PUSH2 0x100 EXP SWAP1 DIV PUSH20 0xFFFFFFFFFFFFFFFFFFFFFFFFFFFFFFFFFFFFFFFF AND PUSH20 0xFFFFFFFFFFFFFFFFFFFFFFFFFFFFFFFFFFFFFFFF AND PUSH4 0x73CCE3EE DUP11 DUP7 PUSH1 0x40 MLOAD DUP4 PUSH4 0xFFFFFFFF AND PUSH1 0xE0 SHL DUP2 MSTORE PUSH1 0x4 ADD PUSH2 0x10D4 SWAP3 SWAP2 SWAP1 PUSH2 0x4CCF JUMP JUMPDEST PUSH1 0x20 PUSH1 0x40 MLOAD DUP1 DUP4 SUB DUP2 DUP7 GAS STATICCALL ISZERO DUP1 ISZERO PUSH2 0x10F1 JUMPI RETURNDATASIZE PUSH1 0x0 DUP1 RETURNDATACOPY RETURNDATASIZE PUSH1 0x0 REVERT JUMPDEST POP POP POP POP PUSH1 0x40 MLOAD RETURNDATASIZE PUSH1 0x1F NOT PUSH1 0x1F DUP3 ADD AND DUP3 ADD DUP1 PUSH1 0x40 MSTORE POP DUP2 ADD SWAP1 PUSH2 0x1115 SWAP2 SWAP1 PUSH2 0x4D0D JUMP JUMPDEST SWAP1 POP PUSH1 0x0 DUP2 DUP4 PUSH1 0x60 ADD MLOAD PUSH2 0x1129 SWAP2 SWAP1 PUSH2 0x5047 JUMP JUMPDEST SWAP1 POP PUSH1 0x0 DUP5 PUSH1 0x8 ADD PUSH1 0x0 DUP13 PUSH20 0xFFFFFFFFFFFFFFFFFFFFFFFFFFFFFFFFFFFFFFFF AND PUSH20 0xFFFFFFFFFFFFFFFFFFFFFFFFFFFFFFFFFFFFFFFF AND DUP2 MSTORE PUSH1 0x20 ADD SWAP1 DUP2 MSTORE PUSH1 0x20 ADD PUSH1 0x0 KECCAK256 PUSH1 0x1 ADD SLOAD GT ISZERO PUSH2 0x1320 JUMPI PUSH1 0x40 MLOAD DUP1 PUSH2 0x140 ADD PUSH1 0x40 MSTORE DUP1 DUP6 PUSH1 0x0 ADD DUP1 SLOAD PUSH2 0x1193 SWAP1 PUSH2 0x4C9E JUMP JUMPDEST DUP1 PUSH1 0x1F ADD PUSH1 0x20 DUP1 SWAP2 DIV MUL PUSH1 0x20 ADD PUSH1 0x40 MLOAD SWAP1 DUP2 ADD PUSH1 0x40 MSTORE DUP1 SWAP3 SWAP2 SWAP1 DUP2 DUP2 MSTORE PUSH1 0x20 ADD DUP3 DUP1 SLOAD PUSH2 0x11BF SWAP1 PUSH2 0x4C9E JUMP JUMPDEST DUP1 ISZERO PUSH2 0x120C JUMPI DUP1 PUSH1 0x1F LT PUSH2 0x11E1 JUMPI PUSH2 0x100 DUP1 DUP4 SLOAD DIV MUL DUP4 MSTORE SWAP2 PUSH1 0x20 ADD SWAP2 PUSH2 0x120C JUMP JUMPDEST DUP3 ADD SWAP2 SWAP1 PUSH1 0x0 MSTORE PUSH1 0x20 PUSH1 0x0 KECCAK256 SWAP1 JUMPDEST DUP2 SLOAD DUP2 MSTORE SWAP1 PUSH1 0x1 ADD SWAP1 PUSH1 0x20 ADD DUP1 DUP4 GT PUSH2 0x11EF JUMPI DUP3 SWAP1 SUB PUSH1 0x1F AND DUP3 ADD SWAP2 JUMPDEST POP POP POP POP POP DUP2 MSTORE PUSH1 0x20 ADD DUP7 DUP2 MSTORE PUSH1 0x20 ADD DUP6 PUSH1 0x8 ADD PUSH1 0x0 DUP14 PUSH20 0xFFFFFFFFFFFFFFFFFFFFFFFFFFFFFFFFFFFFFFFF AND PUSH20 0xFFFFFFFFFFFFFFFFFFFFFFFFFFFFFFFFFFFFFFFF AND DUP2 MSTORE PUSH1 0x20 ADD SWAP1 DUP2 MSTORE PUSH1 0x20 ADD PUSH1 0x0 KECCAK256 PUSH1 0x3 ADD SLOAD DUP2 MSTORE PUSH1 0x20 ADD DUP6 PUSH1 0x8 ADD PUSH1 0x0 DUP14 PUSH20 0xFFFFFFFFFFFFFFFFFFFFFFFFFFFFFFFFFFFFFFFF AND PUSH20 0xFFFFFFFFFFFFFFFFFFFFFFFFFFFFFFFFFFFFFFFF AND DUP2 MSTORE PUSH1 0x20 ADD SWAP1 DUP2 MSTORE PUSH1 0x20 ADD PUSH1 0x0 KECCAK256 PUSH1 0x1 ADD SLOAD DUP2 MSTORE PUSH1 0x20 ADD DUP6 PUSH1 0x2 ADD SLOAD DUP2 MSTORE PUSH1 0x20 ADD DUP6 PUSH1 0x3 ADD SLOAD DUP2 MSTORE PUSH1 0x20 ADD DUP6 PUSH1 0x4 ADD SLOAD DUP2 MSTORE PUSH1 0x20 ADD DUP6 PUSH1 0x5 ADD SLOAD DUP2 MSTORE PUSH1 0x20 ADD DUP6 PUSH1 0x6 ADD PUSH1 0x0 SWAP1 SLOAD SWAP1 PUSH2 0x100 EXP SWAP1 DIV PUSH1 0xFF AND ISZERO ISZERO DUP2 MSTORE PUSH1 0x20 ADD DUP3 DUP2 MSTORE POP DUP8 DUP8 DUP1 PUSH2 0x1301 SWAP1 PUSH2 0x4FFF JUMP JUMPDEST SWAP9 POP DUP2 MLOAD DUP2 LT PUSH2 0x1314 JUMPI PUSH2 0x1313 PUSH2 0x4F07 JUMP JUMPDEST JUMPDEST PUSH1 0x20 MUL PUSH1 0x20 ADD ADD DUP2 SWAP1 MSTORE POP JUMPDEST POP POP POP POP DUP1 DUP1 PUSH2 0x132F SWAP1 PUSH2 0x4FFF JUMP JUMPDEST SWAP2 POP POP PUSH2 0xF1B JUMP JUMPDEST POP DUP2 SWAP4 POP POP POP POP SWAP2 SWAP1 POP JUMP JUMPDEST PUSH1 0x8 PUSH1 0x0 SWAP1 SLOAD SWAP1 PUSH2 0x100 EXP SWAP1 DIV PUSH20 0xFFFFFFFFFFFFFFFFFFFFFFFFFFFFFFFFFFFFFFFF AND DUP2 JUMP JUMPDEST PUSH1 0xC DUP2 DUP2 SLOAD DUP2 LT PUSH2 0x1379 JUMPI PUSH1 0x0 DUP1 REVERT JUMPDEST SWAP1 PUSH1 0x0 MSTORE PUSH1 0x20 PUSH1 0x0 KECCAK256 ADD PUSH1 0x0 SWAP2 POP SLOAD SWAP1 PUSH2 0x100 EXP SWAP1 DIV PUSH20 0xFFFFFFFFFFFFFFFFFFFFFFFFFFFFFFFFFFFFFFFF AND DUP2 JUMP JUMPDEST PUSH1 0x0 PUSH1 0xD PUSH1 0x0 DUP4 PUSH20 0xFFFFFFFFFFFFFFFFFFFFFFFFFFFFFFFFFFFFFFFF AND PUSH20 0xFFFFFFFFFFFFFFFFFFFFFFFFFFFFFFFFFFFFFFFF AND DUP2 MSTORE PUSH1 0x20 ADD SWAP1 DUP2 MSTORE PUSH1 0x20 ADD PUSH1 0x0 KECCAK256 SLOAD SWAP1 POP SWAP2 SWAP1 POP JUMP JUMPDEST PUSH2 0x13F9 PUSH2 0x3AC2 JUMP JUMPDEST PUSH1 0x0 PUSH1 0x3 PUSH1 0x0 DUP6 DUP2 MSTORE PUSH1 0x20 ADD SWAP1 DUP2 MSTORE PUSH1 0x20 ADD PUSH1 0x0 KECCAK256 PUSH1 0x8 ADD PUSH1 0x0 DUP5 PUSH20 0xFFFFFFFFFFFFFFFFFFFFFFFFFFFFFFFFFFFFFFFF AND PUSH20 0xFFFFFFFFFFFFFFFFFFFFFFFFFFFFFFFFFFFFFFFF AND DUP2 MSTORE PUSH1 0x20 ADD SWAP1 DUP2 MSTORE PUSH1 0x20 ADD PUSH1 0x0 KECCAK256 PUSH1 0x40 MLOAD DUP1 PUSH2 0x120 ADD PUSH1 0x40 MSTORE SWAP1 DUP2 PUSH1 0x0 DUP3 ADD PUSH1 0x0 SWAP1 SLOAD SWAP1 PUSH2 0x100 EXP SWAP1 DIV PUSH20 0xFFFFFFFFFFFFFFFFFFFFFFFFFFFFFFFFFFFFFFFF AND PUSH20 0xFFFFFFFFFFFFFFFFFFFFFFFFFFFFFFFFFFFFFFFF AND PUSH20 0xFFFFFFFFFFFFFFFFFFFFFFFFFFFFFFFFFFFFFFFF AND DUP2 MSTORE PUSH1 0x20 ADD PUSH1 0x1 DUP3 ADD SLOAD DUP2 MSTORE PUSH1 0x20 ADD PUSH1 0x2 DUP3 ADD SLOAD DUP2 MSTORE PUSH1 0x20 ADD PUSH1 0x3 DUP3 ADD SLOAD DUP2 MSTORE PUSH1 0x20 ADD PUSH1 0x4 DUP3 ADD PUSH1 0x0 SWAP1 SLOAD SWAP1 PUSH2 0x100 EXP SWAP1 DIV PUSH1 0xFF AND PUSH1 0x1 DUP2 GT ISZERO PUSH2 0x14F3 JUMPI PUSH2 0x14F2 PUSH2 0x3C9D JUMP JUMPDEST JUMPDEST PUSH1 0x1 DUP2 GT ISZERO PUSH2 0x1505 JUMPI PUSH2 0x1504 PUSH2 0x3C9D JUMP JUMPDEST JUMPDEST DUP2 MSTORE PUSH1 0x20 ADD PUSH1 0x5 DUP3 ADD SLOAD DUP2 MSTORE PUSH1 0x20 ADD PUSH1 0x6 DUP3 ADD SLOAD DUP2 MSTORE PUSH1 0x20 ADD PUSH1 0x7 DUP3 ADD SLOAD DUP2 MSTORE PUSH1 0x20 ADD PUSH1 0x8 DUP3 ADD SLOAD DUP2 MSTORE POP POP SWAP1 POP PUSH1 0x0 PUSH1 0x6 PUSH1 0x0 SWAP1 SLOAD SWAP1 PUSH2 0x100 EXP SWAP1 DIV PUSH20 0xFFFFFFFFFFFFFFFFFFFFFFFFFFFFFFFFFFFFFFFF AND PUSH20 0xFFFFFFFFFFFFFFFFFFFFFFFFFFFFFFFFFFFFFFFF AND PUSH4 0x10525814 DUP6 DUP8 PUSH1 0x40 MLOAD DUP4 PUSH4 0xFFFFFFFF AND PUSH1 0xE0 SHL DUP2 MSTORE PUSH1 0x4 ADD PUSH2 0x1592 SWAP3 SWAP2 SWAP1 PUSH2 0x4CCF JUMP JUMPDEST PUSH1 0x20 PUSH1 0x40 MLOAD DUP1 DUP4 SUB DUP2 DUP7 GAS STATICCALL ISZERO DUP1 ISZERO PUSH2 0x15AF JUMPI RETURNDATASIZE PUSH1 0x0 DUP1 RETURNDATACOPY RETURNDATASIZE PUSH1 0x0 REVERT JUMPDEST POP POP POP POP PUSH1 0x40 MLOAD RETURNDATASIZE PUSH1 0x1F NOT PUSH1 0x1F DUP3 ADD AND DUP3 ADD DUP1 PUSH1 0x40 MSTORE POP DUP2 ADD SWAP1 PUSH2 0x15D3 SWAP2 SWAP1 PUSH2 0x4D0D JUMP JUMPDEST SWAP1 POP PUSH1 0x0 DUP1 DUP3 SUB PUSH2 0x15EA JUMPI DUP3 PUSH1 0xC0 ADD MLOAD SWAP1 POP PUSH2 0x15EE JUMP JUMPDEST DUP2 SWAP1 POP JUMPDEST PUSH1 0x0 TIMESTAMP SWAP1 POP DUP4 PUSH1 0xE0 ADD MLOAD DUP2 GT ISZERO PUSH2 0x1607 JUMPI DUP4 PUSH1 0xE0 ADD MLOAD SWAP1 POP JUMPDEST PUSH1 0x0 PUSH2 0x12C DUP4 DUP4 PUSH2 0x1618 SWAP2 SWAP1 PUSH2 0x4ED3 JUMP JUMPDEST PUSH2 0x1622 SWAP2 SWAP1 PUSH2 0x50B8 JUMP JUMPDEST SWAP1 POP DUP1 DUP6 PUSH1 0x60 ADD MLOAD PUSH2 0x1634 SWAP2 SWAP1 PUSH2 0x5047 JUMP JUMPDEST DUP6 PUSH2 0x100 ADD DUP2 DUP2 MSTORE POP POP TIMESTAMP DUP6 PUSH1 0xE0 ADD MLOAD GT PUSH2 0x1659 JUMPI PUSH1 0x0 DUP6 PUSH1 0xA0 ADD DUP2 DUP2 MSTORE POP POP PUSH2 0x16A1 JUMP JUMPDEST PUSH1 0x0 TIMESTAMP DUP7 PUSH1 0xE0 ADD MLOAD PUSH2 0x166B SWAP2 SWAP1 PUSH2 0x4ED3 JUMP JUMPDEST SWAP1 POP PUSH3 0x15180 PUSH1 0x1 PUSH3 0x15180 DUP4 PUSH2 0x1682 SWAP2 SWAP1 PUSH2 0x50E9 JUMP JUMPDEST PUSH2 0x168C SWAP2 SWAP1 PUSH2 0x4ED3 JUMP JUMPDEST PUSH2 0x1696 SWAP2 SWAP1 PUSH2 0x50B8 JUMP JUMPDEST DUP7 PUSH1 0xA0 ADD DUP2 DUP2 MSTORE POP POP POP JUMPDEST DUP5 SWAP6 POP POP POP POP POP POP SWAP3 SWAP2 POP POP JUMP JUMPDEST PUSH1 0x5 PUSH1 0x0 SWAP1 SLOAD SWAP1 PUSH2 0x100 EXP SWAP1 DIV PUSH20 0xFFFFFFFFFFFFFFFFFFFFFFFFFFFFFFFFFFFFFFFF AND DUP2 JUMP JUMPDEST PUSH2 0x16DD PUSH2 0x3918 JUMP JUMPDEST PUSH2 0x16E7 PUSH1 0x0 PUSH2 0x399F JUMP JUMPDEST JUMP JUMPDEST PUSH2 0x16F1 PUSH2 0x3918 JUMP JUMPDEST PUSH1 0x0 PUSH20 0xFFFFFFFFFFFFFFFFFFFFFFFFFFFFFFFFFFFFFFFF AND PUSH1 0xA PUSH1 0x0 SWAP1 SLOAD SWAP1 PUSH2 0x100 EXP SWAP1 DIV PUSH20 0xFFFFFFFFFFFFFFFFFFFFFFFFFFFFFFFFFFFFFFFF AND PUSH20 0xFFFFFFFFFFFFFFFFFFFFFFFFFFFFFFFFFFFFFFFF AND EQ PUSH2 0x1782 JUMPI PUSH1 0x40 MLOAD PUSH32 0x8C379A000000000000000000000000000000000000000000000000000000000 DUP2 MSTORE PUSH1 0x4 ADD PUSH2 0x1779 SWAP1 PUSH2 0x5169 JUMP JUMPDEST PUSH1 0x40 MLOAD DUP1 SWAP2 SUB SWAP1 REVERT JUMPDEST PUSH1 0x0 PUSH20 0xFFFFFFFFFFFFFFFFFFFFFFFFFFFFFFFFFFFFFFFF AND DUP2 PUSH20 0xFFFFFFFFFFFFFFFFFFFFFFFFFFFFFFFFFFFFFFFF AND SUB PUSH2 0x17F1 JUMPI PUSH1 0x40 MLOAD PUSH32 0x8C379A000000000000000000000000000000000000000000000000000000000 DUP2 MSTORE PUSH1 0x4 ADD PUSH2 0x17E8 SWAP1 PUSH2 0x51FB JUMP JUMPDEST PUSH1 0x40 MLOAD DUP1 SWAP2 SUB SWAP1 REVERT JUMPDEST DUP1 PUSH1 0x6 PUSH1 0x0 PUSH2 0x100 EXP DUP2 SLOAD DUP2 PUSH20 0xFFFFFFFFFFFFFFFFFFFFFFFFFFFFFFFFFFFFFFFF MUL NOT AND SWAP1 DUP4 PUSH20 0xFFFFFFFFFFFFFFFFFFFFFFFFFFFFFFFFFFFFFFFF AND MUL OR SWAP1 SSTORE POP DUP1 PUSH1 0xA PUSH1 0x0 PUSH2 0x100 EXP DUP2 SLOAD DUP2 PUSH20 0xFFFFFFFFFFFFFFFFFFFFFFFFFFFFFFFFFFFFFFFF MUL NOT AND SWAP1 DUP4 PUSH20 0xFFFFFFFFFFFFFFFFFFFFFFFFFFFFFFFFFFFFFFFF AND MUL OR SWAP1 SSTORE POP POP JUMP JUMPDEST PUSH1 0x60 PUSH1 0x2 PUSH1 0x0 DUP4 DUP2 MSTORE PUSH1 0x20 ADD SWAP1 DUP2 MSTORE PUSH1 0x20 ADD PUSH1 0x0 KECCAK256 DUP1 SLOAD DUP1 PUSH1 0x20 MUL PUSH1 0x20 ADD PUSH1 0x40 MLOAD SWAP1 DUP2 ADD PUSH1 0x40 MSTORE DUP1 SWAP3 SWAP2 SWAP1 DUP2 DUP2 MSTORE PUSH1 0x20 ADD PUSH1 0x0 SWAP1 JUMPDEST DUP3 DUP3 LT ISZERO PUSH2 0x1B15 JUMPI DUP4 DUP3 SWAP1 PUSH1 0x0 MSTORE PUSH1 0x20 PUSH1 0x0 KECCAK256 SWAP1 PUSH1 0xB MUL ADD PUSH1 0x40 MLOAD DUP1 PUSH2 0x160 ADD PUSH1 0x40 MSTORE SWAP1 DUP2 PUSH1 0x0 DUP3 ADD SLOAD DUP2 MSTORE PUSH1 0x20 ADD PUSH1 0x1 DUP3 ADD DUP1 SLOAD PUSH2 0x18E9 SWAP1 PUSH2 0x4C9E JUMP JUMPDEST DUP1 PUSH1 0x1F ADD PUSH1 0x20 DUP1 SWAP2 DIV MUL PUSH1 0x20 ADD PUSH1 0x40 MLOAD SWAP1 DUP2 ADD PUSH1 0x40 MSTORE DUP1 SWAP3 SWAP2 SWAP1 DUP2 DUP2 MSTORE PUSH1 0x20 ADD DUP3 DUP1 SLOAD PUSH2 0x1915 SWAP1 PUSH2 0x4C9E JUMP JUMPDEST DUP1 ISZERO PUSH2 0x1962 JUMPI DUP1 PUSH1 0x1F LT PUSH2 0x1937 JUMPI PUSH2 0x100 DUP1 DUP4 SLOAD DIV MUL DUP4 MSTORE SWAP2 PUSH1 0x20 ADD SWAP2 PUSH2 0x1962 JUMP JUMPDEST DUP3 ADD SWAP2 SWAP1 PUSH1 0x0 MSTORE PUSH1 0x20 PUSH1 0x0 KECCAK256 SWAP1 JUMPDEST DUP2 SLOAD DUP2 MSTORE SWAP1 PUSH1 0x1 ADD SWAP1 PUSH1 0x20 ADD DUP1 DUP4 GT PUSH2 0x1945 JUMPI DUP3 SWAP1 SUB PUSH1 0x1F AND DUP3 ADD SWAP2 JUMPDEST POP POP POP POP POP DUP2 MSTORE PUSH1 0x20 ADD PUSH1 0x2 DUP3 ADD PUSH1 0x0 SWAP1 SLOAD SWAP1 PUSH2 0x100 EXP SWAP1 DIV PUSH1 0xFF AND PUSH1 0x3 DUP2 GT ISZERO PUSH2 0x1990 JUMPI PUSH2 0x198F PUSH2 0x3C9D JUMP JUMPDEST JUMPDEST PUSH1 0x3 DUP2 GT ISZERO PUSH2 0x19A2 JUMPI PUSH2 0x19A1 PUSH2 0x3C9D JUMP JUMPDEST JUMPDEST DUP2 MSTORE PUSH1 0x20 ADD PUSH1 0x3 DUP3 ADD DUP1 SLOAD PUSH2 0x19B6 SWAP1 PUSH2 0x4C9E JUMP JUMPDEST DUP1 PUSH1 0x1F ADD PUSH1 0x20 DUP1 SWAP2 DIV MUL PUSH1 0x20 ADD PUSH1 0x40 MLOAD SWAP1 DUP2 ADD PUSH1 0x40 MSTORE DUP1 SWAP3 SWAP2 SWAP1 DUP2 DUP2 MSTORE PUSH1 0x20 ADD DUP3 DUP1 SLOAD PUSH2 0x19E2 SWAP1 PUSH2 0x4C9E JUMP JUMPDEST DUP1 ISZERO PUSH2 0x1A2F JUMPI DUP1 PUSH1 0x1F LT PUSH2 0x1A04 JUMPI PUSH2 0x100 DUP1 DUP4 SLOAD DIV MUL DUP4 MSTORE SWAP2 PUSH1 0x20 ADD SWAP2 PUSH2 0x1A2F JUMP JUMPDEST DUP3 ADD SWAP2 SWAP1 PUSH1 0x0 MSTORE PUSH1 0x20 PUSH1 0x0 KECCAK256 SWAP1 JUMPDEST DUP2 SLOAD DUP2 MSTORE SWAP1 PUSH1 0x1 ADD SWAP1 PUSH1 0x20 ADD DUP1 DUP4 GT PUSH2 0x1A12 JUMPI DUP3 SWAP1 SUB PUSH1 0x1F AND DUP3 ADD SWAP2 JUMPDEST POP POP POP POP POP DUP2 MSTORE PUSH1 0x20 ADD PUSH1 0x4 DUP3 ADD SLOAD DUP2 MSTORE PUSH1 0x20 ADD PUSH1 0x5 DUP3 ADD SLOAD DUP2 MSTORE PUSH1 0x20 ADD PUSH1 0x6 DUP3 ADD SLOAD DUP2 MSTORE PUSH1 0x20 ADD PUSH1 0x7 DUP3 ADD SLOAD DUP2 MSTORE PUSH1 0x20 ADD PUSH1 0x8 DUP3 ADD SLOAD DUP2 MSTORE PUSH1 0x20 ADD PUSH1 0x9 DUP3 ADD SLOAD DUP2 MSTORE PUSH1 0x20 ADD PUSH1 0xA DUP3 ADD DUP1 SLOAD PUSH2 0x1A84 SWAP1 PUSH2 0x4C9E JUMP JUMPDEST DUP1 PUSH1 0x1F ADD PUSH1 0x20 DUP1 SWAP2 DIV MUL PUSH1 0x20 ADD PUSH1 0x40 MLOAD SWAP1 DUP2 ADD PUSH1 0x40 MSTORE DUP1 SWAP3 SWAP2 SWAP1 DUP2 DUP2 MSTORE PUSH1 0x20 ADD DUP3 DUP1 SLOAD PUSH2 0x1AB0 SWAP1 PUSH2 0x4C9E JUMP JUMPDEST DUP1 ISZERO PUSH2 0x1AFD JUMPI DUP1 PUSH1 0x1F LT PUSH2 0x1AD2 JUMPI PUSH2 0x100 DUP1 DUP4 SLOAD DIV MUL DUP4 MSTORE SWAP2 PUSH1 0x20 ADD SWAP2 PUSH2 0x1AFD JUMP JUMPDEST DUP3 ADD SWAP2 SWAP1 PUSH1 0x0 MSTORE PUSH1 0x20 PUSH1 0x0 KECCAK256 SWAP1 JUMPDEST DUP2 SLOAD DUP2 MSTORE SWAP1 PUSH1 0x1 ADD SWAP1 PUSH1 0x20 ADD DUP1 DUP4 GT PUSH2 0x1AE0 JUMPI DUP3 SWAP1 SUB PUSH1 0x1F AND DUP3 ADD SWAP2 JUMPDEST POP POP POP POP POP DUP2 MSTORE POP POP DUP2 MSTORE PUSH1 0x20 ADD SWAP1 PUSH1 0x1 ADD SWAP1 PUSH2 0x18AB JUMP JUMPDEST POP POP POP POP SWAP1 POP SWAP2 SWAP1 POP JUMP JUMPDEST PUSH1 0x0 PUSH1 0x1 PUSH1 0x0 SWAP1 SLOAD SWAP1 PUSH2 0x100 EXP SWAP1 DIV PUSH20 0xFFFFFFFFFFFFFFFFFFFFFFFFFFFFFFFFFFFFFFFF AND SWAP1 POP SWAP1 JUMP JUMPDEST PUSH1 0x0 PUSH1 0x3 PUSH1 0x0 DUP4 DUP2 MSTORE PUSH1 0x20 ADD SWAP1 DUP2 MSTORE PUSH1 0x20 ADD PUSH1 0x0 KECCAK256 PUSH1 0x4 ADD SLOAD SWAP1 POP SWAP2 SWAP1 POP JUMP JUMPDEST PUSH1 0xD PUSH1 0x20 MSTORE DUP1 PUSH1 0x0 MSTORE PUSH1 0x40 PUSH1 0x0 KECCAK256 PUSH1 0x0 SWAP2 POP SWAP1 POP SLOAD DUP2 JUMP JUMPDEST PUSH1 0x9 PUSH1 0x0 SWAP1 SLOAD SWAP1 PUSH2 0x100 EXP SWAP1 DIV PUSH20 0xFFFFFFFFFFFFFFFFFFFFFFFFFFFFFFFFFFFFFFFF AND DUP2 JUMP JUMPDEST PUSH2 0x1BB0 PUSH2 0x3918 JUMP JUMPDEST PUSH1 0x3 PUSH1 0x0 DUP3 DUP2 MSTORE PUSH1 0x20 ADD SWAP1 DUP2 MSTORE PUSH1 0x20 ADD PUSH1 0x0 KECCAK256 PUSH1 0x6 ADD PUSH1 0x0 SWAP1 SLOAD SWAP1 PUSH2 0x100 EXP SWAP1 DIV PUSH1 0xFF AND PUSH2 0x1C0A JUMPI PUSH1 0x40 MLOAD PUSH32 0xE067835F00000000000000000000000000000000000000000000000000000000 DUP2 MSTORE PUSH1 0x4 ADD PUSH1 0x40 MLOAD DUP1 SWAP2 SUB SWAP1 REVERT JUMPDEST PUSH1 0x0 PUSH1 0x3 PUSH1 0x0 DUP4 DUP2 MSTORE PUSH1 0x20 ADD SWAP1 DUP2 MSTORE PUSH1 0x20 ADD PUSH1 0x0 KECCAK256 PUSH1 0x6 ADD PUSH1 0x0 PUSH2 0x100 EXP DUP2 SLOAD DUP2 PUSH1 0xFF MUL NOT AND SWAP1 DUP4 ISZERO ISZERO MUL OR SWAP1 SSTORE POP POP JUMP JUMPDEST PUSH1 0xA PUSH1 0x0 SWAP1 SLOAD SWAP1 PUSH2 0x100 EXP SWAP1 DIV PUSH20 0xFFFFFFFFFFFFFFFFFFFFFFFFFFFFFFFFFFFFFFFF AND PUSH20 0xFFFFFFFFFFFFFFFFFFFFFFFFFFFFFFFFFFFFFFFF AND CALLER PUSH20 0xFFFFFFFFFFFFFFFFFFFFFFFFFFFFFFFFFFFFFFFF AND EQ DUP1 PUSH2 0x1CE5 JUMPI POP PUSH1 0xB PUSH1 0x0 SWAP1 SLOAD SWAP1 PUSH2 0x100 EXP SWAP1 DIV PUSH20 0xFFFFFFFFFFFFFFFFFFFFFFFFFFFFFFFFFFFFFFFF AND PUSH20 0xFFFFFFFFFFFFFFFFFFFFFFFFFFFFFFFFFFFFFFFF AND CALLER PUSH20 0xFFFFFFFFFFFFFFFFFFFFFFFFFFFFFFFFFFFFFFFF AND EQ JUMPDEST PUSH2 0x1D24 JUMPI PUSH1 0x40 MLOAD PUSH32 0x8C379A000000000000000000000000000000000000000000000000000000000 DUP2 MSTORE PUSH1 0x4 ADD PUSH2 0x1D1B SWAP1 PUSH2 0x528D JUMP JUMPDEST PUSH1 0x40 MLOAD DUP1 SWAP2 SUB SWAP1 REVERT JUMPDEST DUP1 PUSH1 0x3 PUSH1 0x0 DUP5 DUP2 MSTORE PUSH1 0x20 ADD SWAP1 DUP2 MSTORE PUSH1 0x20 ADD PUSH1 0x0 KECCAK256 PUSH1 0x7 ADD PUSH1 0x0 DUP3 DUP3 SLOAD PUSH2 0x1D4A SWAP2 SWAP1 PUSH2 0x50E9 JUMP JUMPDEST SWAP3 POP POP DUP2 SWAP1 SSTORE POP POP POP JUMP JUMPDEST PUSH1 0xA PUSH1 0x0 SWAP1 SLOAD SWAP1 PUSH2 0x100 EXP SWAP1 DIV PUSH20 0xFFFFFFFFFFFFFFFFFFFFFFFFFFFFFFFFFFFFFFFF AND PUSH20 0xFFFFFFFFFFFFFFFFFFFFFFFFFFFFFFFFFFFFFFFF AND CALLER PUSH20 0xFFFFFFFFFFFFFFFFFFFFFFFFFFFFFFFFFFFFFFFF AND EQ DUP1 PUSH2 0x1DFE JUMPI POP PUSH1 0xB PUSH1 0x0 SWAP1 SLOAD SWAP1 PUSH2 0x100 EXP SWAP1 DIV PUSH20 0xFFFFFFFFFFFFFFFFFFFFFFFFFFFFFFFFFFFFFFFF AND PUSH20 0xFFFFFFFFFFFFFFFFFFFFFFFFFFFFFFFFFFFFFFFF AND CALLER PUSH20 0xFFFFFFFFFFFFFFFFFFFFFFFFFFFFFFFFFFFFFFFF AND EQ JUMPDEST PUSH2 0x1E3D JUMPI PUSH1 0x40 MLOAD PUSH32 0x8C379A000000000000000000000000000000000000000000000000000000000 DUP2 MSTORE PUSH1 0x4 ADD PUSH2 0x1E34 SWAP1 PUSH2 0x528D JUMP JUMPDEST PUSH1 0x40 MLOAD DUP1 SWAP2 SUB SWAP1 REVERT JUMPDEST PUSH1 0x0 JUMPDEST PUSH1 0x2 PUSH1 0x0 DUP5 DUP2 MSTORE PUSH1 0x20 ADD SWAP1 DUP2 MSTORE PUSH1 0x20 ADD PUSH1 0x0 KECCAK256 DUP1 SLOAD SWAP1 POP DUP2 LT ISZERO PUSH2 0x1FA3 JUMPI DUP2 PUSH1 0x0 ADD MLOAD PUSH1 0x2 PUSH1 0x0 DUP6 DUP2 MSTORE PUSH1 0x20 ADD SWAP1 DUP2 MSTORE PUSH1 0x20 ADD PUSH1 0x0 KECCAK256 DUP3 DUP2 SLOAD DUP2 LT PUSH2 0x1E88 JUMPI PUSH2 0x1E87 PUSH2 0x4F07 JUMP JUMPDEST JUMPDEST SWAP1 PUSH1 0x0 MSTORE PUSH1 0x20 PUSH1 0x0 KECCAK256 SWAP1 PUSH1 0xB MUL ADD PUSH1 0x0 ADD SLOAD SUB PUSH2 0x1F96 JUMPI DUP2 PUSH1 0x2 PUSH1 0x0 DUP6 DUP2 MSTORE PUSH1 0x20 ADD SWAP1 DUP2 MSTORE PUSH1 0x20 ADD PUSH1 0x0 KECCAK256 DUP3 DUP2 SLOAD DUP2 LT PUSH2 0x1EC5 JUMPI PUSH2 0x1EC4 PUSH2 0x4F07 JUMP JUMPDEST JUMPDEST SWAP1 PUSH1 0x0 MSTORE PUSH1 0x20 PUSH1 0x0 KECCAK256 SWAP1 PUSH1 0xB MUL ADD PUSH1 0x0 DUP3 ADD MLOAD DUP2 PUSH1 0x0 ADD SSTORE PUSH1 0x20 DUP3 ADD MLOAD DUP2 PUSH1 0x1 ADD SWAP1 DUP2 PUSH2 0x1EF2 SWAP2 SWAP1 PUSH2 0x543A JUMP JUMPDEST POP PUSH1 0x40 DUP3 ADD MLOAD DUP2 PUSH1 0x2 ADD PUSH1 0x0 PUSH2 0x100 EXP DUP2 SLOAD DUP2 PUSH1 0xFF MUL NOT AND SWAP1 DUP4 PUSH1 0x3 DUP2 GT ISZERO PUSH2 0x1F1E JUMPI PUSH2 0x1F1D PUSH2 0x3C9D JUMP JUMPDEST JUMPDEST MUL OR SWAP1 SSTORE POP PUSH1 0x60 DUP3 ADD MLOAD DUP2 PUSH1 0x3 ADD SWAP1 DUP2 PUSH2 0x1F38 SWAP2 SWAP1 PUSH2 0x543A JUMP JUMPDEST POP PUSH1 0x80 DUP3 ADD MLOAD DUP2 PUSH1 0x4 ADD SSTORE PUSH1 0xA0 DUP3 ADD MLOAD DUP2 PUSH1 0x5 ADD SSTORE PUSH1 0xC0 DUP3 ADD MLOAD DUP2 PUSH1 0x6 ADD SSTORE PUSH1 0xE0 DUP3 ADD MLOAD DUP2 PUSH1 0x7 ADD SSTORE PUSH2 0x100 DUP3 ADD MLOAD DUP2 PUSH1 0x8 ADD SSTORE PUSH2 0x120 DUP3 ADD MLOAD DUP2 PUSH1 0x9 ADD SSTORE PUSH2 0x140 DUP3 ADD MLOAD DUP2 PUSH1 0xA ADD SWAP1 DUP2 PUSH2 0x1F8D SWAP2 SWAP1 PUSH2 0x543A JUMP JUMPDEST POP SWAP1 POP POP PUSH2 0x1FA3 JUMP JUMPDEST DUP1 DUP1 PUSH1 0x1 ADD SWAP2 POP POP PUSH2 0x1E40 JUMP JUMPDEST POP POP POP JUMP JUMPDEST PUSH1 0xA PUSH1 0x0 SWAP1 SLOAD SWAP1 PUSH2 0x100 EXP SWAP1 DIV PUSH20 0xFFFFFFFFFFFFFFFFFFFFFFFFFFFFFFFFFFFFFFFF AND PUSH20 0xFFFFFFFFFFFFFFFFFFFFFFFFFFFFFFFFFFFFFFFF AND CALLER PUSH20 0xFFFFFFFFFFFFFFFFFFFFFFFFFFFFFFFFFFFFFFFF AND EQ DUP1 PUSH2 0x2051 JUMPI POP PUSH1 0xB PUSH1 0x0 SWAP1 SLOAD SWAP1 PUSH2 0x100 EXP SWAP1 DIV PUSH20 0xFFFFFFFFFFFFFFFFFFFFFFFFFFFFFFFFFFFFFFFF AND PUSH20 0xFFFFFFFFFFFFFFFFFFFFFFFFFFFFFFFFFFFFFFFF AND CALLER PUSH20 0xFFFFFFFFFFFFFFFFFFFFFFFFFFFFFFFFFFFFFFFF AND EQ JUMPDEST PUSH2 0x2090 JUMPI PUSH1 0x40 MLOAD PUSH32 0x8C379A000000000000000000000000000000000000000000000000000000000 DUP2 MSTORE PUSH1 0x4 ADD PUSH2 0x2087 SWAP1 PUSH2 0x528D JUMP JUMPDEST PUSH1 0x40 MLOAD DUP1 SWAP2 SUB SWAP1 REVERT JUMPDEST DUP1 PUSH1 0x3 PUSH1 0x0 DUP5 DUP2 MSTORE PUSH1 0x20 ADD SWAP1 DUP2 MSTORE PUSH1 0x20 ADD PUSH1 0x0 KECCAK256 PUSH1 0x7 ADD PUSH1 0x0 DUP3 DUP3 SLOAD PUSH2 0x20B6 SWAP2 SWAP1 PUSH2 0x4ED3 JUMP JUMPDEST SWAP3 POP POP DUP2 SWAP1 SSTORE POP POP POP JUMP JUMPDEST PUSH2 0x20C9 PUSH2 0x3918 JUMP JUMPDEST PUSH1 0x0 PUSH20 0xFFFFFFFFFFFFFFFFFFFFFFFFFFFFFFFFFFFFFFFF AND PUSH1 0x5 PUSH1 0x0 SWAP1 SLOAD SWAP1 PUSH2 0x100 EXP SWAP1 DIV PUSH20 0xFFFFFFFFFFFFFFFFFFFFFFFFFFFFFFFFFFFFFFFF AND PUSH20 0xFFFFFFFFFFFFFFFFFFFFFFFFFFFFFFFFFFFFFFFF AND EQ PUSH2 0x215A JUMPI PUSH1 0x40 MLOAD PUSH32 0x8C379A000000000000000000000000000000000000000000000000000000000 DUP2 MSTORE PUSH1 0x4 ADD PUSH2 0x2151 SWAP1 PUSH2 0x5169 JUMP JUMPDEST PUSH1 0x40 MLOAD DUP1 SWAP2 SUB SWAP1 REVERT JUMPDEST PUSH1 0x0 PUSH20 0xFFFFFFFFFFFFFFFFFFFFFFFFFFFFFFFFFFFFFFFF AND DUP2 PUSH20 0xFFFFFFFFFFFFFFFFFFFFFFFFFFFFFFFFFFFFFFFF AND SUB PUSH2 0x21C9 JUMPI PUSH1 0x40 MLOAD PUSH32 0x8C379A000000000000000000000000000000000000000000000000000000000 DUP2 MSTORE PUSH1 0x4 ADD PUSH2 0x21C0 SWAP1 PUSH2 0x51FB JUMP JUMPDEST PUSH1 0x40 MLOAD DUP1 SWAP2 SUB SWAP1 REVERT JUMPDEST DUP1 PUSH1 0x5 PUSH1 0x0 PUSH2 0x100 EXP DUP2 SLOAD DUP2 PUSH20 0xFFFFFFFFFFFFFFFFFFFFFFFFFFFFFFFFFFFFFFFF MUL NOT AND SWAP1 DUP4 PUSH20 0xFFFFFFFFFFFFFFFFFFFFFFFFFFFFFFFFFFFFFFFF AND MUL OR SWAP1 SSTORE POP DUP1 PUSH1 0x7 PUSH1 0x0 PUSH2 0x100 EXP DUP2 SLOAD DUP2 PUSH20 0xFFFFFFFFFFFFFFFFFFFFFFFFFFFFFFFFFFFFFFFF MUL NOT AND SWAP1 DUP4 PUSH20 0xFFFFFFFFFFFFFFFFFFFFFFFFFFFFFFFFFFFFFFFF AND MUL OR SWAP1 SSTORE POP POP JUMP JUMPDEST PUSH1 0x3 PUSH1 0x20 MSTORE DUP1 PUSH1 0x0 MSTORE PUSH1 0x40 PUSH1 0x0 KECCAK256 PUSH1 0x0 SWAP2 POP SWAP1 POP DUP1 PUSH1 0x0 ADD DUP1 SLOAD PUSH2 0x2271 SWAP1 PUSH2 0x4C9E JUMP JUMPDEST DUP1 PUSH1 0x1F ADD PUSH1 0x20 DUP1 SWAP2 DIV MUL PUSH1 0x20 ADD PUSH1 0x40 MLOAD SWAP1 DUP2 ADD PUSH1 0x40 MSTORE DUP1 SWAP3 SWAP2 SWAP1 DUP2 DUP2 MSTORE PUSH1 0x20 ADD DUP3 DUP1 SLOAD PUSH2 0x229D SWAP1 PUSH2 0x4C9E JUMP JUMPDEST DUP1 ISZERO PUSH2 0x22EA JUMPI DUP1 PUSH1 0x1F LT PUSH2 0x22BF JUMPI PUSH2 0x100 DUP1 DUP4 SLOAD DIV MUL DUP4 MSTORE SWAP2 PUSH1 0x20 ADD SWAP2 PUSH2 0x22EA JUMP JUMPDEST DUP3 ADD SWAP2 SWAP1 PUSH1 0x0 MSTORE PUSH1 0x20 PUSH1 0x0 KECCAK256 SWAP1 JUMPDEST DUP2 SLOAD DUP2 MSTORE SWAP1 PUSH1 0x1 ADD SWAP1 PUSH1 0x20 ADD DUP1 DUP4 GT PUSH2 0x22CD JUMPI DUP3 SWAP1 SUB PUSH1 0x1F AND DUP3 ADD SWAP2 JUMPDEST POP POP POP POP POP SWAP1 DUP1 PUSH1 0x1 ADD PUSH1 0x0 SWAP1 SLOAD SWAP1 PUSH2 0x100 EXP SWAP1 DIV PUSH1 0xFF AND SWAP1 DUP1 PUSH1 0x2 ADD SLOAD SWAP1 DUP1 PUSH1 0x3 ADD SLOAD SWAP1 DUP1 PUSH1 0x4 ADD SLOAD SWAP1 DUP1 PUSH1 0x5 ADD SLOAD SWAP1 DUP1 PUSH1 0x6 ADD PUSH1 0x0 SWAP1 SLOAD SWAP1 PUSH2 0x100 EXP SWAP1 DIV PUSH1 0xFF AND SWAP1 DUP1 PUSH1 0x7 ADD SLOAD SWAP1 POP DUP9 JUMP JUMPDEST PUSH1 0x7 PUSH1 0x0 SWAP1 SLOAD SWAP1 PUSH2 0x100 EXP SWAP1 DIV PUSH20 0xFFFFFFFFFFFFFFFFFFFFFFFFFFFFFFFFFFFFFFFF AND DUP2 JUMP JUMPDEST PUSH1 0xA PUSH1 0x0 SWAP1 SLOAD SWAP1 PUSH2 0x100 EXP SWAP1 DIV PUSH20 0xFFFFFFFFFFFFFFFFFFFFFFFFFFFFFFFFFFFFFFFF AND PUSH20 0xFFFFFFFFFFFFFFFFFFFFFFFFFFFFFFFFFFFFFFFF AND CALLER PUSH20 0xFFFFFFFFFFFFFFFFFFFFFFFFFFFFFFFFFFFFFFFF AND EQ DUP1 PUSH2 0x2407 JUMPI POP PUSH1 0xB PUSH1 0x0 SWAP1 SLOAD SWAP1 PUSH2 0x100 EXP SWAP1 DIV PUSH20 0xFFFFFFFFFFFFFFFFFFFFFFFFFFFFFFFFFFFFFFFF AND PUSH20 0xFFFFFFFFFFFFFFFFFFFFFFFFFFFFFFFFFFFFFFFF AND CALLER PUSH20 0xFFFFFFFFFFFFFFFFFFFFFFFFFFFFFFFFFFFFFFFF AND EQ JUMPDEST PUSH2 0x2446 JUMPI PUSH1 0x40 MLOAD PUSH32 0x8C379A000000000000000000000000000000000000000000000000000000000 DUP2 MSTORE PUSH1 0x4 ADD PUSH2 0x243D SWAP1 PUSH2 0x528D JUMP JUMPDEST PUSH1 0x40 MLOAD DUP1 SWAP2 SUB SWAP1 REVERT JUMPDEST PUSH1 0x2 PUSH1 0x0 DUP4 DUP2 MSTORE PUSH1 0x20 ADD SWAP1 DUP2 MSTORE PUSH1 0x20 ADD PUSH1 0x0 KECCAK256 DUP2 SWAP1 DUP1 PUSH1 0x1 DUP2 SLOAD ADD DUP1 DUP3 SSTORE DUP1 SWAP2 POP POP PUSH1 0x1 SWAP1 SUB SWAP1 PUSH1 0x0 MSTORE PUSH1 0x20 PUSH1 0x0 KECCAK256 SWAP1 PUSH1 0xB MUL ADD PUSH1 0x0 SWAP1 SWAP2 SWAP1 SWAP2 SWAP1 SWAP2 POP PUSH1 0x0 DUP3 ADD MLOAD DUP2 PUSH1 0x0 ADD SSTORE PUSH1 0x20 DUP3 ADD MLOAD DUP2 PUSH1 0x1 ADD SWAP1 DUP2 PUSH2 0x24A2 SWAP2 SWAP1 PUSH2 0x543A JUMP JUMPDEST POP PUSH1 0x40 DUP3 ADD MLOAD DUP2 PUSH1 0x2 ADD PUSH1 0x0 PUSH2 0x100 EXP DUP2 SLOAD DUP2 PUSH1 0xFF MUL NOT AND SWAP1 DUP4 PUSH1 0x3 DUP2 GT ISZERO PUSH2 0x24CE JUMPI PUSH2 0x24CD PUSH2 0x3C9D JUMP JUMPDEST JUMPDEST MUL OR SWAP1 SSTORE POP PUSH1 0x60 DUP3 ADD MLOAD DUP2 PUSH1 0x3 ADD SWAP1 DUP2 PUSH2 0x24E8 SWAP2 SWAP1 PUSH2 0x543A JUMP JUMPDEST POP PUSH1 0x80 DUP3 ADD MLOAD DUP2 PUSH1 0x4 ADD SSTORE PUSH1 0xA0 DUP3 ADD MLOAD DUP2 PUSH1 0x5 ADD SSTORE PUSH1 0xC0 DUP3 ADD MLOAD DUP2 PUSH1 0x6 ADD SSTORE PUSH1 0xE0 DUP3 ADD MLOAD DUP2 PUSH1 0x7 ADD SSTORE PUSH2 0x100 DUP3 ADD MLOAD DUP2 PUSH1 0x8 ADD SSTORE PUSH2 0x120 DUP3 ADD MLOAD DUP2 PUSH1 0x9 ADD SSTORE PUSH2 0x140 DUP3 ADD MLOAD DUP2 PUSH1 0xA ADD SWAP1 DUP2 PUSH2 0x253D SWAP2 SWAP1 PUSH2 0x543A JUMP JUMPDEST POP POP POP POP POP JUMP JUMPDEST PUSH2 0x254C PUSH2 0x3AC2 JUMP JUMPDEST PUSH1 0x3 PUSH1 0x0 DUP5 DUP2 MSTORE PUSH1 0x20 ADD SWAP1 DUP2 MSTORE PUSH1 0x20 ADD PUSH1 0x0 KECCAK256 PUSH1 0x8 ADD PUSH1 0x0 DUP4 PUSH20 0xFFFFFFFFFFFFFFFFFFFFFFFFFFFFFFFFFFFFFFFF AND PUSH20 0xFFFFFFFFFFFFFFFFFFFFFFFFFFFFFFFFFFFFFFFF AND DUP2 MSTORE PUSH1 0x20 ADD SWAP1 DUP2 MSTORE PUSH1 0x20 ADD PUSH1 0x0 KECCAK256 PUSH1 0x40 MLOAD DUP1 PUSH2 0x120 ADD PUSH1 0x40 MSTORE SWAP1 DUP2 PUSH1 0x0 DUP3 ADD PUSH1 0x0 SWAP1 SLOAD SWAP1 PUSH2 0x100 EXP SWAP1 DIV PUSH20 0xFFFFFFFFFFFFFFFFFFFFFFFFFFFFFFFFFFFFFFFF AND PUSH20 0xFFFFFFFFFFFFFFFFFFFFFFFFFFFFFFFFFFFFFFFF AND PUSH20 0xFFFFFFFFFFFFFFFFFFFFFFFFFFFFFFFFFFFFFFFF AND DUP2 MSTORE PUSH1 0x20 ADD PUSH1 0x1 DUP3 ADD SLOAD DUP2 MSTORE PUSH1 0x20 ADD PUSH1 0x2 DUP3 ADD SLOAD DUP2 MSTORE PUSH1 0x20 ADD PUSH1 0x3 DUP3 ADD SLOAD DUP2 MSTORE PUSH1 0x20 ADD PUSH1 0x4 DUP3 ADD PUSH1 0x0 SWAP1 SLOAD SWAP1 PUSH2 0x100 EXP SWAP1 DIV PUSH1 0xFF AND PUSH1 0x1 DUP2 GT ISZERO PUSH2 0x2644 JUMPI PUSH2 0x2643 PUSH2 0x3C9D JUMP JUMPDEST JUMPDEST PUSH1 0x1 DUP2 GT ISZERO PUSH2 0x2656 JUMPI PUSH2 0x2655 PUSH2 0x3C9D JUMP JUMPDEST JUMPDEST DUP2 MSTORE PUSH1 0x20 ADD PUSH1 0x5 DUP3 ADD SLOAD DUP2 MSTORE PUSH1 0x20 ADD PUSH1 0x6 DUP3 ADD SLOAD DUP2 MSTORE PUSH1 0x20 ADD PUSH1 0x7 DUP3 ADD SLOAD DUP2 MSTORE PUSH1 0x20 ADD PUSH1 0x8 DUP3 ADD SLOAD DUP2 MSTORE POP POP SWAP1 POP SWAP3 SWAP2 POP POP JUMP JUMPDEST PUSH2 0x2692 PUSH2 0x3918 JUMP JUMPDEST PUSH1 0x3 PUSH1 0x0 DUP5 DUP2 MSTORE PUSH1 0x20 ADD SWAP1 DUP2 MSTORE PUSH1 0x20 ADD PUSH1 0x0 KECCAK256 PUSH1 0x6 ADD PUSH1 0x0 SWAP1 SLOAD SWAP1 PUSH2 0x100 EXP SWAP1 DIV PUSH1 0xFF AND PUSH2 0x26F5 JUMPI PUSH1 0x40 MLOAD PUSH32 0x8C379A000000000000000000000000000000000000000000000000000000000 DUP2 MSTORE PUSH1 0x4 ADD PUSH2 0x26EC SWAP1 PUSH2 0x557E JUMP JUMPDEST PUSH1 0x40 MLOAD DUP1 SWAP2 SUB SWAP1 REVERT JUMPDEST PUSH1 0x0 DUP3 GT PUSH2 0x2738 JUMPI PUSH1 0x40 MLOAD PUSH32 0x8C379A000000000000000000000000000000000000000000000000000000000 DUP2 MSTORE PUSH1 0x4 ADD PUSH2 0x272F SWAP1 PUSH2 0x55EA JUMP JUMPDEST PUSH1 0x40 MLOAD DUP1 SWAP2 SUB SWAP1 REVERT JUMPDEST PUSH1 0x0 DUP2 GT PUSH2 0x277B JUMPI PUSH1 0x40 MLOAD PUSH32 0x8C379A000000000000000000000000000000000000000000000000000000000 DUP2 MSTORE PUSH1 0x4 ADD PUSH2 0x2772 SWAP1 PUSH2 0x5656 JUMP JUMPDEST PUSH1 0x40 MLOAD DUP1 SWAP2 SUB SWAP1 REVERT JUMPDEST DUP2 PUSH1 0x3 PUSH1 0x0 DUP6 DUP2 MSTORE PUSH1 0x20 ADD SWAP1 DUP2 MSTORE PUSH1 0x20 ADD PUSH1 0x0 KECCAK256 PUSH1 0x2 ADD DUP2 SWAP1 SSTORE POP DUP1 PUSH1 0x3 PUSH1 0x0 DUP6 DUP2 MSTORE PUSH1 0x20 ADD SWAP1 DUP2 MSTORE PUSH1 0x20 ADD PUSH1 0x0 KECCAK256 PUSH1 0x3 ADD DUP2 SWAP1 SSTORE POP DUP3 PUSH32 0x17B8644F386D1C7C7138EF98B3C8035622BBE94D7BE9B26F71D2654A547C2943 DUP4 DUP4 PUSH1 0x40 MLOAD PUSH2 0x27E3 SWAP3 SWAP2 SWAP1 PUSH2 0x3E52 JUMP JUMPDEST PUSH1 0x40 MLOAD DUP1 SWAP2 SUB SWAP1 LOG2 POP POP POP JUMP JUMPDEST PUSH1 0x60 PUSH1 0x0 PUSH1 0x4 SLOAD PUSH8 0xFFFFFFFFFFFFFFFF DUP2 GT ISZERO PUSH2 0x2810 JUMPI PUSH2 0x280F PUSH2 0x45D8 JUMP JUMPDEST JUMPDEST PUSH1 0x40 MLOAD SWAP1 DUP1 DUP3 MSTORE DUP1 PUSH1 0x20 MUL PUSH1 0x20 ADD DUP3 ADD PUSH1 0x40 MSTORE DUP1 ISZERO PUSH2 0x2849 JUMPI DUP2 PUSH1 0x20 ADD JUMPDEST PUSH2 0x2836 PUSH2 0x3B36 JUMP JUMPDEST DUP2 MSTORE PUSH1 0x20 ADD SWAP1 PUSH1 0x1 SWAP1 SUB SWAP1 DUP2 PUSH2 0x282E JUMPI SWAP1 POP JUMPDEST POP SWAP1 POP PUSH1 0x0 PUSH1 0x1 SWAP1 POP JUMPDEST PUSH1 0x4 SLOAD DUP2 GT PUSH2 0x29C7 JUMPI PUSH1 0x0 PUSH1 0x3 PUSH1 0x0 DUP4 DUP2 MSTORE PUSH1 0x20 ADD SWAP1 DUP2 MSTORE PUSH1 0x20 ADD PUSH1 0x0 KECCAK256 SWAP1 POP PUSH1 0x40 MLOAD DUP1 PUSH2 0x120 ADD PUSH1 0x40 MSTORE DUP1 DUP4 DUP2 MSTORE PUSH1 0x20 ADD DUP3 PUSH1 0x0 ADD DUP1 SLOAD PUSH2 0x2894 SWAP1 PUSH2 0x4C9E JUMP JUMPDEST DUP1 PUSH1 0x1F ADD PUSH1 0x20 DUP1 SWAP2 DIV MUL PUSH1 0x20 ADD PUSH1 0x40 MLOAD SWAP1 DUP2 ADD PUSH1 0x40 MSTORE DUP1 SWAP3 SWAP2 SWAP1 DUP2 DUP2 MSTORE PUSH1 0x20 ADD DUP3 DUP1 SLOAD PUSH2 0x28C0 SWAP1 PUSH2 0x4C9E JUMP JUMPDEST DUP1 ISZERO PUSH2 0x290D JUMPI DUP1 PUSH1 0x1F LT PUSH2 0x28E2 JUMPI PUSH2 0x100 DUP1 DUP4 SLOAD DIV MUL DUP4 MSTORE SWAP2 PUSH1 0x20 ADD SWAP2 PUSH2 0x290D JUMP JUMPDEST DUP3 ADD SWAP2 SWAP1 PUSH1 0x0 MSTORE PUSH1 0x20 PUSH1 0x0 KECCAK256 SWAP1 JUMPDEST DUP2 SLOAD DUP2 MSTORE SWAP1 PUSH1 0x1 ADD SWAP1 PUSH1 0x20 ADD DUP1 DUP4 GT PUSH2 0x28F0 JUMPI DUP3 SWAP1 SUB PUSH1 0x1F AND DUP3 ADD SWAP2 JUMPDEST POP POP POP POP POP DUP2 MSTORE PUSH1 0x20 ADD DUP3 PUSH1 0x1 ADD PUSH1 0x0 SWAP1 SLOAD SWAP1 PUSH2 0x100 EXP SWAP1 DIV PUSH1 0xFF AND PUSH1 0x3 DUP2 GT ISZERO PUSH2 0x293B JUMPI PUSH2 0x293A PUSH2 0x3C9D JUMP JUMPDEST JUMPDEST DUP2 MSTORE PUSH1 0x20 ADD DUP3 PUSH1 0x2 ADD SLOAD DUP2 MSTORE PUSH1 0x20 ADD DUP3 PUSH1 0x3 ADD SLOAD DUP2 MSTORE PUSH1 0x20 ADD DUP3 PUSH1 0x4 ADD SLOAD DUP2 MSTORE PUSH1 0x20 ADD DUP3 PUSH1 0x5 ADD SLOAD DUP2 MSTORE PUSH1 0x20 ADD DUP3 PUSH1 0x6 ADD PUSH1 0x0 SWAP1 SLOAD SWAP1 PUSH2 0x100 EXP SWAP1 DIV PUSH1 0xFF AND ISZERO ISZERO DUP2 MSTORE PUSH1 0x20 ADD DUP3 PUSH1 0x7 ADD SLOAD DUP2 MSTORE POP DUP4 PUSH1 0x1 DUP5 PUSH2 0x2997 SWAP2 SWAP1 PUSH2 0x4ED3 JUMP JUMPDEST DUP2 MLOAD DUP2 LT PUSH2 0x29A8 JUMPI PUSH2 0x29A7 PUSH2 0x4F07 JUMP JUMPDEST JUMPDEST PUSH1 0x20 MUL PUSH1 0x20 ADD ADD DUP2 SWAP1 MSTORE POP POP DUP1 DUP1 PUSH2 0x29BF SWAP1 PUSH2 0x4FFF JUMP JUMPDEST SWAP2 POP POP PUSH2 0x2853 JUMP JUMPDEST POP DUP1 SWAP2 POP POP SWAP1 JUMP JUMPDEST PUSH2 0x29D7 PUSH2 0x3918 JUMP JUMPDEST PUSH1 0x1 PUSH1 0x4 PUSH1 0x0 DUP3 DUP3 SLOAD PUSH2 0x29EA SWAP2 SWAP1 PUSH2 0x50E9 JUMP JUMPDEST SWAP3 POP POP DUP2 SWAP1 SSTORE POP PUSH1 0x0 PUSH1 0x3 PUSH1 0x0 PUSH1 0x4 SLOAD DUP2 MSTORE PUSH1 0x20 ADD SWAP1 DUP2 MSTORE PUSH1 0x20 ADD PUSH1 0x0 KECCAK256 SWAP1 POP DUP4 DUP2 PUSH1 0x0 ADD SWAP1 DUP2 PUSH2 0x2A1B SWAP2 SWAP1 PUSH2 0x543A JUMP JUMPDEST POP DUP3 DUP2 PUSH1 0x2 ADD DUP2 SWAP1 SSTORE POP DUP2 DUP2 PUSH1 0x3 ADD DUP2 SWAP1 SSTORE POP PUSH1 0x0 DUP2 PUSH1 0x4 ADD DUP2 SWAP1 SSTORE POP PUSH1 0x1 DUP2 PUSH1 0x6 ADD PUSH1 0x0 PUSH2 0x100 EXP DUP2 SLOAD DUP2 PUSH1 0xFF MUL NOT AND SWAP1 DUP4 ISZERO ISZERO MUL OR SWAP1 SSTORE POP DUP5 DUP2 PUSH1 0x1 ADD PUSH1 0x0 PUSH2 0x100 EXP DUP2 SLOAD DUP2 PUSH1 0xFF MUL NOT AND SWAP1 DUP4 PUSH1 0x3 DUP2 GT ISZERO PUSH2 0x2A7C JUMPI PUSH2 0x2A7B PUSH2 0x3C9D JUMP JUMPDEST JUMPDEST MUL OR SWAP1 SSTORE POP PUSH1 0x64 DUP2 PUSH1 0x7 ADD DUP2 SWAP1 SSTORE POP PUSH1 0x4 SLOAD PUSH32 0xF01906DC0AC306FA816E50166A7ED46AF1F05721CB90CEA30BEEBDD8DEDE3A6D DUP6 PUSH1 0x40 MLOAD PUSH2 0x2ABD SWAP2 SWAP1 PUSH2 0x5676 JUMP JUMPDEST PUSH1 0x40 MLOAD DUP1 SWAP2 SUB SWAP1 LOG2 POP POP POP POP POP JUMP JUMPDEST PUSH2 0x2AD4 PUSH2 0x38C8 JUMP JUMPDEST PUSH1 0x0 PUSH1 0x3 PUSH1 0x0 DUP5 DUP2 MSTORE PUSH1 0x20 ADD SWAP1 DUP2 MSTORE PUSH1 0x20 ADD PUSH1 0x0 KECCAK256 SWAP1 POP PUSH1 0x0 DUP3 GT PUSH2 0x2B2E JUMPI PUSH1 0x40 MLOAD PUSH32 0x8C379A000000000000000000000000000000000000000000000000000000000 DUP2 MSTORE PUSH1 0x4 ADD PUSH2 0x2B25 SWAP1 PUSH2 0x56E4 JUMP JUMPDEST PUSH1 0x40 MLOAD DUP1 SWAP2 SUB SWAP1 REVERT JUMPDEST DUP1 PUSH1 0x6 ADD PUSH1 0x0 SWAP1 SLOAD SWAP1 PUSH2 0x100 EXP SWAP1 DIV PUSH1 0xFF AND PUSH2 0x2B7F JUMPI PUSH1 0x40 MLOAD PUSH32 0x8C379A000000000000000000000000000000000000000000000000000000000 DUP2 MSTORE PUSH1 0x4 ADD PUSH2 0x2B76 SWAP1 PUSH2 0x5776 JUMP JUMPDEST PUSH1 0x40 MLOAD DUP1 SWAP2 SUB SWAP1 REVERT JUMPDEST PUSH1 0x8 PUSH1 0x0 SWAP1 SLOAD SWAP1 PUSH2 0x100 EXP SWAP1 DIV PUSH20 0xFFFFFFFFFFFFFFFFFFFFFFFFFFFFFFFFFFFFFFFF AND PUSH20 0xFFFFFFFFFFFFFFFFFFFFFFFFFFFFFFFFFFFFFFFF AND PUSH4 0x9DC29FAC CALLER DUP5 PUSH1 0x40 MLOAD DUP4 PUSH4 0xFFFFFFFF AND PUSH1 0xE0 SHL DUP2 MSTORE PUSH1 0x4 ADD PUSH2 0x2BDC SWAP3 SWAP2 SWAP1 PUSH2 0x4CCF JUMP JUMPDEST PUSH1 0x0 PUSH1 0x40 MLOAD DUP1 DUP4 SUB DUP2 PUSH1 0x0 DUP8 DUP1 EXTCODESIZE ISZERO DUP1 ISZERO PUSH2 0x2BF6 JUMPI PUSH1 0x0 DUP1 REVERT JUMPDEST POP GAS CALL ISZERO DUP1 ISZERO PUSH2 0x2C0A JUMPI RETURNDATASIZE PUSH1 0x0 DUP1 RETURNDATACOPY RETURNDATASIZE PUSH1 0x0 REVERT JUMPDEST POP POP POP POP DUP2 DUP2 PUSH1 0x4 ADD PUSH1 0x0 DUP3 DUP3 SLOAD PUSH2 0x2C22 SWAP2 SWAP1 PUSH2 0x50E9 JUMP JUMPDEST SWAP3 POP POP DUP2 SWAP1 SSTORE POP PUSH1 0x0 DUP2 PUSH1 0x8 ADD PUSH1 0x0 CALLER PUSH20 0xFFFFFFFFFFFFFFFFFFFFFFFFFFFFFFFFFFFFFFFF AND PUSH20 0xFFFFFFFFFFFFFFFFFFFFFFFFFFFFFFFFFFFFFFFF AND DUP2 MSTORE PUSH1 0x20 ADD SWAP1 DUP2 MSTORE PUSH1 0x20 ADD PUSH1 0x0 KECCAK256 PUSH1 0x1 ADD SLOAD GT ISZERO PUSH2 0x2E94 JUMPI PUSH1 0x0 DUP3 DUP3 PUSH1 0x8 ADD PUSH1 0x0 CALLER PUSH20 0xFFFFFFFFFFFFFFFFFFFFFFFFFFFFFFFFFFFFFFFF AND PUSH20 0xFFFFFFFFFFFFFFFFFFFFFFFFFFFFFFFFFFFFFFFF AND DUP2 MSTORE PUSH1 0x20 ADD SWAP1 DUP2 MSTORE PUSH1 0x20 ADD PUSH1 0x0 KECCAK256 PUSH1 0x1 ADD SLOAD PUSH2 0x2CC8 SWAP2 SWAP1 PUSH2 0x50E9 JUMP JUMPDEST SWAP1 POP DUP1 DUP3 PUSH1 0x8 ADD PUSH1 0x0 CALLER PUSH20 0xFFFFFFFFFFFFFFFFFFFFFFFFFFFFFFFFFFFFFFFF AND PUSH20 0xFFFFFFFFFFFFFFFFFFFFFFFFFFFFFFFFFFFFFFFF AND DUP2 MSTORE PUSH1 0x20 ADD SWAP1 DUP2 MSTORE PUSH1 0x20 ADD PUSH1 0x0 KECCAK256 PUSH1 0x1 ADD DUP2 SWAP1 SSTORE POP PUSH3 0x15180 DUP3 PUSH1 0x3 ADD SLOAD PUSH2 0x2D26 SWAP2 SWAP1 PUSH2 0x5047 JUMP JUMPDEST TIMESTAMP PUSH2 0x2D31 SWAP2 SWAP1 PUSH2 0x50E9 JUMP JUMPDEST DUP3 PUSH1 0x8 ADD PUSH1 0x0 CALLER PUSH20 0xFFFFFFFFFFFFFFFFFFFFFFFFFFFFFFFFFFFFFFFF AND PUSH20 0xFFFFFFFFFFFFFFFFFFFFFFFFFFFFFFFFFFFFFFFF AND DUP2 MSTORE PUSH1 0x20 ADD SWAP1 DUP2 MSTORE PUSH1 0x20 ADD PUSH1 0x0 KECCAK256 PUSH1 0x7 ADD DUP2 SWAP1 SSTORE POP TIMESTAMP DUP3 PUSH1 0x8 ADD PUSH1 0x0 CALLER PUSH20 0xFFFFFFFFFFFFFFFFFFFFFFFFFFFFFFFFFFFFFFFF AND PUSH20 0xFFFFFFFFFFFFFFFFFFFFFFFFFFFFFFFFFFFFFFFF AND DUP2 MSTORE PUSH1 0x20 ADD SWAP1 DUP2 MSTORE PUSH1 0x20 ADD PUSH1 0x0 KECCAK256 PUSH1 0x6 ADD DUP2 SWAP1 SSTORE POP PUSH2 0x16D PUSH1 0x64 DUP4 PUSH1 0x2 ADD SLOAD DUP4 PUSH2 0x2DD7 SWAP2 SWAP1 PUSH2 0x5047 JUMP JUMPDEST PUSH2 0x2DE1 SWAP2 SWAP1 PUSH2 0x50B8 JUMP JUMPDEST PUSH2 0x2DEB SWAP2 SWAP1 PUSH2 0x50B8 JUMP JUMPDEST DUP3 PUSH1 0x8 ADD PUSH1 0x0 CALLER PUSH20 0xFFFFFFFFFFFFFFFFFFFFFFFFFFFFFFFFFFFFFFFF AND PUSH20 0xFFFFFFFFFFFFFFFFFFFFFFFFFFFFFFFFFFFFFFFF AND DUP2 MSTORE PUSH1 0x20 ADD SWAP1 DUP2 MSTORE PUSH1 0x20 ADD PUSH1 0x0 KECCAK256 PUSH1 0x3 ADD DUP2 SWAP1 SSTORE POP PUSH3 0x15180 DUP3 PUSH1 0x3 ADD SLOAD PUSH2 0x2E46 SWAP2 SWAP1 PUSH2 0x5047 JUMP JUMPDEST DUP3 PUSH1 0x8 ADD PUSH1 0x0 CALLER PUSH20 0xFFFFFFFFFFFFFFFFFFFFFFFFFFFFFFFFFFFFFFFF AND PUSH20 0xFFFFFFFFFFFFFFFFFFFFFFFFFFFFFFFFFFFFFFFF AND DUP2 MSTORE PUSH1 0x20 ADD SWAP1 DUP2 MSTORE PUSH1 0x20 ADD PUSH1 0x0 KECCAK256 PUSH1 0x5 ADD DUP2 SWAP1 SSTORE POP POP PUSH2 0x304E JUMP JUMPDEST PUSH1 0x0 PUSH2 0x16D PUSH1 0x64 DUP4 PUSH1 0x2 ADD SLOAD DUP6 PUSH2 0x2EAB SWAP2 SWAP1 PUSH2 0x5047 JUMP JUMPDEST PUSH2 0x2EB5 SWAP2 SWAP1 PUSH2 0x50B8 JUMP JUMPDEST PUSH2 0x2EBF SWAP2 SWAP1 PUSH2 0x50B8 JUMP JUMPDEST SWAP1 POP PUSH1 0x40 MLOAD DUP1 PUSH2 0x120 ADD PUSH1 0x40 MSTORE DUP1 CALLER PUSH20 0xFFFFFFFFFFFFFFFFFFFFFFFFFFFFFFFFFFFFFFFF AND DUP2 MSTORE PUSH1 0x20 ADD DUP5 DUP2 MSTORE PUSH1 0x20 ADD DUP6 DUP2 MSTORE PUSH1 0x20 ADD DUP3 DUP2 MSTORE PUSH1 0x20 ADD PUSH1 0x0 PUSH1 0x1 DUP2 GT ISZERO PUSH2 0x2F0F JUMPI PUSH2 0x2F0E PUSH2 0x3C9D JUMP JUMPDEST JUMPDEST DUP2 MSTORE PUSH1 0x20 ADD DUP4 PUSH1 0x3 ADD SLOAD DUP2 MSTORE PUSH1 0x20 ADD TIMESTAMP DUP2 MSTORE PUSH1 0x20 ADD PUSH1 0x3C DUP5 PUSH1 0x3 ADD SLOAD PUSH2 0x2F35 SWAP2 SWAP1 PUSH2 0x5047 JUMP JUMPDEST TIMESTAMP PUSH2 0x2F40 SWAP2 SWAP1 PUSH2 0x50E9 JUMP JUMPDEST DUP2 MSTORE PUSH1 0x20 ADD PUSH1 0x0 DUP2 MSTORE POP DUP3 PUSH1 0x8 ADD PUSH1 0x0 CALLER PUSH20 0xFFFFFFFFFFFFFFFFFFFFFFFFFFFFFFFFFFFFFFFF AND PUSH20 0xFFFFFFFFFFFFFFFFFFFFFFFFFFFFFFFFFFFFFFFF AND DUP2 MSTORE PUSH1 0x20 ADD SWAP1 DUP2 MSTORE PUSH1 0x20 ADD PUSH1 0x0 KECCAK256 PUSH1 0x0 DUP3 ADD MLOAD DUP2 PUSH1 0x0 ADD PUSH1 0x0 PUSH2 0x100 EXP DUP2 SLOAD DUP2 PUSH20 0xFFFFFFFFFFFFFFFFFFFFFFFFFFFFFFFFFFFFFFFF MUL NOT AND SWAP1 DUP4 PUSH20 0xFFFFFFFFFFFFFFFFFFFFFFFFFFFFFFFFFFFFFFFF AND MUL OR SWAP1 SSTORE POP PUSH1 0x20 DUP3 ADD MLOAD DUP2 PUSH1 0x1 ADD SSTORE PUSH1 0x40 DUP3 ADD MLOAD DUP2 PUSH1 0x2 ADD SSTORE PUSH1 0x60 DUP3 ADD MLOAD DUP2 PUSH1 0x3 ADD SSTORE PUSH1 0x80 DUP3 ADD MLOAD DUP2 PUSH1 0x4 ADD PUSH1 0x0 PUSH2 0x100 EXP DUP2 SLOAD DUP2 PUSH1 0xFF MUL NOT AND SWAP1 DUP4 PUSH1 0x1 DUP2 GT ISZERO PUSH2 0x301B JUMPI PUSH2 0x301A PUSH2 0x3C9D JUMP JUMPDEST JUMPDEST MUL OR SWAP1 SSTORE POP PUSH1 0xA0 DUP3 ADD MLOAD DUP2 PUSH1 0x5 ADD SSTORE PUSH1 0xC0 DUP3 ADD MLOAD DUP2 PUSH1 0x6 ADD SSTORE PUSH1 0xE0 DUP3 ADD MLOAD DUP2 PUSH1 0x7 ADD SSTORE PUSH2 0x100 DUP3 ADD MLOAD DUP2 PUSH1 0x8 ADD SSTORE SWAP1 POP POP POP JUMPDEST PUSH1 0x0 PUSH2 0x3059 DUP5 PUSH2 0x1876 JUMP JUMPDEST SWAP1 POP PUSH1 0x0 JUMPDEST DUP2 MLOAD DUP2 LT ISZERO PUSH2 0x311F JUMPI PUSH1 0x6 PUSH1 0x0 SWAP1 SLOAD SWAP1 PUSH2 0x100 EXP SWAP1 DIV PUSH20 0xFFFFFFFFFFFFFFFFFFFFFFFFFFFFFFFFFFFFFFFF AND PUSH20 0xFFFFFFFFFFFFFFFFFFFFFFFFFFFFFFFFFFFFFFFF AND PUSH4 0x106B5DA1 DUP4 DUP4 DUP2 MLOAD DUP2 LT PUSH2 0x30B8 JUMPI PUSH2 0x30B7 PUSH2 0x4F07 JUMP JUMPDEST JUMPDEST PUSH1 0x20 MUL PUSH1 0x20 ADD ADD MLOAD PUSH1 0x0 ADD MLOAD PUSH1 0x40 MLOAD DUP3 PUSH4 0xFFFFFFFF AND PUSH1 0xE0 SHL DUP2 MSTORE PUSH1 0x4 ADD PUSH2 0x30E0 SWAP2 SWAP1 PUSH2 0x426D JUMP JUMPDEST PUSH1 0x0 PUSH1 0x40 MLOAD DUP1 DUP4 SUB DUP2 PUSH1 0x0 DUP8 DUP1 EXTCODESIZE ISZERO DUP1 ISZERO PUSH2 0x30FA JUMPI PUSH1 0x0 DUP1 REVERT JUMPDEST POP GAS CALL ISZERO DUP1 ISZERO PUSH2 0x310E JUMPI RETURNDATASIZE PUSH1 0x0 DUP1 RETURNDATACOPY RETURNDATASIZE PUSH1 0x0 REVERT JUMPDEST POP POP POP POP DUP1 DUP1 PUSH1 0x1 ADD SWAP2 POP POP PUSH2 0x305E JUMP JUMPDEST POP PUSH1 0x0 DUP1 JUMPDEST PUSH1 0xC DUP1 SLOAD SWAP1 POP DUP2 LT ISZERO PUSH2 0x31B8 JUMPI CALLER PUSH20 0xFFFFFFFFFFFFFFFFFFFFFFFFFFFFFFFFFFFFFFFF AND PUSH1 0xC DUP3 DUP2 SLOAD DUP2 LT PUSH2 0x315C JUMPI PUSH2 0x315B PUSH2 0x4F07 JUMP JUMPDEST JUMPDEST SWAP1 PUSH1 0x0 MSTORE PUSH1 0x20 PUSH1 0x0 KECCAK256 ADD PUSH1 0x0 SWAP1 SLOAD SWAP1 PUSH2 0x100 EXP SWAP1 DIV PUSH20 0xFFFFFFFFFFFFFFFFFFFFFFFFFFFFFFFFFFFFFFFF AND PUSH20 0xFFFFFFFFFFFFFFFFFFFFFFFFFFFFFFFFFFFFFFFF AND SUB PUSH2 0x31AB JUMPI PUSH1 0x1 SWAP2 POP PUSH2 0x31B8 JUMP JUMPDEST DUP1 DUP1 PUSH1 0x1 ADD SWAP2 POP POP PUSH2 0x3124 JUMP JUMPDEST POP DUP1 PUSH2 0x3222 JUMPI PUSH1 0xC CALLER SWAP1 DUP1 PUSH1 0x1 DUP2 SLOAD ADD DUP1 DUP3 SSTORE DUP1 SWAP2 POP POP PUSH1 0x1 SWAP1 SUB SWAP1 PUSH1 0x0 MSTORE PUSH1 0x20 PUSH1 0x0 KECCAK256 ADD PUSH1 0x0 SWAP1 SWAP2 SWAP1 SWAP2 SWAP1 SWAP2 PUSH2 0x100 EXP DUP2 SLOAD DUP2 PUSH20 0xFFFFFFFFFFFFFFFFFFFFFFFFFFFFFFFFFFFFFFFF MUL NOT AND SWAP1 DUP4 PUSH20 0xFFFFFFFFFFFFFFFFFFFFFFFFFFFFFFFFFFFFFFFF AND MUL OR SWAP1 SSTORE POP JUMPDEST PUSH1 0x1 PUSH1 0xD PUSH1 0x0 CALLER PUSH20 0xFFFFFFFFFFFFFFFFFFFFFFFFFFFFFFFFFFFFFFFF AND PUSH20 0xFFFFFFFFFFFFFFFFFFFFFFFFFFFFFFFFFFFFFFFF AND DUP2 MSTORE PUSH1 0x20 ADD SWAP1 DUP2 MSTORE PUSH1 0x20 ADD PUSH1 0x0 KECCAK256 PUSH1 0x0 DUP3 DUP3 SLOAD PUSH2 0x3272 SWAP2 SWAP1 PUSH2 0x50E9 JUMP JUMPDEST SWAP3 POP POP DUP2 SWAP1 SSTORE POP CALLER PUSH20 0xFFFFFFFFFFFFFFFFFFFFFFFFFFFFFFFFFFFFFFFF AND PUSH32 0x6F85D9948D6CA3DD6CE6CE7D175DA22B4E865827AE6FCD530EC7EDAC1240F928 DUP6 DUP6 PUSH1 0x0 ADD PUSH1 0x40 MLOAD PUSH2 0x32C4 SWAP3 SWAP2 SWAP1 PUSH2 0x4FCF JUMP JUMPDEST PUSH1 0x40 MLOAD DUP1 SWAP2 SUB SWAP1 LOG2 POP POP POP PUSH2 0x32D7 PUSH2 0x390E JUMP JUMPDEST POP POP JUMP JUMPDEST PUSH2 0x32E3 PUSH2 0x38C8 JUMP JUMPDEST PUSH1 0x0 PUSH1 0x7 PUSH1 0x0 SWAP1 SLOAD SWAP1 PUSH2 0x100 EXP SWAP1 DIV PUSH20 0xFFFFFFFFFFFFFFFFFFFFFFFFFFFFFFFFFFFFFFFF AND PUSH20 0xFFFFFFFFFFFFFFFFFFFFFFFFFFFFFFFFFFFFFFFF AND PUSH4 0x3B4D01A7 DUP4 PUSH1 0x40 MLOAD DUP3 PUSH4 0xFFFFFFFF AND PUSH1 0xE0 SHL DUP2 MSTORE PUSH1 0x4 ADD PUSH2 0x3340 SWAP2 SWAP1 PUSH2 0x426D JUMP JUMPDEST PUSH1 0x0 PUSH1 0x40 MLOAD DUP1 DUP4 SUB DUP2 PUSH1 0x0 DUP8 GAS CALL ISZERO DUP1 ISZERO PUSH2 0x335F JUMPI RETURNDATASIZE PUSH1 0x0 DUP1 RETURNDATACOPY RETURNDATASIZE PUSH1 0x0 REVERT JUMPDEST POP POP POP POP PUSH1 0x40 MLOAD RETURNDATASIZE PUSH1 0x0 DUP3 RETURNDATACOPY RETURNDATASIZE PUSH1 0x1F NOT PUSH1 0x1F DUP3 ADD AND DUP3 ADD DUP1 PUSH1 0x40 MSTORE POP DUP2 ADD SWAP1 PUSH2 0x3388 SWAP2 SWAP1 PUSH2 0x5A69 JUMP JUMPDEST SWAP1 POP PUSH1 0x0 DUP2 PUSH2 0x100 ADD MLOAD SWAP1 POP PUSH1 0x2 PUSH1 0x4 DUP2 GT ISZERO PUSH2 0x33A8 JUMPI PUSH2 0x33A7 PUSH2 0x3C9D JUMP JUMPDEST JUMPDEST DUP3 PUSH1 0xC0 ADD MLOAD PUSH1 0x4 DUP2 GT ISZERO PUSH2 0x33BF JUMPI PUSH2 0x33BE PUSH2 0x3C9D JUMP JUMPDEST JUMPDEST EQ DUP1 ISZERO PUSH2 0x33CD JUMPI POP DUP2 PUSH1 0xE0 ADD MLOAD JUMPDEST PUSH2 0x340C JUMPI PUSH1 0x40 MLOAD PUSH32 0x8C379A000000000000000000000000000000000000000000000000000000000 DUP2 MSTORE PUSH1 0x4 ADD PUSH2 0x3403 SWAP1 PUSH2 0x5AFE JUMP JUMPDEST PUSH1 0x40 MLOAD DUP1 SWAP2 SUB SWAP1 REVERT JUMPDEST PUSH1 0x0 PUSH1 0x3 PUSH1 0x0 DUP4 PUSH1 0xA0 ADD MLOAD DUP2 MSTORE PUSH1 0x20 ADD SWAP1 DUP2 MSTORE PUSH1 0x20 ADD PUSH1 0x0 KECCAK256 SWAP1 POP DUP2 PUSH1 0x0 ADD MLOAD PUSH20 0xFFFFFFFFFFFFFFFFFFFFFFFFFFFFFFFFFFFFFFFF AND CALLER PUSH20 0xFFFFFFFFFFFFFFFFFFFFFFFFFFFFFFFFFFFFFFFF AND EQ PUSH2 0x3499 JUMPI PUSH1 0x40 MLOAD PUSH32 0x8C379A000000000000000000000000000000000000000000000000000000000 DUP2 MSTORE PUSH1 0x4 ADD PUSH2 0x3490 SWAP1 PUSH2 0x5B6A JUMP JUMPDEST PUSH1 0x40 MLOAD DUP1 SWAP2 SUB SWAP1 REVERT JUMPDEST DUP1 PUSH1 0x6 ADD PUSH1 0x0 SWAP1 SLOAD SWAP1 PUSH2 0x100 EXP SWAP1 DIV PUSH1 0xFF AND PUSH2 0x34EA JUMPI PUSH1 0x40 MLOAD PUSH32 0x8C379A000000000000000000000000000000000000000000000000000000000 DUP2 MSTORE PUSH1 0x4 ADD PUSH2 0x34E1 SWAP1 PUSH2 0x5BD6 JUMP JUMPDEST PUSH1 0x40 MLOAD DUP1 SWAP2 SUB SWAP1 REVERT JUMPDEST DUP2 PUSH1 0xC0 ADD MLOAD DUP2 PUSH1 0x4 ADD SLOAD LT ISZERO PUSH2 0x3535 JUMPI PUSH1 0x40 MLOAD PUSH32 0x8C379A000000000000000000000000000000000000000000000000000000000 DUP2 MSTORE PUSH1 0x4 ADD PUSH2 0x352C SWAP1 PUSH2 0x5C42 JUMP JUMPDEST PUSH1 0x40 MLOAD DUP1 SWAP2 SUB SWAP1 REVERT JUMPDEST DUP2 PUSH1 0xC0 ADD MLOAD DUP2 PUSH1 0x5 ADD PUSH1 0x0 DUP3 DUP3 SLOAD PUSH2 0x354D SWAP2 SWAP1 PUSH2 0x50E9 JUMP JUMPDEST SWAP3 POP POP DUP2 SWAP1 SSTORE POP DUP2 PUSH1 0xC0 ADD MLOAD DUP2 PUSH1 0x4 ADD PUSH1 0x0 DUP3 DUP3 SLOAD PUSH2 0x356C SWAP2 SWAP1 PUSH2 0x4ED3 JUMP JUMPDEST SWAP3 POP POP DUP2 SWAP1 SSTORE POP PUSH1 0x0 PUSH2 0x3582 DUP4 PUSH1 0xA0 ADD MLOAD PUSH2 0x1876 JUMP JUMPDEST SWAP1 POP PUSH1 0x0 JUMPDEST DUP2 MLOAD DUP2 LT ISZERO PUSH2 0x3648 JUMPI PUSH1 0x6 PUSH1 0x0 SWAP1 SLOAD SWAP1 PUSH2 0x100 EXP SWAP1 DIV PUSH20 0xFFFFFFFFFFFFFFFFFFFFFFFFFFFFFFFFFFFFFFFF AND PUSH20 0xFFFFFFFFFFFFFFFFFFFFFFFFFFFFFFFFFFFFFFFF AND PUSH4 0x106B5DA1 DUP4 DUP4 DUP2 MLOAD DUP2 LT PUSH2 0x35E1 JUMPI PUSH2 0x35E0 PUSH2 0x4F07 JUMP JUMPDEST JUMPDEST PUSH1 0x20 MUL PUSH1 0x20 ADD ADD MLOAD PUSH1 0x0 ADD MLOAD PUSH1 0x40 MLOAD DUP3 PUSH4 0xFFFFFFFF AND PUSH1 0xE0 SHL DUP2 MSTORE PUSH1 0x4 ADD PUSH2 0x3609 SWAP2 SWAP1 PUSH2 0x426D JUMP JUMPDEST PUSH1 0x0 PUSH1 0x40 MLOAD DUP1 DUP4 SUB DUP2 PUSH1 0x0 DUP8 DUP1 EXTCODESIZE ISZERO DUP1 ISZERO PUSH2 0x3623 JUMPI PUSH1 0x0 DUP1 REVERT JUMPDEST POP GAS CALL ISZERO DUP1 ISZERO PUSH2 0x3637 JUMPI RETURNDATASIZE PUSH1 0x0 DUP1 RETURNDATACOPY RETURNDATASIZE PUSH1 0x0 REVERT JUMPDEST POP POP POP POP DUP1 DUP1 PUSH1 0x1 ADD SWAP2 POP POP PUSH2 0x3587 JUMP JUMPDEST POP PUSH1 0x7 PUSH1 0x0 SWAP1 SLOAD SWAP1 PUSH2 0x100 EXP SWAP1 DIV PUSH20 0xFFFFFFFFFFFFFFFFFFFFFFFFFFFFFFFFFFFFFFFF AND PUSH20 0xFFFFFFFFFFFFFFFFFFFFFFFFFFFFFFFFFFFFFFFF AND PUSH4 0xF1B4BF9D DUP7 PUSH1 0x40 MLOAD DUP3 PUSH4 0xFFFFFFFF AND PUSH1 0xE0 SHL DUP2 MSTORE PUSH1 0x4 ADD PUSH2 0x36A4 SWAP2 SWAP1 PUSH2 0x426D JUMP JUMPDEST PUSH1 0x0 PUSH1 0x40 MLOAD DUP1 DUP4 SUB DUP2 PUSH1 0x0 DUP8 DUP1 EXTCODESIZE ISZERO DUP1 ISZERO PUSH2 0x36BE JUMPI PUSH1 0x0 DUP1 REVERT JUMPDEST POP GAS CALL ISZERO DUP1 ISZERO PUSH2 0x36D2 JUMPI RETURNDATASIZE PUSH1 0x0 DUP1 RETURNDATACOPY RETURNDATASIZE PUSH1 0x0 REVERT JUMPDEST POP POP POP POP PUSH32 0xEEF4955E8B18DCB6D1C19905B7B86E5FE56138AD1CE2C5E540CE4E959312F511 DUP4 PUSH1 0xA0 ADD MLOAD DUP5 PUSH1 0xC0 ADD MLOAD DUP6 PUSH1 0x0 ADD MLOAD PUSH1 0x40 MLOAD PUSH2 0x3715 SWAP4 SWAP3 SWAP2 SWAP1 PUSH2 0x5C62 JUMP JUMPDEST PUSH1 0x40 MLOAD DUP1 SWAP2 SUB SWAP1 LOG1 PUSH1 0x8 PUSH1 0x0 SWAP1 SLOAD SWAP1 PUSH2 0x100 EXP SWAP1 DIV PUSH20 0xFFFFFFFFFFFFFFFFFFFFFFFFFFFFFFFFFFFFFFFF AND PUSH20 0xFFFFFFFFFFFFFFFFFFFFFFFFFFFFFFFFFFFFFFFF AND PUSH4 0xE2094EDA CALLER DUP6 PUSH1 0xC0 ADD MLOAD PUSH1 0x40 MLOAD DUP4 PUSH4 0xFFFFFFFF AND PUSH1 0xE0 SHL DUP2 MSTORE PUSH1 0x4 ADD PUSH2 0x377E SWAP3 SWAP2 SWAP1 PUSH2 0x4CCF JUMP JUMPDEST PUSH1 0x0 PUSH1 0x40 MLOAD DUP1 DUP4 SUB DUP2 PUSH1 0x0 DUP8 DUP1 EXTCODESIZE ISZERO DUP1 ISZERO PUSH2 0x3798 JUMPI PUSH1 0x0 DUP1 REVERT JUMPDEST POP GAS CALL ISZERO DUP1 ISZERO PUSH2 0x37AC JUMPI RETURNDATASIZE PUSH1 0x0 DUP1 RETURNDATACOPY RETURNDATASIZE PUSH1 0x0 REVERT JUMPDEST POP POP POP POP CALLER PUSH20 0xFFFFFFFFFFFFFFFFFFFFFFFFFFFFFFFFFFFFFFFF AND PUSH32 0x415071086C9EA63F7F39884C21A8AF430AF53BFD511A362DFF69CABCB1B8BCC1 DUP4 PUSH1 0x0 ADD DUP6 PUSH1 0xC0 ADD MLOAD PUSH1 0x40 MLOAD PUSH2 0x37FF SWAP3 SWAP2 SWAP1 PUSH2 0x5C99 JUMP JUMPDEST PUSH1 0x40 MLOAD DUP1 SWAP2 SUB SWAP1 LOG2 POP POP POP POP PUSH2 0x3813 PUSH2 0x390E JUMP JUMPDEST POP JUMP JUMPDEST PUSH2 0x381E PUSH2 0x3918 JUMP JUMPDEST PUSH1 0x0 PUSH20 0xFFFFFFFFFFFFFFFFFFFFFFFFFFFFFFFFFFFFFFFF AND DUP2 PUSH20 0xFFFFFFFFFFFFFFFFFFFFFFFFFFFFFFFFFFFFFFFF AND SUB PUSH2 0x3890 JUMPI PUSH1 0x0 PUSH1 0x40 MLOAD PUSH32 0x1E4FBDF700000000000000000000000000000000000000000000000000000000 DUP2 MSTORE PUSH1 0x4 ADD PUSH2 0x3887 SWAP2 SWAP1 PUSH2 0x3F6A JUMP JUMPDEST PUSH1 0x40 MLOAD DUP1 SWAP2 SUB SWAP1 REVERT JUMPDEST PUSH2 0x3899 DUP2 PUSH2 0x399F JUMP JUMPDEST POP JUMP JUMPDEST PUSH1 0x4 SLOAD DUP2 JUMP JUMPDEST PUSH1 0x6 PUSH1 0x0 SWAP1 SLOAD SWAP1 PUSH2 0x100 EXP SWAP1 DIV PUSH20 0xFFFFFFFFFFFFFFFFFFFFFFFFFFFFFFFFFFFFFFFF AND DUP2 JUMP JUMPDEST PUSH1 0x2 PUSH1 0x0 SLOAD SUB PUSH2 0x3904 JUMPI PUSH1 0x40 MLOAD PUSH32 0x3EE5AEB500000000000000000000000000000000000000000000000000000000 DUP2 MSTORE PUSH1 0x4 ADD PUSH1 0x40 MLOAD DUP1 SWAP2 SUB SWAP1 REVERT JUMPDEST PUSH1 0x2 PUSH1 0x0 DUP2 SWAP1 SSTORE POP JUMP JUMPDEST PUSH1 0x1 PUSH1 0x0 DUP2 SWAP1 SSTORE POP JUMP JUMPDEST PUSH2 0x3920 PUSH2 0x3A65 JUMP JUMPDEST PUSH20 0xFFFFFFFFFFFFFFFFFFFFFFFFFFFFFFFFFFFFFFFF AND PUSH2 0x393E PUSH2 0x1B20 JUMP JUMPDEST PUSH20 0xFFFFFFFFFFFFFFFFFFFFFFFFFFFFFFFFFFFFFFFF AND EQ PUSH2 0x399D JUMPI PUSH2 0x3961 PUSH2 0x3A65 JUMP JUMPDEST PUSH1 0x40 MLOAD PUSH32 0x118CDAA700000000000000000000000000000000000000000000000000000000 DUP2 MSTORE PUSH1 0x4 ADD PUSH2 0x3994 SWAP2 SWAP1 PUSH2 0x3F6A JUMP JUMPDEST PUSH1 0x40 MLOAD DUP1 SWAP2 SUB SWAP1 REVERT JUMPDEST JUMP JUMPDEST PUSH1 0x0 PUSH1 0x1 PUSH1 0x0 SWAP1 SLOAD SWAP1 PUSH2 0x100 EXP SWAP1 DIV PUSH20 0xFFFFFFFFFFFFFFFFFFFFFFFFFFFFFFFFFFFFFFFF AND SWAP1 POP DUP2 PUSH1 0x1 PUSH1 0x0 PUSH2 0x100 EXP DUP2 SLOAD DUP2 PUSH20 0xFFFFFFFFFFFFFFFFFFFFFFFFFFFFFFFFFFFFFFFF MUL NOT AND SWAP1 DUP4 PUSH20 0xFFFFFFFFFFFFFFFFFFFFFFFFFFFFFFFFFFFFFFFF AND MUL OR SWAP1 SSTORE POP DUP2 PUSH20 0xFFFFFFFFFFFFFFFFFFFFFFFFFFFFFFFFFFFFFFFF AND DUP2 PUSH20 0xFFFFFFFFFFFFFFFFFFFFFFFFFFFFFFFFFFFFFFFF AND PUSH32 0x8BE0079C531659141344CD1FD0A4F28419497F9722A3DAAFE3B4186F6B6457E0 PUSH1 0x40 MLOAD PUSH1 0x40 MLOAD DUP1 SWAP2 SUB SWAP1 LOG3 POP POP JUMP JUMPDEST PUSH1 0x0 CALLER SWAP1 POP SWAP1 JUMP JUMPDEST PUSH1 0x40 MLOAD DUP1 PUSH2 0x140 ADD PUSH1 0x40 MSTORE DUP1 PUSH1 0x60 DUP2 MSTORE PUSH1 0x20 ADD PUSH1 0x0 DUP2 MSTORE PUSH1 0x20 ADD PUSH1 0x0 DUP2 MSTORE PUSH1 0x20 ADD PUSH1 0x0 DUP2 MSTORE PUSH1 0x20 ADD PUSH1 0x0 DUP2 MSTORE PUSH1 0x20 ADD PUSH1 0x0 DUP2 MSTORE PUSH1 0x20 ADD PUSH1 0x0 DUP2 MSTORE PUSH1 0x20 ADD PUSH1 0x0 DUP2 MSTORE PUSH1 0x20 ADD PUSH1 0x0 ISZERO ISZERO DUP2 MSTORE PUSH1 0x20 ADD PUSH1 0x0 DUP2 MSTORE POP SWAP1 JUMP JUMPDEST PUSH1 0x40 MLOAD DUP1 PUSH2 0x120 ADD PUSH1 0x40 MSTORE DUP1 PUSH1 0x0 PUSH20 0xFFFFFFFFFFFFFFFFFFFFFFFFFFFFFFFFFFFFFFFF AND DUP2 MSTORE PUSH1 0x20 ADD PUSH1 0x0 DUP2 MSTORE PUSH1 0x20 ADD PUSH1 0x0 DUP2 MSTORE PUSH1 0x20 ADD PUSH1 0x0 DUP2 MSTORE PUSH1 0x20 ADD PUSH1 0x0 PUSH1 0x1 DUP2 GT ISZERO PUSH2 0x3B14 JUMPI PUSH2 0x3B13 PUSH2 0x3C9D JUMP JUMPDEST JUMPDEST DUP2 MSTORE PUSH1 0x20 ADD PUSH1 0x0 DUP2 MSTORE PUSH1 0x20 ADD PUSH1 0x0 DUP2 MSTORE PUSH1 0x20 ADD PUSH1 0x0 DUP2 MSTORE PUSH1 0x20 ADD PUSH1 0x0 DUP2 MSTORE POP SWAP1 JUMP JUMPDEST PUSH1 0x40 MLOAD DUP1 PUSH2 0x120 ADD PUSH1 0x40 MSTORE DUP1 PUSH1 0x0 DUP2 MSTORE PUSH1 0x20 ADD PUSH1 0x60 DUP2 MSTORE PUSH1 0x20 ADD PUSH1 0x0 PUSH1 0x3 DUP2 GT ISZERO PUSH2 0x3B64 JUMPI PUSH2 0x3B63 PUSH2 0x3C9D JUMP JUMPDEST JUMPDEST DUP2 MSTORE PUSH1 0x20 ADD PUSH1 0x0 DUP2 MSTORE PUSH1 0x20 ADD PUSH1 0x0 DUP2 MSTORE PUSH1 0x20 ADD PUSH1 0x0 DUP2 MSTORE PUSH1 0x20 ADD PUSH1 0x0 DUP2 MSTORE PUSH1 0x20 ADD PUSH1 0x0 ISZERO ISZERO DUP2 MSTORE PUSH1 0x20 ADD PUSH1 0x0 DUP2 MSTORE POP SWAP1 JUMP JUMPDEST PUSH1 0x0 PUSH1 0x40 MLOAD SWAP1 POP SWAP1 JUMP JUMPDEST PUSH1 0x0 DUP1 REVERT JUMPDEST PUSH1 0x0 DUP1 REVERT JUMPDEST PUSH1 0x0 DUP2 SWAP1 POP SWAP2 SWAP1 POP JUMP JUMPDEST PUSH2 0x3BBD DUP2 PUSH2 0x3BAA JUMP JUMPDEST DUP2 EQ PUSH2 0x3BC8 JUMPI PUSH1 0x0 DUP1 REVERT JUMPDEST POP JUMP JUMPDEST PUSH1 0x0 DUP2 CALLDATALOAD SWAP1 POP PUSH2 0x3BDA DUP2 PUSH2 0x3BB4 JUMP JUMPDEST SWAP3 SWAP2 POP POP JUMP JUMPDEST PUSH1 0x0 PUSH1 0x20 DUP3 DUP5 SUB SLT ISZERO PUSH2 0x3BF6 JUMPI PUSH2 0x3BF5 PUSH2 0x3BA0 JUMP JUMPDEST JUMPDEST PUSH1 0x0 PUSH2 0x3C04 DUP5 DUP3 DUP6 ADD PUSH2 0x3BCB JUMP JUMPDEST SWAP2 POP POP SWAP3 SWAP2 POP POP JUMP JUMPDEST PUSH1 0x0 DUP2 MLOAD SWAP1 POP SWAP2 SWAP1 POP JUMP JUMPDEST PUSH1 0x0 DUP3 DUP3 MSTORE PUSH1 0x20 DUP3 ADD SWAP1 POP SWAP3 SWAP2 POP POP JUMP JUMPDEST PUSH1 0x0 JUMPDEST DUP4 DUP2 LT ISZERO PUSH2 0x3C47 JUMPI DUP1 DUP3 ADD MLOAD DUP2 DUP5 ADD MSTORE PUSH1 0x20 DUP2 ADD SWAP1 POP PUSH2 0x3C2C JUMP JUMPDEST PUSH1 0x0 DUP5 DUP5 ADD MSTORE POP POP POP POP JUMP JUMPDEST PUSH1 0x0 PUSH1 0x1F NOT PUSH1 0x1F DUP4 ADD AND SWAP1 POP SWAP2 SWAP1 POP JUMP JUMPDEST PUSH1 0x0 PUSH2 0x3C6F DUP3 PUSH2 0x3C0D JUMP JUMPDEST PUSH2 0x3C79 DUP2 DUP6 PUSH2 0x3C18 JUMP JUMPDEST SWAP4 POP PUSH2 0x3C89 DUP2 DUP6 PUSH1 0x20 DUP7 ADD PUSH2 0x3C29 JUMP JUMPDEST PUSH2 0x3C92 DUP2 PUSH2 0x3C53 JUMP JUMPDEST DUP5 ADD SWAP2 POP POP SWAP3 SWAP2 POP POP JUMP JUMPDEST PUSH32 0x4E487B7100000000000000000000000000000000000000000000000000000000 PUSH1 0x0 MSTORE PUSH1 0x21 PUSH1 0x4 MSTORE PUSH1 0x24 PUSH1 0x0 REVERT JUMPDEST PUSH1 0x4 DUP2 LT PUSH2 0x3CDD JUMPI PUSH2 0x3CDC PUSH2 0x3C9D JUMP JUMPDEST JUMPDEST POP JUMP JUMPDEST PUSH1 0x0 DUP2 SWAP1 POP PUSH2 0x3CEE DUP3 PUSH2 0x3CCC JUMP JUMPDEST SWAP2 SWAP1 POP JUMP JUMPDEST PUSH1 0x0 PUSH2 0x3CFE DUP3 PUSH2 0x3CE0 JUMP JUMPDEST SWAP1 POP SWAP2 SWAP1 POP JUMP JUMPDEST PUSH2 0x3D0E DUP2 PUSH2 0x3CF3 JUMP JUMPDEST DUP3 MSTORE POP POP JUMP JUMPDEST PUSH2 0x3D1D DUP2 PUSH2 0x3BAA JUMP JUMPDEST DUP3 MSTORE POP POP JUMP JUMPDEST PUSH1 0x0 DUP2 ISZERO ISZERO SWAP1 POP SWAP2 SWAP1 POP JUMP JUMPDEST PUSH2 0x3D38 DUP2 PUSH2 0x3D23 JUMP JUMPDEST DUP3 MSTORE POP POP JUMP JUMPDEST PUSH1 0x0 PUSH1 0xE0 DUP3 ADD SWAP1 POP DUP2 DUP2 SUB PUSH1 0x0 DUP4 ADD MSTORE PUSH2 0x3D58 DUP2 DUP11 PUSH2 0x3C64 JUMP JUMPDEST SWAP1 POP PUSH2 0x3D67 PUSH1 0x20 DUP4 ADD DUP10 PUSH2 0x3D05 JUMP JUMPDEST PUSH2 0x3D74 PUSH1 0x40 DUP4 ADD DUP9 PUSH2 0x3D14 JUMP JUMPDEST PUSH2 0x3D81 PUSH1 0x60 DUP4 ADD DUP8 PUSH2 0x3D14 JUMP JUMPDEST PUSH2 0x3D8E PUSH1 0x80 DUP4 ADD DUP7 PUSH2 0x3D14 JUMP JUMPDEST PUSH2 0x3D9B PUSH1 0xA0 DUP4 ADD DUP6 PUSH2 0x3D2F JUMP JUMPDEST PUSH2 0x3DA8 PUSH1 0xC0 DUP4 ADD DUP5 PUSH2 0x3D14 JUMP JUMPDEST SWAP9 SWAP8 POP POP POP POP POP POP POP POP JUMP JUMPDEST PUSH1 0x0 PUSH20 0xFFFFFFFFFFFFFFFFFFFFFFFFFFFFFFFFFFFFFFFF DUP3 AND SWAP1 POP SWAP2 SWAP1 POP JUMP JUMPDEST PUSH1 0x0 PUSH2 0x3DDF DUP3 PUSH2 0x3DB4 JUMP JUMPDEST SWAP1 POP SWAP2 SWAP1 POP JUMP JUMPDEST PUSH2 0x3DEF DUP2 PUSH2 0x3DD4 JUMP JUMPDEST DUP2 EQ PUSH2 0x3DFA JUMPI PUSH1 0x0 DUP1 REVERT JUMPDEST POP JUMP JUMPDEST PUSH1 0x0 DUP2 CALLDATALOAD SWAP1 POP PUSH2 0x3E0C DUP2 PUSH2 0x3DE6 JUMP JUMPDEST SWAP3 SWAP2 POP POP JUMP JUMPDEST PUSH1 0x0 DUP1 PUSH1 0x40 DUP4 DUP6 SUB SLT ISZERO PUSH2 0x3E29 JUMPI PUSH2 0x3E28 PUSH2 0x3BA0 JUMP JUMPDEST JUMPDEST PUSH1 0x0 PUSH2 0x3E37 DUP6 DUP3 DUP7 ADD PUSH2 0x3BCB JUMP JUMPDEST SWAP3 POP POP PUSH1 0x20 PUSH2 0x3E48 DUP6 DUP3 DUP7 ADD PUSH2 0x3DFD JUMP JUMPDEST SWAP2 POP POP SWAP3 POP SWAP3 SWAP1 POP JUMP JUMPDEST PUSH1 0x0 PUSH1 0x40 DUP3 ADD SWAP1 POP PUSH2 0x3E67 PUSH1 0x0 DUP4 ADD DUP6 PUSH2 0x3D14 JUMP JUMPDEST PUSH2 0x3E74 PUSH1 0x20 DUP4 ADD DUP5 PUSH2 0x3D14 JUMP JUMPDEST SWAP4 SWAP3 POP POP POP JUMP JUMPDEST PUSH1 0x0 DUP2 MLOAD SWAP1 POP SWAP2 SWAP1 POP JUMP JUMPDEST PUSH1 0x0 DUP3 DUP3 MSTORE PUSH1 0x20 DUP3 ADD SWAP1 POP SWAP3 SWAP2 POP POP JUMP JUMPDEST PUSH1 0x0 DUP2 SWAP1 POP PUSH1 0x20 DUP3 ADD SWAP1 POP SWAP2 SWAP1 POP JUMP JUMPDEST PUSH2 0x3EB0 DUP2 PUSH2 0x3DD4 JUMP JUMPDEST DUP3 MSTORE POP POP JUMP JUMPDEST PUSH1 0x0 PUSH2 0x3EC2 DUP4 DUP4 PUSH2 0x3EA7 JUMP JUMPDEST PUSH1 0x20 DUP4 ADD SWAP1 POP SWAP3 SWAP2 POP POP JUMP JUMPDEST PUSH1 0x0 PUSH1 0x20 DUP3 ADD SWAP1 POP SWAP2 SWAP1 POP JUMP JUMPDEST PUSH1 0x0 PUSH2 0x3EE6 DUP3 PUSH2 0x3E7B JUMP JUMPDEST PUSH2 0x3EF0 DUP2 DUP6 PUSH2 0x3E86 JUMP JUMPDEST SWAP4 POP PUSH2 0x3EFB DUP4 PUSH2 0x3E97 JUMP JUMPDEST DUP1 PUSH1 0x0 JUMPDEST DUP4 DUP2 LT ISZERO PUSH2 0x3F2C JUMPI DUP2 MLOAD PUSH2 0x3F13 DUP9 DUP3 PUSH2 0x3EB6 JUMP JUMPDEST SWAP8 POP PUSH2 0x3F1E DUP4 PUSH2 0x3ECE JUMP JUMPDEST SWAP3 POP POP PUSH1 0x1 DUP2 ADD SWAP1 POP PUSH2 0x3EFF JUMP JUMPDEST POP DUP6 SWAP4 POP POP POP POP SWAP3 SWAP2 POP POP JUMP JUMPDEST PUSH1 0x0 PUSH1 0x20 DUP3 ADD SWAP1 POP DUP2 DUP2 SUB PUSH1 0x0 DUP4 ADD MSTORE PUSH2 0x3F53 DUP2 DUP5 PUSH2 0x3EDB JUMP JUMPDEST SWAP1 POP SWAP3 SWAP2 POP POP JUMP JUMPDEST PUSH2 0x3F64 DUP2 PUSH2 0x3DD4 JUMP JUMPDEST DUP3 MSTORE POP POP JUMP JUMPDEST PUSH1 0x0 PUSH1 0x20 DUP3 ADD SWAP1 POP PUSH2 0x3F7F PUSH1 0x0 DUP4 ADD DUP5 PUSH2 0x3F5B JUMP JUMPDEST SWAP3 SWAP2 POP POP JUMP JUMPDEST PUSH1 0x0 PUSH1 0x20 DUP3 ADD SWAP1 POP PUSH2 0x3F9A PUSH1 0x0 DUP4 ADD DUP5 PUSH2 0x3D2F JUMP JUMPDEST SWAP3 SWAP2 POP POP JUMP JUMPDEST PUSH1 0x0 PUSH1 0x20 DUP3 DUP5 SUB SLT ISZERO PUSH2 0x3FB6 JUMPI PUSH2 0x3FB5 PUSH2 0x3BA0 JUMP JUMPDEST JUMPDEST PUSH1 0x0 PUSH2 0x3FC4 DUP5 DUP3 DUP6 ADD PUSH2 0x3DFD JUMP JUMPDEST SWAP2 POP POP SWAP3 SWAP2 POP POP JUMP JUMPDEST PUSH1 0x0 DUP2 MLOAD SWAP1 POP SWAP2 SWAP1 POP JUMP JUMPDEST PUSH1 0x0 DUP3 DUP3 MSTORE PUSH1 0x20 DUP3 ADD SWAP1 POP SWAP3 SWAP2 POP POP JUMP JUMPDEST PUSH1 0x0 DUP2 SWAP1 POP PUSH1 0x20 DUP3 ADD SWAP1 POP SWAP2 SWAP1 POP JUMP JUMPDEST PUSH1 0x0 DUP3 DUP3 MSTORE PUSH1 0x20 DUP3 ADD SWAP1 POP SWAP3 SWAP2 POP POP JUMP JUMPDEST PUSH1 0x0 PUSH2 0x4015 DUP3 PUSH2 0x3C0D JUMP JUMPDEST PUSH2 0x401F DUP2 DUP6 PUSH2 0x3FF9 JUMP JUMPDEST SWAP4 POP PUSH2 0x402F DUP2 DUP6 PUSH1 0x20 DUP7 ADD PUSH2 0x3C29 JUMP JUMPDEST PUSH2 0x4038 DUP2 PUSH2 0x3C53 JUMP JUMPDEST DUP5 ADD SWAP2 POP POP SWAP3 SWAP2 POP POP JUMP JUMPDEST PUSH2 0x404C DUP2 PUSH2 0x3BAA JUMP JUMPDEST DUP3 MSTORE POP POP JUMP JUMPDEST PUSH2 0x405B DUP2 PUSH2 0x3D23 JUMP JUMPDEST DUP3 MSTORE POP POP JUMP JUMPDEST PUSH1 0x0 PUSH2 0x140 DUP4 ADD PUSH1 0x0 DUP4 ADD MLOAD DUP5 DUP3 SUB PUSH1 0x0 DUP7 ADD MSTORE PUSH2 0x407F DUP3 DUP3 PUSH2 0x400A JUMP JUMPDEST SWAP2 POP POP PUSH1 0x20 DUP4 ADD MLOAD PUSH2 0x4094 PUSH1 0x20 DUP7 ADD DUP3 PUSH2 0x4043 JUMP JUMPDEST POP PUSH1 0x40 DUP4 ADD MLOAD PUSH2 0x40A7 PUSH1 0x40 DUP7 ADD DUP3 PUSH2 0x4043 JUMP JUMPDEST POP PUSH1 0x60 DUP4 ADD MLOAD PUSH2 0x40BA PUSH1 0x60 DUP7 ADD DUP3 PUSH2 0x4043 JUMP JUMPDEST POP PUSH1 0x80 DUP4 ADD MLOAD PUSH2 0x40CD PUSH1 0x80 DUP7 ADD DUP3 PUSH2 0x4043 JUMP JUMPDEST POP PUSH1 0xA0 DUP4 ADD MLOAD PUSH2 0x40E0 PUSH1 0xA0 DUP7 ADD DUP3 PUSH2 0x4043 JUMP JUMPDEST POP PUSH1 0xC0 DUP4 ADD MLOAD PUSH2 0x40F3 PUSH1 0xC0 DUP7 ADD DUP3 PUSH2 0x4043 JUMP JUMPDEST POP PUSH1 0xE0 DUP4 ADD MLOAD PUSH2 0x4106 PUSH1 0xE0 DUP7 ADD DUP3 PUSH2 0x4043 JUMP JUMPDEST POP PUSH2 0x100 DUP4 ADD MLOAD PUSH2 0x411B PUSH2 0x100 DUP7 ADD DUP3 PUSH2 0x4052 JUMP JUMPDEST POP PUSH2 0x120 DUP4 ADD MLOAD PUSH2 0x4130 PUSH2 0x120 DUP7 ADD DUP3 PUSH2 0x4043 JUMP JUMPDEST POP DUP1 SWAP2 POP POP SWAP3 SWAP2 POP POP JUMP JUMPDEST PUSH1 0x0 PUSH2 0x4147 DUP4 DUP4 PUSH2 0x4061 JUMP JUMPDEST SWAP1 POP SWAP3 SWAP2 POP POP JUMP JUMPDEST PUSH1 0x0 PUSH1 0x20 DUP3 ADD SWAP1 POP SWAP2 SWAP1 POP JUMP JUMPDEST PUSH1 0x0 PUSH2 0x4167 DUP3 PUSH2 0x3FCD JUMP JUMPDEST PUSH2 0x4171 DUP2 DUP6 PUSH2 0x3FD8 JUMP JUMPDEST SWAP4 POP DUP4 PUSH1 0x20 DUP3 MUL DUP6 ADD PUSH2 0x4183 DUP6 PUSH2 0x3FE9 JUMP JUMPDEST DUP1 PUSH1 0x0 JUMPDEST DUP6 DUP2 LT ISZERO PUSH2 0x41BF JUMPI DUP5 DUP5 SUB DUP10 MSTORE DUP2 MLOAD PUSH2 0x41A0 DUP6 DUP3 PUSH2 0x413B JUMP JUMPDEST SWAP5 POP PUSH2 0x41AB DUP4 PUSH2 0x414F JUMP JUMPDEST SWAP3 POP PUSH1 0x20 DUP11 ADD SWAP10 POP POP PUSH1 0x1 DUP2 ADD SWAP1 POP PUSH2 0x4187 JUMP JUMPDEST POP DUP3 SWAP8 POP DUP8 SWAP6 POP POP POP POP POP POP SWAP3 SWAP2 POP POP JUMP JUMPDEST PUSH1 0x0 PUSH1 0x20 DUP3 ADD SWAP1 POP DUP2 DUP2 SUB PUSH1 0x0 DUP4 ADD MSTORE PUSH2 0x41EB DUP2 DUP5 PUSH2 0x415C JUMP JUMPDEST SWAP1 POP SWAP3 SWAP2 POP POP JUMP JUMPDEST PUSH1 0x0 DUP2 SWAP1 POP SWAP2 SWAP1 POP JUMP JUMPDEST PUSH1 0x0 PUSH2 0x4218 PUSH2 0x4213 PUSH2 0x420E DUP5 PUSH2 0x3DB4 JUMP JUMPDEST PUSH2 0x41F3 JUMP JUMPDEST PUSH2 0x3DB4 JUMP JUMPDEST SWAP1 POP SWAP2 SWAP1 POP JUMP JUMPDEST PUSH1 0x0 PUSH2 0x422A DUP3 PUSH2 0x41FD JUMP JUMPDEST SWAP1 POP SWAP2 SWAP1 POP JUMP JUMPDEST PUSH1 0x0 PUSH2 0x423C DUP3 PUSH2 0x421F JUMP JUMPDEST SWAP1 POP SWAP2 SWAP1 POP JUMP JUMPDEST PUSH2 0x424C DUP2 PUSH2 0x4231 JUMP JUMPDEST DUP3 MSTORE POP POP JUMP JUMPDEST PUSH1 0x0 PUSH1 0x20 DUP3 ADD SWAP1 POP PUSH2 0x4267 PUSH1 0x0 DUP4 ADD DUP5 PUSH2 0x4243 JUMP JUMPDEST SWAP3 SWAP2 POP POP JUMP JUMPDEST PUSH1 0x0 PUSH1 0x20 DUP3 ADD SWAP1 POP PUSH2 0x4282 PUSH1 0x0 DUP4 ADD DUP5 PUSH2 0x3D14 JUMP JUMPDEST SWAP3 SWAP2 POP POP JUMP JUMPDEST PUSH1 0x2 DUP2 LT PUSH2 0x4299 JUMPI PUSH2 0x4298 PUSH2 0x3C9D JUMP JUMPDEST JUMPDEST POP JUMP JUMPDEST PUSH1 0x0 DUP2 SWAP1 POP PUSH2 0x42AA DUP3 PUSH2 0x4288 JUMP JUMPDEST SWAP2 SWAP1 POP JUMP JUMPDEST PUSH1 0x0 PUSH2 0x42BA DUP3 PUSH2 0x429C JUMP JUMPDEST SWAP1 POP SWAP2 SWAP1 POP JUMP JUMPDEST PUSH2 0x42CA DUP2 PUSH2 0x42AF JUMP JUMPDEST DUP3 MSTORE POP POP JUMP JUMPDEST PUSH2 0x120 DUP3 ADD PUSH1 0x0 DUP3 ADD MLOAD PUSH2 0x42E7 PUSH1 0x0 DUP6 ADD DUP3 PUSH2 0x3EA7 JUMP JUMPDEST POP PUSH1 0x20 DUP3 ADD MLOAD PUSH2 0x42FA PUSH1 0x20 DUP6 ADD DUP3 PUSH2 0x4043 JUMP JUMPDEST POP PUSH1 0x40 DUP3 ADD MLOAD PUSH2 0x430D PUSH1 0x40 DUP6 ADD DUP3 PUSH2 0x4043 JUMP JUMPDEST POP PUSH1 0x60 DUP3 ADD MLOAD PUSH2 0x4320 PUSH1 0x60 DUP6 ADD DUP3 PUSH2 0x4043 JUMP JUMPDEST POP PUSH1 0x80 DUP3 ADD MLOAD PUSH2 0x4333 PUSH1 0x80 DUP6 ADD DUP3 PUSH2 0x42C1 JUMP JUMPDEST POP PUSH1 0xA0 DUP3 ADD MLOAD PUSH2 0x4346 PUSH1 0xA0 DUP6 ADD DUP3 PUSH2 0x4043 JUMP JUMPDEST POP PUSH1 0xC0 DUP3 ADD MLOAD PUSH2 0x4359 PUSH1 0xC0 DUP6 ADD DUP3 PUSH2 0x4043 JUMP JUMPDEST POP PUSH1 0xE0 DUP3 ADD MLOAD PUSH2 0x436C PUSH1 0xE0 DUP6 ADD DUP3 PUSH2 0x4043 JUMP JUMPDEST POP PUSH2 0x100 DUP3 ADD MLOAD PUSH2 0x4381 PUSH2 0x100 DUP6 ADD DUP3 PUSH2 0x4043 JUMP JUMPDEST POP POP POP POP JUMP JUMPDEST PUSH1 0x0 PUSH2 0x120 DUP3 ADD SWAP1 POP PUSH2 0x439D PUSH1 0x0 DUP4 ADD DUP5 PUSH2 0x42D0 JUMP JUMPDEST SWAP3 SWAP2 POP POP JUMP JUMPDEST PUSH1 0x0 DUP2 MLOAD SWAP1 POP SWAP2 SWAP1 POP JUMP JUMPDEST PUSH1 0x0 DUP3 DUP3 MSTORE PUSH1 0x20 DUP3 ADD SWAP1 POP SWAP3 SWAP2 POP POP JUMP JUMPDEST PUSH1 0x0 DUP2 SWAP1 POP PUSH1 0x20 DUP3 ADD SWAP1 POP SWAP2 SWAP1 POP JUMP JUMPDEST PUSH2 0x43D8 DUP2 PUSH2 0x3CF3 JUMP JUMPDEST DUP3 MSTORE POP POP JUMP JUMPDEST PUSH1 0x0 PUSH2 0x160 DUP4 ADD PUSH1 0x0 DUP4 ADD MLOAD PUSH2 0x43F7 PUSH1 0x0 DUP7 ADD DUP3 PUSH2 0x4043 JUMP JUMPDEST POP PUSH1 0x20 DUP4 ADD MLOAD DUP5 DUP3 SUB PUSH1 0x20 DUP7 ADD MSTORE PUSH2 0x440F DUP3 DUP3 PUSH2 0x400A JUMP JUMPDEST SWAP2 POP POP PUSH1 0x40 DUP4 ADD MLOAD PUSH2 0x4424 PUSH1 0x40 DUP7 ADD DUP3 PUSH2 0x43CF JUMP JUMPDEST POP PUSH1 0x60 DUP4 ADD MLOAD DUP5 DUP3 SUB PUSH1 0x60 DUP7 ADD MSTORE PUSH2 0x443C DUP3 DUP3 PUSH2 0x400A JUMP JUMPDEST SWAP2 POP POP PUSH1 0x80 DUP4 ADD MLOAD PUSH2 0x4451 PUSH1 0x80 DUP7 ADD DUP3 PUSH2 0x4043 JUMP JUMPDEST POP PUSH1 0xA0 DUP4 ADD MLOAD PUSH2 0x4464 PUSH1 0xA0 DUP7 ADD DUP3 PUSH2 0x4043 JUMP JUMPDEST POP PUSH1 0xC0 DUP4 ADD MLOAD PUSH2 0x4477 PUSH1 0xC0 DUP7 ADD DUP3 PUSH2 0x4043 JUMP JUMPDEST POP PUSH1 0xE0 DUP4 ADD MLOAD PUSH2 0x448A PUSH1 0xE0 DUP7 ADD DUP3 PUSH2 0x4043 JUMP JUMPDEST POP PUSH2 0x100 DUP4 ADD MLOAD PUSH2 0x449F PUSH2 0x100 DUP7 ADD DUP3 PUSH2 0x4043 JUMP JUMPDEST POP PUSH2 0x120 DUP4 ADD MLOAD PUSH2 0x44B4 PUSH2 0x120 DUP7 ADD DUP3 PUSH2 0x4043 JUMP JUMPDEST POP PUSH2 0x140 DUP4 ADD MLOAD DUP5 DUP3 SUB PUSH2 0x140 DUP7 ADD MSTORE PUSH2 0x44CE DUP3 DUP3 PUSH2 0x400A JUMP JUMPDEST SWAP2 POP POP DUP1 SWAP2 POP POP SWAP3 SWAP2 POP POP JUMP JUMPDEST PUSH1 0x0 PUSH2 0x44E7 DUP4 DUP4 PUSH2 0x43DE JUMP JUMPDEST SWAP1 POP SWAP3 SWAP2 POP POP JUMP JUMPDEST PUSH1 0x0 PUSH1 0x20 DUP3 ADD SWAP1 POP SWAP2 SWAP1 POP JUMP JUMPDEST PUSH1 0x0 PUSH2 0x4507 DUP3 PUSH2 0x43A3 JUMP JUMPDEST PUSH2 0x4511 DUP2 DUP6 PUSH2 0x43AE JUMP JUMPDEST SWAP4 POP DUP4 PUSH1 0x20 DUP3 MUL DUP6 ADD PUSH2 0x4523 DUP6 PUSH2 0x43BF JUMP JUMPDEST DUP1 PUSH1 0x0 JUMPDEST DUP6 DUP2 LT ISZERO PUSH2 0x455F JUMPI DUP5 DUP5 SUB DUP10 MSTORE DUP2 MLOAD PUSH2 0x4540 DUP6 DUP3 PUSH2 0x44DB JUMP JUMPDEST SWAP5 POP PUSH2 0x454B DUP4 PUSH2 0x44EF JUMP JUMPDEST SWAP3 POP PUSH1 0x20 DUP11 ADD SWAP10 POP POP PUSH1 0x1 DUP2 ADD SWAP1 POP PUSH2 0x4527 JUMP JUMPDEST POP DUP3 SWAP8 POP DUP8 SWAP6 POP POP POP POP POP POP SWAP3 SWAP2 POP POP JUMP JUMPDEST PUSH1 0x0 PUSH1 0x20 DUP3 ADD SWAP1 POP DUP2 DUP2 SUB PUSH1 0x0 DUP4 ADD MSTORE PUSH2 0x458B DUP2 DUP5 PUSH2 0x44FC JUMP JUMPDEST SWAP1 POP SWAP3 SWAP2 POP POP JUMP JUMPDEST PUSH1 0x0 DUP1 PUSH1 0x40 DUP4 DUP6 SUB SLT ISZERO PUSH2 0x45AA JUMPI PUSH2 0x45A9 PUSH2 0x3BA0 JUMP JUMPDEST JUMPDEST PUSH1 0x0 PUSH2 0x45B8 DUP6 DUP3 DUP7 ADD PUSH2 0x3BCB JUMP JUMPDEST SWAP3 POP POP PUSH1 0x20 PUSH2 0x45C9 DUP6 DUP3 DUP7 ADD PUSH2 0x3BCB JUMP JUMPDEST SWAP2 POP POP SWAP3 POP SWAP3 SWAP1 POP JUMP JUMPDEST PUSH1 0x0 DUP1 REVERT JUMPDEST PUSH32 0x4E487B7100000000000000000000000000000000000000000000000000000000 PUSH1 0x0 MSTORE PUSH1 0x41 PUSH1 0x4 MSTORE PUSH1 0x24 PUSH1 0x0 REVERT JUMPDEST PUSH2 0x4610 DUP3 PUSH2 0x3C53 JUMP JUMPDEST DUP2 ADD DUP2 DUP2 LT PUSH8 0xFFFFFFFFFFFFFFFF DUP3 GT OR ISZERO PUSH2 0x462F JUMPI PUSH2 0x462E PUSH2 0x45D8 JUMP JUMPDEST JUMPDEST DUP1 PUSH1 0x40 MSTORE POP POP POP JUMP JUMPDEST PUSH1 0x0 PUSH2 0x4642 PUSH2 0x3B96 JUMP JUMPDEST SWAP1 POP PUSH2 0x464E DUP3 DUP3 PUSH2 0x4607 JUMP JUMPDEST SWAP2 SWAP1 POP JUMP JUMPDEST PUSH1 0x0 DUP1 REVERT JUMPDEST PUSH1 0x0 DUP1 REVERT JUMPDEST PUSH1 0x0 DUP1 REVERT JUMPDEST PUSH1 0x0 PUSH8 0xFFFFFFFFFFFFFFFF DUP3 GT ISZERO PUSH2 0x467D JUMPI PUSH2 0x467C PUSH2 0x45D8 JUMP JUMPDEST JUMPDEST PUSH2 0x4686 DUP3 PUSH2 0x3C53 JUMP JUMPDEST SWAP1 POP PUSH1 0x20 DUP2 ADD SWAP1 POP SWAP2 SWAP1 POP JUMP JUMPDEST DUP3 DUP2 DUP4 CALLDATACOPY PUSH1 0x0 DUP4 DUP4 ADD MSTORE POP POP POP JUMP JUMPDEST PUSH1 0x0 PUSH2 0x46B5 PUSH2 0x46B0 DUP5 PUSH2 0x4662 JUMP JUMPDEST PUSH2 0x4638 JUMP JUMPDEST SWAP1 POP DUP3 DUP2 MSTORE PUSH1 0x20 DUP2 ADD DUP5 DUP5 DUP5 ADD GT ISZERO PUSH2 0x46D1 JUMPI PUSH2 0x46D0 PUSH2 0x465D JUMP JUMPDEST JUMPDEST PUSH2 0x46DC DUP5 DUP3 DUP6 PUSH2 0x4693 JUMP JUMPDEST POP SWAP4 SWAP3 POP POP POP JUMP JUMPDEST PUSH1 0x0 DUP3 PUSH1 0x1F DUP4 ADD SLT PUSH2 0x46F9 JUMPI PUSH2 0x46F8 PUSH2 0x4658 JUMP JUMPDEST JUMPDEST DUP2 CALLDATALOAD PUSH2 0x4709 DUP5 DUP3 PUSH1 0x20 DUP7 ADD PUSH2 0x46A2 JUMP JUMPDEST SWAP2 POP POP SWAP3 SWAP2 POP POP JUMP JUMPDEST PUSH1 0x4 DUP2 LT PUSH2 0x471F JUMPI PUSH1 0x0 DUP1 REVERT JUMPDEST POP JUMP JUMPDEST PUSH1 0x0 DUP2 CALLDATALOAD SWAP1 POP PUSH2 0x4731 DUP2 PUSH2 0x4712 JUMP JUMPDEST SWAP3 SWAP2 POP POP JUMP JUMPDEST PUSH1 0x0 PUSH2 0x160 DUP3 DUP5 SUB SLT ISZERO PUSH2 0x474E JUMPI PUSH2 0x474D PUSH2 0x45D3 JUMP JUMPDEST JUMPDEST PUSH2 0x4759 PUSH2 0x160 PUSH2 0x4638 JUMP JUMPDEST SWAP1 POP PUSH1 0x0 PUSH2 0x4769 DUP5 DUP3 DUP6 ADD PUSH2 0x3BCB JUMP JUMPDEST PUSH1 0x0 DUP4 ADD MSTORE POP PUSH1 0x20 DUP3 ADD CALLDATALOAD PUSH8 0xFFFFFFFFFFFFFFFF DUP2 GT ISZERO PUSH2 0x478D JUMPI PUSH2 0x478C PUSH2 0x4653 JUMP JUMPDEST JUMPDEST PUSH2 0x4799 DUP5 DUP3 DUP6 ADD PUSH2 0x46E4 JUMP JUMPDEST PUSH1 0x20 DUP4 ADD MSTORE POP PUSH1 0x40 PUSH2 0x47AD DUP5 DUP3 DUP6 ADD PUSH2 0x4722 JUMP JUMPDEST PUSH1 0x40 DUP4 ADD MSTORE POP PUSH1 0x60 DUP3 ADD CALLDATALOAD PUSH8 0xFFFFFFFFFFFFFFFF DUP2 GT ISZERO PUSH2 0x47D1 JUMPI PUSH2 0x47D0 PUSH2 0x4653 JUMP JUMPDEST JUMPDEST PUSH2 0x47DD DUP5 DUP3 DUP6 ADD PUSH2 0x46E4 JUMP JUMPDEST PUSH1 0x60 DUP4 ADD MSTORE POP PUSH1 0x80 PUSH2 0x47F1 DUP5 DUP3 DUP6 ADD PUSH2 0x3BCB JUMP JUMPDEST PUSH1 0x80 DUP4 ADD MSTORE POP PUSH1 0xA0 PUSH2 0x4805 DUP5 DUP3 DUP6 ADD PUSH2 0x3BCB JUMP JUMPDEST PUSH1 0xA0 DUP4 ADD MSTORE POP PUSH1 0xC0 PUSH2 0x4819 DUP5 DUP3 DUP6 ADD PUSH2 0x3BCB JUMP JUMPDEST PUSH1 0xC0 DUP4 ADD MSTORE POP PUSH1 0xE0 PUSH2 0x482D DUP5 DUP3 DUP6 ADD PUSH2 0x3BCB JUMP JUMPDEST PUSH1 0xE0 DUP4 ADD MSTORE POP PUSH2 0x100 PUSH2 0x4842 DUP5 DUP3 DUP6 ADD PUSH2 0x3BCB JUMP JUMPDEST PUSH2 0x100 DUP4 ADD MSTORE POP PUSH2 0x120 PUSH2 0x4858 DUP5 DUP3 DUP6 ADD PUSH2 0x3BCB JUMP JUMPDEST PUSH2 0x120 DUP4 ADD MSTORE POP PUSH2 0x140 DUP3 ADD CALLDATALOAD PUSH8 0xFFFFFFFFFFFFFFFF DUP2 GT ISZERO PUSH2 0x487E JUMPI PUSH2 0x487D PUSH2 0x4653 JUMP JUMPDEST JUMPDEST PUSH2 0x488A DUP5 DUP3 DUP6 ADD PUSH2 0x46E4 JUMP JUMPDEST PUSH2 0x140 DUP4 ADD MSTORE POP SWAP3 SWAP2 POP POP JUMP JUMPDEST PUSH1 0x0 DUP1 PUSH1 0x40 DUP4 DUP6 SUB SLT ISZERO PUSH2 0x48AE JUMPI PUSH2 0x48AD PUSH2 0x3BA0 JUMP JUMPDEST JUMPDEST PUSH1 0x0 PUSH2 0x48BC DUP6 DUP3 DUP7 ADD PUSH2 0x3BCB JUMP JUMPDEST SWAP3 POP POP PUSH1 0x20 DUP4 ADD CALLDATALOAD PUSH8 0xFFFFFFFFFFFFFFFF DUP2 GT ISZERO PUSH2 0x48DD JUMPI PUSH2 0x48DC PUSH2 0x3BA5 JUMP JUMPDEST JUMPDEST PUSH2 0x48E9 DUP6 DUP3 DUP7 ADD PUSH2 0x4737 JUMP JUMPDEST SWAP2 POP POP SWAP3 POP SWAP3 SWAP1 POP JUMP JUMPDEST PUSH1 0x0 PUSH2 0x100 DUP3 ADD SWAP1 POP DUP2 DUP2 SUB PUSH1 0x0 DUP4 ADD MSTORE PUSH2 0x490E DUP2 DUP12 PUSH2 0x3C64 JUMP JUMPDEST SWAP1 POP PUSH2 0x491D PUSH1 0x20 DUP4 ADD DUP11 PUSH2 0x3D05 JUMP JUMPDEST PUSH2 0x492A PUSH1 0x40 DUP4 ADD DUP10 PUSH2 0x3D14 JUMP JUMPDEST PUSH2 0x4937 PUSH1 0x60 DUP4 ADD DUP9 PUSH2 0x3D14 JUMP JUMPDEST PUSH2 0x4944 PUSH1 0x80 DUP4 ADD DUP8 PUSH2 0x3D14 JUMP JUMPDEST PUSH2 0x4951 PUSH1 0xA0 DUP4 ADD DUP7 PUSH2 0x3D14 JUMP JUMPDEST PUSH2 0x495E PUSH1 0xC0 DUP4 ADD DUP6 PUSH2 0x3D2F JUMP JUMPDEST PUSH2 0x496B PUSH1 0xE0 DUP4 ADD DUP5 PUSH2 0x3D14 JUMP JUMPDEST SWAP10 SWAP9 POP POP POP POP POP POP POP POP POP JUMP JUMPDEST PUSH1 0x0 PUSH2 0x4983 DUP3 PUSH2 0x421F JUMP JUMPDEST SWAP1 POP SWAP2 SWAP1 POP JUMP JUMPDEST PUSH2 0x4993 DUP2 PUSH2 0x4978 JUMP JUMPDEST DUP3 MSTORE POP POP JUMP JUMPDEST PUSH1 0x0 PUSH1 0x20 DUP3 ADD SWAP1 POP PUSH2 0x49AE PUSH1 0x0 DUP4 ADD DUP5 PUSH2 0x498A JUMP JUMPDEST SWAP3 SWAP2 POP POP JUMP JUMPDEST PUSH1 0x0 DUP1 PUSH1 0x0 PUSH1 0x60 DUP5 DUP7 SUB SLT ISZERO PUSH2 0x49CD JUMPI PUSH2 0x49CC PUSH2 0x3BA0 JUMP JUMPDEST JUMPDEST PUSH1 0x0 PUSH2 0x49DB DUP7 DUP3 DUP8 ADD PUSH2 0x3BCB JUMP JUMPDEST SWAP4 POP POP PUSH1 0x20 PUSH2 0x49EC DUP7 DUP3 DUP8 ADD PUSH2 0x3BCB JUMP JUMPDEST SWAP3 POP POP PUSH1 0x40 PUSH2 0x49FD DUP7 DUP3 DUP8 ADD PUSH2 0x3BCB JUMP JUMPDEST SWAP2 POP POP SWAP3 POP SWAP3 POP SWAP3 JUMP JUMPDEST PUSH1 0x0 DUP2 MLOAD SWAP1 POP SWAP2 SWAP1 POP JUMP JUMPDEST PUSH1 0x0 DUP3 DUP3 MSTORE PUSH1 0x20 DUP3 ADD SWAP1 POP SWAP3 SWAP2 POP POP JUMP JUMPDEST PUSH1 0x0 DUP2 SWAP1 POP PUSH1 0x20 DUP3 ADD SWAP1 POP SWAP2 SWAP1 POP JUMP JUMPDEST PUSH1 0x0 PUSH2 0x120 DUP4 ADD PUSH1 0x0 DUP4 ADD MLOAD PUSH2 0x4A4C PUSH1 0x0 DUP7 ADD DUP3 PUSH2 0x4043 JUMP JUMPDEST POP PUSH1 0x20 DUP4 ADD MLOAD DUP5 DUP3 SUB PUSH1 0x20 DUP7 ADD MSTORE PUSH2 0x4A64 DUP3 DUP3 PUSH2 0x400A JUMP JUMPDEST SWAP2 POP POP PUSH1 0x40 DUP4 ADD MLOAD PUSH2 0x4A79 PUSH1 0x40 DUP7 ADD DUP3 PUSH2 0x43CF JUMP JUMPDEST POP PUSH1 0x60 DUP4 ADD MLOAD PUSH2 0x4A8C PUSH1 0x60 DUP7 ADD DUP3 PUSH2 0x4043 JUMP JUMPDEST POP PUSH1 0x80 DUP4 ADD MLOAD PUSH2 0x4A9F PUSH1 0x80 DUP7 ADD DUP3 PUSH2 0x4043 JUMP JUMPDEST POP PUSH1 0xA0 DUP4 ADD MLOAD PUSH2 0x4AB2 PUSH1 0xA0 DUP7 ADD DUP3 PUSH2 0x4043 JUMP JUMPDEST POP PUSH1 0xC0 DUP4 ADD MLOAD PUSH2 0x4AC5 PUSH1 0xC0 DUP7 ADD DUP3 PUSH2 0x4043 JUMP JUMPDEST POP PUSH1 0xE0 DUP4 ADD MLOAD PUSH2 0x4AD8 PUSH1 0xE0 DUP7 ADD DUP3 PUSH2 0x4052 JUMP JUMPDEST POP PUSH2 0x100 DUP4 ADD MLOAD PUSH2 0x4AED PUSH2 0x100 DUP7 ADD DUP3 PUSH2 0x4043 JUMP JUMPDEST POP DUP1 SWAP2 POP POP SWAP3 SWAP2 POP POP JUMP JUMPDEST PUSH1 0x0 PUSH2 0x4B04 DUP4 DUP4 PUSH2 0x4A33 JUMP JUMPDEST SWAP1 POP SWAP3 SWAP2 POP POP JUMP JUMPDEST PUSH1 0x0 PUSH1 0x20 DUP3 ADD SWAP1 POP SWAP2 SWAP1 POP JUMP JUMPDEST PUSH1 0x0 PUSH2 0x4B24 DUP3 PUSH2 0x4A07 JUMP JUMPDEST PUSH2 0x4B2E DUP2 DUP6 PUSH2 0x4A12 JUMP JUMPDEST SWAP4 POP DUP4 PUSH1 0x20 DUP3 MUL DUP6 ADD PUSH2 0x4B40 DUP6 PUSH2 0x4A23 JUMP JUMPDEST DUP1 PUSH1 0x0 JUMPDEST DUP6 DUP2 LT ISZERO PUSH2 0x4B7C JUMPI DUP5 DUP5 SUB DUP10 MSTORE DUP2 MLOAD PUSH2 0x4B5D DUP6 DUP3 PUSH2 0x4AF8 JUMP JUMPDEST SWAP5 POP PUSH2 0x4B68 DUP4 PUSH2 0x4B0C JUMP JUMPDEST SWAP3 POP PUSH1 0x20 DUP11 ADD SWAP10 POP POP PUSH1 0x1 DUP2 ADD SWAP1 POP PUSH2 0x4B44 JUMP JUMPDEST POP DUP3 SWAP8 POP DUP8 SWAP6 POP POP POP POP POP POP SWAP3 SWAP2 POP POP JUMP JUMPDEST PUSH1 0x0 PUSH1 0x20 DUP3 ADD SWAP1 POP DUP2 DUP2 SUB PUSH1 0x0 DUP4 ADD MSTORE PUSH2 0x4BA8 DUP2 DUP5 PUSH2 0x4B19 JUMP JUMPDEST SWAP1 POP SWAP3 SWAP2 POP POP JUMP JUMPDEST PUSH1 0x0 DUP1 PUSH1 0x0 DUP1 PUSH1 0x80 DUP6 DUP8 SUB SLT ISZERO PUSH2 0x4BCA JUMPI PUSH2 0x4BC9 PUSH2 0x3BA0 JUMP JUMPDEST JUMPDEST PUSH1 0x0 PUSH2 0x4BD8 DUP8 DUP3 DUP9 ADD PUSH2 0x4722 JUMP JUMPDEST SWAP5 POP POP PUSH1 0x20 DUP6 ADD CALLDATALOAD PUSH8 0xFFFFFFFFFFFFFFFF DUP2 GT ISZERO PUSH2 0x4BF9 JUMPI PUSH2 0x4BF8 PUSH2 0x3BA5 JUMP JUMPDEST JUMPDEST PUSH2 0x4C05 DUP8 DUP3 DUP9 ADD PUSH2 0x46E4 JUMP JUMPDEST SWAP4 POP POP PUSH1 0x40 PUSH2 0x4C16 DUP8 DUP3 DUP9 ADD PUSH2 0x3BCB JUMP JUMPDEST SWAP3 POP POP PUSH1 0x60 PUSH2 0x4C27 DUP8 DUP3 DUP9 ADD PUSH2 0x3BCB JUMP JUMPDEST SWAP2 POP POP SWAP3 SWAP6 SWAP2 SWAP5 POP SWAP3 POP JUMP JUMPDEST PUSH1 0x0 PUSH2 0x4C3E DUP3 PUSH2 0x421F JUMP JUMPDEST SWAP1 POP SWAP2 SWAP1 POP JUMP JUMPDEST PUSH2 0x4C4E DUP2 PUSH2 0x4C33 JUMP JUMPDEST DUP3 MSTORE POP POP JUMP JUMPDEST PUSH1 0x0 PUSH1 0x20 DUP3 ADD SWAP1 POP PUSH2 0x4C69 PUSH1 0x0 DUP4 ADD DUP5 PUSH2 0x4C45 JUMP JUMPDEST SWAP3 SWAP2 POP POP JUMP JUMPDEST PUSH32 0x4E487B7100000000000000000000000000000000000000000000000000000000 PUSH1 0x0 MSTORE PUSH1 0x22 PUSH1 0x4 MSTORE PUSH1 0x24 PUSH1 0x0 REVERT JUMPDEST PUSH1 0x0 PUSH1 0x2 DUP3 DIV SWAP1 POP PUSH1 0x1 DUP3 AND DUP1 PUSH2 0x4CB6 JUMPI PUSH1 0x7F DUP3 AND SWAP2 POP JUMPDEST PUSH1 0x20 DUP3 LT DUP2 SUB PUSH2 0x4CC9 JUMPI PUSH2 0x4CC8 PUSH2 0x4C6F JUMP JUMPDEST JUMPDEST POP SWAP2 SWAP1 POP JUMP JUMPDEST PUSH1 0x0 PUSH1 0x40 DUP3 ADD SWAP1 POP PUSH2 0x4CE4 PUSH1 0x0 DUP4 ADD DUP6 PUSH2 0x3F5B JUMP JUMPDEST PUSH2 0x4CF1 PUSH1 0x20 DUP4 ADD DUP5 PUSH2 0x3D14 JUMP JUMPDEST SWAP4 SWAP3 POP POP POP JUMP JUMPDEST PUSH1 0x0 DUP2 MLOAD SWAP1 POP PUSH2 0x4D07 DUP2 PUSH2 0x3BB4 JUMP JUMPDEST SWAP3 SWAP2 POP POP JUMP JUMPDEST PUSH1 0x0 PUSH1 0x20 DUP3 DUP5 SUB SLT ISZERO PUSH2 0x4D23 JUMPI PUSH2 0x4D22 PUSH2 0x3BA0 JUMP JUMPDEST JUMPDEST PUSH1 0x0 PUSH2 0x4D31 DUP5 DUP3 DUP6 ADD PUSH2 0x4CF8 JUMP JUMPDEST SWAP2 POP POP SWAP3 SWAP2 POP POP JUMP JUMPDEST PUSH32 0x4E6F206465706F73697420666F756E6420666F72207468697320616464726573 PUSH1 0x0 DUP3 ADD MSTORE PUSH32 0x7300000000000000000000000000000000000000000000000000000000000000 PUSH1 0x20 DUP3 ADD MSTORE POP JUMP JUMPDEST PUSH1 0x0 PUSH2 0x4D96 PUSH1 0x21 DUP4 PUSH2 0x3C18 JUMP JUMPDEST SWAP2 POP PUSH2 0x4DA1 DUP3 PUSH2 0x4D3A JUMP JUMPDEST PUSH1 0x40 DUP3 ADD SWAP1 POP SWAP2 SWAP1 POP JUMP JUMPDEST PUSH1 0x0 PUSH1 0x20 DUP3 ADD SWAP1 POP DUP2 DUP2 SUB PUSH1 0x0 DUP4 ADD MSTORE PUSH2 0x4DC5 DUP2 PUSH2 0x4D89 JUMP JUMPDEST SWAP1 POP SWAP2 SWAP1 POP JUMP JUMPDEST PUSH32 0x4465706F736974206973206E6F74206163746976650000000000000000000000 PUSH1 0x0 DUP3 ADD MSTORE POP JUMP JUMPDEST PUSH1 0x0 PUSH2 0x4E02 PUSH1 0x15 DUP4 PUSH2 0x3C18 JUMP JUMPDEST SWAP2 POP PUSH2 0x4E0D DUP3 PUSH2 0x4DCC JUMP JUMPDEST PUSH1 0x20 DUP3 ADD SWAP1 POP SWAP2 SWAP1 POP JUMP JUMPDEST PUSH1 0x0 PUSH1 0x20 DUP3 ADD SWAP1 POP DUP2 DUP2 SUB PUSH1 0x0 DUP4 ADD MSTORE PUSH2 0x4E31 DUP2 PUSH2 0x4DF5 JUMP JUMPDEST SWAP1 POP SWAP2 SWAP1 POP JUMP JUMPDEST PUSH32 0x4465706F73697420706572696F6420686173206E6F7420656E64656400000000 PUSH1 0x0 DUP3 ADD MSTORE POP JUMP JUMPDEST PUSH1 0x0 PUSH2 0x4E6E PUSH1 0x1C DUP4 PUSH2 0x3C18 JUMP JUMPDEST SWAP2 POP PUSH2 0x4E79 DUP3 PUSH2 0x4E38 JUMP JUMPDEST PUSH1 0x20 DUP3 ADD SWAP1 POP SWAP2 SWAP1 POP JUMP JUMPDEST PUSH1 0x0 PUSH1 0x20 DUP3 ADD SWAP1 POP DUP2 DUP2 SUB PUSH1 0x0 DUP4 ADD MSTORE PUSH2 0x4E9D DUP2 PUSH2 0x4E61 JUMP JUMPDEST SWAP1 POP SWAP2 SWAP1 POP JUMP JUMPDEST PUSH32 0x4E487B7100000000000000000000000000000000000000000000000000000000 PUSH1 0x0 MSTORE PUSH1 0x11 PUSH1 0x4 MSTORE PUSH1 0x24 PUSH1 0x0 REVERT JUMPDEST PUSH1 0x0 PUSH2 0x4EDE DUP3 PUSH2 0x3BAA JUMP JUMPDEST SWAP2 POP PUSH2 0x4EE9 DUP4 PUSH2 0x3BAA JUMP JUMPDEST SWAP3 POP DUP3 DUP3 SUB SWAP1 POP DUP2 DUP2 GT ISZERO PUSH2 0x4F01 JUMPI PUSH2 0x4F00 PUSH2 0x4EA4 JUMP JUMPDEST JUMPDEST SWAP3 SWAP2 POP POP JUMP JUMPDEST PUSH32 0x4E487B7100000000000000000000000000000000000000000000000000000000 PUSH1 0x0 MSTORE PUSH1 0x32 PUSH1 0x4 MSTORE PUSH1 0x24 PUSH1 0x0 REVERT JUMPDEST PUSH1 0x0 DUP2 SWAP1 POP DUP2 PUSH1 0x0 MSTORE PUSH1 0x20 PUSH1 0x0 KECCAK256 SWAP1 POP SWAP2 SWAP1 POP JUMP JUMPDEST PUSH1 0x0 DUP2 SLOAD PUSH2 0x4F58 DUP2 PUSH2 0x4C9E JUMP JUMPDEST PUSH2 0x4F62 DUP2 DUP7 PUSH2 0x3C18 JUMP JUMPDEST SWAP5 POP PUSH1 0x1 DUP3 AND PUSH1 0x0 DUP2 EQ PUSH2 0x4F7D JUMPI PUSH1 0x1 DUP2 EQ PUSH2 0x4F93 JUMPI PUSH2 0x4FC6 JUMP JUMPDEST PUSH1 0xFF NOT DUP4 AND DUP7 MSTORE DUP2 ISZERO ISZERO PUSH1 0x20 MUL DUP7 ADD SWAP4 POP PUSH2 0x4FC6 JUMP JUMPDEST PUSH2 0x4F9C DUP6 PUSH2 0x4F36 JUMP JUMPDEST PUSH1 0x0 JUMPDEST DUP4 DUP2 LT ISZERO PUSH2 0x4FBE JUMPI DUP2 SLOAD DUP2 DUP10 ADD MSTORE PUSH1 0x1 DUP3 ADD SWAP2 POP PUSH1 0x20 DUP2 ADD SWAP1 POP PUSH2 0x4F9F JUMP JUMPDEST DUP1 DUP9 ADD SWAP6 POP POP POP JUMPDEST POP POP POP SWAP3 SWAP2 POP POP JUMP JUMPDEST PUSH1 0x0 PUSH1 0x40 DUP3 ADD SWAP1 POP PUSH2 0x4FE4 PUSH1 0x0 DUP4 ADD DUP6 PUSH2 0x3D14 JUMP JUMPDEST DUP2 DUP2 SUB PUSH1 0x20 DUP4 ADD MSTORE PUSH2 0x4FF6 DUP2 DUP5 PUSH2 0x4F4B JUMP JUMPDEST SWAP1 POP SWAP4 SWAP3 POP POP POP JUMP JUMPDEST PUSH1 0x0 PUSH2 0x500A DUP3 PUSH2 0x3BAA JUMP JUMPDEST SWAP2 POP PUSH32 0xFFFFFFFFFFFFFFFFFFFFFFFFFFFFFFFFFFFFFFFFFFFFFFFFFFFFFFFFFFFFFFFF DUP3 SUB PUSH2 0x503C JUMPI PUSH2 0x503B PUSH2 0x4EA4 JUMP JUMPDEST JUMPDEST PUSH1 0x1 DUP3 ADD SWAP1 POP SWAP2 SWAP1 POP JUMP JUMPDEST PUSH1 0x0 PUSH2 0x5052 DUP3 PUSH2 0x3BAA JUMP JUMPDEST SWAP2 POP PUSH2 0x505D DUP4 PUSH2 0x3BAA JUMP JUMPDEST SWAP3 POP DUP3 DUP3 MUL PUSH2 0x506B DUP2 PUSH2 0x3BAA JUMP JUMPDEST SWAP2 POP DUP3 DUP3 DIV DUP5 EQ DUP4 ISZERO OR PUSH2 0x5082 JUMPI PUSH2 0x5081 PUSH2 0x4EA4 JUMP JUMPDEST JUMPDEST POP SWAP3 SWAP2 POP POP JUMP JUMPDEST PUSH32 0x4E487B7100000000000000000000000000000000000000000000000000000000 PUSH1 0x0 MSTORE PUSH1 0x12 PUSH1 0x4 MSTORE PUSH1 0x24 PUSH1 0x0 REVERT JUMPDEST PUSH1 0x0 PUSH2 0x50C3 DUP3 PUSH2 0x3BAA JUMP JUMPDEST SWAP2 POP PUSH2 0x50CE DUP4 PUSH2 0x3BAA JUMP JUMPDEST SWAP3 POP DUP3 PUSH2 0x50DE JUMPI PUSH2 0x50DD PUSH2 0x5089 JUMP JUMPDEST JUMPDEST DUP3 DUP3 DIV SWAP1 POP SWAP3 SWAP2 POP POP JUMP JUMPDEST PUSH1 0x0 PUSH2 0x50F4 DUP3 PUSH2 0x3BAA JUMP JUMPDEST SWAP2 POP PUSH2 0x50FF DUP4 PUSH2 0x3BAA JUMP JUMPDEST SWAP3 POP DUP3 DUP3 ADD SWAP1 POP DUP1 DUP3 GT ISZERO PUSH2 0x5117 JUMPI PUSH2 0x5116 PUSH2 0x4EA4 JUMP JUMPDEST JUMPDEST SWAP3 SWAP2 POP POP JUMP JUMPDEST PUSH32 0x476F7665726E616E636520616C72656164792073657400000000000000000000 PUSH1 0x0 DUP3 ADD MSTORE POP JUMP JUMPDEST PUSH1 0x0 PUSH2 0x5153 PUSH1 0x16 DUP4 PUSH2 0x3C18 JUMP JUMPDEST SWAP2 POP PUSH2 0x515E DUP3 PUSH2 0x511D JUMP JUMPDEST PUSH1 0x20 DUP3 ADD SWAP1 POP SWAP2 SWAP1 POP JUMP JUMPDEST PUSH1 0x0 PUSH1 0x20 DUP3 ADD SWAP1 POP DUP2 DUP2 SUB PUSH1 0x0 DUP4 ADD MSTORE PUSH2 0x5182 DUP2 PUSH2 0x5146 JUMP JUMPDEST SWAP1 POP SWAP2 SWAP1 POP JUMP JUMPDEST PUSH32 0x476F7665726E616E636520616464726573732063616E6E6F74206265207A6572 PUSH1 0x0 DUP3 ADD MSTORE PUSH32 0x6F00000000000000000000000000000000000000000000000000000000000000 PUSH1 0x20 DUP3 ADD MSTORE POP JUMP JUMPDEST PUSH1 0x0 PUSH2 0x51E5 PUSH1 0x21 DUP4 PUSH2 0x3C18 JUMP JUMPDEST SWAP2 POP PUSH2 0x51F0 DUP3 PUSH2 0x5189 JUMP JUMPDEST PUSH1 0x40 DUP3 ADD SWAP1 POP SWAP2 SWAP1 POP JUMP JUMPDEST PUSH1 0x0 PUSH1 0x20 DUP3 ADD SWAP1 POP DUP2 DUP2 SUB PUSH1 0x0 DUP4 ADD MSTORE PUSH2 0x5214 DUP2 PUSH2 0x51D8 JUMP JUMPDEST SWAP1 POP SWAP2 SWAP1 POP JUMP JUMPDEST PUSH32 0x43616C6C6572206973206E6F742074686520676F7665726E616E636520636F6E PUSH1 0x0 DUP3 ADD MSTORE PUSH32 0x7472616374000000000000000000000000000000000000000000000000000000 PUSH1 0x20 DUP3 ADD MSTORE POP JUMP JUMPDEST PUSH1 0x0 PUSH2 0x5277 PUSH1 0x25 DUP4 PUSH2 0x3C18 JUMP JUMPDEST SWAP2 POP PUSH2 0x5282 DUP3 PUSH2 0x521B JUMP JUMPDEST PUSH1 0x40 DUP3 ADD SWAP1 POP SWAP2 SWAP1 POP JUMP JUMPDEST PUSH1 0x0 PUSH1 0x20 DUP3 ADD SWAP1 POP DUP2 DUP2 SUB PUSH1 0x0 DUP4 ADD MSTORE PUSH2 0x52A6 DUP2 PUSH2 0x526A JUMP JUMPDEST SWAP1 POP SWAP2 SWAP1 POP JUMP JUMPDEST PUSH1 0x0 PUSH1 0x20 PUSH1 0x1F DUP4 ADD DIV SWAP1 POP SWAP2 SWAP1 POP JUMP JUMPDEST PUSH1 0x0 DUP3 DUP3 SHL SWAP1 POP SWAP3 SWAP2 POP POP JUMP JUMPDEST PUSH1 0x0 PUSH1 0x8 DUP4 MUL PUSH2 0x52FA PUSH32 0xFFFFFFFFFFFFFFFFFFFFFFFFFFFFFFFFFFFFFFFFFFFFFFFFFFFFFFFFFFFFFFFF DUP3 PUSH2 0x52BD JUMP JUMPDEST PUSH2 0x5304 DUP7 DUP4 PUSH2 0x52BD JUMP JUMPDEST SWAP6 POP DUP1 NOT DUP5 AND SWAP4 POP DUP1 DUP7 AND DUP5 OR SWAP3 POP POP POP SWAP4 SWAP3 POP POP POP JUMP JUMPDEST PUSH1 0x0 PUSH2 0x5337 PUSH2 0x5332 PUSH2 0x532D DUP5 PUSH2 0x3BAA JUMP JUMPDEST PUSH2 0x41F3 JUMP JUMPDEST PUSH2 0x3BAA JUMP JUMPDEST SWAP1 POP SWAP2 SWAP1 POP JUMP JUMPDEST PUSH1 0x0 DUP2 SWAP1 POP SWAP2 SWAP1 POP JUMP JUMPDEST PUSH2 0x5351 DUP4 PUSH2 0x531C JUMP JUMPDEST PUSH2 0x5365 PUSH2 0x535D DUP3 PUSH2 0x533E JUMP JUMPDEST DUP5 DUP5 SLOAD PUSH2 0x52CA JUMP JUMPDEST DUP3 SSTORE POP POP POP POP JUMP JUMPDEST PUSH1 0x0 SWAP1 JUMP JUMPDEST PUSH2 0x537A PUSH2 0x536D JUMP JUMPDEST PUSH2 0x5385 DUP2 DUP5 DUP5 PUSH2 0x5348 JUMP JUMPDEST POP POP POP JUMP JUMPDEST JUMPDEST DUP2 DUP2 LT ISZERO PUSH2 0x53A9 JUMPI PUSH2 0x539E PUSH1 0x0 DUP3 PUSH2 0x5372 JUMP JUMPDEST PUSH1 0x1 DUP2 ADD SWAP1 POP PUSH2 0x538B JUMP JUMPDEST POP POP JUMP JUMPDEST PUSH1 0x1F DUP3 GT ISZERO PUSH2 0x53EE JUMPI PUSH2 0x53BF DUP2 PUSH2 0x4F36 JUMP JUMPDEST PUSH2 0x53C8 DUP5 PUSH2 0x52AD JUMP JUMPDEST DUP2 ADD PUSH1 0x20 DUP6 LT ISZERO PUSH2 0x53D7 JUMPI DUP2 SWAP1 POP JUMPDEST PUSH2 0x53EB PUSH2 0x53E3 DUP6 PUSH2 0x52AD JUMP JUMPDEST DUP4 ADD DUP3 PUSH2 0x538A JUMP JUMPDEST POP POP JUMPDEST POP POP POP JUMP JUMPDEST PUSH1 0x0 DUP3 DUP3 SHR SWAP1 POP SWAP3 SWAP2 POP POP JUMP JUMPDEST PUSH1 0x0 PUSH2 0x5411 PUSH1 0x0 NOT DUP5 PUSH1 0x8 MUL PUSH2 0x53F3 JUMP JUMPDEST NOT DUP1 DUP4 AND SWAP2 POP POP SWAP3 SWAP2 POP POP JUMP JUMPDEST PUSH1 0x0 PUSH2 0x542A DUP4 DUP4 PUSH2 0x5400 JUMP JUMPDEST SWAP2 POP DUP3 PUSH1 0x2 MUL DUP3 OR SWAP1 POP SWAP3 SWAP2 POP POP JUMP JUMPDEST PUSH2 0x5443 DUP3 PUSH2 0x3C0D JUMP JUMPDEST PUSH8 0xFFFFFFFFFFFFFFFF DUP2 GT ISZERO PUSH2 0x545C JUMPI PUSH2 0x545B PUSH2 0x45D8 JUMP JUMPDEST JUMPDEST PUSH2 0x5466 DUP3 SLOAD PUSH2 0x4C9E JUMP JUMPDEST PUSH2 0x5471 DUP3 DUP3 DUP6 PUSH2 0x53AD JUMP JUMPDEST PUSH1 0x0 PUSH1 0x20 SWAP1 POP PUSH1 0x1F DUP4 GT PUSH1 0x1 DUP2 EQ PUSH2 0x54A4 JUMPI PUSH1 0x0 DUP5 ISZERO PUSH2 0x5492 JUMPI DUP3 DUP8 ADD MLOAD SWAP1 POP JUMPDEST PUSH2 0x549C DUP6 DUP3 PUSH2 0x541E JUMP JUMPDEST DUP7 SSTORE POP PUSH2 0x5504 JUMP JUMPDEST PUSH1 0x1F NOT DUP5 AND PUSH2 0x54B2 DUP7 PUSH2 0x4F36 JUMP JUMPDEST PUSH1 0x0 JUMPDEST DUP3 DUP2 LT ISZERO PUSH2 0x54DA JUMPI DUP5 DUP10 ADD MLOAD DUP3 SSTORE PUSH1 0x1 DUP3 ADD SWAP2 POP PUSH1 0x20 DUP6 ADD SWAP5 POP PUSH1 0x20 DUP2 ADD SWAP1 POP PUSH2 0x54B5 JUMP JUMPDEST DUP7 DUP4 LT ISZERO PUSH2 0x54F7 JUMPI DUP5 DUP10 ADD MLOAD PUSH2 0x54F3 PUSH1 0x1F DUP10 AND DUP3 PUSH2 0x5400 JUMP JUMPDEST DUP4 SSTORE POP JUMPDEST PUSH1 0x1 PUSH1 0x2 DUP9 MUL ADD DUP9 SSTORE POP POP POP JUMPDEST POP POP POP POP POP POP JUMP JUMPDEST PUSH32 0x506F6F6C20646F6573206E6F74206578697374206F7220697320696E61637469 PUSH1 0x0 DUP3 ADD MSTORE PUSH32 0x7665000000000000000000000000000000000000000000000000000000000000 PUSH1 0x20 DUP3 ADD MSTORE POP JUMP JUMPDEST PUSH1 0x0 PUSH2 0x5568 PUSH1 0x22 DUP4 PUSH2 0x3C18 JUMP JUMPDEST SWAP2 POP PUSH2 0x5573 DUP3 PUSH2 0x550C JUMP JUMPDEST PUSH1 0x40 DUP3 ADD SWAP1 POP SWAP2 SWAP1 POP JUMP JUMPDEST PUSH1 0x0 PUSH1 0x20 DUP3 ADD SWAP1 POP DUP2 DUP2 SUB PUSH1 0x0 DUP4 ADD MSTORE PUSH2 0x5597 DUP2 PUSH2 0x555B JUMP JUMPDEST SWAP1 POP SWAP2 SWAP1 POP JUMP JUMPDEST PUSH32 0x496E76616C696420415059000000000000000000000000000000000000000000 PUSH1 0x0 DUP3 ADD MSTORE POP JUMP JUMPDEST PUSH1 0x0 PUSH2 0x55D4 PUSH1 0xB DUP4 PUSH2 0x3C18 JUMP JUMPDEST SWAP2 POP PUSH2 0x55DF DUP3 PUSH2 0x559E JUMP JUMPDEST PUSH1 0x20 DUP3 ADD SWAP1 POP SWAP2 SWAP1 POP JUMP JUMPDEST PUSH1 0x0 PUSH1 0x20 DUP3 ADD SWAP1 POP DUP2 DUP2 SUB PUSH1 0x0 DUP4 ADD MSTORE PUSH2 0x5603 DUP2 PUSH2 0x55C7 JUMP JUMPDEST SWAP1 POP SWAP2 SWAP1 POP JUMP JUMPDEST PUSH32 0x496E76616C6964206D696E696D756D20706572696F6400000000000000000000 PUSH1 0x0 DUP3 ADD MSTORE POP JUMP JUMPDEST PUSH1 0x0 PUSH2 0x5640 PUSH1 0x16 DUP4 PUSH2 0x3C18 JUMP JUMPDEST SWAP2 POP PUSH2 0x564B DUP3 PUSH2 0x560A JUMP JUMPDEST PUSH1 0x20 DUP3 ADD SWAP1 POP SWAP2 SWAP1 POP JUMP JUMPDEST PUSH1 0x0 PUSH1 0x20 DUP3 ADD SWAP1 POP DUP2 DUP2 SUB PUSH1 0x0 DUP4 ADD MSTORE PUSH2 0x566F DUP2 PUSH2 0x5633 JUMP JUMPDEST SWAP1 POP SWAP2 SWAP1 POP JUMP JUMPDEST PUSH1 0x0 PUSH1 0x20 DUP3 ADD SWAP1 POP DUP2 DUP2 SUB PUSH1 0x0 DUP4 ADD MSTORE PUSH2 0x5690 DUP2 DUP5 PUSH2 0x3C64 JUMP JUMPDEST SWAP1 POP SWAP3 SWAP2 POP POP JUMP JUMPDEST PUSH32 0x416D6F756E74206D7573742062652067726561746572207468616E2030000000 PUSH1 0x0 DUP3 ADD MSTORE POP JUMP JUMPDEST PUSH1 0x0 PUSH2 0x56CE PUSH1 0x1D DUP4 PUSH2 0x3C18 JUMP JUMPDEST SWAP2 POP PUSH2 0x56D9 DUP3 PUSH2 0x5698 JUMP JUMPDEST PUSH1 0x20 DUP3 ADD SWAP1 POP SWAP2 SWAP1 POP JUMP JUMPDEST PUSH1 0x0 PUSH1 0x20 DUP3 ADD SWAP1 POP DUP2 DUP2 SUB PUSH1 0x0 DUP4 ADD MSTORE PUSH2 0x56FD DUP2 PUSH2 0x56C1 JUMP JUMPDEST SWAP1 POP SWAP2 SWAP1 POP JUMP JUMPDEST PUSH32 0x506F6F6C20697320696E616374697665206F7220646F6573206E6F7420657869 PUSH1 0x0 DUP3 ADD MSTORE PUSH32 0x7374000000000000000000000000000000000000000000000000000000000000 PUSH1 0x20 DUP3 ADD MSTORE POP JUMP JUMPDEST PUSH1 0x0 PUSH2 0x5760 PUSH1 0x22 DUP4 PUSH2 0x3C18 JUMP JUMPDEST SWAP2 POP PUSH2 0x576B DUP3 PUSH2 0x5704 JUMP JUMPDEST PUSH1 0x40 DUP3 ADD SWAP1 POP SWAP2 SWAP1 POP JUMP JUMPDEST PUSH1 0x0 PUSH1 0x20 DUP3 ADD SWAP1 POP DUP2 DUP2 SUB PUSH1 0x0 DUP4 ADD MSTORE PUSH2 0x578F DUP2 PUSH2 0x5753 JUMP JUMPDEST SWAP1 POP SWAP2 SWAP1 POP JUMP JUMPDEST PUSH1 0x5 DUP2 LT PUSH2 0x57A3 JUMPI PUSH1 0x0 DUP1 REVERT JUMPDEST POP JUMP JUMPDEST PUSH1 0x0 DUP2 MLOAD SWAP1 POP PUSH2 0x57B5 DUP2 PUSH2 0x5796 JUMP JUMPDEST SWAP3 SWAP2 POP POP JUMP JUMPDEST PUSH2 0x57C4 DUP2 PUSH2 0x3D23 JUMP JUMPDEST DUP2 EQ PUSH2 0x57CF JUMPI PUSH1 0x0 DUP1 REVERT JUMPDEST POP JUMP JUMPDEST PUSH1 0x0 DUP2 MLOAD SWAP1 POP PUSH2 0x57E1 DUP2 PUSH2 0x57BB JUMP JUMPDEST SWAP3 SWAP2 POP POP JUMP JUMPDEST PUSH1 0x0 DUP2 MLOAD SWAP1 POP PUSH2 0x57F6 DUP2 PUSH2 0x3DE6 JUMP JUMPDEST SWAP3 SWAP2 POP POP JUMP JUMPDEST PUSH1 0x0 DUP2 MLOAD SWAP1 POP PUSH2 0x580B DUP2 PUSH2 0x4712 JUMP JUMPDEST SWAP3 SWAP2 POP POP JUMP JUMPDEST PUSH1 0x0 PUSH2 0x5824 PUSH2 0x581F DUP5 PUSH2 0x4662 JUMP JUMPDEST PUSH2 0x4638 JUMP JUMPDEST SWAP1 POP DUP3 DUP2 MSTORE PUSH1 0x20 DUP2 ADD DUP5 DUP5 DUP5 ADD GT ISZERO PUSH2 0x5840 JUMPI PUSH2 0x583F PUSH2 0x465D JUMP JUMPDEST JUMPDEST PUSH2 0x584B DUP5 DUP3 DUP6 PUSH2 0x3C29 JUMP JUMPDEST POP SWAP4 SWAP3 POP POP POP JUMP JUMPDEST PUSH1 0x0 DUP3 PUSH1 0x1F DUP4 ADD SLT PUSH2 0x5868 JUMPI PUSH2 0x5867 PUSH2 0x4658 JUMP JUMPDEST JUMPDEST DUP2 MLOAD PUSH2 0x5878 DUP5 DUP3 PUSH1 0x20 DUP7 ADD PUSH2 0x5811 JUMP JUMPDEST SWAP2 POP POP SWAP3 SWAP2 POP POP JUMP JUMPDEST PUSH1 0x0 PUSH1 0xE0 DUP3 DUP5 SUB SLT ISZERO PUSH2 0x5897 JUMPI PUSH2 0x5896 PUSH2 0x45D3 JUMP JUMPDEST JUMPDEST PUSH2 0x58A1 PUSH1 0xE0 PUSH2 0x4638 JUMP JUMPDEST SWAP1 POP PUSH1 0x0 PUSH2 0x58B1 DUP5 DUP3 DUP6 ADD PUSH2 0x57E7 JUMP JUMPDEST PUSH1 0x0 DUP4 ADD MSTORE POP PUSH1 0x20 PUSH2 0x58C5 DUP5 DUP3 DUP6 ADD PUSH2 0x57FC JUMP JUMPDEST PUSH1 0x20 DUP4 ADD MSTORE POP PUSH1 0x40 PUSH2 0x58D9 DUP5 DUP3 DUP6 ADD PUSH2 0x4CF8 JUMP JUMPDEST PUSH1 0x40 DUP4 ADD MSTORE POP PUSH1 0x60 DUP3 ADD MLOAD PUSH8 0xFFFFFFFFFFFFFFFF DUP2 GT ISZERO PUSH2 0x58FD JUMPI PUSH2 0x58FC PUSH2 0x4653 JUMP JUMPDEST JUMPDEST PUSH2 0x5909 DUP5 DUP3 DUP6 ADD PUSH2 0x5853 JUMP JUMPDEST PUSH1 0x60 DUP4 ADD MSTORE POP PUSH1 0x80 DUP3 ADD MLOAD PUSH8 0xFFFFFFFFFFFFFFFF DUP2 GT ISZERO PUSH2 0x592D JUMPI PUSH2 0x592C PUSH2 0x4653 JUMP JUMPDEST JUMPDEST PUSH2 0x5939 DUP5 DUP3 DUP6 ADD PUSH2 0x5853 JUMP JUMPDEST PUSH1 0x80 DUP4 ADD MSTORE POP PUSH1 0xA0 PUSH2 0x594D DUP5 DUP3 DUP6 ADD PUSH2 0x4CF8 JUMP JUMPDEST PUSH1 0xA0 DUP4 ADD MSTORE POP PUSH1 0xC0 PUSH2 0x5961 DUP5 DUP3 DUP6 ADD PUSH2 0x4CF8 JUMP JUMPDEST PUSH1 0xC0 DUP4 ADD MSTORE POP SWAP3 SWAP2 POP POP JUMP JUMPDEST PUSH1 0x0 PUSH2 0x120 DUP3 DUP5 SUB SLT ISZERO PUSH2 0x5984 JUMPI PUSH2 0x5983 PUSH2 0x45D3 JUMP JUMPDEST JUMPDEST PUSH2 0x598F PUSH2 0x120 PUSH2 0x4638 JUMP JUMPDEST SWAP1 POP PUSH1 0x0 PUSH2 0x599F DUP5 DUP3 DUP6 ADD PUSH2 0x4CF8 JUMP JUMPDEST PUSH1 0x0 DUP4 ADD MSTORE POP PUSH1 0x20 PUSH2 0x59B3 DUP5 DUP3 DUP6 ADD PUSH2 0x4CF8 JUMP JUMPDEST PUSH1 0x20 DUP4 ADD MSTORE POP PUSH1 0x40 PUSH2 0x59C7 DUP5 DUP3 DUP6 ADD PUSH2 0x4CF8 JUMP JUMPDEST PUSH1 0x40 DUP4 ADD MSTORE POP PUSH1 0x60 PUSH2 0x59DB DUP5 DUP3 DUP6 ADD PUSH2 0x4CF8 JUMP JUMPDEST PUSH1 0x60 DUP4 ADD MSTORE POP PUSH1 0x80 PUSH2 0x59EF DUP5 DUP3 DUP6 ADD PUSH2 0x4CF8 JUMP JUMPDEST PUSH1 0x80 DUP4 ADD MSTORE POP PUSH1 0xA0 PUSH2 0x5A03 DUP5 DUP3 DUP6 ADD PUSH2 0x4CF8 JUMP JUMPDEST PUSH1 0xA0 DUP4 ADD MSTORE POP PUSH1 0xC0 PUSH2 0x5A17 DUP5 DUP3 DUP6 ADD PUSH2 0x57A6 JUMP JUMPDEST PUSH1 0xC0 DUP4 ADD MSTORE POP PUSH1 0xE0 PUSH2 0x5A2B DUP5 DUP3 DUP6 ADD PUSH2 0x57D2 JUMP JUMPDEST PUSH1 0xE0 DUP4 ADD MSTORE POP PUSH2 0x100 DUP3 ADD MLOAD PUSH8 0xFFFFFFFFFFFFFFFF DUP2 GT ISZERO PUSH2 0x5A50 JUMPI PUSH2 0x5A4F PUSH2 0x4653 JUMP JUMPDEST JUMPDEST PUSH2 0x5A5C DUP5 DUP3 DUP6 ADD PUSH2 0x5881 JUMP JUMPDEST PUSH2 0x100 DUP4 ADD MSTORE POP SWAP3 SWAP2 POP POP JUMP JUMPDEST PUSH1 0x0 PUSH1 0x20 DUP3 DUP5 SUB SLT ISZERO PUSH2 0x5A7F JUMPI PUSH2 0x5A7E PUSH2 0x3BA0 JUMP JUMPDEST JUMPDEST PUSH1 0x0 DUP3 ADD MLOAD PUSH8 0xFFFFFFFFFFFFFFFF DUP2 GT ISZERO PUSH2 0x5A9D JUMPI PUSH2 0x5A9C PUSH2 0x3BA5 JUMP JUMPDEST JUMPDEST PUSH2 0x5AA9 DUP5 DUP3 DUP6 ADD PUSH2 0x596D JUMP JUMPDEST SWAP2 POP POP SWAP3 SWAP2 POP POP JUMP JUMPDEST PUSH32 0x50726F706F73616C206E6F7420617070726F7665640000000000000000000000 PUSH1 0x0 DUP3 ADD MSTORE POP JUMP JUMPDEST PUSH1 0x0 PUSH2 0x5AE8 PUSH1 0x15 DUP4 PUSH2 0x3C18 JUMP JUMPDEST SWAP2 POP PUSH2 0x5AF3 DUP3 PUSH2 0x5AB2 JUMP JUMPDEST PUSH1 0x20 DUP3 ADD SWAP1 POP SWAP2 SWAP1 POP JUMP JUMPDEST PUSH1 0x0 PUSH1 0x20 DUP3 ADD SWAP1 POP DUP2 DUP2 SUB PUSH1 0x0 DUP4 ADD MSTORE PUSH2 0x5B17 DUP2 PUSH2 0x5ADB JUMP JUMPDEST SWAP1 POP SWAP2 SWAP1 POP JUMP JUMPDEST PUSH32 0x4E6F7420612076616C69642070726F706F73616C000000000000000000000000 PUSH1 0x0 DUP3 ADD MSTORE POP JUMP JUMPDEST PUSH1 0x0 PUSH2 0x5B54 PUSH1 0x14 DUP4 PUSH2 0x3C18 JUMP JUMPDEST SWAP2 POP PUSH2 0x5B5F DUP3 PUSH2 0x5B1E JUMP JUMPDEST PUSH1 0x20 DUP3 ADD SWAP1 POP SWAP2 SWAP1 POP JUMP JUMPDEST PUSH1 0x0 PUSH1 0x20 DUP3 ADD SWAP1 POP DUP2 DUP2 SUB PUSH1 0x0 DUP4 ADD MSTORE PUSH2 0x5B83 DUP2 PUSH2 0x5B47 JUMP JUMPDEST SWAP1 POP SWAP2 SWAP1 POP JUMP JUMPDEST PUSH32 0x506F6F6C206973206E6F74206163746976650000000000000000000000000000 PUSH1 0x0 DUP3 ADD MSTORE POP JUMP JUMPDEST PUSH1 0x0 PUSH2 0x5BC0 PUSH1 0x12 DUP4 PUSH2 0x3C18 JUMP JUMPDEST SWAP2 POP PUSH2 0x5BCB DUP3 PUSH2 0x5B8A JUMP JUMPDEST PUSH1 0x20 DUP3 ADD SWAP1 POP SWAP2 SWAP1 POP JUMP JUMPDEST PUSH1 0x0 PUSH1 0x20 DUP3 ADD SWAP1 POP DUP2 DUP2 SUB PUSH1 0x0 DUP4 ADD MSTORE PUSH2 0x5BEF DUP2 PUSH2 0x5BB3 JUMP JUMPDEST SWAP1 POP SWAP2 SWAP1 POP JUMP JUMPDEST PUSH32 0x4E6F7420656E6F7567682066756E647320696E2074686520706F6F6C00000000 PUSH1 0x0 DUP3 ADD MSTORE POP JUMP JUMPDEST PUSH1 0x0 PUSH2 0x5C2C PUSH1 0x1C DUP4 PUSH2 0x3C18 JUMP JUMPDEST SWAP2 POP PUSH2 0x5C37 DUP3 PUSH2 0x5BF6 JUMP JUMPDEST PUSH1 0x20 DUP3 ADD SWAP1 POP SWAP2 SWAP1 POP JUMP JUMPDEST PUSH1 0x0 PUSH1 0x20 DUP3 ADD SWAP1 POP DUP2 DUP2 SUB PUSH1 0x0 DUP4 ADD MSTORE PUSH2 0x5C5B DUP2 PUSH2 0x5C1F JUMP JUMPDEST SWAP1 POP SWAP2 SWAP1 POP JUMP JUMPDEST PUSH1 0x0 PUSH1 0x60 DUP3 ADD SWAP1 POP PUSH2 0x5C77 PUSH1 0x0 DUP4 ADD DUP7 PUSH2 0x3D14 JUMP JUMPDEST PUSH2 0x5C84 PUSH1 0x20 DUP4 ADD DUP6 PUSH2 0x3D14 JUMP JUMPDEST PUSH2 0x5C91 PUSH1 0x40 DUP4 ADD DUP5 PUSH2 0x3F5B JUMP JUMPDEST SWAP5 SWAP4 POP POP POP POP JUMP JUMPDEST PUSH1 0x0 PUSH1 0x40 DUP3 ADD SWAP1 POP DUP2 DUP2 SUB PUSH1 0x0 DUP4 ADD MSTORE PUSH2 0x5CB3 DUP2 DUP6 PUSH2 0x4F4B JUMP JUMPDEST SWAP1 POP PUSH2 0x5CC2 PUSH1 0x20 DUP4 ADD DUP5 PUSH2 0x3D14 JUMP JUMPDEST SWAP4 SWAP3 POP POP POP JUMP INVALID LOG2 PUSH5 0x6970667358 0x22 SLT KECCAK256 SLT PUSH14 0x700D81F7C0ED11E230FB08E03EDA EXTCODEHASH 0xAF MUL DUP7 MSTORE8 PUSH26 0xBC4FDA4DA6AC76BC623C64736F6C634300081800330000000000 "},"methodIdentifiers":{"ICoverContract()":"f6e80558","IGovernanceContract()":"b5d90c28","addPoolCover(uint256,(uint256,string,uint8,string,uint256,uint256,uint256,uint256,uint256,uint256,string))":"c7aa9874","bqBTC()":"34808ec3","bqBTCAddress()":"996b8a6f","claimProposalFunds(uint256)":"e35f8129","coverContract()":"248a75b7","createPool(uint8,string,uint256,uint256)":"da533fd3","deactivatePool(uint256)":"9abd9b05","deposit(uint256,uint256)":"e2bbb158","externalFunctions(uint256,address)":"143fd7c6","getAllParticipants()":"195ec9ee","getAllPools()":"d88ff1f4","getPool(uint256)":"068bcd8d","getPoolCovers(uint256)":"7eb111f0","getPoolTVL(uint256)":"8f244630","getPoolsByAddress(address)":"31866763","getUDep(uint256,address)":"cd16d3dd","getUserDeposit(uint256,address)":"4e055244","getUserParticipation(address)":"46f84795","governance()":"5aa6e675","increasePercentageSplit(uint256,uint256)":"9fd36b15","initialOwner()":"29ba7bb2","owner()":"8da5cb5b","participants(uint256)":"35c1d349","participation(address)":"96f3a8ad","poolActive(uint256)":"25f11e8d","poolCount()":"f525cb68","pools(uint256)":"ac4afa38","reducePercentageSplit(uint256,uint256)":"a4948d85","renounceOwnership()":"715018a6","setCover(address)":"7c366cc6","setGovernance(address)":"ab033ea9","transferOwnership(address)":"f2fde38b","updatePool(uint256,uint256,uint256)":"d86c0444","updatePoolCovers(uint256,(uint256,string,uint8,string,uint256,uint256,uint256,uint256,uint256,uint256,string))":"a14764d0","withdraw(uint256)":"2e1a7d4d"}}}}}