{
  "_format": "hh-sol-artifact-1",
  "contractName": "InsuranceCover",
  "sourceName": "contracts/InsuranceCover.sol",
  "abi": [
    {
      "inputs": [
        {
          "internalType": "address",
          "name": "_lpContract",
          "type": "address"
        },
        {
          "internalType": "address",
          "name": "_initialOwner",
          "type": "address"
        },
        {
          "internalType": "address",
          "name": "_governance",
          "type": "address"
        },
        {
          "internalType": "address",
          "name": "_bqBTC",
          "type": "address"
        }
      ],
      "stateMutability": "nonpayable",
      "type": "constructor"
    },
    {
      "inputs": [],
      "name": "CoverNotAvailable",
      "type": "error"
    },
    {
      "inputs": [],
      "name": "InsufficientPoolBalance",
      "type": "error"
    },
    {
      "inputs": [],
      "name": "InvalidAmount",
      "type": "error"
    },
    {
      "inputs": [],
      "name": "InvalidCoverDuration",
      "type": "error"
    },
    {
      "inputs": [],
      "name": "LpNotActive",
      "type": "error"
    },
    {
      "inputs": [],
      "name": "NameAlreadyExists",
      "type": "error"
    },
    {
      "inputs": [],
      "name": "NoClaimableReward",
      "type": "error"
    },
    {
      "inputs": [
        {
          "internalType": "address",
          "name": "owner",
          "type": "address"
        }
      ],
      "name": "OwnableInvalidOwner",
      "type": "error"
    },
    {
      "inputs": [
        {
          "internalType": "address",
          "name": "account",
          "type": "address"
        }
      ],
      "name": "OwnableUnauthorizedAccount",
      "type": "error"
    },
    {
      "inputs": [],
      "name": "ReentrancyGuardReentrantCall",
      "type": "error"
    },
    {
      "inputs": [],
      "name": "UnsupportedCoverType",
      "type": "error"
    },
    {
      "inputs": [],
      "name": "UserHaveAlreadyPurchasedCover",
      "type": "error"
    },
    {
      "inputs": [],
      "name": "WrongPool",
      "type": "error"
    },
    {
      "anonymous": false,
      "inputs": [
        {
          "indexed": true,
          "internalType": "uint256",
          "name": "coverId",
          "type": "uint256"
        },
        {
          "indexed": false,
          "internalType": "string",
          "name": "name",
          "type": "string"
        },
        {
          "indexed": false,
          "internalType": "enum CoverLib.RiskType",
          "name": "riskType",
          "type": "uint8"
        }
      ],
      "name": "CoverCreated",
      "type": "event"
    },
    {
      "anonymous": false,
      "inputs": [
        {
          "indexed": true,
          "internalType": "address",
          "name": "user",
          "type": "address"
        },
        {
          "indexed": false,
          "internalType": "uint256",
          "name": "coverValue",
          "type": "uint256"
        },
        {
          "indexed": false,
          "internalType": "uint256",
          "name": "coverFee",
          "type": "uint256"
        },
        {
          "indexed": false,
          "internalType": "enum CoverLib.RiskType",
          "name": "riskType",
          "type": "uint8"
        }
      ],
      "name": "CoverPurchased",
      "type": "event"
    },
    {
      "anonymous": false,
      "inputs": [
        {
          "indexed": true,
          "internalType": "uint256",
          "name": "coverId",
          "type": "uint256"
        },
        {
          "indexed": false,
          "internalType": "string",
          "name": "coverName",
          "type": "string"
        },
        {
          "indexed": false,
          "internalType": "enum CoverLib.RiskType",
          "name": "riskType",
          "type": "uint8"
        }
      ],
      "name": "CoverUpdated",
      "type": "event"
    },
    {
      "anonymous": false,
      "inputs": [
        {
          "indexed": true,
          "internalType": "address",
          "name": "previousOwner",
          "type": "address"
        },
        {
          "indexed": true,
          "internalType": "address",
          "name": "newOwner",
          "type": "address"
        }
      ],
      "name": "OwnershipTransferred",
      "type": "event"
    },
    {
      "anonymous": false,
      "inputs": [
        {
          "indexed": true,
          "internalType": "address",
          "name": "user",
          "type": "address"
        },
        {
          "indexed": true,
          "internalType": "uint256",
          "name": "poolId",
          "type": "uint256"
        },
        {
          "indexed": false,
          "internalType": "uint256",
          "name": "amount",
          "type": "uint256"
        }
      ],
      "name": "PayoutClaimed",
      "type": "event"
    },
    {
      "inputs": [
        {
          "internalType": "address",
          "name": "",
          "type": "address"
        },
        {
          "internalType": "uint256",
          "name": "",
          "type": "uint256"
        }
      ],
      "name": "NextLpClaimTime",
      "outputs": [
        {
          "internalType": "uint256",
          "name": "",
          "type": "uint256"
        }
      ],
      "stateMutability": "view",
      "type": "function"
    },
    {
      "inputs": [],
      "name": "bqBTC",
      "outputs": [
        {
          "internalType": "contract IbqBTC",
          "name": "",
          "type": "address"
        }
      ],
      "stateMutability": "view",
      "type": "function"
    },
    {
      "inputs": [],
      "name": "bqBTCAddress",
      "outputs": [
        {
          "internalType": "address",
          "name": "",
          "type": "address"
        }
      ],
      "stateMutability": "view",
      "type": "function"
    },
    {
      "inputs": [
        {
          "internalType": "uint256",
          "name": "_poolId",
          "type": "uint256"
        }
      ],
      "name": "claimPayoutForLP",
      "outputs": [],
      "stateMutability": "nonpayable",
      "type": "function"
    },
    {
      "inputs": [],
      "name": "coverCount",
      "outputs": [
        {
          "internalType": "uint256",
          "name": "",
          "type": "uint256"
        }
      ],
      "stateMutability": "view",
      "type": "function"
    },
    {
      "inputs": [
        {
          "internalType": "uint256",
          "name": "",
          "type": "uint256"
        }
      ],
      "name": "coverExists",
      "outputs": [
        {
          "internalType": "bool",
          "name": "",
          "type": "bool"
        }
      ],
      "stateMutability": "view",
      "type": "function"
    },
    {
      "inputs": [],
      "name": "coverFeeBalance",
      "outputs": [
        {
          "internalType": "uint256",
          "name": "",
          "type": "uint256"
        }
      ],
      "stateMutability": "view",
      "type": "function"
    },
    {
      "inputs": [
        {
          "internalType": "uint256",
          "name": "",
          "type": "uint256"
        }
      ],
      "name": "coverIds",
      "outputs": [
        {
          "internalType": "uint256",
          "name": "",
          "type": "uint256"
        }
      ],
      "stateMutability": "view",
      "type": "function"
    },
    {
      "inputs": [
        {
          "internalType": "uint256",
          "name": "",
          "type": "uint256"
        }
      ],
      "name": "covers",
      "outputs": [
        {
          "internalType": "uint256",
          "name": "id",
          "type": "uint256"
        },
        {
          "internalType": "string",
          "name": "coverName",
          "type": "string"
        },
        {
          "internalType": "enum CoverLib.RiskType",
          "name": "riskType",
          "type": "uint8"
        },
        {
          "internalType": "string",
          "name": "chains",
          "type": "string"
        },
        {
          "internalType": "uint256",
          "name": "capacity",
          "type": "uint256"
        },
        {
          "internalType": "uint256",
          "name": "cost",
          "type": "uint256"
        },
        {
          "internalType": "uint256",
          "name": "capacityAmount",
          "type": "uint256"
        },
        {
          "internalType": "uint256",
          "name": "coverValues",
          "type": "uint256"
        },
        {
          "internalType": "uint256",
          "name": "maxAmount",
          "type": "uint256"
        },
        {
          "internalType": "uint256",
          "name": "poolId",
          "type": "uint256"
        },
        {
          "internalType": "string",
          "name": "CID",
          "type": "string"
        }
      ],
      "stateMutability": "view",
      "type": "function"
    },
    {
      "inputs": [
        {
          "internalType": "uint256",
          "name": "coverId",
          "type": "uint256"
        },
        {
          "internalType": "string",
          "name": "_cid",
          "type": "string"
        },
        {
          "internalType": "enum CoverLib.RiskType",
          "name": "_riskType",
          "type": "uint8"
        },
        {
          "internalType": "string",
          "name": "_coverName",
          "type": "string"
        },
        {
          "internalType": "string",
          "name": "_chains",
          "type": "string"
        },
        {
          "internalType": "uint256",
          "name": "_capacity",
          "type": "uint256"
        },
        {
          "internalType": "uint256",
          "name": "_cost",
          "type": "uint256"
        },
        {
          "internalType": "uint256",
          "name": "_poolId",
          "type": "uint256"
        }
      ],
      "name": "createCover",
      "outputs": [],
      "stateMutability": "nonpayable",
      "type": "function"
    },
    {
      "inputs": [
        {
          "internalType": "address",
          "name": "_user",
          "type": "address"
        }
      ],
      "name": "deleteExpiredUserCovers",
      "outputs": [],
      "stateMutability": "nonpayable",
      "type": "function"
    },
    {
      "inputs": [],
      "name": "getAllAvailableCovers",
      "outputs": [
        {
          "components": [
            {
              "internalType": "uint256",
              "name": "id",
              "type": "uint256"
            },
            {
              "internalType": "string",
              "name": "coverName",
              "type": "string"
            },
            {
              "internalType": "enum CoverLib.RiskType",
              "name": "riskType",
              "type": "uint8"
            },
            {
              "internalType": "string",
              "name": "chains",
              "type": "string"
            },
            {
              "internalType": "uint256",
              "name": "capacity",
              "type": "uint256"
            },
            {
              "internalType": "uint256",
              "name": "cost",
              "type": "uint256"
            },
            {
              "internalType": "uint256",
              "name": "capacityAmount",
              "type": "uint256"
            },
            {
              "internalType": "uint256",
              "name": "coverValues",
              "type": "uint256"
            },
            {
              "internalType": "uint256",
              "name": "maxAmount",
              "type": "uint256"
            },
            {
              "internalType": "uint256",
              "name": "poolId",
              "type": "uint256"
            },
            {
              "internalType": "string",
              "name": "CID",
              "type": "string"
            }
          ],
          "internalType": "struct CoverLib.Cover[]",
          "name": "",
          "type": "tuple[]"
        }
      ],
      "stateMutability": "view",
      "type": "function"
    },
    {
      "inputs": [],
      "name": "getAllParticipants",
      "outputs": [
        {
          "internalType": "address[]",
          "name": "",
          "type": "address[]"
        }
      ],
      "stateMutability": "view",
      "type": "function"
    },
    {
      "inputs": [
        {
          "internalType": "address",
          "name": "user",
          "type": "address"
        }
      ],
      "name": "getAllUserCovers",
      "outputs": [
        {
          "components": [
            {
              "internalType": "address",
              "name": "user",
              "type": "address"
            },
            {
              "internalType": "uint256",
              "name": "coverId",
              "type": "uint256"
            },
            {
              "internalType": "enum CoverLib.RiskType",
              "name": "riskType",
              "type": "uint8"
            },
            {
              "internalType": "string",
              "name": "coverName",
              "type": "string"
            },
            {
              "internalType": "uint256",
              "name": "coverValue",
              "type": "uint256"
            },
            {
              "internalType": "uint256",
              "name": "claimPaid",
              "type": "uint256"
            },
            {
              "internalType": "uint256",
              "name": "coverPeriod",
              "type": "uint256"
            },
            {
              "internalType": "uint256",
              "name": "endDay",
              "type": "uint256"
            },
            {
              "internalType": "bool",
              "name": "isActive",
              "type": "bool"
            }
          ],
          "internalType": "struct CoverLib.GenericCoverInfo[]",
          "name": "",
          "type": "tuple[]"
        }
      ],
      "stateMutability": "view",
      "type": "function"
    },
    {
      "inputs": [],
      "name": "getCoverFeeBalance",
      "outputs": [
        {
          "internalType": "uint256",
          "name": "",
          "type": "uint256"
        }
      ],
      "stateMutability": "view",
      "type": "function"
    },
    {
      "inputs": [
        {
          "internalType": "uint256",
          "name": "_coverId",
          "type": "uint256"
        }
      ],
      "name": "getCoverInfo",
      "outputs": [
        {
          "components": [
            {
              "internalType": "uint256",
              "name": "id",
              "type": "uint256"
            },
            {
              "internalType": "string",
              "name": "coverName",
              "type": "string"
            },
            {
              "internalType": "enum CoverLib.RiskType",
              "name": "riskType",
              "type": "uint8"
            },
            {
              "internalType": "string",
              "name": "chains",
              "type": "string"
            },
            {
              "internalType": "uint256",
              "name": "capacity",
              "type": "uint256"
            },
            {
              "internalType": "uint256",
              "name": "cost",
              "type": "uint256"
            },
            {
              "internalType": "uint256",
              "name": "capacityAmount",
              "type": "uint256"
            },
            {
              "internalType": "uint256",
              "name": "coverValues",
              "type": "uint256"
            },
            {
              "internalType": "uint256",
              "name": "maxAmount",
              "type": "uint256"
            },
            {
              "internalType": "uint256",
              "name": "poolId",
              "type": "uint256"
            },
            {
              "internalType": "string",
              "name": "CID",
              "type": "string"
            }
          ],
          "internalType": "struct CoverLib.Cover",
          "name": "",
          "type": "tuple"
        }
      ],
      "stateMutability": "view",
      "type": "function"
    },
    {
      "inputs": [
        {
          "internalType": "address",
          "name": "user",
          "type": "address"
        },
        {
          "internalType": "uint256",
          "name": "_poolId",
          "type": "uint256"
        }
      ],
      "name": "getDepositClaimableDays",
      "outputs": [
        {
          "internalType": "uint256",
          "name": "",
          "type": "uint256"
        }
      ],
      "stateMutability": "view",
      "type": "function"
    },
    {
      "inputs": [
        {
          "internalType": "address",
          "name": "user",
          "type": "address"
        },
        {
          "internalType": "uint256",
          "name": "_poolId",
          "type": "uint256"
        }
      ],
      "name": "getLastClaimTime",
      "outputs": [
        {
          "internalType": "uint256",
          "name": "",
          "type": "uint256"
        }
      ],
      "stateMutability": "view",
      "type": "function"
    },
    {
      "inputs": [
        {
          "internalType": "address",
          "name": "user",
          "type": "address"
        },
        {
          "internalType": "uint256",
          "name": "_coverId",
          "type": "uint256"
        }
      ],
      "name": "getUserCoverInfo",
      "outputs": [
        {
          "components": [
            {
              "internalType": "address",
              "name": "user",
              "type": "address"
            },
            {
              "internalType": "uint256",
              "name": "coverId",
              "type": "uint256"
            },
            {
              "internalType": "enum CoverLib.RiskType",
              "name": "riskType",
              "type": "uint8"
            },
            {
              "internalType": "string",
              "name": "coverName",
              "type": "string"
            },
            {
              "internalType": "uint256",
              "name": "coverValue",
              "type": "uint256"
            },
            {
              "internalType": "uint256",
              "name": "claimPaid",
              "type": "uint256"
            },
            {
              "internalType": "uint256",
              "name": "coverPeriod",
              "type": "uint256"
            },
            {
              "internalType": "uint256",
              "name": "endDay",
              "type": "uint256"
            },
            {
              "internalType": "bool",
              "name": "isActive",
              "type": "bool"
            }
          ],
          "internalType": "struct CoverLib.GenericCoverInfo",
          "name": "",
          "type": "tuple"
        }
      ],
      "stateMutability": "view",
      "type": "function"
    },
    {
      "inputs": [
        {
          "internalType": "address",
          "name": "user",
          "type": "address"
        }
      ],
      "name": "getUserParticipation",
      "outputs": [
        {
          "internalType": "uint256",
          "name": "",
          "type": "uint256"
        }
      ],
      "stateMutability": "view",
      "type": "function"
    },
    {
      "inputs": [],
      "name": "governance",
      "outputs": [
        {
          "internalType": "address",
          "name": "",
          "type": "address"
        }
      ],
      "stateMutability": "view",
      "type": "function"
    },
    {
      "inputs": [],
      "name": "lpAddress",
      "outputs": [
        {
          "internalType": "address",
          "name": "",
          "type": "address"
        }
      ],
      "stateMutability": "view",
      "type": "function"
    },
    {
      "inputs": [],
      "name": "lpContract",
      "outputs": [
        {
          "internalType": "contract ILP",
          "name": "",
          "type": "address"
        }
      ],
      "stateMutability": "view",
      "type": "function"
    },
    {
      "inputs": [],
      "name": "owner",
      "outputs": [
        {
          "internalType": "address",
          "name": "",
          "type": "address"
        }
      ],
      "stateMutability": "view",
      "type": "function"
    },
    {
      "inputs": [
        {
          "internalType": "uint256",
          "name": "",
          "type": "uint256"
        }
      ],
      "name": "participants",
      "outputs": [
        {
          "internalType": "address",
          "name": "",
          "type": "address"
        }
      ],
      "stateMutability": "view",
      "type": "function"
    },
    {
      "inputs": [
        {
          "internalType": "address",
          "name": "",
          "type": "address"
        }
      ],
      "name": "participation",
      "outputs": [
        {
          "internalType": "uint256",
          "name": "",
          "type": "uint256"
        }
      ],
      "stateMutability": "view",
      "type": "function"
    },
    {
      "inputs": [
        {
          "internalType": "uint256",
          "name": "_coverId",
          "type": "uint256"
        },
        {
          "internalType": "uint256",
          "name": "_coverValue",
          "type": "uint256"
        },
        {
          "internalType": "uint256",
          "name": "_coverPeriod",
          "type": "uint256"
        },
        {
          "internalType": "uint256",
          "name": "_coverFee",
          "type": "uint256"
        }
      ],
      "name": "purchaseCover",
      "outputs": [],
      "stateMutability": "nonpayable",
      "type": "function"
    },
    {
      "inputs": [],
      "name": "renounceOwnership",
      "outputs": [],
      "stateMutability": "nonpayable",
      "type": "function"
    },
    {
      "inputs": [
        {
          "internalType": "address",
          "name": "newOwner",
          "type": "address"
        }
      ],
      "name": "transferOwnership",
      "outputs": [],
      "stateMutability": "nonpayable",
      "type": "function"
    },
    {
      "inputs": [
        {
          "internalType": "uint256",
          "name": "_coverId",
          "type": "uint256"
        },
        {
          "internalType": "string",
          "name": "_coverName",
          "type": "string"
        },
        {
          "internalType": "enum CoverLib.RiskType",
          "name": "_riskType",
          "type": "uint8"
        },
        {
          "internalType": "string",
          "name": "_cid",
          "type": "string"
        },
        {
          "internalType": "string",
          "name": "_chains",
          "type": "string"
        },
        {
          "internalType": "uint256",
          "name": "_capacity",
          "type": "uint256"
        },
        {
          "internalType": "uint256",
          "name": "_cost",
          "type": "uint256"
        },
        {
          "internalType": "uint256",
          "name": "_poolId",
          "type": "uint256"
        }
      ],
      "name": "updateCover",
      "outputs": [],
      "stateMutability": "nonpayable",
      "type": "function"
    },
    {
      "inputs": [
        {
          "internalType": "uint256",
          "name": "_coverId",
          "type": "uint256"
        }
      ],
      "name": "updateMaxAmount",
      "outputs": [],
      "stateMutability": "nonpayable",
      "type": "function"
    },
    {
      "inputs": [
        {
          "internalType": "address",
          "name": "user",
          "type": "address"
        },
        {
          "internalType": "uint256",
          "name": "_coverId",
          "type": "uint256"
        },
        {
          "internalType": "uint256",
          "name": "_claimPaid",
          "type": "uint256"
        }
      ],
      "name": "updateUserCoverValue",
      "outputs": [],
      "stateMutability": "nonpayable",
      "type": "function"
    },
    {
      "inputs": [
        {
          "internalType": "address",
          "name": "",
          "type": "address"
        },
        {
          "internalType": "uint256",
          "name": "",
          "type": "uint256"
        }
      ],
      "name": "userCovers",
      "outputs": [
        {
          "internalType": "address",
          "name": "user",
          "type": "address"
        },
        {
          "internalType": "uint256",
          "name": "coverId",
          "type": "uint256"
        },
        {
          "internalType": "enum CoverLib.RiskType",
          "name": "riskType",
          "type": "uint8"
        },
        {
          "internalType": "string",
          "name": "coverName",
          "type": "string"
        },
        {
          "internalType": "uint256",
          "name": "coverValue",
          "type": "uint256"
        },
        {
          "internalType": "uint256",
          "name": "claimPaid",
          "type": "uint256"
        },
        {
          "internalType": "uint256",
          "name": "coverPeriod",
          "type": "uint256"
        },
        {
          "internalType": "uint256",
          "name": "endDay",
          "type": "uint256"
        },
        {
          "internalType": "bool",
          "name": "isActive",
          "type": "bool"
        }
      ],
      "stateMutability": "view",
      "type": "function"
    }
  ],
  "bytecode": "0x60806040523480156200001157600080fd5b5060405162005bb638038062005bb6833981810160405281019062000037919062000346565b826001600081905550600073ffffffffffffffffffffffffffffffffffffffff168173ffffffffffffffffffffffffffffffffffffffff1603620000b55760006040517f1e4fbdf7000000000000000000000000000000000000000000000000000000008152600401620000ac9190620003c9565b60405180910390fd5b620000c6816200021660201b60201c565b5083600360006101000a81548173ffffffffffffffffffffffffffffffffffffffff021916908373ffffffffffffffffffffffffffffffffffffffff16021790555083600660006101000a81548173ffffffffffffffffffffffffffffffffffffffff021916908373ffffffffffffffffffffffffffffffffffffffff16021790555081600760006101000a81548173ffffffffffffffffffffffffffffffffffffffff021916908373ffffffffffffffffffffffffffffffffffffffff16021790555080600460006101000a81548173ffffffffffffffffffffffffffffffffffffffff021916908373ffffffffffffffffffffffffffffffffffffffff16021790555080600560006101000a81548173ffffffffffffffffffffffffffffffffffffffff021916908373ffffffffffffffffffffffffffffffffffffffff16021790555050505050620003e6565b6000600160009054906101000a900473ffffffffffffffffffffffffffffffffffffffff16905081600160006101000a81548173ffffffffffffffffffffffffffffffffffffffff021916908373ffffffffffffffffffffffffffffffffffffffff1602179055508173ffffffffffffffffffffffffffffffffffffffff168173ffffffffffffffffffffffffffffffffffffffff167f8be0079c531659141344cd1fd0a4f28419497f9722a3daafe3b4186f6b6457e060405160405180910390a35050565b600080fd5b600073ffffffffffffffffffffffffffffffffffffffff82169050919050565b60006200030e82620002e1565b9050919050565b620003208162000301565b81146200032c57600080fd5b50565b600081519050620003408162000315565b92915050565b60008060008060808587031215620003635762000362620002dc565b5b600062000373878288016200032f565b945050602062000386878288016200032f565b935050604062000399878288016200032f565b9250506060620003ac878288016200032f565b91505092959194509250565b620003c38162000301565b82525050565b6000602082019050620003e06000830184620003b8565b92915050565b6157c080620003f66000396000f3fe608060405234801561001057600080fd5b50600436106101fb5760003560e01c8063782ea6191161011a5780639732bdb5116100ad578063bfc664f31161007c578063bfc664f314610600578063cadcb4711461061c578063f2fde38b1461064c578063fb64358314610668578063feb0b8f514610698576101fb565b80639732bdb514610570578063996b8a6f1461058c5780639b4dc8cc146105aa5780639e7b399e146105c8576101fb565b80638da5cb5b116100e95780638da5cb5b146104e85780638de4d1011461050657806393b1ad381461052257806396f3a8ad14610540576101fb565b8063782ea6191461044e5780637a728e7f1461047e5780637ceb4a69146104ae5780638acee3cf146104ca576101fb565b80635aa6e675116101925780636299df6c116101615780636299df6c146103aa578063649718b2146103e4578063715018a61461041457806373cce3ee1461041e576101fb565b80635aa6e67514610322578063602710a414610340578063609c76041461035c57806362858bfa1461037a576101fb565b806334808ec3116101ce57806334808ec314610286578063357917b7146102a457806335c1d349146102c257806346f84795146102f2576101fb565b80631052581414610200578063106b5da114610230578063195ec9ee1461024c5780632d8a340c1461026a575b600080fd5b61021a60048036038101906102159190613acd565b6106b6565b6040516102279190613b1c565b60405180910390f35b61024a60048036038101906102459190613b37565b610711565b005b610254610977565b6040516102619190613c22565b60405180910390f35b610284600480360381019061027f9190613b37565b610a05565b005b61028e610de7565b60405161029b9190613ca3565b60405180910390f35b6102ac610e0d565b6040516102b99190613b1c565b60405180910390f35b6102dc60048036038101906102d79190613b37565b610e13565b6040516102e99190613ccd565b60405180910390f35b61030c60048036038101906103079190613ce8565b610e52565b6040516103199190613b1c565b60405180910390f35b61032a610e9b565b6040516103379190613ccd565b60405180910390f35b61035a60048036038101906103559190613d15565b610ec1565b005b6103646115e9565b6040516103719190613b1c565b60405180910390f35b610394600480360381019061038f9190613b37565b6115f3565b6040516103a19190613f8f565b60405180910390f35b6103c460048036038101906103bf9190613b37565b611858565b6040516103db9b9a9998979695949392919061400a565b60405180910390f35b6103fe60048036038101906103f99190613ce8565b611a57565b60405161040b919061426c565b60405180910390f35b61041c611e02565b005b61043860048036038101906104339190613acd565b611e16565b6040516104459190613b1c565b60405180910390f35b61046860048036038101906104639190613b37565b611fb6565b604051610475919061429d565b60405180910390f35b61049860048036038101906104939190613acd565b611fd6565b6040516104a59190613b1c565b60405180910390f35b6104c860048036038101906104c391906142b8565b611ffb565b005b6104d2612174565b6040516104df919061432c565b60405180910390f35b6104f061219a565b6040516104fd9190613ccd565b60405180910390f35b610520600480360381019061051b91906144a1565b6121c4565b005b61052a6127b5565b604051610537919061476a565b60405180910390f35b61055a60048036038101906105559190613ce8565b612b7c565b6040516105679190613b1c565b60405180910390f35b61058a600480360381019061058591906144a1565b612b94565b005b610594612eb2565b6040516105a19190613ccd565b60405180910390f35b6105b2612ed8565b6040516105bf9190613ccd565b60405180910390f35b6105e260048036038101906105dd9190613acd565b612efe565b6040516105f79998979695949392919061478c565b60405180910390f35b61061a60048036038101906106159190613ce8565b61301b565b005b61063660048036038101906106319190613acd565b6131e7565b60405161064391906148e5565b60405180910390f35b61066660048036038101906106619190613ce8565b6133c3565b005b610682600480360381019061067d9190613b37565b613449565b60405161068f9190613b1c565b60405180910390f35b6106a061346d565b6040516106ad9190613b1c565b60405180910390f35b6000600b60008473ffffffffffffffffffffffffffffffffffffffff1673ffffffffffffffffffffffffffffffffffffffff168152602001908152602001600020600083815260200190815260200160002054905092915050565b600660009054906101000a900473ffffffffffffffffffffffffffffffffffffffff1673ffffffffffffffffffffffffffffffffffffffff163373ffffffffffffffffffffffffffffffffffffffff16146107a1576040517f08c379a000000000000000000000000000000000000000000000000000000000815260040161079890614953565b60405180910390fd5b6107a9613473565b6000600d600083815260200190815260200160002090506000600360009054906101000a900473ffffffffffffffffffffffffffffffffffffffff1673ffffffffffffffffffffffffffffffffffffffff1663068bcd8d83600901546040518263ffffffff1660e01b81526004016108219190613b1c565b600060405180830381865afa15801561083e573d6000803e3d6000fd5b505050506040513d6000823e3d601f19601f820116820180604052508101906108679190614a39565b505094505050505060008260040154116108b6576040517f08c379a00000000000000000000000000000000000000000000000000000000081526004016108ad90614b43565b60405180910390fd5b6000670de0b6b3a76400006064670de0b6b3a764000085600401546108db9190614b92565b6108e59190614c03565b836108f09190614b92565b6108fa9190614c03565b905080600d600086815260200190815260200160002060060181905550600d600085815260200190815260200160002060070154600d60008681526020019081526020016000206006015461094f9190614c34565b600d6000868152602001908152602001600020600801819055505050506109746134b9565b50565b606060088054806020026020016040519081016040528092919081815260200182805480156109fb57602002820191906000526020600020905b8160009054906101000a900473ffffffffffffffffffffffffffffffffffffffff1673ffffffffffffffffffffffffffffffffffffffff16815260200190600101908083116109b1575b5050505050905090565b610a0d613473565b6000600360009054906101000a900473ffffffffffffffffffffffffffffffffffffffff1673ffffffffffffffffffffffffffffffffffffffff16634e05524483336040518363ffffffff1660e01b8152600401610a6c929190614c68565b61012060405180830381865afa158015610a8a573d6000803e3d6000fd5b505050506040513d601f19601f82011682018060405250810190610aae9190614db5565b905060006001811115610ac457610ac3613e1b565b5b81608001516001811115610adb57610ada613e1b565b5b14610b12576040517fe067835f00000000000000000000000000000000000000000000000000000000815260040160405180910390fd5b600080600b60003373ffffffffffffffffffffffffffffffffffffffff1673ffffffffffffffffffffffffffffffffffffffff16815260200190815260200160002060008581526020019081526020016000205403610b77578160c001519050610bcb565b600b60003373ffffffffffffffffffffffffffffffffffffffff1673ffffffffffffffffffffffffffffffffffffffff16815260200190815260200160002060008481526020019081526020016000205490505b60004290508260e00151811115610be4578260e0015190505b600061012c8383610bf59190614c34565b610bff9190614c03565b905060008111610c3b576040517fed700a6700000000000000000000000000000000000000000000000000000000815260040160405180910390fd5b6000818560600151610c4d9190614b92565b9050600254811115610c8b576040517fbc6072f100000000000000000000000000000000000000000000000000000000815260040160405180910390fd5b42600b60003373ffffffffffffffffffffffffffffffffffffffff1673ffffffffffffffffffffffffffffffffffffffff168152602001908152602001600020600088815260200190815260200160002081905550600460009054906101000a900473ffffffffffffffffffffffffffffffffffffffff1673ffffffffffffffffffffffffffffffffffffffff1663e2094eda33836040518363ffffffff1660e01b8152600401610d3d929190614de3565b600060405180830381600087803b158015610d5757600080fd5b505af1158015610d6b573d6000803e3d6000fd5b505050508060026000828254610d819190614c34565b92505081905550853373ffffffffffffffffffffffffffffffffffffffff167f0408e6e0b73daf4c873106e95fd067260fbff8bf9d1b499cad563d4480d45bac83604051610dcf9190613b1c565b60405180910390a35050505050610de46134b9565b50565b600460009054906101000a900473ffffffffffffffffffffffffffffffffffffffff1681565b60025481565b60088181548110610e2357600080fd5b906000526020600020016000915054906101000a900473ffffffffffffffffffffffffffffffffffffffff1681565b6000600960008373ffffffffffffffffffffffffffffffffffffffff1673ffffffffffffffffffffffffffffffffffffffff168152602001908152602001600020549050919050565b600760009054906101000a900473ffffffffffffffffffffffffffffffffffffffff1681565b610ec9613473565b60008111610f03576040517f2c5211c600000000000000000000000000000000000000000000000000000000815260040160405180910390fd5b601b82111580610f15575061016e8210155b15610f4c576040517f3f132b1200000000000000000000000000000000000000000000000000000000815260040160405180910390fd5b600a600085815260200190815260200160002060009054906101000a900460ff16610fa3576040517fbccd404300000000000000000000000000000000000000000000000000000000815260040160405180910390fd5b6000600d600086815260200190815260200160002090508060080154841115610ff8576040517fbc6072f100000000000000000000000000000000000000000000000000000000815260040160405180910390fd5b600084826007015461100a9190614e0c565b9050816006015481111561104a576040517fbc6072f100000000000000000000000000000000000000000000000000000000815260040160405180910390fd5b600460009054906101000a900473ffffffffffffffffffffffffffffffffffffffff1673ffffffffffffffffffffffffffffffffffffffff16639dc29fac33856040518363ffffffff1660e01b81526004016110a7929190614de3565b600060405180830381600087803b1580156110c157600080fd5b505af11580156110d5573d6000803e3d6000fd5b505050508082600701819055508082600601546110f29190614c34565b82600801819055508160070154826006015461110e9190614c34565b82600801819055506000600c60003373ffffffffffffffffffffffffffffffffffffffff1673ffffffffffffffffffffffffffffffffffffffff1681526020019081526020016000206000888152602001908152602001600020905060008160040154036113d0576040518061012001604052803373ffffffffffffffffffffffffffffffffffffffff1681526020018881526020018460020160009054906101000a900460ff1660038111156111c8576111c7613e1b565b5b81526020018460010180546111dc90614e6f565b80601f016020809104026020016040519081016040528092919081815260200182805461120890614e6f565b80156112555780601f1061122a57610100808354040283529160200191611255565b820191906000526020600020905b81548152906001019060200180831161123857829003601f168201915b505050505081526020018781526020016000815260200186815260200162015180876112819190614b92565b4261128c9190614e0c565b815260200160011515815250600c60003373ffffffffffffffffffffffffffffffffffffffff1673ffffffffffffffffffffffffffffffffffffffff168152602001908152602001600020600089815260200190815260200160002060008201518160000160006101000a81548173ffffffffffffffffffffffffffffffffffffffff021916908373ffffffffffffffffffffffffffffffffffffffff1602179055506020820151816001015560408201518160020160006101000a81548160ff0219169083600381111561136457611363613e1b565b5b0217905550606082015181600301908161137e9190615042565b506080820151816004015560a0820151816005015560c0820151816006015560e082015181600701556101008201518160080160006101000a81548160ff021916908315150217905550905050611402565b6040517f9857cbd900000000000000000000000000000000000000000000000000000000815260040160405180910390fd5b6000805b60088054905081101561149a573373ffffffffffffffffffffffffffffffffffffffff166008828154811061143e5761143d615114565b5b9060005260206000200160009054906101000a900473ffffffffffffffffffffffffffffffffffffffff1673ffffffffffffffffffffffffffffffffffffffff160361148d576001915061149a565b8080600101915050611406565b5080611504576008339080600181540180825580915050600190039060005260206000200160009091909190916101000a81548173ffffffffffffffffffffffffffffffffffffffff021916908373ffffffffffffffffffffffffffffffffffffffff1602179055505b6001600960003373ffffffffffffffffffffffffffffffffffffffff1673ffffffffffffffffffffffffffffffffffffffff16815260200190815260200160002060008282546115549190614e0c565b92505081905550846002600082825461156d9190614e0c565b925050819055503373ffffffffffffffffffffffffffffffffffffffff167f23b0f39e0762759ffb18632a1a2b79c9eb58571454e5f7c36e0a2f81759e0a3488878760020160009054906101000a900460ff166040516115cf93929190615143565b60405180910390a2505050506115e36134b9565b50505050565b6000600254905090565b6115fb6138e6565b600d6000838152602001908152602001600020604051806101600160405290816000820154815260200160018201805461163490614e6f565b80601f016020809104026020016040519081016040528092919081815260200182805461166090614e6f565b80156116ad5780601f10611682576101008083540402835291602001916116ad565b820191906000526020600020905b81548152906001019060200180831161169057829003601f168201915b505050505081526020016002820160009054906101000a900460ff1660038111156116db576116da613e1b565b5b60038111156116ed576116ec613e1b565b5b815260200160038201805461170190614e6f565b80601f016020809104026020016040519081016040528092919081815260200182805461172d90614e6f565b801561177a5780601f1061174f5761010080835404028352916020019161177a565b820191906000526020600020905b81548152906001019060200180831161175d57829003601f168201915b50505050508152602001600482015481526020016005820154815260200160068201548152602001600782015481526020016008820154815260200160098201548152602001600a820180546117cf90614e6f565b80601f01602080910402602001604051908101604052809291908181526020018280546117fb90614e6f565b80156118485780601f1061181d57610100808354040283529160200191611848565b820191906000526020600020905b81548152906001019060200180831161182b57829003601f168201915b5050505050815250509050919050565b600d60205280600052604060002060009150905080600001549080600101805461188190614e6f565b80601f01602080910402602001604051908101604052809291908181526020018280546118ad90614e6f565b80156118fa5780601f106118cf576101008083540402835291602001916118fa565b820191906000526020600020905b8154815290600101906020018083116118dd57829003601f168201915b5050505050908060020160009054906101000a900460ff169080600301805461192290614e6f565b80601f016020809104026020016040519081016040528092919081815260200182805461194e90614e6f565b801561199b5780601f106119705761010080835404028352916020019161199b565b820191906000526020600020905b81548152906001019060200180831161197e57829003601f168201915b50505050509080600401549080600501549080600601549080600701549080600801549080600901549080600a0180546119d490614e6f565b80601f0160208091040260200160405190810160405280929190818152602001828054611a0090614e6f565b8015611a4d5780601f10611a2257610100808354040283529160200191611a4d565b820191906000526020600020905b815481529060010190602001808311611a3057829003601f168201915b505050505090508b565b60606000805b600f80549050811015611b06576000600f8281548110611a8057611a7f615114565b5b906000526020600020015490506000600c60008773ffffffffffffffffffffffffffffffffffffffff1673ffffffffffffffffffffffffffffffffffffffff1681526020019081526020016000206000838152602001908152602001600020600401541115611af8578280611af49061517a565b9350505b508080600101915050611a5d565b5060008167ffffffffffffffff811115611b2357611b22614351565b5b604051908082528060200260200182016040528015611b5c57816020015b611b49613952565b815260200190600190039081611b415790505b5090506000805b600f80549050811015611df6576000600f8281548110611b8657611b85615114565b5b906000526020600020015490506000600c60008973ffffffffffffffffffffffffffffffffffffffff1673ffffffffffffffffffffffffffffffffffffffff1681526020019081526020016000206000838152602001908152602001600020600401541115611de857600c60008873ffffffffffffffffffffffffffffffffffffffff1673ffffffffffffffffffffffffffffffffffffffff1681526020019081526020016000206000828152602001908152602001600020604051806101200160405290816000820160009054906101000a900473ffffffffffffffffffffffffffffffffffffffff1673ffffffffffffffffffffffffffffffffffffffff1673ffffffffffffffffffffffffffffffffffffffff168152602001600182015481526020016002820160009054906101000a900460ff166003811115611cd057611ccf613e1b565b5b6003811115611ce257611ce1613e1b565b5b8152602001600382018054611cf690614e6f565b80601f0160208091040260200160405190810160405280929190818152602001828054611d2290614e6f565b8015611d6f5780601f10611d4457610100808354040283529160200191611d6f565b820191906000526020600020905b815481529060010190602001808311611d5257829003601f168201915b50505050508152602001600482015481526020016005820154815260200160068201548152602001600782015481526020016008820160009054906101000a900460ff161515151581525050848481518110611dce57611dcd615114565b5b60200260200101819052508280611de49061517a565b9350505b508080600101915050611b63565b50819350505050919050565b611e0a6134c3565b611e14600061354a565b565b600080600360009054906101000a900473ffffffffffffffffffffffffffffffffffffffff1673ffffffffffffffffffffffffffffffffffffffff16634e05524484866040518363ffffffff1660e01b8152600401611e76929190614c68565b61012060405180830381865afa158015611e94573d6000803e3d6000fd5b505050506040513d601f19601f82011682018060405250810190611eb89190614db5565b9050600080600b60008773ffffffffffffffffffffffffffffffffffffffff1673ffffffffffffffffffffffffffffffffffffffff16815260200190815260200160002060008681526020019081526020016000205403611f1f578160c001519050611f73565b600b60008673ffffffffffffffffffffffffffffffffffffffff1673ffffffffffffffffffffffffffffffffffffffff16815260200190815260200160002060008581526020019081526020016000205490505b60004290508260e00151811115611f8c578260e0015190505b600061012c8383611f9d9190614c34565b611fa79190614c03565b90508094505050505092915050565b600a6020528060005260406000206000915054906101000a900460ff1681565b600b602052816000526040600020602052806000526040600020600091509150505481565b600760009054906101000a900473ffffffffffffffffffffffffffffffffffffffff1673ffffffffffffffffffffffffffffffffffffffff163373ffffffffffffffffffffffffffffffffffffffff161461208b576040517f08c379a000000000000000000000000000000000000000000000000000000000815260040161208290614953565b60405180910390fd5b612093613473565b80600c60008573ffffffffffffffffffffffffffffffffffffffff1673ffffffffffffffffffffffffffffffffffffffff168152602001908152602001600020600084815260200190815260200160002060040160008282546120f69190614c34565b9250508190555080600c60008573ffffffffffffffffffffffffffffffffffffffff1673ffffffffffffffffffffffffffffffffffffffff168152602001908152602001600020600084815260200190815260200160002060050160008282546121609190614e0c565b9250508190555061216f6134b9565b505050565b600360009054906101000a900473ffffffffffffffffffffffffffffffffffffffff1681565b6000600160009054906101000a900473ffffffffffffffffffffffffffffffffffffffff16905090565b6121cc6134c3565b6000806000600360009054906101000a900473ffffffffffffffffffffffffffffffffffffffff1673ffffffffffffffffffffffffffffffffffffffff1663068bcd8d856040518263ffffffff1660e01b815260040161222c9190613b1c565b600060405180830381865afa158015612249573d6000803e3d6000fd5b505050506040513d6000823e3d601f19601f820116820180604052508101906122729190614a39565b9650509550505093505088600381111561228f5761228e613e1b565b5b8360038111156122a2576122a1613e1b565b5b1415806122ae57508086115b156122e5576040517fd3c913ea00000000000000000000000000000000000000000000000000000000815260040160405180910390fd5b6000600d60008d815260200190815260200160002090506000670de0b6b3a76400006064670de0b6b3a76400008a61231d9190614b92565b6123279190614c03565b856123329190614b92565b61233c9190614c03565b9050808260070154111561237c576040517fd3c913ea00000000000000000000000000000000000000000000000000000000815260040160405180910390fd5b6000600360009054906101000a900473ffffffffffffffffffffffffffffffffffffffff1673ffffffffffffffffffffffffffffffffffffffff16637eb111f0886040518263ffffffff1660e01b81526004016123d99190613b1c565b600060405180830381865afa1580156123f6573d6000803e3d6000fd5b505050506040513d6000823e3d601f19601f8201168201806040525081019061241f9190615408565b905060005b8151811015612508578d60405160200161243e919061548d565b6040516020818303038152906040528051906020012082828151811061246757612466615114565b5b602002602001015160200151604051602001612483919061548d565b604051602081830303815290604052805190602001201480156124c457508e8282815181106124b5576124b4615114565b5b60200260200101516000015114155b156124fb576040517fd202940c00000000000000000000000000000000000000000000000000000000815260040160405180910390fd5b8080600101915050612424565b506000836004015490508d8460010190816125239190615042565b508a8460030190816125359190615042565b508984600401819055508884600501819055508b84600a0190816125599190615042565b5082846006018190555087846009018190555083600701548361257c9190614c34565b8460080181905550898111156126315760008a8261259a9190614c34565b9050600360009054906101000a900473ffffffffffffffffffffffffffffffffffffffff1673ffffffffffffffffffffffffffffffffffffffff16639fd36b158a836040518363ffffffff1660e01b81526004016125f99291906154a4565b600060405180830381600087803b15801561261357600080fd5b505af1158015612627573d6000803e3d6000fd5b50505050506126db565b898110156126da576000818b6126479190614c34565b9050600360009054906101000a900473ffffffffffffffffffffffffffffffffffffffff1673ffffffffffffffffffffffffffffffffffffffff1663a4948d858a836040518363ffffffff1660e01b81526004016126a69291906154a4565b600060405180830381600087803b1580156126c057600080fd5b505af11580156126d4573d6000803e3d6000fd5b50505050505b5b600360009054906101000a900473ffffffffffffffffffffffffffffffffffffffff1673ffffffffffffffffffffffffffffffffffffffff1663a14764d089866040518363ffffffff1660e01b81526004016127389291906156fa565b600060405180830381600087803b15801561275257600080fd5b505af1158015612766573d6000803e3d6000fd5b505050508e7f758a67328ba53c1867c0272bbd2ca10d6fe71d37120188c523fe7ae7bdbbe4698f8f60405161279c92919061572a565b60405180910390a2505050505050505050505050505050565b60606000805b600f8054905081101561282e576000600f82815481106127de576127dd615114565b5b90600052602060002001549050600a600082815260200190815260200160002060009054906101000a900460ff161561282057828061281c9061517a565b9350505b5080806001019150506127bb565b5060008167ffffffffffffffff81111561284b5761284a614351565b5b60405190808252806020026020018201604052801561288457816020015b6128716138e6565b8152602001906001900390816128695790505b5090506000805b600f80549050811015612b72576000600f82815481106128ae576128ad615114565b5b90600052602060002001549050600a600082815260200190815260200160002060009054906101000a900460ff1615612b6457600d6000828152602001908152602001600020604051806101600160405290816000820154815260200160018201805461291a90614e6f565b80601f016020809104026020016040519081016040528092919081815260200182805461294690614e6f565b80156129935780601f1061296857610100808354040283529160200191612993565b820191906000526020600020905b81548152906001019060200180831161297657829003601f168201915b505050505081526020016002820160009054906101000a900460ff1660038111156129c1576129c0613e1b565b5b60038111156129d3576129d2613e1b565b5b81526020016003820180546129e790614e6f565b80601f0160208091040260200160405190810160405280929190818152602001828054612a1390614e6f565b8015612a605780601f10612a3557610100808354040283529160200191612a60565b820191906000526020600020905b815481529060010190602001808311612a4357829003601f168201915b50505050508152602001600482015481526020016005820154815260200160068201548152602001600782015481526020016008820154815260200160098201548152602001600a82018054612ab590614e6f565b80601f0160208091040260200160405190810160405280929190818152602001828054612ae190614e6f565b8015612b2e5780601f10612b0357610100808354040283529160200191612b2e565b820191906000526020600020905b815481529060010190602001808311612b1157829003601f168201915b505050505081525050848481518110612b4a57612b49615114565b5b60200260200101819052508280612b609061517a565b9350505b50808060010191505061288b565b5081935050505090565b60096020528060005260406000206000915090505481565b612b9c6134c3565b6000612baa86838987613610565b9050600360009054906101000a900473ffffffffffffffffffffffffffffffffffffffff1673ffffffffffffffffffffffffffffffffffffffff1663a4948d8583866040518363ffffffff1660e01b8152600401612c099291906154a4565b600060405180830381600087803b158015612c2357600080fd5b505af1158015612c37573d6000803e3d6000fd5b50505050600e6000815480929190612c4e9061517a565b919050555060006040518061016001604052808b8152602001888152602001896003811115612c8057612c7f613e1b565b5b8152602001878152602001868152602001858152602001838152602001600081526020018381526020018481526020018a815250905080600d60008c8152602001908152602001600020600082015181600001556020820151816001019081612ce99190615042565b5060408201518160020160006101000a81548160ff02191690836003811115612d1557612d14613e1b565b5b02179055506060820151816003019081612d2f9190615042565b506080820151816004015560a0820151816005015560c0820151816006015560e082015181600701556101008201518160080155610120820151816009015561014082015181600a019081612d849190615042565b50905050600f8a9080600181540180825580915050600190039060005260206000200160009091909190915055600360009054906101000a900473ffffffffffffffffffffffffffffffffffffffff1673ffffffffffffffffffffffffffffffffffffffff1663c7aa987484836040518363ffffffff1660e01b8152600401612e0e92919061575a565b600060405180830381600087803b158015612e2857600080fd5b505af1158015612e3c573d6000803e3d6000fd5b505050506001600a60008c815260200190815260200160002060006101000a81548160ff021916908315150217905550897f5928d65cc6ae9f07a7673f1a5a2f98d81f1bb0c2bc53bcaa33d6f11cf426f25e888a604051612e9e92919061572a565b60405180910390a250505050505050505050565b600560009054906101000a900473ffffffffffffffffffffffffffffffffffffffff1681565b600660009054906101000a900473ffffffffffffffffffffffffffffffffffffffff1681565b600c602052816000526040600020602052806000526040600020600091509150508060000160009054906101000a900473ffffffffffffffffffffffffffffffffffffffff16908060010154908060020160009054906101000a900460ff1690806003018054612f6d90614e6f565b80601f0160208091040260200160405190810160405280929190818152602001828054612f9990614e6f565b8015612fe65780601f10612fbb57610100808354040283529160200191612fe6565b820191906000526020600020905b815481529060010190602001808311612fc957829003601f168201915b5050505050908060040154908060050154908060060154908060070154908060080160009054906101000a900460ff16905089565b613023613473565b6000600190505b600f805490508110156131db576000600f828154811061304d5761304c615114565b5b906000526020600020015490506000600c60008573ffffffffffffffffffffffffffffffffffffffff1673ffffffffffffffffffffffffffffffffffffffff168152602001908152602001600020600083815260200190815260200160002090508060080160009054906101000a900460ff1680156130cf5750806007015442115b156131cc5760008160080160006101000a81548160ff021916908315150217905550600c60008573ffffffffffffffffffffffffffffffffffffffff1673ffffffffffffffffffffffffffffffffffffffff1681526020019081526020016000206000838152602001908152602001600020600080820160006101000a81549073ffffffffffffffffffffffffffffffffffffffff021916905560018201600090556002820160006101000a81549060ff021916905560038201600061319591906139c8565b60048201600090556005820160009055600682016000905560078201600090556008820160006101000a81549060ff021916905550505b5050808060010191505061302a565b506131e46134b9565b50565b6131ef613952565b600c60008473ffffffffffffffffffffffffffffffffffffffff1673ffffffffffffffffffffffffffffffffffffffff1681526020019081526020016000206000838152602001908152602001600020604051806101200160405290816000820160009054906101000a900473ffffffffffffffffffffffffffffffffffffffff1673ffffffffffffffffffffffffffffffffffffffff1673ffffffffffffffffffffffffffffffffffffffff168152602001600182015481526020016002820160009054906101000a900460ff1660038111156132d0576132cf613e1b565b5b60038111156132e2576132e1613e1b565b5b81526020016003820180546132f690614e6f565b80601f016020809104026020016040519081016040528092919081815260200182805461332290614e6f565b801561336f5780601f106133445761010080835404028352916020019161336f565b820191906000526020600020905b81548152906001019060200180831161335257829003601f168201915b50505050508152602001600482015481526020016005820154815260200160068201548152602001600782015481526020016008820160009054906101000a900460ff161515151581525050905092915050565b6133cb6134c3565b600073ffffffffffffffffffffffffffffffffffffffff168173ffffffffffffffffffffffffffffffffffffffff160361343d5760006040517f1e4fbdf70000000000000000000000000000000000000000000000000000000081526004016134349190613ccd565b60405180910390fd5b6134468161354a565b50565b600f818154811061345957600080fd5b906000526020600020016000915090505481565b600e5481565b6002600054036134af576040517f3ee5aeb500000000000000000000000000000000000000000000000000000000815260040160405180910390fd5b6002600081905550565b6001600081905550565b6134cb6138de565b73ffffffffffffffffffffffffffffffffffffffff166134e961219a565b73ffffffffffffffffffffffffffffffffffffffff16146135485761350c6138de565b6040517f118cdaa700000000000000000000000000000000000000000000000000000000815260040161353f9190613ccd565b60405180910390fd5b565b6000600160009054906101000a900473ffffffffffffffffffffffffffffffffffffffff16905081600160006101000a81548173ffffffffffffffffffffffffffffffffffffffff021916908373ffffffffffffffffffffffffffffffffffffffff1602179055508173ffffffffffffffffffffffffffffffffffffffff168173ffffffffffffffffffffffffffffffffffffffff167f8be0079c531659141344cd1fd0a4f28419497f9722a3daafe3b4186f6b6457e060405160405180910390a35050565b600080600360009054906101000a900473ffffffffffffffffffffffffffffffffffffffff1673ffffffffffffffffffffffffffffffffffffffff16637eb111f0866040518263ffffffff1660e01b815260040161366e9190613b1c565b600060405180830381865afa15801561368b573d6000803e3d6000fd5b505050506040513d6000823e3d601f19601f820116820180604052508101906136b49190615408565b905060005b815181101561377257866040516020016136d3919061548d565b604051602081830303815290604052805190602001208282815181106136fc576136fb615114565b5b602002602001015160200151604051602001613718919061548d565b6040516020818303038152906040528051906020012003613765576040517fd202940c00000000000000000000000000000000000000000000000000000000815260040160405180910390fd5b80806001019150506136b9565b506000806000600360009054906101000a900473ffffffffffffffffffffffffffffffffffffffff1673ffffffffffffffffffffffffffffffffffffffff1663068bcd8d896040518263ffffffff1660e01b81526004016137d39190613b1c565b600060405180830381865afa1580156137f0573d6000803e3d6000fd5b505050506040513d6000823e3d601f19601f820116820180604052508101906138199190614a39565b9650509550505093505086600381111561383657613835613e1b565b5b83600381111561384957613848613e1b565b5b14158061385557508086115b1561388c576040517fd3c913ea00000000000000000000000000000000000000000000000000000000815260040160405180910390fd5b6000670de0b6b3a76400006064670de0b6b3a7640000896138ad9190614b92565b6138b79190614c03565b846138c29190614b92565b6138cc9190614c03565b90508095505050505050949350505050565b600033905090565b60405180610160016040528060008152602001606081526020016000600381111561391457613913613e1b565b5b815260200160608152602001600081526020016000815260200160008152602001600081526020016000815260200160008152602001606081525090565b604051806101200160405280600073ffffffffffffffffffffffffffffffffffffffff168152602001600081526020016000600381111561399657613995613e1b565b5b815260200160608152602001600081526020016000815260200160008152602001600081526020016000151581525090565b5080546139d490614e6f565b6000825580601f106139e65750613a05565b601f016020900490600052602060002090810190613a049190613a08565b5b50565b5b80821115613a21576000816000905550600101613a09565b5090565b6000604051905090565b600080fd5b600080fd5b600073ffffffffffffffffffffffffffffffffffffffff82169050919050565b6000613a6482613a39565b9050919050565b613a7481613a59565b8114613a7f57600080fd5b50565b600081359050613a9181613a6b565b92915050565b6000819050919050565b613aaa81613a97565b8114613ab557600080fd5b50565b600081359050613ac781613aa1565b92915050565b60008060408385031215613ae457613ae3613a2f565b5b6000613af285828601613a82565b9250506020613b0385828601613ab8565b9150509250929050565b613b1681613a97565b82525050565b6000602082019050613b316000830184613b0d565b92915050565b600060208284031215613b4d57613b4c613a2f565b5b6000613b5b84828501613ab8565b91505092915050565b600081519050919050565b600082825260208201905092915050565b6000819050602082019050919050565b613b9981613a59565b82525050565b6000613bab8383613b90565b60208301905092915050565b6000602082019050919050565b6000613bcf82613b64565b613bd98185613b6f565b9350613be483613b80565b8060005b83811015613c15578151613bfc8882613b9f565b9750613c0783613bb7565b925050600181019050613be8565b5085935050505092915050565b60006020820190508181036000830152613c3c8184613bc4565b905092915050565b6000819050919050565b6000613c69613c64613c5f84613a39565b613c44565b613a39565b9050919050565b6000613c7b82613c4e565b9050919050565b6000613c8d82613c70565b9050919050565b613c9d81613c82565b82525050565b6000602082019050613cb86000830184613c94565b92915050565b613cc781613a59565b82525050565b6000602082019050613ce26000830184613cbe565b92915050565b600060208284031215613cfe57613cfd613a2f565b5b6000613d0c84828501613a82565b91505092915050565b60008060008060808587031215613d2f57613d2e613a2f565b5b6000613d3d87828801613ab8565b9450506020613d4e87828801613ab8565b9350506040613d5f87828801613ab8565b9250506060613d7087828801613ab8565b91505092959194509250565b613d8581613a97565b82525050565b600081519050919050565b600082825260208201905092915050565b60005b83811015613dc5578082015181840152602081019050613daa565b60008484015250505050565b6000601f19601f8301169050919050565b6000613ded82613d8b565b613df78185613d96565b9350613e07818560208601613da7565b613e1081613dd1565b840191505092915050565b7f4e487b7100000000000000000000000000000000000000000000000000000000600052602160045260246000fd5b60048110613e5b57613e5a613e1b565b5b50565b6000819050613e6c82613e4a565b919050565b6000613e7c82613e5e565b9050919050565b613e8c81613e71565b82525050565b600061016083016000830151613eab6000860182613d7c565b5060208301518482036020860152613ec38282613de2565b9150506040830151613ed86040860182613e83565b5060608301518482036060860152613ef08282613de2565b9150506080830151613f056080860182613d7c565b5060a0830151613f1860a0860182613d7c565b5060c0830151613f2b60c0860182613d7c565b5060e0830151613f3e60e0860182613d7c565b50610100830151613f53610100860182613d7c565b50610120830151613f68610120860182613d7c565b50610140830151848203610140860152613f828282613de2565b9150508091505092915050565b60006020820190508181036000830152613fa98184613e92565b905092915050565b600082825260208201905092915050565b6000613fcd82613d8b565b613fd78185613fb1565b9350613fe7818560208601613da7565b613ff081613dd1565b840191505092915050565b61400481613e71565b82525050565b600061016082019050614020600083018e613b0d565b8181036020830152614032818d613fc2565b9050614041604083018c613ffb565b8181036060830152614053818b613fc2565b9050614062608083018a613b0d565b61406f60a0830189613b0d565b61407c60c0830188613b0d565b61408960e0830187613b0d565b614097610100830186613b0d565b6140a5610120830185613b0d565b8181036101408301526140b88184613fc2565b90509c9b505050505050505050505050565b600081519050919050565b600082825260208201905092915050565b6000819050602082019050919050565b60008115159050919050565b61410b816140f6565b82525050565b60006101208301600083015161412a6000860182613b90565b50602083015161413d6020860182613d7c565b5060408301516141506040860182613e83565b50606083015184820360608601526141688282613de2565b915050608083015161417d6080860182613d7c565b5060a083015161419060a0860182613d7c565b5060c08301516141a360c0860182613d7c565b5060e08301516141b660e0860182613d7c565b506101008301516141cb610100860182614102565b508091505092915050565b60006141e28383614111565b905092915050565b6000602082019050919050565b6000614202826140ca565b61420c81856140d5565b93508360208202850161421e856140e6565b8060005b8581101561425a578484038952815161423b85826141d6565b9450614246836141ea565b925060208a01995050600181019050614222565b50829750879550505050505092915050565b6000602082019050818103600083015261428681846141f7565b905092915050565b614297816140f6565b82525050565b60006020820190506142b2600083018461428e565b92915050565b6000806000606084860312156142d1576142d0613a2f565b5b60006142df86828701613a82565b93505060206142f086828701613ab8565b925050604061430186828701613ab8565b9150509250925092565b600061431682613c70565b9050919050565b6143268161430b565b82525050565b6000602082019050614341600083018461431d565b92915050565b600080fd5b600080fd5b7f4e487b7100000000000000000000000000000000000000000000000000000000600052604160045260246000fd5b61438982613dd1565b810181811067ffffffffffffffff821117156143a8576143a7614351565b5b80604052505050565b60006143bb613a25565b90506143c78282614380565b919050565b600067ffffffffffffffff8211156143e7576143e6614351565b5b6143f082613dd1565b9050602081019050919050565b82818337600083830152505050565b600061441f61441a846143cc565b6143b1565b90508281526020810184848401111561443b5761443a61434c565b5b6144468482856143fd565b509392505050565b600082601f83011261446357614462614347565b5b813561447384826020860161440c565b91505092915050565b6004811061448957600080fd5b50565b60008135905061449b8161447c565b92915050565b600080600080600080600080610100898b0312156144c2576144c1613a2f565b5b60006144d08b828c01613ab8565b985050602089013567ffffffffffffffff8111156144f1576144f0613a34565b5b6144fd8b828c0161444e565b975050604061450e8b828c0161448c565b965050606089013567ffffffffffffffff81111561452f5761452e613a34565b5b61453b8b828c0161444e565b955050608089013567ffffffffffffffff81111561455c5761455b613a34565b5b6145688b828c0161444e565b94505060a06145798b828c01613ab8565b93505060c061458a8b828c01613ab8565b92505060e061459b8b828c01613ab8565b9150509295985092959890939650565b600081519050919050565b600082825260208201905092915050565b6000819050602082019050919050565b6000610160830160008301516145f06000860182613d7c565b50602083015184820360208601526146088282613de2565b915050604083015161461d6040860182613e83565b50606083015184820360608601526146358282613de2565b915050608083015161464a6080860182613d7c565b5060a083015161465d60a0860182613d7c565b5060c083015161467060c0860182613d7c565b5060e083015161468360e0860182613d7c565b50610100830151614698610100860182613d7c565b506101208301516146ad610120860182613d7c565b506101408301518482036101408601526146c78282613de2565b9150508091505092915050565b60006146e083836145d7565b905092915050565b6000602082019050919050565b6000614700826145ab565b61470a81856145b6565b93508360208202850161471c856145c7565b8060005b85811015614758578484038952815161473985826146d4565b9450614744836146e8565b925060208a01995050600181019050614720565b50829750879550505050505092915050565b6000602082019050818103600083015261478481846146f5565b905092915050565b6000610120820190506147a2600083018c613cbe565b6147af602083018b613b0d565b6147bc604083018a613ffb565b81810360608301526147ce8189613fc2565b90506147dd6080830188613b0d565b6147ea60a0830187613b0d565b6147f760c0830186613b0d565b61480460e0830185613b0d565b61481261010083018461428e565b9a9950505050505050505050565b6000610120830160008301516148396000860182613b90565b50602083015161484c6020860182613d7c565b50604083015161485f6040860182613e83565b50606083015184820360608601526148778282613de2565b915050608083015161488c6080860182613d7c565b5060a083015161489f60a0860182613d7c565b5060c08301516148b260c0860182613d7c565b5060e08301516148c560e0860182613d7c565b506101008301516148da610100860182614102565b508091505092915050565b600060208201905081810360008301526148ff8184614820565b905092915050565b7f4e6f7420617574686f72697a6564000000000000000000000000000000000000600082015250565b600061493d600e83613fb1565b915061494882614907565b602082019050919050565b6000602082019050818103600083015261496c81614930565b9050919050565b6000614986614981846143cc565b6143b1565b9050828152602081018484840111156149a2576149a161434c565b5b6149ad848285613da7565b509392505050565b600082601f8301126149ca576149c9614347565b5b81516149da848260208601614973565b91505092915050565b6000815190506149f28161447c565b92915050565b600081519050614a0781613aa1565b92915050565b614a16816140f6565b8114614a2157600080fd5b50565b600081519050614a3381614a0d565b92915050565b600080600080600080600060e0888a031215614a5857614a57613a2f565b5b600088015167ffffffffffffffff811115614a7657614a75613a34565b5b614a828a828b016149b5565b9750506020614a938a828b016149e3565b9650506040614aa48a828b016149f8565b9550506060614ab58a828b016149f8565b9450506080614ac68a828b016149f8565b93505060a0614ad78a828b01614a24565b92505060c0614ae88a828b016149f8565b91505092959891949750929550565b7f496e76616c696420636f76657220636170616369747900000000000000000000600082015250565b6000614b2d601683613fb1565b9150614b3882614af7565b602082019050919050565b60006020820190508181036000830152614b5c81614b20565b9050919050565b7f4e487b7100000000000000000000000000000000000000000000000000000000600052601160045260246000fd5b6000614b9d82613a97565b9150614ba883613a97565b9250828202614bb681613a97565b91508282048414831517614bcd57614bcc614b63565b5b5092915050565b7f4e487b7100000000000000000000000000000000000000000000000000000000600052601260045260246000fd5b6000614c0e82613a97565b9150614c1983613a97565b925082614c2957614c28614bd4565b5b828204905092915050565b6000614c3f82613a97565b9150614c4a83613a97565b9250828203905081811115614c6257614c61614b63565b5b92915050565b6000604082019050614c7d6000830185613b0d565b614c8a6020830184613cbe565b9392505050565b600080fd5b600080fd5b600081519050614caa81613a6b565b92915050565b60028110614cbd57600080fd5b50565b600081519050614ccf81614cb0565b92915050565b60006101208284031215614cec57614ceb614c91565b5b614cf76101206143b1565b90506000614d0784828501614c9b565b6000830152506020614d1b848285016149f8565b6020830152506040614d2f848285016149f8565b6040830152506060614d43848285016149f8565b6060830152506080614d5784828501614cc0565b60808301525060a0614d6b848285016149f8565b60a08301525060c0614d7f848285016149f8565b60c08301525060e0614d93848285016149f8565b60e083015250610100614da8848285016149f8565b6101008301525092915050565b60006101208284031215614dcc57614dcb613a2f565b5b6000614dda84828501614cd5565b91505092915050565b6000604082019050614df86000830185613cbe565b614e056020830184613b0d565b9392505050565b6000614e1782613a97565b9150614e2283613a97565b9250828201905080821115614e3a57614e39614b63565b5b92915050565b7f4e487b7100000000000000000000000000000000000000000000000000000000600052602260045260246000fd5b60006002820490506001821680614e8757607f821691505b602082108103614e9a57614e99614e40565b5b50919050565b60008190508160005260206000209050919050565b60006020601f8301049050919050565b600082821b905092915050565b600060088302614f027fffffffffffffffffffffffffffffffffffffffffffffffffffffffffffffffff82614ec5565b614f0c8683614ec5565b95508019841693508086168417925050509392505050565b6000614f3f614f3a614f3584613a97565b613c44565b613a97565b9050919050565b6000819050919050565b614f5983614f24565b614f6d614f6582614f46565b848454614ed2565b825550505050565b600090565b614f82614f75565b614f8d818484614f50565b505050565b5b81811015614fb157614fa6600082614f7a565b600181019050614f93565b5050565b601f821115614ff657614fc781614ea0565b614fd084614eb5565b81016020851015614fdf578190505b614ff3614feb85614eb5565b830182614f92565b50505b505050565b600082821c905092915050565b600061501960001984600802614ffb565b1980831691505092915050565b60006150328383615008565b9150826002028217905092915050565b61504b82613d8b565b67ffffffffffffffff81111561506457615063614351565b5b61506e8254614e6f565b615079828285614fb5565b600060209050601f8311600181146150ac576000841561509a578287015190505b6150a48582615026565b86555061510c565b601f1984166150ba86614ea0565b60005b828110156150e2578489015182556001820191506020850194506020810190506150bd565b868310156150ff57848901516150fb601f891682615008565b8355505b6001600288020188555050505b505050505050565b7f4e487b7100000000000000000000000000000000000000000000000000000000600052603260045260246000fd5b60006060820190506151586000830186613b0d565b6151656020830185613b0d565b6151726040830184613ffb565b949350505050565b600061518582613a97565b91507fffffffffffffffffffffffffffffffffffffffffffffffffffffffffffffffff82036151b7576151b6614b63565b5b600182019050919050565b600067ffffffffffffffff8211156151dd576151dc614351565b5b602082029050602081019050919050565b600080fd5b6000610160828403121561520a57615209614c91565b5b6152156101606143b1565b90506000615225848285016149f8565b600083015250602082015167ffffffffffffffff81111561524957615248614c96565b5b615255848285016149b5565b6020830152506040615269848285016149e3565b604083015250606082015167ffffffffffffffff81111561528d5761528c614c96565b5b615299848285016149b5565b60608301525060806152ad848285016149f8565b60808301525060a06152c1848285016149f8565b60a08301525060c06152d5848285016149f8565b60c08301525060e06152e9848285016149f8565b60e0830152506101006152fe848285016149f8565b61010083015250610120615314848285016149f8565b6101208301525061014082015167ffffffffffffffff81111561533a57615339614c96565b5b615346848285016149b5565b6101408301525092915050565b6000615366615361846151c2565b6143b1565b90508083825260208201905060208402830185811115615389576153886151ee565b5b835b818110156153d057805167ffffffffffffffff8111156153ae576153ad614347565b5b8086016153bb89826151f3565b8552602085019450505060208101905061538b565b5050509392505050565b600082601f8301126153ef576153ee614347565b5b81516153ff848260208601615353565b91505092915050565b60006020828403121561541e5761541d613a2f565b5b600082015167ffffffffffffffff81111561543c5761543b613a34565b5b615448848285016153da565b91505092915050565b600081905092915050565b600061546782613d8b565b6154718185615451565b9350615481818560208601613da7565b80840191505092915050565b6000615499828461545c565b915081905092915050565b60006040820190506154b96000830185613b0d565b6154c66020830184613b0d565b9392505050565b60008160001c9050919050565b6000819050919050565b60006154f76154f2836154cd565b6154da565b9050919050565b6000815461550b81614e6f565b6155158186613d96565b94506001821660008114615530576001811461554657615579565b60ff198316865281151560200286019350615579565b61554f85614ea0565b60005b8381101561557157815481890152600182019150602081019050615552565b808801955050505b50505092915050565b600060ff82169050919050565b60006155a261559d836154cd565b615582565b9050919050565b6000610160830160008084015490506155c1816154e4565b6155ce6000870182613d7c565b506001840185830360208701526155e583826154fe565b925050600284015490506155f88161558f565b6156056040870182613e83565b5060038401858303606087015261561c83826154fe565b9250506004840154905061562f816154e4565b61563c6080870182613d7c565b506005840154905061564d816154e4565b61565a60a0870182613d7c565b506006840154905061566b816154e4565b61567860c0870182613d7c565b5060078401549050615689816154e4565b61569660e0870182613d7c565b50600884015490506156a7816154e4565b6156b5610100870182613d7c565b50600984015490506156c6816154e4565b6156d4610120870182613d7c565b50600a84018583036101408701526156ec83826154fe565b925050819250505092915050565b600060408201905061570f6000830185613b0d565b818103602083015261572181846155a9565b90509392505050565b600060408201905081810360008301526157448185613fc2565b90506157536020830184613ffb565b9392505050565b600060408201905061576f6000830185613b0d565b81810360208301526157818184613e92565b9050939250505056fea2646970667358221220d4b3eb572c9e3b18be47e835d00e010644efc7d6fb3574e25ee4a849bb5e8eed64736f6c63430008180033",
  "linkReferences": {},
  "deployedLinkReferences": {}
}